:020000040800F2
:1000000000300020ED160008111400081714000835
:100010001D14000823140008291400080000000023
:100020000000000000000000000000002F14000885
:100030003D140008000000004B140008591400088B
:10004000411700084117000841170008651400080F
:100050004117000841170008411700084117000820
:100060004117000841170008411700084117000810
:100070004117000841170008411700084117000800
:100080004117000841170008411700080000000050
:100090000000000041170008411700084117000840
:1000A00041170008411700084117000841170008D0
:1000B00041170008411700084117000841170008C0
:1000C00000000000000000004117000800000000D0
:1000D0004117000841170008000000004117000800
:1000E00041170008411700080000000041170008F0
:1000F000791400088D140008A114000841170008A5
:10010000411700080000000000000000000000008F
:1001100041170008411700084117000800000000BF
:1001200000000000000000000000000000000000CF
:0C01300000000000000000004117000863
:1001400010B5054C237833B9044B13B10448AFF311
:1001500000800123237010BDD801002000000000A2
:10016000A46F000808B5034B1BB103490348AFF364
:10017000008008BD00000000DC010020A46F000822
:1001800001F0FF01102A2BDB10F0070F08D010F848
:10019000013B013A8B422DD010F0070F42B3F6D14C
:1001A000F0B441EA012141EA014122F007047FF065
:1001B00000070023F0E80256083C85EA010586EABC
:1001C000010685FA47F5A3FA87F586FA47F6A5FAF8
:1001D00087F68EB9EED1F0BC01F0FF0102F0070204
:1001E00032B110F8013B013A83EA010313B1F8D1AF
:1001F0000020704701387047002D06BF3546033890
:10020000073815F0010F07D1013015F4807F02BFC8
:10021000013015F4C03F0130F0BC0138704700BF19
:10022000034613F8012B002AFBD1181A0138704736
:1002300081F0004102E000BF83F0004330B54FEA97
:1002400041044FEA430594EA050F08BF90EA020F04
:100250001FBF54EA000C55EA020C7FEA645C7FEA97
:10026000655C00F0E2804FEA5454D4EB5555B8BFBA
:100270006D420CDD2C4480EA020281EA030382EA2B
:10028000000083EA010180EA020281EA0303362DBD
:1002900088BF30BD11F0004F4FEA01314FF4801C90
:1002A0004CEA113102D0404261EB410113F0004FA2
:1002B0004FEA03334CEA133302D0524263EB430359
:1002C00094EA050F00F0A780A4F10104D5F1200EF7
:1002D0000DDB02FA0EFC22FA05F2801841F1000152
:1002E00003FA0EF2801843FA05F359410EE0A5F126
:1002F00020050EF1200E012A03FA0EFC28BF4CF057
:10030000020C43FA05F3C01851EBE37101F000450C
:1003100007D54FF0000EDCF1000C7EEB00006EEB19
:100320000101B1F5801F1BD3B1F5001F0CD34908A3
:100330005FEA30004FEA3C0C04F101044FEA4452FA
:1003400012F5800F80F09A80BCF1004F08BF5FEA81
:10035000500C50F1000041EB045141EA050130BD61
:100360005FEA4C0C404141EB0101013C28BFB1F573
:10037000801FE9D291F0000F04BF01460020B1FABE
:1003800081F308BF2033A3F10B03B3F120020CDA91
:100390000C3208DD02F1140CC2F10C0201FA0CF06F
:1003A00021FA02F10CE002F11402D8BFC2F1200CD4
:1003B00001FA02F120FA0CFCDCBF41EA0C0190408A
:1003C000E41AA2BF01EB0451294330BD6FEA0404D3
:1003D0001F3C1CDA0C340EDC04F11404C4F12002BE
:1003E00020FA04F001FA02F340EA030021FA04F3D0
:1003F00045EA030130BDC4F10C04C4F1200220FA27
:1004000002F001FA04F340EA0300294630BD21FA64
:1004100004F0294630BD94F0000F83F4801306BF2A
:1004200081F480110134013D4EE77FEA645C18BF1E
:100430007FEA655C29D094EA050F08BF90EA020FB5
:1004400005D054EA000C04BF1946104630BD91EAAD
:10045000030F1EBF0021002030BD5FEA545C05D1B0
:100460004000494128BF41F0004130BD14F58004EF
:100470003CBF01F5801130BD01F0004545F0FE4163
:1004800041F470014FF0000030BD7FEA645C1ABF98
:10049000194610467FEA655C1CBF0B46024650EACF
:1004A000013406BF52EA033591EA030F41F40021FB
:1004B00030BD00BF90F0000F04BF0021704730B581
:1004C0004FF4806404F132044FF000054FF0000156
:1004D00050E700BF90F0000F04BF0021704730B517
:1004E0004FF4806404F1320410F0004548BF4042EC
:1004F0004FF000013EE700BF42004FEAE2014FEA41
:1005000031014FEA02701FBF12F07F4393F07F4F1B
:1005100081F06051704732F07F4208BF704793F01E
:100520007F4F04BF41F40021704730B54FF4607431
:1005300001F0004521F000411CE700BF50EA010234
:1005400008BF704730B54FF000050AE050EA0102DD
:1005500008BF704730B511F0004502D5404261EB4D
:1005600041014FF4806404F132045FEA915C3FF48E
:10057000D8AE4FF003025FEADC0C18BF03325FEA2B
:10058000DC0C18BF033202EBDC02C2F1200300FADC
:1005900003FC20FA02F001FA03FE40EA0E0021FA01
:1005A00002F11444BDE600BF70B54FF0FF0C4CF4EF
:1005B000E06C1CEA11541DBF1CEA135594EA0C0FA1
:1005C00095EA0C0F00F0DEF82C4481EA030621EADC
:1005D0004C5123EA4C5350EA013518BF52EA033517
:1005E00041F4801143F4801338D0A0FB02CE4FF0C9
:1005F0000005E1FB02E506F00042E0FB03E54FF0F9
:100600000006E1FB03569CF0000F18BF4EF0010EF0
:10061000A4F1FF04B6F5007F64F5407404D25FEAEC
:100620004E0E6D4146EB060642EAC62141EA55519F
:100630004FEAC52040EA5E504FEACE2EB4F1FD0CE1
:1006400088BFBCF5E06F1ED8BEF1004F08BF5FEA5F
:10065000500E50F1000041EB045170BD06F0004611
:1006600046EA010140EA020081EA0301B4EB5C04BE
:10067000C2BFD4EB0C0541EA045170BD41F48011B6
:100680004FF0000E013C00F3AB8014F1360FDEBFDB
:10069000002001F0004170BDC4F10004203C35DAB7
:1006A0000C341BDC04F11404C4F1200500FA05F33A
:1006B00020FA04F001FA05F240EA020001F00042DB
:1006C00021F0004110EBD37021FA04F642EB060151
:1006D0005EEA430E08BF20EAD37070BDC4F10C047B
:1006E000C4F1200500FA04F320FA05F001FA04F23F
:1006F00040EA020001F0004110EBD37041F100012B
:100700005EEA430E08BF20EAD37070BDC4F1200535
:1007100000FA05F24EEA020E20FA04F301FA05F29D
:1007200043EA020321FA04F001F0004121FA04F245
:1007300020EA020000EBD3705EEA430E08BF20EA15
:10074000D37070BD94F0000F0FD101F0004640004F
:1007500041EB010111F4801F08BF013CF7D041EAD1
:10076000060195F0000F18BF704703F000465200D5
:1007700043EB030313F4801F08BF013DF7D043EAA6
:100780000603704794EA0C0F0CEA135518BF95EA5C
:100790000C0F0CD050EA410618BF52EA4306D1D1E3
:1007A00081EA030101F000414FF0000070BD50EA02
:1007B000410606BF1046194652EA430619D094EA8C
:1007C0000C0F02D150EA013613D195EA0C0F05D176
:1007D00052EA03361CBF104619460AD181EA0301CA
:1007E00001F0004141F0FE4141F470014FF0000082
:1007F00070BD41F0FE4141F4780170BD70B54FF01D
:10080000FF0C4CF4E06C1CEA11541DBF1CEA13559C
:1008100094EA0C0F95EA0C0F00F0A7F8A4EB05047E
:1008200081EA030E52EA03354FEA013100F0888075
:100830004FEA03334FF0805545EA131343EA12633E
:100840004FEA022245EA111545EA10654FEA0026F3
:100850000EF000419D4208BF964244F1FD0404F5AC
:10086000407402D25B084FEA3202B61A65EB030508
:100870005B084FEA32024FF480104FF4002CB6EBC5
:10088000020E75EB030E22BFB61A754640EA0C0045
:100890005B084FEA3202B6EB020E75EB030E22BF85
:1008A000B61A754640EA5C005B084FEA3202B6EBC6
:1008B000020E75EB030E22BFB61A754640EA9C0085
:1008C0005B084FEA3202B6EB020E75EB030E22BF55
:1008D000B61A754640EADC0055EA060E18D04FEA13
:1008E000051545EA16754FEA06164FEAC30343EAB3
:1008F00052734FEAC2025FEA1C1CC0D111F4801F80
:100900000BD141EA00014FF000004FF0004CB6E778
:1009100011F4801F04BF01430020B4F1FD0C88BF17
:10092000BCF5E06F3FF6AFAEB5EB030C04BFB6EB22
:10093000020C5FEA500C50F1000041EB045170BD15
:100940000EF0004E4EEA113114EB5C04C2BFD4EB42
:100950000C0541EA045170BD41F480114FF0000EC6
:10096000013C90E645EA060E8DE60CEA135594EA42
:100970000C0F08BF95EA0C0F3FF43BAF94EA0C0F45
:100980000AD150EA01347FF434AF95EA0C0F7FF4BA
:1009900025AF104619462CE795EA0C0F06D152EA0E
:1009A00003353FF4FDAE1046194622E750EA4106F2
:1009B00018BF52EA43067FF4C5AE50EA41047FF403
:1009C0000DAF52EA43057FF4EBAE12E74FF0FF3C68
:1009D00006E000BF4FF0010C02E000BF4FF0010C39
:1009E0004DF804CD4FEA410C7FEA6C5C4FEA430CB2
:1009F00018BF7FEA6C5C1BD001B050EA410C0CBF01
:100A000052EA430C91EA030F02BF90EA020F002062
:100A1000704710F1000F91EA030F58BF994208BFC9
:100A200090422CBFD8176FEAE37040F00100704786
:100A30004FEA410C7FEA6C5C02D150EA013C07D1DD
:100A40004FEA430C7FEA6C5CD6D152EA033CD3D028
:100A50005DF8040B704700BF8446104662468C4622
:100A60001946634600E000BF01B5FFF7B7FF002855
:100A700048BF10F1000F01BD4DF808EDFFF7F4FF7E
:100A80000CBF012000205DF808FB00BF4DF808ED09
:100A9000FFF7EAFF34BF012000205DF808FB00BF2C
:100AA0004DF808EDFFF7E0FF94BF012000205DF84E
:100AB00008FB00BF4DF808EDFFF7CEFF94BF012003
:100AC00000205DF808FB00BF4DF808EDFFF7C4FFFC
:100AD00034BF012000205DF808FB00BF4FEA410C45
:100AE0007FEA6C5C02D150EA013C0AD14FEA430C28
:100AF0007FEA6C5C02D152EA033C02D14FF0000065
:100B000070474FF0010070474FEA410212F50012A2
:100B100015D211D56FF47873B3EB625212D94FEA44
:100B2000C12343F0004343EA505311F0004F23FA2E
:100B300002F018BF404270474FF00000704750EA83
:100B4000013005D111F0004008BF6FF00040704740
:100B50004FF00000704700BF53B94AB9002908BFE1
:100B600000281CBF4FF0FF314FF0FF3000F070B98C
:100B7000ADF1080C6DE904CE00F006F8DDF804E0F4
:100B8000DDE9022304B070472DE9F047089E0D46C9
:100B900004460F46002B4AD18A42944665D9B2FAE0
:100BA00082F343B102FA03FCC3F120029F4020FA12
:100BB00002F217439C404FEA1C4E1FFA8CF5B7FB1C
:100BC000FEF1220C0EFB117742EA074201FB05F011
:100BD00090420AD91CEB020201F1FF3780F01C8120
:100BE000904240F2198102396244121AA4B2B2FB57
:100BF000FEF00EFB102244EA024400FB05F5A5427C
:100C00000AD91CEB040400F1FF3280F00781A542F1
:100C100040F204816444023840EA0140641B002130
:100C20001EB1DC400023C6E90043BDE8F0878B42DB
:100C300008D9002E00F0ED800021C6E90005084625
:100C4000BDE8F087B3FA83F1002949D1AB4202D362
:100C5000824200F2F880841A65EB030201201746F5
:100C6000002EE2D0C6E90047DFE702B9FFDEB2FAA4
:100C700082F3002B40F090808A1A4FEA1C471FFA3B
:100C80008CFE0121B2FBF7F507FB1520220C42EA8E
:100C900000420EFB05F0904208D91CEB020205F160
:100CA000FF3802D2904200F2CB804546121AA4B21D
:100CB000B2FBF7F007FB102244EA02440EFB00FEF1
:100CC000A64508D91CEB040400F1FF3202D2A64568
:100CD00000F2BB801046A4EB0E0440EA05409FE7FB
:100CE000C1F120078B4022FA07FC4CEA030C05FAFD
:100CF00001F420FA07F3FD404FEA1C492343B5FBFA
:100D0000F9F81FFA8CFE09FB18551C0C44EA05443F
:100D100008FB0EF5A54202FA01F200FA01F00BD928
:100D20001CEB040408F1FF3A80F08880A54240F2F1
:100D30008580A8F102086444641B9DB2B4FBF9F3FA
:100D400009FB134445EA044403FB0EFEA64508D9FB
:100D50001CEB040403F1FF356CD2A6456AD9023BB3
:100D6000644443EA0843A3FB0295A4EB0E04AC429F
:100D7000C846AE4656D353D056B1B0EB080264EB2A
:100D80000E0404FA07F7CA40CC401743C6E90074C2
:100D900018460021BDE8F087C3F1200102FA03FCE8
:100DA00020FA01F225FA01F19D402A434FEA1C473F
:100DB0001FFA8CFEB1FBF7F007FB1015110C41EA8E
:100DC000054100FB0EF58D4204FA03F408D91CEB33
:100DD000010100F1FF382FD28D422DD90238614434
:100DE000491B92B2B1FBF7F507FB151142EA01422C
:100DF00005FB0EF1914208D91CEB020205F1FF3808
:100E000016D2914214D9023D6244521A45EA004179
:100E100038E73146304608E73946E6E61046FBE655
:100E20004845A9D2B9EB020865EB0C0E013BA3E7DC
:100E30004546EAE72B4694E74046D1E7D0467BE7B4
:100E4000023D624432E708460AE76444023842E75A
:100E5000704700BF80B483B000AF78604FF0B043FC
:100E6000D3F8903023F018024FF0B0417B68134361
:100E7000C1F8903000BF0C37BD465DF8047B704769
:100E800080B485B000AF78604FF0B043DA6C4FF0BB
:100E9000B0417B681343CB644FF0B043DA6C7B689E
:100EA0001340FB60FB6800BF1437BD465DF8047B50
:100EB0007047000080B582B000AF7860391D4FF0F8
:100EC000FF330122034802F027FE7B6818460837EB
:100ED000BD4680BD5402002080B500AF00F032FC5A
:100EE00000F030F800F07AF800F098F800F024F9FB
:100EF00000F0D6F800F0AEF800F0A4F80D4804F0C9
:100F0000A7F841F2883000F0A3FC00F0C5FC0121F5
:100F10004FF4804001F0DEF8074804F099F80748E4
:100F200004F096F80121064800F066FFFA2000F070
:100F30008FFCF4E7C06F0008D86F0008F06F00085E
:100F40000004004880B598B000AF07F11C034422AC
:100F50000021184604F0D1F83B4600221A605A607E
:100F60009A60DA601A615A619A6101F0A3F8002070
:100F7000FFF770FF0723FB614FF480333B620123CF
:100F80007B624FF48073BB624023FB6200237B646F
:100F900007F11C03184601F04DFC0346002B01D05D
:100FA00000F00EF96F233B6002237B600023BB60DF
:100FB0000023FB6000233B6100237B610023BB61B6
:100FC0003B460121184601F06BFF0346002B01D080
:100FD00000F0F6F800BF6037BD4680BD80B58CB02C
:100FE00000AF3B4630220021184604F086F84FF44B
:100FF00040533B604FF480437B620023BB6210236D
:10100000FB623B46184602F00DFB0346002B01D065
:1010100000F0D6F800BF3037BD4680BD80B500AFC8
:10102000064B074A1A60054800F024FF0346002BD0
:1010300001D000F0C5F800BF80BD00BFF401002062
:10104000000C005880B400AF00BFBD465DF8047BC3
:101050007047000080B500AF0F4B104A1A600E4B6E
:1010600000225A600C4B7F229A600B4BFF22DA6001
:10107000094B00221A61084B00229A61064B00229C
:101080005A61054802F0C4FB0346002B01D000F072
:1010900097F800BF80BD00BF30020020002800404C
:1010A00080B500AF224B234A1A60214B4FF4E13246
:1010B0005A601F4B00229A601D4B0022DA601C4BC5
:1010C00000221A611A4B0C225A61194B00229A61B4
:1010D000174B0022DA61164B00221A62144B0022D1
:1010E0005A62134B00229A62114802F0C5FC034673
:1010F000002B01D000F064F800210D4803F0B6F990
:101100000346002B01D000F05BF80021084803F0F3
:10111000EBF90346002B01D000F052F8044803F02D
:101120006CF90346002B01D000F04AF800BF80BDE7
:10113000540200200038014080B586B000AF3B1D4E
:1011400000221A605A609A60DA601A610420FFF780
:1011500097FE0120FFF794FE0220FFF791FE002288
:1011600003210A4800F030FE03237B600123BB60AB
:101170000023FB6000233B613B1D1946034800F040
:10118000BBFC00BF1837BD4680BD00BF000400484F
:1011900080B582B000AF7860FFF7D4FE00F08CFB22
:1011A00001220121044800F00FFE044803F050FF23
:1011B00000BF0837BD4680BD000400481C70000811
:1011C00080B400AF72B600BFFEE780B400AF4FF04E
:1011D000B043D3F890304FF0B04243F40043C2F82C
:1011E000903000BFBD465DF8047B704780B485B089
:1011F00000AF78604FF0B043DA6C4FF0B0417B68DD
:101200001343CB644FF0B043DA6C7B681340FB6050
:10121000FB6800BF1437BD465DF8047B704780B49F
:1012200085B000AF78604FF0B0431A6D4FF0B04119
:101230007B6813430B654FF0B0431A6D7B68134016
:10124000FB60FB6800BF1437BD465DF8047B704748
:1012500080B485B000AF78604FF0B0439A6D4FF026
:10126000B0417B6813438B654FF0B0439A6D7B6848
:101270001340FB60FB6800BF1437BD465DF8047B7C
:10128000704780B485B000AF78604FF0B0431A6EFD
:101290004FF0B0417B6813430B664FF0B0431A6EBA
:1012A0007B681340FB60FB6800BF1437BD465DF8E8
:1012B000047B704780B500AF4FF40020FFF7AFFF0D
:1012C000002200212E2000F0E2FB2E2000F0F9FB8E
:1012D00000BF80BD80B582B000AF78607B681B68BE
:1012E0000D4A934213D14FF48010FFF798FF00226C
:1012F00000212C2000F0CBFB2C2000F0E2FB002290
:1013000000212D2000F0C3FB2D2000F0DAFB00BFF0
:101310000837BD4680BD00BF000C005880B58EB0B8
:1013200000AF786007F1080330220021184603F06F
:10133000E4FE7B681B68124A93421DD14FF40063A0
:10134000BB604FF48073BB6207F10803184602F0DC
:1013500069F90346002B01D0FFF732FFFFF735FF95
:101360004FF48060FFF774FF00220021032000F09B
:101370008EFB032000F0A5FB00BF3837BD4680BDC3
:101380000028004080B594B000AF786007F13C03BE
:1013900000221A605A609A60DA601A6107F10C0341
:1013A00030220021184603F0A8FE7B681B68174A0C
:1013B000934226D10123FB6000233B6107F10C031C
:1013C000184602F02FF90346002B01D0FFF7F8FE74
:1013D0004FF48040FFF755FF0120FFF707FF4FF460
:1013E000C063FB6302233B6400237B640023BB6474
:1013F0000723FB6407F13C0319464FF0904000F0CF
:101400007BFB00BF5037BD4680BD00BF00380140A8
:1014100080B400AFFEE780B400AFFEE780B400AF59
:10142000FEE780B400AFFEE780B400AFFEE780B413
:1014300000AF00BFBD465DF8047B704780B400AFCD
:1014400000BFBD465DF8047B704780B400AF00BFAD
:10145000BD465DF8047B704780B500AF00F0CCF965
:1014600000BF80BD80B500AF024802F0BFFA00BFE8
:1014700080BD00BF3002002080B500AF024800F000
:1014800079FD00BF80BD00BFF401002080B500AF32
:10149000024800F021FD00BF80BD00BFF401002024
:1014A00080B500AF00F0C2FC00BF80BD80B400AFCB
:1014B00001231846BD465DF8047B704780B582B0B5
:1014C00000AF7860396003F06BFE034616221A60A5
:1014D0004FF0FF3318460837BD4680BD80B582B057
:1014E00000AF78604FF0FF317868FFF7E7FFFEE765
:1014F00080B586B000AFF860B9607A6000237B6188
:101500000AE0AFF300800146BB685A1CBA60CAB259
:101510001A707B6901337B617A697B689A42F0DBE0
:101520007B6818461837BD4680BD80B586B000AFD1
:10153000F860B9607A6000237B6109E0BB685A1CDF
:10154000BA601B781846FFF7B5FC7B6901337B61F5
:101550007A697B689A42F1DB7B6818461837BD468A
:1015600080BD80B483B000AF78604FF0FF33184681
:101570000C37BD465DF8047B704780B483B000AF84
:10158000786039603B684FF400525A600023184677
:101590000C37BD465DF8047B704780B483B000AF64
:1015A0007860012318460C37BD465DF8047B704710
:1015B00080B485B000AFF860B9607A600023184647
:1015C0001437BD465DF8047B7047000080B586B0D7
:1015D00000AF7860144A154BD31A7B617B693B617D
:1015E000134B1B68002B02D1114B124A1A60104B8F
:1015F0001A687B6813443A699A4207D203F0D0FD17
:1016000003460C221A604FF0FF3309E0084B1B68B9
:10161000FB60074B1A687B681344054A1360FB683C
:1016200018461837BD4680BD003000200004000079
:10163000E40200203804002080B400AF224BD3F82D
:101640008830214A43F47003C2F888304FF0B04329
:101650001B684FF0B04243F0010313604FF0B043FA
:101660004FF4E0229A604FF0B0431A684FF0B04157
:10167000164B13400B604FF0B043D3F894304FF04B
:10168000B04223F00503C2F894304FF0B043D3F8D2
:1016900098304FF0B04223F00103C2F898304FF079
:1016A000B0430B4ADA604FF0B0431B684FF0B042D2
:1016B00023F4802313604FF0B04300229A6100BFEF
:1016C000BD465DF8047B704700ED00E0FBFEF6FAD6
:1016D00000100422D458C4500433C4188C42F9D3E7
:1016E0007047036004308842FBD370470C4885463E
:1016F000FFF7A2FF0B480C490C4A0023FFF7EDFF50
:101700000B480C490023FFF7EEFF0B480B49002361
:10171000FFF7E9FF03F04AFDFFF7DEFBFEE70000FD
:101720000030002004000020D80100209C74000834
:10173000D80100203804002000000320000003200E
:10174000FEE7000080B582B000AF0023FB710C4BB8
:101750001B680B4A43F480731360032000F08CF97C
:101760000F2000F00FF80346002B02D00123FB717D
:1017700001E0FFF79FFDFB7918460837BD4680BDA5
:101780000040005880B584B000AF78600023FB7340
:10179000174B1B78002B24D001F02EFD0246144B72
:1017A0001B7819464FF47A73B3FBF1F3B2FBF3F3F2
:1017B000184600F094F90346002B0FD17B680F2BDD
:1017C00009D8002279684FF0FF3000F060F9094A2B
:1017D0007B68136007E00123FB7304E00123FB73C4
:1017E00001E00123FB73FB7B18461037BD4680BD2B
:1017F0000C0000200800002080B400AF064B1B78CE
:101800001A46064B1B681344044A136000BFBD46CA
:101810005DF8047B704700BF0C000020E802002048
:1018200080B400AF034B1B681846BD465DF8047BCF
:10183000704700BFE802002080B400AF034B1B6874
:101840001846BD465DF8047B704700BF08000020C5
:1018500080B584B000AF7860FFF7E2FFB8607B68C6
:10186000FB60FB68B3F1FF3F05D00A4B1B781A46BB
:10187000FB681344FB6000BFFFF7D2FF0246BB6862
:10188000D31AFA689A42F7D800BF00BF1037BD4696
:1018900080BD00BF0C00002080B400AF054B1B686A
:1018A000044A23F00203136000BFBD465DF8047BC9
:1018B000704700BF10E000E080B400AF054B1B682C
:1018C000044A43F00203136000BFBD465DF8047B89
:1018D000704700BF10E000E080B485B000AF7860D2
:1018E0007B6803F00703FB600C4BDB68BB60BA68E6
:1018F0004FF6FF031340BB60FB681A02BB6813433B
:1019000043F0BF6343F40033BB60044ABB68D36059
:1019100000BF1437BD465DF8047B704700ED00E062
:1019200080B400AF044BDB681B0A03F007031846C2
:10193000BD465DF8047B704700ED00E080B483B0E5
:1019400000AF0346FB7197F90730002B0BDBFB79E7
:1019500003F01F02074997F907305B09012000FADD
:1019600002F241F8232000BF0C37BD465DF8047B2E
:10197000704700BF00E100E080B483B000AF0346D1
:101980003960FB7197F90730002B0ADB3B68DAB24C
:101990000C4997F907301201D2B20B4483F80023A7
:1019A0000AE03B68DAB20849FB7903F00F03043B15
:1019B0001201D2B20B441A7600BF0C37BD465DF857
:1019C000047B704700E100E000ED00E080B489B0E6
:1019D00000AFF860B9607A60FB6803F00703FB6151
:1019E000FB69C3F10703042B28BF0423BB61FB6918
:1019F0000433062B02D9FB69033B00E000237B6123
:101A00004FF0FF32BB6902FA03F3DA43BB681A40B6
:101A10007B699A404FF0FF317B6901FA03F3D943A8
:101A20007B680B40134318462437BD465DF8047BA2
:101A30007047000080B582B000AF78607B68013BE2
:101A4000B3F1807F01D301230FE00A4A7B68013B99
:101A500053600F214FF0FF30FFF78EFF054B002240
:101A60009A60044B07221A60002318460837BD46C7
:101A700080BD00BF10E000E080B582B000AF7860AC
:101A80007868FFF729FF00BF0837BD4680BD80B5E5
:101A900086B000AF0346B9607A60FB73FFF740FF82
:101AA00078617A68B9687869FFF790FF024697F91C
:101AB0000F3011461846FFF75FFF00BF1837BD46CD
:101AC00080BD80B582B000AF0346FB7197F9073047
:101AD0001846FFF733FF00BF0837BD4680BD80B50D
:101AE00082B000AF78607868FFF7A4FF034618461D
:101AF0000837BD4680BD000080B487B000AF786075
:101B0000396000237B6146E13B681A6801217B69EB
:101B100001FA03F31340FB60FB68002B00F03881EF
:101B20003B685B6803F00303012B05D03B685B68EF
:101B300003F00303022B30D17B689B683B617B6918
:101B40005B00032202FA03F3DB433A6913403B6173
:101B50003B68DA687B695B0002FA03F33A69134376
:101B60003B617B683A699A607B685B683B610122F4
:101B70007B6902FA03F3DB433A6913403B613B683C
:101B80005B681B0903F001027B6902FA03F33A69FF
:101B900013433B617B683A695A603B685B6803F0BA
:101BA0000303032B17D07B68DB683B617B695B0019
:101BB000032202FA03F3DB433A6913403B613B68BB
:101BC0009A687B695B0002FA03F33A6913433B614D
:101BD0007B683A69DA603B685B6803F00303022BB9
:101BE00023D17B69DA087B68083253F822303B61E5
:101BF0007B6903F007039B000F2202FA03F3DB4328
:101C00003A6913403B613B681A697B6903F007033B
:101C10009B0002FA03F33A6913433B617B69DA08DC
:101C20007B680832396943F822107B681B683B6186
:101C30007B695B00032202FA03F3DB433A6913403A
:101C40003B613B685B6803F003027B695B0002FA5F
:101C500003F33A6913433B617B683A691A603B6856
:101C60005B6803F44033002B00F09280514A7B699B
:101C70009B08023352F823303B617B6903F0030376
:101C80009B000F2202FA03F3DB433A6913403B61E6
:101C90007B68B3F1904F13D07B68474A93420DD0D5
:101CA0007B68464A934207D07B68454A934201D1FC
:101CB000042306E0072304E0022302E0012300E0FE
:101CC00000237A6902F00302920093403A691343B9
:101CD0003B6138497B699B0802333A6941F823200C
:101CE000384B1B683B61FB68DB433A6913403B613F
:101CF0003B685B6803F48013002B03D03A69FB68F0
:101D000013433B612F4A3B6913602E4B5B683B6179
:101D1000FB68DB433A6913403B613B685B6803F453
:101D20000013002B03D03A69FB6813433B61254A3B
:101D30003B695360234BD3F880303B61FB68DB4346
:101D40003A6913403B613B685B6803F48033002BC6
:101D500003D03A69FB6813433B611A4A3B69C2F8F6
:101D60008030184BD3F884303B61FB68DB433A6921
:101D700013403B613B685B6803F40033002B03D0E6
:101D80003A69FB6813433B610E4A3B69C2F88430F1
:101D90007B6901337B613B681A687B6922FA03F334
:101DA000002B7FF4B1AE00BF00BF1C37BD465DF80D
:101DB000047B704700000140000400480008004810
:101DC000001000480008005880B483B000AF78606D
:101DD0000B467B8013467B707B78002B03D07A8880
:101DE0007B689A6102E07A887B689A6200BF0C3750
:101DF000BD465DF8047B704780B485B000AF786065
:101E00000B467B807B685B69FB607A88FB681340CC
:101E10001A04FB68D9437B880B401A437B689A619C
:101E200000BF1437BD465DF8047B704780B582B0B3
:101E300000AF0A4BDB687B60084B1A687B68DB43AA
:101E4000064913400B60054A7B685360786800F0D0
:101E500007F800BF0837BD4680BD00BF0015005819
:101E600080B483B000AF786000BF0C37BD465DF82A
:101E7000047B704780B584B000AF78600023FB73AB
:101E80007B68002B1ED0134BBB607B6893F8383007
:101E9000DBB2002B02D17868FFF71CFAB86800F0BB
:101EA000F5F8BB681B6843F00112BB681A607868DC
:101EB00000F0C6F87B6800225A637B68012283F831
:101EC000382001E00123FB73FB7B18461037BD4629
:101ED00080BD00BF000C005880B586B000AF7860B0
:101EE00000233B61224BFB60FB685B68DB4303F430
:101EF0007C137B61FB68DB681B04DB437A6913405E
:101F00007B612CE03B6903F00F031033012202FADE
:101F100003F3BB607A69BB681340002B1CD0FB68DD
:101F20005A68BB681A43FB685A607A683B69063393
:101F30009B0013445B68002B09D07A683B69063329
:101F40009B0013445B680022396978689847BB6836
:101F5000DB437A6913407B613B6901333B617B69F9
:101F6000002BCFD100BF00BF1837BD4680BD00BFDA
:101F7000000C005880B588B000AF78600023BB61CA
:101F8000204B7B61204B3B617B695B68DB4303F04B
:101F90003F03FB613B69DB68FA691340FB6129E0A1
:101FA000BB6903F00F03012202FA03F3FB60FA6935
:101FB000FB681340002B1AD07B695A68FB681A43F0
:101FC0007B695A607A68BB699B0013445B68002B8D
:101FD00008D07A68BB699B0013445B680122B96929
:101FE00078689847FB68DB43FA691340FB61BB697B
:101FF0000133BB61FB69002BD2D100BF00BF20378A
:10200000BD4680BD000C0058100C005880B485B04F
:1020100000AFF860B9601346FB7100BF1437BD46CE
:102020005DF8047B704780B485B000AFF860B9609C
:102030001346FB7100BF1437BD465DF8047B704743
:1020400080B485B000AF78600023FB600FE07A6851
:10205000FB689B0013440B4A5A607A68FB6806339E
:102060009B001344084A5A60FB680133FB60FB681D
:10207000052BECD900BF00BF1437BD465DF8047BCB
:10208000704700BF0D2000082720000880B483B0EF
:1020900000AF78607B6800221A607B684FF03F12C7
:1020A0005A607B683F229A6000BF0C37BD465DF8DE
:1020B000047B704780B400AF054B1B68044A43F4AF
:1020C0008073136000BFBD465DF8047B704700BF9E
:1020D0000004005880B582B000AF78600B46FB70FA
:1020E0007B68B3F5804F04D1FB78184600F034F8D4
:1020F00003E0FB78184600F005F800BF0837BD463E
:1021000080BD000080B483B000AF0346FB71104B6C
:102110001B680F4A23F0070313600E4B1B690D4A1F
:1021200043F004031361FB79012B01D130BF02E0BE
:1021300040BF20BF20BF074B1B69064A23F00403A2
:10214000136100BF0C37BD465DF8047B704700BFCC
:102150000004005800ED00E080B483B000AF0346F7
:10216000FB71114B1B6823F007030F4A43F0010377
:1021700013600E4B1B690D4A43F004031361FB7996
:10218000012B01D130BF02E040BF20BF20BF074B71
:102190001B69064A23F00403136100BF0C37BD46D8
:1021A0005DF8047B704700BF0004005800ED00E0BC
:1021B00080B400AF4FF0B0431B6803F48013B3F555
:1021C000801F01D1012300E000231846BD465DF8C1
:1021D000047B704780B400AF4FF0B0431B684FF0F2
:1021E000B04243F48033136000BFBD465DF8047B0A
:1021F000704780B400AF4FF0B0431B684FF0B0425F
:1022000023F48033136000BFBD465DF8047B704744
:1022100080B400AF4FF0B0431B6803F40033B3F554
:10222000003F01D1012300E000231846BD465DF8C0
:10223000047B704780B400AF4FF0B0431B684FF091
:10224000B04243F48073136000BFBD465DF8047B69
:10225000704780B400AF4FF0B0431B684FF0B042FE
:1022600023F48073136000BFBD465DF8047B7047A4
:1022700080B400AF4FF0B0431B6803F48063B3F544
:10228000806F01D1012300E000231846BD465DF8B0
:10229000047B704780B483B000AF78604FF0B043E8
:1022A0005B6823F0FE427B681B064FF0B04113438E
:1022B0004B6000BF0C37BD465DF8047B704780B4AF
:1022C00000AF4FF0B043D3F890304FF0B04243F03E
:1022D0000103C2F8903000BFBD465DF8047B704733
:1022E00080B400AF4FF0B043D3F890304FF0B0421D
:1022F00023F00103C2F8903000BFBD465DF8047BB7
:10230000704780B400AF4FF0B043D3F890304FF037
:10231000B04243F00403C2F8903000BFBD465DF800
:10232000047B704780B400AF4FF0B043D3F89030D7
:102330004FF0B04223F00403C2F8903000BFBD4616
:102340005DF8047B704780B400AF4FF0B043D3F822
:10235000903003F00203022B01D1012300E000239F
:102360001846BD465DF8047B704780B400AF4FF05F
:10237000B043D3F894304FF0B04243F00103C2F8B9
:10238000943000BFBD465DF8047B704780B400AF59
:102390004FF0B043D3F894304FF0B04223F0010334
:1023A000C2F8943000BFBD465DF8047B704780B42E
:1023B00000AF4FF0B043D3F8943003F00203022B88
:1023C00001D1012300E000231846BD465DF8047BDF
:1023D000704780B400AF4FF0B043D3F894304FF063
:1023E000B04243F00403C2F8943000BFBD465DF82C
:1023F000047B704780B400AF4FF0B043D3F8943003
:102400004FF0B04223F00403C2F8943000BFBD4641
:102410005DF8047B704780B400AF4FF0B043D3F851
:10242000943003F00803082B01D1012300E00023BE
:102430001846BD465DF8047B704780B483B000AF9A
:1024400078604FF0B043D3F8943023F470627B6827
:102450001B024FF0B0411343C1F8943000BF0C375A
:10246000BD465DF8047B704780B400AF4FF0B043C9
:102470001B684FF0B04243F00103136000BFBD463C
:102480005DF8047B704780B400AF4FF0B0431B6829
:102490004FF0B04223F00103136000BFBD465DF86A
:1024A000047B704780B400AF4FF0B0431B6803F06B
:1024B0000203022B01D1012300E000231846BD4690
:1024C0005DF8047B704780B483B000AF78604FF054
:1024D000B0431B6823F0F0024FF0B0417B68134318
:1024E0000B6000BF0C37BD465DF8047B704780B4BD
:1024F00083B000AF4FF0B0431B6803F0F0037B6084
:102500007B68B02B01D9B0237B607B6818460C3701
:10251000BD465DF8047B704780B483B000AF78603F
:102520004FF0B0435B6823F47F427B681B024FF09F
:10253000B04113434B6000BF0C37BD465DF8047BD0
:10254000704780B483B000AF78604FF0B0439B68B1
:1025500023F003024FF0B0417B6813438B6000BF50
:102560000C37BD465DF8047B704780B400AF4FF078
:10257000B0439B6803F00C031846BD465DF8047B2E
:10258000704780B483B000AF78604FF0B0439B6871
:1025900023F0F0024FF0B0417B6813438B6000BF23
:1025A0000C37BD465DF8047B704780B483B000AF44
:1025B00078604FF0B043D3F8083123F0F0024FF0C9
:1025C000B0417B681343C1F8083100BF0C37BD46EA
:1025D0005DF8047B704780B483B000AF78604FF043
:1025E000B043D3F8083123F00F027B681B094FF08A
:1025F000B0411343C1F8083100BF0C37BD465DF848
:10260000047B704780B483B000AF78604FF0B04374
:102610009B6823F4E0624FF0B0417B6813438B600A
:1026200000BF0C37BD465DF8047B704780B483B0B3
:1026300000AF78604FF0B0439B6823F460524FF0D6
:10264000B0417B6813438B6000BF0C37BD465DF81B
:10265000047B704780B400AF4FF0B0439B6803F039
:10266000F0031846BD465DF8047B704780B400AFA8
:102670004FF0B043D3F808311B0103F0F0031846C4
:10268000BD465DF8047B704780B400AF4FF0B043A7
:102690009B6803F4E0631846BD465DF8047B704711
:1026A00080B400AF4FF0B0439B6803F4605318460A
:1026B000BD465DF8047B704780B400AF4FF0B04377
:1026C0001B684FF0B04243F08073136000BFBD46FB
:1026D0005DF8047B704780B400AF4FF0B0431B68D7
:1026E0004FF0B04223F08073136000BFBD465DF829
:1026F000047B704780B400AF4FF0B0431B6803F019
:102700000073B3F1007F01D1012300E000231846DC
:10271000BD465DF8047B704780B400AF4FF0B04316
:10272000DB681B0A03F07F031846BD465DF8047B97
:10273000704780B400AF4FF0B043DB6803F06043F4
:102740001846BD465DF8047B704780B400AF4FF07B
:10275000B043DB6803F070031846BD465DF8047BA8
:10276000704780B400AF4FF0B043DB6803F0030361
:102770001846BD465DF8047B704780B400AF4FF04B
:10278000B0439B6803F48033B3F5803F01D101234C
:1027900000E000231846BD465DF8047B704780B416
:1027A00000AF4FF0B043D3F8083103F40033B3F572
:1027B000003F01D1012300E000231846BD465DF82B
:1027C000047B704780B400AF4FF0B043D3F80831BA
:1027D00003F48033B3F5803F01D1012300E00023EF
:1027E0001846BD465DF8047B704780B400AF4FF0DB
:1027F000B0439B6803F40033B3F5003F01D10123DC
:1028000000E000231846BD465DF8047B704780B4A5
:1028100000AF4FF0B0439B6803F48023B3F5802FE3
:1028200001D1012300E000231846BD465DF8047B7A
:102830007047000090B58DB000AF78607B68002BCA
:1028400001D1012324E37B681B6803F02003002BE4
:1028500000F08D80FFF789FEF862FFF782FFB86213
:10286000FB6A002B05D0FB6A0C2B47D1BB6A012BFE
:1028700044D17B68DB69002B01D1012308E37B682D
:102880005C6AFFF734FE03469C4214D97B685B6A9E
:10289000184600F0F1FC0346002B01D00123F7E2BB
:1028A0007B685B6A1846FFF70EFE7B681B6A18465A
:1028B000FFF732FE13E07B685B6A1846FFF703FE02
:1028C0007B681B6A1846FFF727FE7B685B6A184621
:1028D00000F0D2FC0346002B01D00123D8E200F027
:1028E0008BFC0346A44A1360A44B1B681846FEF7F2
:1028F00049FF0346002B39D00123C9E27B68DB691D
:10290000002B1ED0FFF7B0FDFEF78AFF786208E0CB
:10291000FEF786FF02467B6AD31A022B01D90323F6
:10292000B6E2FFF7BFFD0346002BF1D07B685B6A80
:102930001846FFF7C8FD7B681B6A1846FFF7ECFDD9
:1029400015E0FFF7A0FDFEF76BFF786208E0FEF7E9
:1029500067FF02467B6AD31A022B01D9032397E251
:10296000FFF7A0FD0346002BF1D100E000BF7B681C
:102970001B6803F00103002B47D0FFF7F6FD386218
:10298000FFF7EFFEF8613B6A082B05D03B6A0C2B82
:1029900008D1FB69032B05D17B685B68002B34D120
:1029A000012375E27B685B68B3F5803F02D1FFF7D6
:1029B00011FC01E0FFF71DFC7B685B68002B12D067
:1029C000FEF72EFF786208E0FEF72AFF02467B6AD8
:1029D000D31A642B01D903235AE2FFF719FC0346EB
:1029E000002BF1D011E0FEF71BFF786208E0FEF744
:1029F00017FF02467B6AD31A642B01D9032347E2EF
:102A0000FFF706FC0346002BF1D17B681B6803F03F
:102A10000203002B4CD0FFF7A8FDB861FFF7A1FE21
:102A20007861BB69042B05D0BB690C2B0ED17B6987
:102A3000022B0BD17B68DB68002B01D1012327E23D
:102A40007B681B691846FFF725FC31E07B68DB6873
:102A5000002B19D0FFF7EEFBFEF7E2FE786208E0EC
:102A6000FEF7DEFE02467B6AD31A022B01D903234E
:102A70000EE2FFF7FDFB0346002BF1D07B681B69DC
:102A80001846FFF707FC13E0FFF7E3FBFEF7C8FE6D
:102A9000786208E0FEF7C4FE02467B6AD31A022B76
:102AA00001D90323F4E1FFF7E3FB0346002BF1D147
:102AB0007B681B6803F00803002B06D17B681B684A
:102AC00003F01003002B00F0A3807B685B69002BF0
:102AD00076D07B681B6803F01003002B46D0FFF70D
:102AE00066FC0346002B13D1FFF73FFCFEF798FE70
:102AF000786208E0FEF794FE02467B6AD31A022B46
:102B000001D90323C4E1FFF752FC0346002BF1D0A7
:102B1000FFF75FFCFEF784FE786208E0FEF780FEB8
:102B200002467B6AD31A032B01D90323B0E1FFF7D6
:102B300072FC0346002BF1D07B689B691846FFF7B7
:102B40007CFCFFF723FCFEF76BFE786208E0FEF7E3
:102B500067FE02467B6AD31A022B01D9032397E151
:102B6000FFF725FC0346002BF1D151E0FFF7FDFBF9
:102B7000FEF756FE78620CE00400002008000020FA
:102B8000FEF74EFE02467B6AD31A022B01D90323BD
:102B90007EE1FFF70CFC0346002BF1D0FFF72AFC87
:102BA00008E0FEF73DFE02467B6AD31A032B01D9EB
:102BB00003236DE1FFF72FFC0346002BF1D127E043
:102BC000FFF718FCFEF72CFE786208E0FEF728FEFF
:102BD00002467B6AD31A032B01D9032358E1FFF77E
:102BE0001AFC0346002BF1D1FFF7D0FBFEF718FECD
:102BF000786208E0FEF714FE02467B6AD31A022BC5
:102C000001D9032344E1FFF7D2FB0346002BF1D1A6
:102C10007B681B6803F00403002B5BD09E4B1B6892
:102C200003F48073002B14D1FFF744FAFEF7F8FD8C
:102C3000786208E0FEF7F4FD02467B6AD31A022BA5
:102C400001D9032324E1944B1B6803F48073002B08
:102C5000F0D07B689B68012B02D1FFF730FB0CE0C2
:102C60007B689B68052B04D1FFF74BFBFFF727FB25
:102C700003E0FFF735FBFFF755FB7B689B68002BF4
:102C800014D0FEF7CDFD78620AE0FEF7C9FD0246DA
:102C90007B6AD31A41F28832934201D90323F7E0C9
:102CA000FFF751FB0346002BEFD013E0FEF7B8FD12
:102CB00078620AE0FEF7B4FD02467B6AD31A41F25D
:102CC0008832934201D90323E2E0FFF73CFB03463D
:102CD000002BEFD17B689B6A002B00F0D880FFF7B8
:102CE00044FC38614FF0B043DB68FB607B689B6A53
:102CF000022B40F0A680FB6803F003027B68DB6ACE
:102D00009A4223D1FB6803F070027B681B6B9A42E6
:102D10001CD1FB681B0A03F07F027B685B6B9A4245
:102D200014D1FB6803F478127B689B6B9A420DD137
:102D3000FB6803F060627B68DB6B9A4206D1FB683C
:102D400003F060427B681B6C9A4254D03B690C2BA9
:102D50004FD0FFF7C0FCFEF763FD786208E0FEF796
:102D60005FFD02467B6AD31A022B01D903238FE051
:102D70004FF0B0431B6803F00073002BEFD14FF00E
:102D8000B043DA68454B13407A68D16A7A68126BAF
:102D900011437A68526B120211437A68926B1143A5
:102DA0007A68D26B11437A68126C0A434FF0B041D3
:102DB0001343CB60FFF780FC4FF0B043DB684FF06C
:102DC000B04243F08053D360FEF72AFD786208E0FA
:102DD000FEF726FD02467B6AD31A022B01D9032394
:102DE00056E04FF0B0431B6803F00073002BEFD0A8
:102DF0004DE001234CE04FF0B0431B6803F000733B
:102E0000002B44D1FFF758FC4FF0B043DB684FF084
:102E1000B04243F08053D360FEF702FD786208E0D1
:102E2000FEF7FEFC02467B6AD31A022B01D903236C
:102E30002EE04FF0B0431B6803F00073002BEFD07F
:102E400025E03B690C2B20D0FFF745FCFEF7E8FCA2
:102E5000786208E0FEF7E4FC02467B6AD31A022B94
:102E600001D9032314E04FF0B0431B6803F0007353
:102E7000002BEFD14FF0B043DB684FF0B04223F0AE
:102E8000805323F00303D36001E0012300E000231B
:102E900018463437BD4690BD000400588C80C111DF
:102EA00080B584B000AF786039607B68002B01D1B9
:102EB00001232DE1984B1B6803F007033A689A42FF
:102EC0001BD9954B1B6823F0070293493B681343BA
:102ED0000B60FEF7A5FCF86008E0FEF7A1FC0246D7
:102EE000FB68D31A022B01D9032311E18A4B1B681B
:102EF00003F007033A689A42EFD17B681B6803F03E
:102F00000203002B16D07B689B681846FFF739FB3D
:102F1000FEF786FCF86008E0FEF782FC0246FB68DC
:102F2000D31A022B01D90323F2E0FFF726FC034654
:102F3000002BF1D07B681B6803F02003002B16D018
:102F40007B685B691846FFF730FBFEF769FCF860A9
:102F500008E0FEF765FC0246FB68D31A022B01D994
:102F60000323D5E0FFF71BFC0346002BF1D07B6861
:102F70001B6803F04003002B16D07B689B69184642
:102F8000FFF729FBFEF74CFCF86008E0FEF748FC71
:102F90000246FB68D31A022B01D90323B8E0FFF7DE
:102FA00011FC0346002BF1D07B681B6803F004037F
:102FB000002B16D07B68DB681846FFF723FBFEF773
:102FC0002FFCF86008E0FEF72BFC0246FB68D31AE2
:102FD000022B01D903239BE0FFF707FC0346002BDC
:102FE000F1D07B681B6803F00803002B17D07B68C7
:102FF0001B69DB001846FFF719FBFEF711FCF860B0
:1030000008E0FEF70DFC0246FB68D31A022B01D93B
:1030100003237DE0FFF7FBFB0346002BF1D07B6829
:103020001B6803F00103002B43D07B685B68022B15
:1030300006D1FFF7EDF80346002B1ED1012367E010
:103040007B685B68032B06D1FFF754FB0346002B1C
:1030500013D101235CE07B685B68002B06D1FFF78E
:1030600021FA0346002B08D1012351E0FFF700F9B4
:103070000346002B01D101234AE07B685B681846B8
:10308000FFF75FFAFEF7CCFBF8600AE0FEF7C8FB3B
:103090000246FB68D31A41F28832934201D90323D6
:1030A00036E0FFF762FA02467B685B689B009A4253
:1030B000ECD1194B1B6803F007033A689A421BD204
:1030C000154B1B6823F0070213493B6813430B6041
:1030D000FEF7A6FBF86008E0FEF7A2FB0246FB68DD
:1030E000D31A022B01D9032312E00B4B1B6803F008
:1030F00007033A689A42EFD100F07EF80346074A88
:103100001360FEF799FB03461846FEF73BFB0346A8
:1031100018461037BD4680BD00400058040000200E
:1031200090B585B000AFFFF720FA78607B68002B80
:103130000AD1FFF7DCF903461B0903F00F032B4A02
:1031400052F82330FB604BE07B68042B02D1284B04
:10315000FB6045E07B68082B0AD1FFF729F803469E
:10316000012B02D1224BFB603AE0224BFB6037E09F
:10317000FFF7F7FA38603B68022B03D03B68032B5C
:1031800003D00DE01A4BBB6015E0FFF711F80346C2
:10319000012B02D1164BBB600DE0164BBB600AE061
:1031A000FFF7A5F903461B0903F00F030F4A52F876
:1031B0002330BB6000BFFFF7AFFA0246BB6803FBDA
:1031C00002F4FFF7C2FA03461B090133B4FBF3F420
:1031D000FFF7AFFA03465B0F0133B4FBF3F3FB6079
:1031E000FB6818461437BD4690BD00BFB07000089C
:1031F0000024F4000048E80198B500AFFFF790FF05
:103200000446FFF727FA03461B0903F00F03034A9E
:1032100052F82330B4FBF3F3184698BD5070000801
:1032200098B500AFFFF7E8FF0446FFF72DFA034615
:103230001B0A03F00703044A52F8233003F01F036C
:1032400024FA03F3184698BD9070000898B500AFB3
:10325000FFF7D2FF0446FFF723FA0346DB0A03F029
:103260000703044A52F8233003F01F0324FA03F340
:10327000184698BD9070000880B584B000AF7860A3
:103280007B68B02B03D9144BDB6AFB6007E07B68DB
:103290001B0903F00F03104A52F82330FB60FFF7BD
:1032A000E5F903461B0903F00F030C4A52F82330DB
:1032B000FA68B2FBF3F3BB60BB68094AA2FB0323C5
:1032C0009B0C4FF40071184600F00CF803461846AA
:1032D0001037BD4680BD00BFB070000850700008B8
:1032E00083DE1B4390B58FB000AF78603960244B0C
:1032F00007F11C040FCB84E80F00224B07F10C04EC
:103300000FCB84E80F0000237B6300233B6313E0B3
:103310003B6B9B0038333B4453F81C3C7A689A4221
:1033200007D83B6B9B0038333B4453F82C3C7B6302
:1033300005E03B6B01333B633B6B032BE8D9124B3E
:103340001B6823F0070210497B6B13430B60FEF7E9
:1033500067FAF86208E0FEF763FA0246FB6AD31ADE
:10336000022B01D9032307E0074B1B6803F0070377
:103370007A6B9A42EFD1002318463C37BD4690BD88
:1033800030700008407000080040005880B400AF62
:103390004FF0B043D3F8903003F00103012B01D17B
:1033A000012300E000231846BD465DF8047B70470A
:1033B00080B400AF4FF0B043D3F8903003F0020375
:1033C000022B01D1012300E000231846BD465DF821
:1033D000047B704780B483B000AF78604FF0B04397
:1033E000D3F8943023F440424FF0B0417B6813434C
:1033F000C1F8943000BF0C37BD465DF8047B7047C0
:1034000080B483B000AF78604FF0B0435B6A23F0C4
:1034100003024FF0B0417B6813434B6200BF0C378F
:10342000BD465DF8047B704780B483B000AF786020
:103430004FF0B0435B6A23F030024FF0B0417B683D
:1034400013434B6200BF0C37BD465DF8047B7047E9
:1034500080B483B000AF78604FF0B043D3F88830C9
:1034600023F003024FF0B0417B681343C1F888306A
:1034700000BF0C37BD465DF8047B704780B483B055
:1034800000AF78604FF0B043D3F8883023F4406247
:103490004FF0B0417B681343C1F8883000BF0C3750
:1034A000BD465DF8047B704780B483B000AF7860A0
:1034B0004FF0B043D3F888207B681B0903F47F23C7
:1034C000DB431A407B681B0103F47F234FF0B041BC
:1034D0001343C1F8883000BF0C37BD465DF8047B4C
:1034E000704780B483B000AF78604FF0B043D3F83A
:1034F00088207B681B0C1B04DB431A407B681B0481
:103500004FF0B0411343C1F8883000BF0C37BD46BF
:103510005DF8047B704780B483B000AF78604FF0F3
:10352000B043D3F8883023F040424FF0B0417B687D
:103530001343C1F8883000BF0C37BD465DF8047BEB
:10354000704780B483B000AF78604FF0B043D3F8D9
:10355000883023F040624FF0B0417B681343C1F8DC
:10356000883000BF0C37BD465DF8047B704780B4DF
:1035700083B000AF78604FF0B043D3F8883023F0C9
:1035800040524FF0B0417B681343C1F8883000BF10
:103590000C37BD465DF8047B704780B483B000AF44
:1035A00078604FF0B043D3F8903023F440724FF07E
:1035B000B0417B681343C1F8903000BF0C37BD4663
:1035C0005DF8047B704780B400AF4FF0B043D3F890
:1035D000903003F440731846BD465DF8047B704795
:1035E00080B400AF4FF0B043D3F890304FF0B0420A
:1035F00043F48033C2F8903000BFBD465DF8047BD1
:10360000704780B400AF4FF0B043D3F890304FF024
:10361000B04223F48033C2F8903000BFBD465DF85D
:10362000047B704780B588B000AF78600023FB77DB
:103630000023BB777B681B6803F40063002B46D034
:10364000FFF7C1FFB8617B681B6ABA699A423CD038
:10365000FEF730FDBB69002B05D17B681B6A18465D
:10366000FFF79BFF2EE04FF0B043D3F890307B6123
:10367000FFF7B6FFFFF7C5FF7B6923F440727B6855
:103680001B6A13437B614FF0B0427B69C2F89030F4
:10369000FFF77CFE0346012B14D1FEF7C1F8386119
:1036A0000BE0FEF7BDF802463B69D31A41F28832BF
:1036B000934202D90323FB7704E0FFF779FE034628
:1036C000012BEED1FB7FBB7701E0FB7FBB777B68F3
:1036D0001B6803F00103002B04D07B685B6818466D
:1036E000FFF7B6FE7B681B6803F00203002B04D0D3
:1036F0007B689B681846FFF7C1FE7B681B6803F078
:103700001003002B04D07B681B691846FFF7E9FE05
:103710007B681B6803F02003002B04D07B685B6987
:103720001846FFF7DEFE7B681B6803F00403002BDE
:1037300004D07B68DB681846FFF7B6FE7B681B6821
:1037400003F40073002B2BD07B689B69B3F1804F8F
:1037500008D07B689B69B3F1004F03D07B689B69FD
:10376000002B05D17B689B691846FFF7D4FE0AE061
:103770007B689B6923F08053FB600020FFF7CBFE42
:10378000F868FFF7DEFE7B689B69B3F1C05F07D185
:103790004FF0B043DB684FF0B04243F08073D3602A
:1037A0007B681B6803F48063002B11D07B68DB69A6
:1037B0001846FFF7DCFE7B68DB69B3F1005F07D1D9
:1037C0004FF0B043DB684FF0B04243F48033D36036
:1037D0007B681B6803F48053002B04D07B685B6A12
:1037E0001846FFF7F7FD7B681B6803F40053002BB6
:1037F00009D07B68DB6A1846FFF716FE7B689B6A78
:103800001846FFF7FDFDBB7F18462037BD4680BD3B
:1038100080B582B000AF78607B68002B01D10123B6
:1038200090E07B6893F82130DBB2002B06D17B68F7
:10383000002283F820207868FDF770FD7B68022263
:1038400083F821207B681B68CA225A627B681B6848
:1038500053225A62786800F09FF80346002B09D083
:103860007B681B68FF225A627B68042283F8212050
:10387000012367E07B681B689B687A68126823F401
:10388000E00323F0400393607B681B6899687B68C2
:103890005A687B681B691A437B689B691A437B687B
:1038A0001B680A439A607B681B687A68D2681A6151
:1038B0007B681B6819697B689B681A047B681B68B6
:1038C0000A431A617B681B68DA687B681B6822F010
:1038D0008002DA607B681B68DA6C7B681B6822F008
:1038E0000202DA647B681B68D96C7B68DA697B68E2
:1038F0005B691A437B681B680A43DA647B681B6850
:103900009B6803F02003002B13D1786800F01EF8A9
:103910000346002B0DD07B681B68FF225A627B6830
:10392000042283F821207B68002283F820200123D1
:1039300008E07B681B68FF225A627B68012283F8DB
:103940002120002318460837BD4680BD80B584B0CD
:1039500000AF78607B681B68DA687B681B6822F0C0
:10396000A002DA60FDF75CFFF86009E0FDF758FFA0
:103970000246FB68D31AB3F57A7F01D9032307E027
:103980007B681B68DB6803F02003002BEED000236C
:1039900018461037BD4680BD80B584B000AF786052
:1039A0007B681B68DB6803F04003002B19D17B6840
:1039B0001B684FF0FF32DA60FDF732FFF86009E074
:1039C000FDF72EFF0246FB68D31AB3F57A7F01D9C3
:1039D000032307E07B681B68DB6803F04003002BD0
:1039E000EED0002318461037BD4680BD80B582B0AA
:1039F00000AF78607B681B68DB6803F48063002B92
:103A00000BD07868FDF7C4FB7B681B68DB68DAB213
:103A10007B681B6862F49062DA60064B4FF4002208
:103A2000DA607B68012283F8212000BF0837BD4699
:103A300080BD00BF0008005880B483B000AF78603C
:103A40004FF0B043D3F888207B68134018460C37FA
:103A5000BD465DF8047B704780B483B000AF7860EA
:103A60004FF0B043D3F888207B68134018460C37DA
:103A7000BD465DF8047B704780B582B000AF7860CA
:103A80007B68002B01D1012342E07B68D3F88430AE
:103A9000002B06D17B68002283F880207868FDF730
:103AA00071FC7B682422C3F884207B681B681A6839
:103AB0007B681B6822F001021A60786800F0C2F887
:103AC0000346012B01D1012322E07B689B6A002B76
:103AD00002D0786800F0DCFA7B681B685A687B6863
:103AE0001B6822F490425A607B681B689A687B6866
:103AF0001B6822F02A029A607B681B681A687B6840
:103B00001B6842F001021A60786800F063FB03460C
:103B100018460837BD4680BD80B58AB002AFF86050
:103B2000B9603B601346FB80FB68D3F88430202BE0
:103B300040F08380BB68002B02D0FB88002B01D1B2
:103B400001237BE0FB6893F88030012B01D1022335
:103B500074E0FB68012283F88020FB680022C3F830
:103B60008C20FB682122C3F88420FDF759FE786180
:103B7000FB68FA88A3F85420FB68FA88A3F856205B
:103B8000FB689B68B3F5805F08D1FB681B69002B5D
:103B900004D10023FB61BB68BB6103E0BB68FB6130
:103BA0000023BB61FB68002283F880202CE03B6887
:103BB00000937B6900228021F86800F056FB0346E1
:103BC000002B01D0032339E0FB69002B0BD1BB692B
:103BD0001B881A46FB681B68C2F308029A62BB691D
:103BE0000233BB6107E0FB691A78FB681B689A62C5
:103BF000FB690133FB61FB68B3F856309BB2013BB4
:103C00009AB2FB68A3F85620FB68B3F856309BB213
:103C1000002BCCD13B6800937B6900224021F868DF
:103C200000F023FB0346002B01D0032306E0FB68D2
:103C30002022C3F88420002300E002231846203706
:103C4000BD4680BD2DE9B04F8CB000AF7861002338
:103C500087F82A307B699A687B691B691A437B69FC
:103C60005B691A437B69DB691343FB627B691B68F1
:103C70001A68AF4B13407A691268F96A0B431360F4
:103C80007B691B685B6823F440517B69DA687B6958
:103C90001B680A435A607B699B69FB627B691B68EE
:103CA000A44A934204D07B691B6AFA6A1343FB62FD
:103CB0007B691B689B6823F06E4323F430637A6949
:103CC0001268F96A0B4393607B691B68DB6A23F017
:103CD0000F017B695A6A7B691B680A43DA627B6958
:103CE0001B68954A934225D10320FFF7A5FE0346A2
:103CF000032B1BD801A252F823F000BF0D3D000892
:103D00001D3D0008153D0008253D0008012387F8EA
:103D10002B3042E0022387F82B303EE0042387F863
:103D20002B303AE0082387F82B3036E0102387F851
:103D30002B3032E07B691B687E4A93422AD14FF4D4
:103D40004060FFF789FE0346B3F5406F1AD0B3F524
:103D5000406F1BD8B3F5006F0CD0B3F5006F15D8CA
:103D6000002B03D0B3F5806F08D00FE0002387F855
:103D70002B3012E0022387F82B300EE0042387F863
:103D80002B300AE0082387F82B3006E0102387F851
:103D90002B3002E0102387F82B307B691B68654AC3
:103DA000934240F0978097F82B30082B23D801A23C
:103DB00052F823F0D93D0008F73D0008E13D000826
:103DC000F73D0008E73D0008F73D0008F73D000813
:103DD000F73D0008EF3D0008FFF722FA786210E097
:103DE000564B7B620DE0FFF79BF9786209E04FF4D8
:103DF00000437B6205E000237B62012387F82A30C1
:103E000000BF7B6A002B00F02A817B695B6A4C4A09
:103E100032F813301A467B6AB3FBF2F3BB617B695D
:103E20005A6813465B001344BA699A4205D37B690A
:103E30005B681B03BA699A4203D9012387F82A30C9
:103E40000DE17B6A0022BB60FA607B695B6A3C4AD9
:103E500032F813309BB200223B607A60D7E900232E
:103E6000D7E90201FCF778FE02460B4610461946D8
:103E70004FF000024FF000030B0243EA106302020E
:103E800079694968490800200C46054612EB040888
:103E900043EB05097B695B6800229A4693465246CC
:103EA0005B4640464946FCF757FE02460B46134622
:103EB0003B623B6AB3F5407F08D33B6AB3F5801F92
:103EC00004D27B691B683A6ADA60C8E0012387F88C
:103ED0002A30C4E07B69DB69B3F5004F6DD197F8F8
:103EE0002B30013B072B2DD801A252F823F000BF45
:103EF000113F0008193F0008453F00081F3F000818
:103F0000453F0008453F0008453F0008273F00089F
:103F1000FFF79CF978621BE0084B7B6218E0FFF723
:103F2000FFF8786214E04FF400437B6210E000BFBA
:103F3000F369FFCF00800040003801400024F40006
:103F4000F070000800237B62012387F82A3000BF4D
:103F50007B6A002B00F083807B695B6A4A4A32F8F7
:103F600013301A467B6AB3FBF2F35A007B695B6835
:103F70005B081A447B695B68B2FBF3F33B623B6A04
:103F80000F2B16D93B6AB3F5803F12D23B6A9BB226
:103F900023F00F03FB833B6A5B089BB203F007032C
:103FA0009AB2FB8B1343FB837B691B68FA8BDA6045
:103FB00055E0012387F82A3051E097F82B30013B78
:103FC000072B22D801A252F823F000BFED3F0008D2
:103FD000F53F00080B400008FB3F00080B400008BD
:103FE0000B4000080B40000803400008FFF72EF9C3
:103FF000786210E0254B7B620DE0FFF791F8786264
:1040000009E04FF400437B6205E000237B6201235B
:1040100087F82A3000BF7B6A002B20D07B695B6A5F
:10402000194A32F813301A467B6AB3FBF2F27B6905
:104030005B685B081A447B695B68B2FBF3F33B6225
:104040003B6A0F2B08D93B6AB3F5803F04D27B69EA
:104050001B683A6ADA6002E0012387F82A307B693C
:104060000122A3F86A207B690122A3F868207B69FA
:1040700000221A677B6900225A6797F82A3018468F
:104080003037BD46BDE8B08FF07000080024F40062
:1040900080B483B000AF78607B689B6A03F0010353
:1040A000002B0AD07B681B685B6823F400317B68B7
:1040B000DA6A7B681B680A435A607B689B6A03F074
:1040C0000203002B0AD07B681B685B6823F48031F5
:1040D0007B681A6B7B681B680A435A607B689B6A23
:1040E00003F00403002B0AD07B681B685B6823F491
:1040F00080217B685A6B7B681B680A435A607B6827
:104100009B6A03F00803002B0AD07B681B685B687E
:1041100023F400417B689A6B7B681B680A435A60F2
:104120007B689B6A03F01003002B0AD07B681B6836
:104130009B6823F480517B68DA6B7B681B680A43B9
:104140009A607B689B6A03F02003002B0AD07B688F
:104150001B689B6823F400517B681A6C7B681B68A2
:104160000A439A607B689B6A03F04003002B1AD0D5
:104170007B681B685B6823F480117B685A6C7B68E2
:104180001B680A435A607B685B6CB3F5801F0AD1D9
:104190007B681B685B6823F4C0017B689A6C7B6852
:1041A0001B680A435A607B689B6A03F08003002BFC
:1041B0000AD07B681B685B6823F400217B68DA6C9B
:1041C0007B681B680A435A6000BF0C37BD465DF828
:1041D000047B704780B586B002AF78607B680022B0
:1041E000C3F88C20FDF71CFBF8607B681B681B681C
:1041F00003F00803082B0ED16FF07E430093FB6899
:1042000000224FF40011786800F02FF80346002BCD
:1042100001D0032325E07B681B681B6803F00403BF
:10422000042B0ED16FF07E430093FB6800224FF405
:104230008001786800F019F80346002B01D00323B1
:104240000FE07B682022C3F884207B682022C3F81B
:1042500088207B680022DA667B68002283F8802051
:10426000002318461037BD4680BD80B59CB000AF16
:10427000F860B9603B601346FB71A9E0BB6FB3F116
:10428000FF3F00F0A580FDF7CBFA02463B68D31A4A
:10429000BA6F9A4202D3BB6F002B40D1FB681B68F8
:1042A0003B653B6D53E8003FFB64FB6C23F4D0732C
:1042B0007B66FB681B681A467B6EFB65BA65B96D49
:1042C000FA6D41E800237B657B6D002BE6D1FB682E
:1042D0001B680833FB63FB6B53E8003FBB63BB6B9E
:1042E00023F001033B66FB681B6808333A6EBA642F
:1042F0007B64796CBA6C41E800233B643B6C002B17
:10430000E5D1FB682022C3F88420FB682022C3F893
:104310008820FB68002283F88020032369E0FB6883
:104320001B681B6803F00403002B51D0FB681B685B
:10433000DB6903F40063B3F5006F49D1FB681B68C8
:104340004FF400621A62FB681B68BB62BB6A53E8E9
:10435000003F7B627B6A23F4D073FB66FB681B68BB
:104360001A46FB6E7B633A63396B7A6B41E8002334
:10437000FB62FB6A002BE6D1FB681B6808337B619C
:104380007B6953E8003F3B613B6923F00103BB6657
:10439000FB681B680833BA6E3A62FB61F9693A6AD6
:1043A00041E80023BB61BB69002BE5D1FB682022FB
:1043B000C3F88420FB682022C3F88820FB682022F1
:1043C000C3F88C20FB68002283F88020032310E0D0
:1043D000FB681B68DA69BB681340BA689A420CBF75
:1043E00001230023DBB21A46FB799A423FF446AF21
:1043F000002318467037BD4680BD80B485B000AF3D
:1044000078607B6893F88030012B01D1022327E08C
:104410007B68012283F880207B682422C3F88420F3
:104420007B681B681B68FB607B681B681A687B687D
:104430001B6822F001021A60FB6823F00053FB6046
:104440007B6800225A667B681B68FA681A607B6882
:104450002022C3F884207B68002283F88020002378
:1044600018461437BD465DF8047B704780B584B0AC
:1044700000AF786039607B6893F88030012B01D100
:1044800002232DE07B68012283F880207B682422B0
:10449000C3F884207B681B681B68FB607B681B6813
:1044A0001A687B681B6822F001021A607B681B682F
:1044B0009B6823F060417B681B683A680A439A60F6
:1044C000786800F04FF87B681B68FA681A607B68B0
:1044D0002022C3F884207B68002283F880200023F8
:1044E00018461037BD4680BD80B584B000AF7860F7
:1044F00039607B6893F88030012B01D102232DE0D5
:104500007B68012283F880207B682422C3F8842002
:104510007B681B681B68FB607B681B681A687B688C
:104520001B6822F001021A607B681B689B6823F0FD
:1045300060617B681B683A680A439A60786800F09B
:1045400011F87B681B68FA681A607B682022C3F840
:1045500084207B68002283F88020002318461037CF
:10456000BD4680BD80B485B000AF78607B685B6E6F
:10457000002B08D17B680122A3F86A207B68012206
:10458000A3F8682031E00823FB730823BB737B6822
:104590001B689B685B0EDBB203F007037B737B68D1
:1045A0001B689B685B0FDBB203F007033B73BB7BAD
:1045B0003A7B11498A5C02FB03F33A7B0F498A5C20
:1045C00093FBF2F39AB27B68A3F86A20FB7B7A7BB9
:1045D00009498A5C02FB03F37A7B08498A5C93FBF6
:1045E000F2F39AB27B68A3F8682000BF1437BD4687
:1045F0005DF8047B704700BF087100081071000867
:104600002DE9FF4755EC104B002D0E4619462B4661
:10461000BBBF05F100431D4600232D230B700D9BEE
:10462000DDF830A0914623F02008BCBF2246144696
:10463000B8F1460F05D0B8F1450F00D1013602217F
:1046400000E0032103AB019302AB009345EC104B58
:104650005346324600F05CFEB8F1470F074602D1E0
:1046600019F0010F22D0B8F1460F07EB060910D15F
:104670003B78302B0AD10022002320462946FCF744
:10468000FBF918B9C6F10106CAF80060DAF8003083
:1046900099440022002320462946FCF7EDF908B191
:1046A000CDF80C903022039B4B4507D3039B0E9A09
:1046B000DB1B3846136004B0BDE8F087591C03913A
:1046C0001A70F0E7F7B503460029B8BF494203F86E
:1046D000022BB4BF2D222B22092942702ADD0DF1B5
:1046E000070217460A26944691FBF6F506FB1514B9
:1046F00030340CF8014C0C46632C02F1FF32294691
:10470000F1DC3031ACF1020402F8011C411C2246FC
:10471000BA420AD30DF10902A2EB0C02BC4288BFD7
:1047200000221344181A03B0F0BD12F8015B01F81F
:10473000015FEDE7302330318370C170031DF1E775
:104740002DE9F04F2DED028B8DB00C46DDF8608029
:1047500016461F46054600F0D9FCD0F800A050468A
:10476000FBF75EFD00230A9323680593D8F8003019
:1047700094F818B0073323F0070303F10802C8F8D0
:104780000020D3E9008929F000430793CDF8188071
:1047900008EE100AC4E91289DDE906019E4B4FF0CC
:1047A000FF32FCF79BF988BBDDE906019A4B4FF01D
:1047B000FF32FCF775F948BB00220023404649460A
:1047C000FCF764F910B12D2384F84330934A944BDD
:1047D000BBF1470F94BF9046984603232361059B86
:1047E00023F0040323604FF00009009733460BAA1F
:1047F0002146284600F0DAF9013040F090804FF071
:10480000FF300DB0BDEC028BBDE8F08F42464B4649
:1048100040464946FCF762F940B14B46002BBCBF0D
:104820002D2384F843307F4A7F4BD1E763680BF038
:10483000DF0206925A1C3FD106236360059B616824
:1048400043F48062002303930AABCDE901B309ABC3
:1048500049EC108B009322600DF123032846FFF7EB
:10486000CFFE069B0999472B804608D1C81C02DB66
:104870006368994241DDABF102035FFA83FBBBF150
:10488000650F20D801395A4604F150000991FFF70D
:1048900019FF0A9A1318012A8146236102DC226853
:1048A000D20701D5013323619DF82330002B9CD022
:1048B0002D2384F8433098E7069A472ABED1002B6F
:1048C000BCD10123B9E7BBF1660F18D10029636899
:1048D0000BDD216113B92268D00702D501330B44E7
:1048E0002361A1654FF00009DEE713B92268D20702
:1048F00001D50233F4E70123F2E74FF0670B0A9B7F
:10490000994205DB23682161D807EAD54B1CE7E70C
:104910000029D4BFC1F1020201221344E0E7236859
:104920005A0507D42369424631462846B847013024
:104930002CD164E7BBF1650F40F2E080D4E91201AD
:1049400000220023FCF798F8002834D0374A0123CE
:1049500031462846B84701303FF451AFDDE909231D
:104960009A4202DB2368D80710D518EE103A524657
:1049700031462846B84701303FF441AF4FF00008B8
:1049800004F11A090A9B013B434509DC23689B0794
:1049900000F10781E0680B9B9842B8BF184630E7EA
:1049A00001234A4631462846B84701303FF427AF35
:1049B00008F10108E6E7099B002B39DC1B4A0123BB
:1049C00031462846B84701303FF419AFDDE90932D6
:1049D000134302D12368D907D8D518EE103A5246AE
:1049E00031462846B84701303FF409AF4FF000097F
:1049F00004F11A0A099B5B424B4501DC0A9B92E7D2
:104A00000123524631462846B84701303FF4F7AEFD
:104A100009F10109EEE700BFFFFFEF7F1871000801
:104A20001C7100082071000824710008287100081A
:104A30000A9AA36D9A42A8BF1A46002A914637DC0B
:104A40004FF0000B29EAE97904F11A02A36D0593EE
:104A5000A3EB09035B4533DCDDE909239A423BDB29
:104A60002368DA0738D4DDE90932A2EB0309059B94
:104A7000D21A9145A8BF9146B9F1000F35DC4FF02D
:104A8000000829EAE97904F11A0ADDE909239B1AE9
:104A9000A3EB090343457FF779AF01235246314623
:104AA0002846B84701303FF4AAAE08F10108ECE708
:104AB0001346314642462846B8470130C0D19EE6EB
:104AC0000123314628460592B84701303FF497AE9E
:104AD000059A0BF1010BB9E718EE103A5246314630
:104AE0002846B8470130BED189E6059A4B46424474
:104AF00031462846B8470130C1D180E60A9A012ADA
:104B000001DCDB073AD50123424631462846B84747
:104B100001303FF474AE18EE103A52463146284642
:104B2000B84701303FF46BAED4E9120100220023F4
:104B3000DDF828A0FBF7A0FFD8B90AF1FF3308F190
:104B4000010231462846B84701300ED157E601230D
:104B5000524631462846B84701303FF450AE08F17E
:104B600001080A9B013B4345F1DC4B4604F150022E
:104B7000DAE64FF0000804F11A0AF2E70123424690
:104B8000DFE701234A4631462846B84701303FF463
:104B900036AE08F10108E3680B995B1A4345F0DC77
:104BA000F8E64FF0000804F11909F4E72DE9F047A1
:104BB000164699468A680B69DDF820809342B8BF93
:104BC0001346336091F8432007460C460AB101337F
:104BD00033602368990642BF336802333360256827
:104BE00015F0060506D104F1190AE36832689B1A2C
:104BF000AB4226DC94F84320131E226818BF012321
:104C000092062BD404F1430249463846C04701308E
:104C10001ED02368226903F00603042B02BFE56857
:104C20003368ED1AA3680CBF25EAE57500259342A9
:104C3000C4BF9B1AED1800261A34B5421AD10020C1
:104C400008E00123524649463846C047013003D1A7
:104C50004FF0FF30BDE8F0870135C6E7E1185A1C78
:104C6000302081F84300224494F8451082F8431024
:104C70000233C7E70123224649463846C047013080
:104C8000E6D00136D9E700002DE9FF470F7E0C9DE5
:104C9000782F914680460C469A4601F1430207D888
:104CA000622F0AD8002F00F0D480582F00F0C08067
:104CB00004F1420584F842703AE0A7F16303152B32
:104CC000F6D801A151F823F0214D0008354D000818
:104CD000B14C0008B14C0008B14C0008B14C0008C0
:104CE000354D0008B14C0008B14C0008B14C00082B
:104CF000B14C0008394E0008614D0008F34D000822
:104D0000B14C0008B14C00085B4E0008B14C0008E3
:104D1000614D0008B14C0008B14C0008FB4D000883
:104D20002B681A1D1B682A6004F1420584F8423082
:104D300001239FE020682B68070603F10401296026
:104D400001D51E6803E04606FBD5B3F90060002ECE
:104D500003DA2D23764284F843305A480A2312E0BE
:104D60002B682068191D2960050601D51E6802E020
:104D70004106FBD51E8853486F2F0CBF08230A231A
:104D8000002184F843106568A560002DA2BF21684A
:104D900021F0040121600EB9002D4BD01546B6FB61
:104DA000F3F103FB1167C75D05F8017D3746BB4290
:104DB0000E46F4D9082B0BD12368DE0708D52369EA
:104DC00061689942DEBF302305F8013C05F1FF35EB
:104DD000521B2261CDF800A04B4603AA2146404653
:104DE000FFF7E4FE01304AD14FF0FF3004B0BDE8D8
:104DF000F087236843F0200323603348782784F842
:104E00004570236829681F0651F8046B02D45F06B9
:104E100048BFB6B2DF0748BF43F02003296048BF50
:104E200023601EB9236823F0200323601023A7E723
:104E30002448E4E71546BDE72B6826686169181D1C
:104E4000286035061B6801D5196002E07006FBD5A5
:104E50001980002323611546BCE72B681A1D2A60C0
:104E60001D68626800212846FBF78AF908B1401BDB
:104E7000606063682361002384F84330AAE72369F4
:104E80002A4649464046D0470130ADD023689B07AB
:104E900013D4E068039B9842B8BF1846A6E70123E5
:104EA000324649464046D04701309DD00135E3683F
:104EB00003995B1AAB42F2DCEBE7002504F119061B
:104EC000F5E700BF2A7100083B710008002310B508
:104ED0000446C0E90033C0E904338360818143663E
:104EE000C2818361194608225C3000F006F90D4B3F
:104EF00063620D4BA3620D4BE3620D4B23630D4BBD
:104F000024629C4206D003F16802944202D0D0335E
:104F10009C4205D104F15800BDE8104000F06AB988
:104F200010BD00BF7550000897500008CF50000812
:104F3000F3500008EC020020024A0349034800F045
:104F400069B800BF10000020816B00081C00002021
:104F500041680C4B994210B5044601D001F010FE97
:104F6000A168094B994202D0204601F009FEE16890
:104F7000064B994204D02046BDE8104001F000BE27
:104F800010BD00BFEC02002054030020BC03002031
:104F900010B50B4B0B4C0C4A1A6020460022042122
:104FA000FFF794FF04F1680001220921FFF78EFF4B
:104FB00004F1D0000222BDE810401221FFF786BFA5
:104FC00024040020EC020020394F0008014800F0C2
:104FD00012B900BF2D040020014800F00DB900BF38
:104FE0002D04002010B50446FFF7F0FF236A1BB123
:104FF000BDE81040FFF7F0BF044B2362044B1B6871
:10500000002BF5D1FFF7C4FFF2E700BF514F0008B6
:10501000240400202DE9F84307468846144600265C
:10502000D4E90195B9F1010905D52468002CF7D11F
:105030003046BDE8F883AB89012B07D9B5F90E30AE
:10504000013303D029463846C04706436835E9E7AF
:105050000FB407B5064904AB086853F8042B816800
:10506000019301F0EDFB03B05DF804EB04B0704771
:105070006800002010B50C46B1F90E1000F06CF875
:105080000028ABBF636DA3891B1823F48053ACBF0A
:105090006365A38110BD2DE9F0411F468B89DB05B7
:1050A00005460C46164605D5B1F90E10022300221E
:1050B00000F040F8A389B4F90E1023F48053A381C3
:1050C00032463B462846BDE8F04100F057B810B5DF
:1050D0000C46B1F90E1000F02DF8431CA38915BF42
:1050E000606523F4805343F48053A38118BFA381E8
:1050F00010BDB1F90E1000F00DB802440346934202
:1051000000D1704703F8011BF9E700000048704721
:105110005C01002038B5064D0023044608462B608C
:10512000FCF71FFA431C02D12B6803B1236038BD82
:105130002804002038B5074D0446084611460022D1
:105140002A601A46FCF734FA431C02D12B6803B1DB
:10515000236038BD2804002038B5074D04460846B2
:10516000114600222A601A46FCF7C2F9431C02D1FC
:105170002B6803B1236038BD2804002038B5074DE3
:1051800004460846114600222A601A46FCF7CDF96B
:10519000431C02D12B6803B1236038BD28040020D2
:1051A000014B1868704700BF6800002070B50D4DB6
:1051B0000D4C641BA4100026A64209D10B4D0C4CCB
:1051C00001F0F0FE641BA4100026A64205D170BDBC
:1051D00055F8043B98470136EEE755F8043B9847ED
:1051E0000136F2E79474000894740008947400087F
:1051F000987400087047704770472DE9F74F0369AE
:105200000C69A34207467EDB013C01F1140800F162
:10521000140505EB8403019358F8243055F8242035
:1052200001339A424FEA840B08EB8409B2FBF3F690
:1052300031D34FF0000E4046AC46F24650F8042BF6
:1052400093B206FB03E34FEA124E1A0C9BB2AAEB91
:105250000303DCF800A013FA8AF306FB0E22009386
:10526000009B4FEA124E92B2C2EB1A4202EB23426B
:10527000BDF80030814543EA02434CF8043B4FEA55
:10528000224ADBD255F80B302BB9019B043B9D42DF
:105290001A462CD33C61384601F0A8F9002822DBDD
:1052A00001362946002058F8042BD1F800C093B2EB
:1052B000C31A120C13FA8CF3C2EB1C4202EB23420A
:1052C0009BB243EA0243C14541F8043B4FEA224006
:1052D000E9D255F8242005EB840322B9043B9D4212
:1052E0001A460AD33C61304603B0BDE8F08F12681D
:1052F000043B002ACED1013CC9E71268043B002AD6
:10530000F0D1013CEBE70020EEE7000000000000D8
:105310002DE9F04F2DED048BC56993B08DED020B97
:1053200057EC106BDDF88080079104460A920D93CC
:1053300075B9102000F02AFE0246E06120B9AE4B9C
:10534000EF21AE4801F0F8FCC0E901550560C560E9
:10535000E369196851B15A684A60012393408B6030
:10536000204600F007FFE36900221A603B1EBBBF26
:1053700023F00043039300230122ACBFC8F80030A0
:10538000C8F800209E4BDDF80C8033EA08031BD1DF
:105390000D9A42F20F731360C8F31303334300F006
:1053A0009385219B63B9974B27E0974B0093083374
:1053B000219A1360009813B0BDEC048BBDE8F08F08
:1053C000904B00930333F3E79DED027B002251ECF9
:1053D000170BB0EE478AF0EE678A0023FBF74CFB11
:1053E000814660B10D9A01231360219B002B00F0D0
:1053F0006885864B219A1360013B0093DAE710AA77
:1054000011A92046B0EE480AF0EE680A01F094F9BE
:10541000C8F30A558246002D7FD018EE903AC3F3A8
:10542000130343F07F5351EC180B43F44013A5F2E0
:10543000FF35CDF8389019460022754BFAF7FCFE7F
:1054400067A3D3E90023FBF7AFF867A3D3E90023F1
:10545000FAF7F4FE064628460F46FBF73BF864A32E
:10546000D3E90023FBF7A0F802460B463046394645
:10547000FAF7E4FE06460F46FBF746FB002283469A
:10548000002330463946FBF701FB48B15846FBF78D
:1054900021F832463B46FBF7EFFA08B90BF1FF3B28
:1054A000BBF1160F57D85B4B03EBCB03D3E90023BB
:1054B00051EC180BFBF7EAFA00284ED00BF1FF3B3A
:1054C00000230C93109B5B1B5A1E45BFC3F10103C5
:1054D000059300230023069254BF05930693BBF166
:1054E000000F3CDB069BCDF82CB05B4406930023F9
:1054F0000893079B092B68D8052BC4BF043B07936F
:10550000079BA3F10203CCBF00250125032B00F26A
:105510008580DFE803F02E3B3958DDE910531D4448
:1055200005F23243202BC1BFC3F1400308FA03F850
:1055300005F2124326FA03F3D6BFC3F1200348EA6B
:10554000030006FA03F0FAF7B5FF0122A1F1F873A0
:10555000013D0E926FE70123B3E70C90B2E7059B84
:10556000A3EB0B030593CBF10003089300230B93EC
:10557000BFE7002309930A9B002B52DC0123019310
:1055800004931A460A920BE00123F3E700230993E0
:105590000A9B5B4401930133012B0493B8BF0123A1
:1055A000E0690021042202F114069E423DD94160C7
:1055B000204600F09FFD0090002839D1164B02468E
:1055C00040F2AF11BDE60123E1E701250023079377
:1055D00009954FF0FF330193049300221223D1E782
:1055E00061436F63A787D23FB3C8608B288AC63FE9
:1055F000FB799F501344D33F597100087071000824
:105600000000F07F557100084C71000829710008F6
:105610000000F83F60720008C87100080123099378
:10562000D7E70A9B01930493BAE701315200BAE726
:10563000E369009A1A60049B0E2B00F2A880002DEB
:1056400000F0A580BBF1000F38DDC04B0BF00F025E
:1056500003EBC2031BF4807FD3E900674FEA2B18EA
:1056600019D0BB4B51EC180BD3E90823FBF7C6F854
:10567000CDE9020108F00F080325DFF8D492B8F154
:10568000000F0AD1DDE9020132463B46FBF7B6F8CE
:10569000CDE902012BE00225EFE718F0010F08D059
:1056A00030463946D9E90023FAF77EFF0135064630
:1056B0000F464FEA680809F10809E0E700F09F800B
:1056C000CBF10006A14BA24F06F00F0203EBC20381
:1056D000D3E9002351EC180BFAF766FFCDE902017C
:1056E000361100230225002E7ED1002BD0D10C9B39
:1056F000DDE90289002B00F08480964B00224046B1
:105700004946FBF7C3F900287BD0049B002B78D0D7
:10571000019B002B39DD904B002240464946FAF7A9
:1057200043FFCDE90201019E0BF1FF370135DDE9B1
:1057300002892846FAF7CEFE42464B46FAF734FF76
:10574000864B0022FAF77AFDA1F15073CDE90201F0
:105750000393002E58D1824B002240464946FAF767
:105760006BFDDDE9022380468946FBF7ADF9002891
:1057700040F09682DDE90221404601F100434946AE
:10578000FBF784F9002840F089828DED028B119B94
:10579000002BC0F24E81BBF10E0F00F34A816B4B20
:1057A00003EBCB03D3E900890A9B002B80F2DC805A
:1057B000049B002B00F3D88040F06F82684B0022DE
:1057C00040464946FAF7F0FEDDE90223FBF772F99D
:1057D000049E3746002840F04582009D312305F89D
:1057E000013B0BF1010B41E2F20705D5D7E900239C
:1057F000FAF7DAFE013501237610083773E7022540
:1058000075E7049E5F4692E70099504B9DED027B41
:10581000314402910999B0EE479AF0EE679A03EB92
:10582000C60353E90223002944D04E490020FAF769
:10583000E5FF53EC192BFAF7FFFC009D41EC190B27
:1058400049464046FBF760F90646FAF743FE024632
:105850000B4640464946FAF7EFFC303605F8016B37
:1058600053EC192B80468946FBF710F9002864D1C8
:1058700042464B4637490020FAF7DEFC53EC192B21
:10588000FBF704F9002840F0B680029B9D423FF4EC
:105890007CAF314B51EC190B0022FAF785FE2E4BF1
:1058A00041EC190B002240464946FAF77DFE80463E
:1058B0008946C5E751EC170BFAF776FE029B009D6F
:1058C0000F9341EC190B49464046FBF71DF906467C
:1058D000FAF700FE303602460B4640464946FAF7D4
:1058E000ABFC05F8016B029B9D42804689464FF058
:1058F000000224D11B4B51EC190BFAF79FFC024616
:105900000B4640464946FBF7DFF8002873D153ECBD
:10591000192B14490020FAF78FFC02460B4640462B
:105920004946FBF7B3F800283FF42FAF0F9D6B1EDD
:105930000F9315F8013C302BF8D0BB464AE0064BDC
:10594000FAF732FE80468946BDE700BF6072000864
:10595000387200080000F03F0000244000001C40A6
:10596000000014400000E03FDDE90267009D424670
:105970004B4630463946FAF741FFFBF7C5F8019030
:10598000FAF7A8FD42464B46FAF70EFE02460B46D2
:1059900030463946FAF750FC019E049F303605F830
:1059A000016B009EAE1BB74202460B4634D1FAF79C
:1059B00045FC42464B4606460F46FBF785F8C8B9FC
:1059C00042464B4630463946FBF756F810B1019B2C
:1059D000DB070FD45146204600F0CCFB00230D9A84
:1059E0002B700BF101031360219B002B3FF4E2AC01
:1059F0001D60DFE45F462B461D4613F8012D392A52
:105A000006D1009A9A42F7D10099302201370A70E4
:105A10001A7801321A7090E7A34B0022FAF7C4FDFE
:105A20000022002306460F46FBF726F800289ED0EA
:105A3000D0E7099A002A00F0CA80079A012A00F3E9
:105A4000AD800E9A002A00F0A58003F23343089E31
:105A5000059D059A1A440592069A01211A4420468A
:105A6000069200F03DFC074665B1069B002B09DD60
:105A7000AB42059AA8BF2B46D21A0592069AED1A98
:105A8000D31A0693089BF3B1099B002B00F0A38067
:105A9000002E10DD39463246204600F0E1FC524629
:105AA00001460746204600F031FC5146804620461C
:105AB00000F060FBC246089B9A1B04D0514620466A
:105AC00000F0CEFC82460121204600F009FC0B9B31
:105AD000002B064640F381801A460146204600F01E
