:020000040800F2
:10000000003000206D160008051500080B150008CB
:1000100011150008171500081D1500080000000044
:100020000000000000000000000000002315000890
:1000300031150008000000003F1500084D150008AC
:10004000C1160008C1160008C1160008591500089D
:10005000C1160008C1160008C1160008C116000824
:10006000C1160008C11600086D150008C116000869
:10007000C1160008C1160008C1160008C116000804
:10008000C1160008C1160008C116000800000000D3
:1000900000000000C1160008C11600087B1500080A
:1000A000C1160008C1160008C1160008C1160008D4
:1000B000C1160008C1160008C1160008C1160008C4
:1000C0000000000000000000C11600080000000051
:1000D000C1160008C116000800000000C116000883
:1000E000C1160008C116000800000000C116000873
:1000F00095150008A1150008AD150008C1160008E7
:10010000C116000800000000000000000000000010
:10011000C1160008C1160008C11600080000000042
:1001200000000000000000000000000000000000CF
:0C0130000000000000000000C1160008E4
:10013C0010B5054C237833B9044B13B10448AFF315
:10014C0000800123237010BD0C0100200000000072
:10015C00A874000808B5034B1BB103490348AFF35F
:10016C00008008BD0000000010010020A8740008E9
:10017C00034613F8012B002AFBD1181A01387047DB
:10018C0084B080B582B002AF07F1080C8CE80F0088
:10019C00144B00221A7097F85C3099B264230093C8
:1001AC000123104A07F1080002F038F897F85C3088
:1001BC0099B26423009302230A4A07F1080002F063
:1001CC0021F9084B1B781B021AB2064B5B781BB249
:1001DC0013431BB29BB21846BD46BDE8804004B029
:1001EC00704700BF2801002084B080B582B002AFF8
:1001FC0007F1080C8CE80F000D4B01221A700C4A09
:10020C0097F85C3053700A4A97F86030937097F8FF
:10021C00643099B2642300930323054A07F1080064
:10022C0001F0FCFF00BFBD46BDE8804004B0704744
:10023C002C010020B0B588B000AF154B1A88154BB7
:10024C009A80154B1A88134BDA80144B1A88114B71
:10025C001A81134B1A880F4B5A81124B1A880D4B6B
:10026C009A81114B3C1D1D460FCD0FC495E807001C
:10027C0003C422800234130C237005F05DFE3B1D79
:10028C00184605F0F8F800BF2037BD46B0BD00BFDA
:10029C0004000020E80103200600002008000020D4
:1002AC000A0000200C000020C074000880B400AFCD
:1002BC00054BDB69044A43F40043D36100BFBD46E0
:1002CC005DF8047B704700BF0004005880B483B015
:1002DC0000AF7860064BDB6923F0700204497B6841
:1002EC001343CB6100BF0C37BD465DF8047B7047F0
:1002FC000004005880B487B000AF7860184B1B68BE
:10030C001B0A03F00F03FB60FB68002B08D1154B95
:10031C00DB6923F00F0213497B681343CB6119E0AF
:10032C00FB68063B3B617B683A6913447B617B69E4
:10033C00002B02DA00237B6104E07B690F2B01DDCB
:10034C000F237B61074BDB6923F00F027B690549A7
:10035C001343CB6100BF1C37BD465DF8047B70476F
:10036C005875FF1F0004005880B483B000AF78604C
:10037C00074BD3F8803023F0070205497B68134301
:10038C00C1F8803000BF0C37BD465DF8047B704768
:10039C000004005880B483B000AF7860064BD3F8EB
:1003AC00902005497B681343C1F8903000BF0C378F
:1003BC00BD465DF8047B70470008005880B483B0DC
:1003CC0000AF78604FF0B0430A4AC3F89C204FF05E
:1003DC00B043D3F89C3023F47C527B681B024FF063
:1003EC00B0411343C1F89C3000BF0C37BD465DF8DB
:1003FC00047B7047FECAFECA80B483B000AF78603D
:10040C004FF0B0439B6823F400424FF0B0417B683F
:10041C0013438B6000BF0C37BD465DF8047B7047FF
:10042C0080B400AF4FF0B043D3F890304FF0B042EF
:10043C0043F48033C2F8903000BFBD465DF8047BB6
:10044C00704780B400AF4FF0B043D3F890304FF00A
:10045C00B04223F48033C2F8903000BFBD465DF843
:10046C00047B704780B400AF4FF0B043D3F89430A6
:10047C0003F08063B3F1806F01D1012300E000230E
:10048C001846BD465DF8047B704780B400AF4FF052
:10049C00B043D3F8943003F08053B3F1805F01D1B3
:1004AC00012300E000231846BD465DF8047B70472D
:1004BC0080B485B000AF78604FF0B0431A6D4FF048
:1004CC00B0417B6813430B654FF0B0431A6D7B68EA
:1004DC001340FB60FB6800BF1437BD465DF8047B1E
:1004EC007047000080B400AF044B1B681B0C9BB220
:1004FC001846BD465DF8047B704700BF002004E041
:10050C0080B483B000AF786039607B685A683B6810
:10051C001B041A437B685A6000BF0C37BD465DF85C
:10052C00047B704780B483B000AF786039607B681F
:10053C005A683B681A437B685A6000BF0C37BD464B
:10054C005DF8047B704780B483B000AF786039608D
:10055C007B685A693B681B041A437B685A6100BF6D
:10056C000C37BD465DF8047B704780B483B000AF98
:10057C00786039607B685A693B681A437B685A61BA
:10058C0000BF0C37BD465DF8047B704780B483B068
:10059C0000AF786039607B683A689A6000BF0C37AE
:1005AC00BD465DF8047B704780B483B000AF7860C3
:1005BC0039607B683A689A6100BF0C37BD465DF8BC
:1005CC00047B704780B483B000AF78607B68FF22F7
:1005DC005A6200BF0C37BD465DF8047B704780B48F
:1005EC0083B000AF78607B68CA225A627B68532262
:1005FC005A6200BF0C37BD465DF8047B704780B46F
:10060C0083B000AF786039607B689B6823F0070289
:10061C003B681A437B689A6000BF0C37BD465DF897
:10062C00047B704780B500AF044B4FF400421A6155
:10063C0000F029F800F068F800BF80BD00400058B9
:10064C0080B500AF00F074F800F08CF8034900207E
:10065C0000F0BEF900F096F800BF80BDCC01002080
:10066C0080B500AF0020FFF731FE0420FFF742FEFB
:10067C00FFF71CFE00BF80BD80B500AF5020FFF718
:10068C0089FE00BF80BD80B500AF00F004F800F01B
:10069C0019F800BF80BD80B500AFFFF7E3FE03463D
:1006AC00002B0DD0FFF7F1FE0346002B08D102F012
:1006BC0035FB02F033FBFFF7B3FEFFF7C2FE00BFC2
:1006CC0000BF80BD80B500AF4FF48010FFF7F0FE87
:1006DC003F210C48FFF75AFF3F210A48FFF764FF00
:1006EC003F210848FFF70CFF3F210648FFF72BFF7F
:1006FC003F210448FFF716FF3F210248FFF735FF63
:10070C0000BF80BD000C005880B582B000AF002047
:10071C0005F09EFC78607B68002B05D07B689B798C
:10072C001846FFF74BFE00BF00BF0837BD4680BD23
:10073C0080B500AFFFF794FFFFF79EFF00F002F8C3
:10074C0000BF80BD80B500AF0548FFF748FF002112
:10075C000348FFF754FF0248FFF734FF00BF80BD8A
:10076C000028004080B500AF4FF40040FFF744FE76
:10077C0006F0A4FB0420FFF7F7FD02F007FB00BF17
:10078C0080BD000080B588B000AF05F01FFA114A9B
:10079C000021102006F006FD0F4B3B600F4B7B60D9
:1007AC003B4619460E4805F0D7F80E4BBB600E4B76
:1007BC00FB600E4B3B6140F23C537B6107F108033D
:1007CC00184605F045FB05F0FBF900BF2037BD4688
:1007DC0080BD00BF9D59000834070320FD070008A9
:1007EC00150800084C09032040080320F8010320D9
:1007FC0080B483B000AF0346FB7100BF0C37BD461D
:10080C005DF8047B7047000080B588B000AF78605D
:10081C007B685B680B33FB61FB691B889BB2A3F5A0
:10082C001243072B1FD801A252F823F059080008D5
:10083C006B080008730800087308000873080008A8
:10084C0073080008730800087308000807F10C030C
:10085C00184604F03DFE786800F01BF804E0786858
:10086C0000F006F800E000BF00BF2037BD4680BD99
:10087C0080B485B000AF78607B685B680B33FB603D
:10088C00FB680233BB6000BF1437BD465DF8047BC8
:10089C00704780B58AB000AF786007F10C03002276
:1008AC001A605A609A609A8100237B627B685B684D
:1008BC000B333B623B6A0233FB61FB691B78002BF9
:1008CC0017D1FFF7B7FC0D233B737F23BB73FFF7E7
:1008DC0009FE78627B6A9BB23B8307F10C031846D6
:1008EC0004F0E0FD05F0D4FC0021012006F0F8FA3C
:1008FC0007E0FB691B78012B03D17B6800221A707F
:10090C0000BF00BF2837BD4680BD80B500AF4FF09B
:10091C00FF3006F04BFB00BF80BD80B500AF06F08A
:10092C000FFB00BF80BD80B582B000AF786039602E
:10093C004FF0FF3006F03AFB00BF0837BD4680BDD4
:10094C0080B582B000AF78600021102006F04CFC1E
:10095C0000BF0837BD4680BD80B582B000AF78605F
:10096C00022006F0ADFC00BF0837BD4680BD80B547
:10097C0082B000AF7860022006F0C2FC00BF0837DE
:10098C00BD4680BD80B483B000AF7860064BD3F811
:10099C00802005497B681343C1F8803000BF0C37B9
:1009AC00BD465DF8047B70470008005880B483B0E6
:1009BC0000AF7860054B1A6804497B6813430B60E1
:1009CC0000BF0C37BD465DF8047B7047000800582B
:1009DC0080B588B000AF03463960FB71644A3B6850
:1009EC001360634B1B681B68CA225A62604B1B68FE
:1009FC001B6853225A625F4B9B685E4A43F020038C
:100A0C0093605C4B9B68DBB203F00703DBB2C3F172
:100A1C000403DAB2584B1A70564B1B6903F4FE03ED
:100A2C004FF4FE023A613A6992FAA2F2FA60FA685D
:100A3C007A617A69002A01D1202203E07A69B2FA3C
:100A4C0082F2D2B2D340DBB20133DAB24B4B1A7022
:100A5C00484B1B699BB2C3F30E039BB201339AB292
:100A6C00474B1A80464B1B88013B444A127802FBC9
:100A7C0003F3A3F5A073404A1278D340BB61BB6962
:100A8C004FF6FE72934204D93E4B4FF6FF721A801A
:100A9C0003E0BB699AB23B4B1A804FF40020FFF77E
:100AAC0085FF4FF40020FFF76DFFFB79002B43D13E
:100ABC00354B01221A70354B4FF0FF321A60002370
:100ACC00FB770CE0FA7F324913465B001344DB00E2
:100ADC000B440C3300221A70FB7F0133FB77FB7F36
:100AEC00052BEFD92B4B06221A70214B1B681B6868
:100AFC009A681F4B1B681B6822F480629A601C4B1F
:100B0C001B681B68DB68DAB2194B1B681B6862F444
:100B1C009062DA60204B4FF40022DA60032000F080
:100B2C00CAFF134B1B681B689A68114B1B681B6828
:100B3C0042F480429A600AE00D4B1B681B68DB682C
:100B4C0003F48063002B02D0032000F0A6FF084BB7
:100B5C001B681B68FF225A6200220321032000F04D
:100B6C0068FF032000F07FFF00BF2037BD4680BD2B
:100B7C003001002000280040340100203501002005
:100B8C003601002038010020BC000020B8000020F5
:100B9C0024000020B40000200008005880B483B06A
:100BAC0000AF78604FF0B043D3F8903023F01802C8
:100BBC004FF0B0417B681343C1F8903000BF0C3745
:100BCC00BD465DF8047B704780B485B000AF78609B
:100BDC004FF0B043DA6C4FF0B0417B681343CB64F9
:100BEC004FF0B043DA6C7B681340FB60FB6800BFCE
:100BFC001437BD465DF8047B704780B500AF00F03C
:100C0C005BFDFFF70FFD00F011F800F05BF800F052
:100C1C00B9F800F007F900F0C9F800F0CFF800F0CF
:100C2C0071F8FFF70DFDFFF770FEFCE780B598B08B
:100C3C0000AF07F11C0344220021184606F026FCE5
:100C4C003B4600221A605A609A60DA601A615A6157
:100C5C009A6102F063F80020FFF7A0FF0723FB6105
:100C6C004FF480333B6201237B624FF48073BB6291
:100C7C004023FB6200237B6407F11C03184602F03F
:100C8C000BFC0346002B01D000F080F96F233B6076
:100C9C0002237B608023BB600023FB6000233B614D
:100CAC0000237B610023BB613B460121184602F007
:100CBC0029FF0346002B01D000F068F900BF603714
:100CCC00BD4680BD80B58CB000AF3B4630220021C4
:100CDC00184606F0DBFB4FF440533B604FF4804367
:100CEC007B620023BB621023FB623B46184603F079
:100CFC009FFA0346002B01D000F048F900BF3037B3
:100D0C00BD4680BD80B500AF1B4B1C4A1A601A4B08
:100D1C001B4A5A60184B00229A60174B0122DA606A
:100D2C00154B00221A61144B00225A61124B0022FF
:100D3C009A61114B0022DA610F4B00221A620E48A5
:100D4C0001F0DCF90346002B01D000F01FF9002163
:100D5C00094801F0C5FE0346002B01D000F016F93E
:100D6C000021054801F007FF0346002B01D000F0DD
:100D7C000DF900BF80BD00BF3C01002000540040B5
:100D8C005B3D300080B500AF064B074A1A60054842
:100D9C0001F03EFF0346002B01D000F0F7F800BF36
:100DAC0080BD00BF90010020000C005880B400AF43
:100DBC0000BFBD465DF8047B7047000080B500AFF6
:100DCC00164B174A1A60154B00225A60134B0F2210
:100DDC009A60124B47F6FF72DA60104B00221A61D0
:100DEC000E4B00229A610D4B00225A610B4803F006
:100DFC0015FB0346002B01D000F0C8F800224FF67B
:100E0C00FF71064803F0F8FB0346002B01D000F0FD
:100E1C00BDF8024803F0ACFC00BF80BDCC01002043
:100E2C000028004080B586B000AF3B1D00221A6040
:100E3C005A609A60DA601A610420FFF7C5FE8020C0
:100E4C00FFF7C2FE0220FFF7BFFE0120FFF7BCFE3A
:100E5C001020FFF7B9FE08237B600323BB6000233F
:100E6C00FB603B1D1946234800F0A4FF4FF6FF73AF
:100E7C007B600323BB600023FB603B1D19464FF0D6
:100E8C00904000F097FF0F237B600323BB6000238F
:100E9C00FB603B1D1946184800F08CFF10237B604B
:100EAC000323BB600023FB603B1D1946134800F075
:100EBC0081FFF0237B604FF40413BB600023FB60C5
:100ECC003B1D19460C4800F075FF00220F210A202B
:100EDC0000F0AFFD0A2000F0C6FD00220F21172004
:100EEC0000F0A7FD172000F0BEFD00BF1837BD466F
:100EFC0080BD00BF001C00480004004800100048E2
:100F0C0080B582B000AF0346FB80FB88102B0BD161
:100F1C00FFF78CFE00F066FC1B4B01221A700021BF
:100F2C00082006F061F92BE0FB88202B0BD1FFF792
:100F3C007DFE00F057FC144B02221A700021082091
:100F4C0006F052F91CE0FB88402B0BD1FFF76EFE2C
:100F5C0000F048FC0C4B03221A700021082006F00C
:100F6C0043F90DE0FB88802B0AD1FFF75FFE00F000
:100F7C0039FC054B04221A700021082006F034F9C4
:100F8C0000BF0837BD4680BDF001002080B400AF23
:100F9C0072B600BFFEE7000080B483B000AF78608B
:100FAC00064B1B6823F0070204497B6813430B6054
:100FBC0000BF0C37BD465DF8047B70470004005839
:100FCC0080B400AF034B09229A6100BFBD465DF8A7
:100FDC00047B70470004005880B400AF074BD3F873
:100FEC00883003F48063B3F5806F01D1012300E0F6
:100FFC0000231846BD465DF8047B7047000400587A
:10100C0080B400AF074BD3F8883003F40043B3F53A
:10101C00004F01D1012300E000231846BD465DF8C6
:10102C00047B70470004005880B400AF4FF0B0430D
:10103C001B684FF0B04243F48073136000BFBD4691
:10104C005DF8047B704780B400AF4FF0B0431B6871
:10105C0003F48063B3F5806F01D1012300E000231A
:10106C001846BD465DF8047B704780B483B000AF72
:10107C0078604FF0B0439B6823F003024FF0B0410F
:10108C007B6813438B6000BF0C37BD465DF8047B57
:10109C00704780B400AF4FF0B0439B6803F00C0373
:1010AC001846BD465DF8047B704780B483B000AF32
:1010BC0078604FF0B0435B6A23F003024FF0B0410D
:1010CC007B6813434B6200BF0C37BD465DF8047B55
:1010DC00704780B400AF4FF0B043D3F894304FF06A
:1010EC00B04243F40003C2F8943000BFBD465DF833
:1010FC00047B704780B400AF054B1B69044A23F096
:10110C000403136100BFBD465DF8047B704700BF4C
:10111C0000ED00E080B400AF054B1B69044A43F0BE
:10112C000403136100BFBD465DF8047B704700BF2C
:10113C0000ED00E080B483B000AF786039607B686C
:10114C003A68203253F82230054A934201D00123E9
:10115C0000E0002318460C37BD465DF8047B704751
:10116C000004008080B485B000AFF860B9607A608C
:10117C007B6843F48061FB68BA6843F8221000BFB7
:10118C001437BD465DF8047B704780B500AF00F0A6
:10119C0019FBFFF79EFF00F035F8FFF711FF032056
:1011AC00FFF7FAFEFFF7B6FF00BF80BD80B400AFBB
:1011BC0000BFBD465DF8047B704780B500AF00F002
:1011CC0001FB00F01FF80120FFF7E6FEFFF7A2FF7E
:1011DC0030BF00BF80BD80B500AF00F04FF800F00D
:1011EC0001FB00BF80BD80B500AF00F0EBFAFFF74C
:1011FC0081FF30BF00BF80BD80B500AF00F0F2FAB8
:10120C0000BF80BD80B500AF00BF03211948FFF7B8
:10121C0091FF0346002BF8D104211648FFF78AFFF3
:10122C000346002B17D1FFF7EBFE0346002B04D12E
:10123C00FFF7D2FE0346002B15D0002204210D48E7
:10124C00FFF790FF00F034F80B4B1B680A4A23F0B1
:10125C000703136007E000F02BF8074B1B68064AE6
:10126C0023F007031360002203210248FFF77AFFE3
:10127C0000BF80BD001400580040005880B500AF7E
:10128C00002204210948FFF76DFF00BF0321074826
:10129C00FFF750FF0346002BF8D1FFF7FAFE0022B0
:1012AC0003210248FFF75EFF00BF80BD0014005809
:1012BC0080B500AFFFF7B8FE00BFFFF7C4FE0346D2
:1012CC00002BFAD00120FFF7D0FE0020FFF7EDFE37
:1012DC0000BFFFF7DEFE0346042BFAD100BF80BD32
:1012EC0080B400AF4FF0B043D3F890304FF0B04221
:1012FC0043F40043C2F8903000BFBD465DF8047B58
:10130C00704780B485B000AF78604FF0B043DA6CB2
:10131C004FF0B0417B681343CB644FF0B043DA6CB1
:10132C007B681340FB60FB6800BF1437BD465DF85B
:10133C00047B704780B485B000AF78604FF0B04349
:10134C001A6D4FF0B0417B6813430B654FF0B043FF
:10135C001A6D7B681340FB60FB6800BF1437BD46F9
:10136C005DF8047B704780B485B000AF78604FF0B7
:10137C00B0439A6D4FF0B0417B6813438B654FF0CF
:10138C00B0439A6D7B681340FB60FB6800BF143759
:10139C00BD465DF8047B704780B500AF4FF400206C
:1013AC00FFF7C8FF002200212E2000F042FB2E2068
:1013BC0000F059FB00BF80BD80B594B000AF7860E1
:1013CC0007F13C0300221A605A609A60DA601A61D5
:1013DC0007F10C0330220021184606F057F87B6801
:1013EC001B68174A934226D10423FB604FF4403309
:1013FC00BB6107F10C03184602F01AFF0346002BE1
:10140C0001D0FFF7C3FD0220FFF77BFF4FF44073C1
:10141C00FB6312233B6400237B640023BB64042323
:10142C00FB6407F13C031946064800F0C3FC4FF47B
:10143C000010FFF798FF00BF5037BD4680BD00BFBE
:10144C00005400400004004880B582B000AF7860C2
:10145C007B681B680D4A934213D14FF48010FFF741
:10146C0069FF002200212C2000F0E3FA2C2000F070
:10147C00FAFA002200212D2000F0DBFA2D2000F0DA
:10148C00F2FA00BF0837BD4680BD00BF000C005803
:10149C0080B58EB000AF786007F1080330220021D0
:1014AC00184605F0F3FF7B681B68124A93421DD166
:1014BC004FF40063BB604FF48073BB6207F1080309
:1014CC00184602F0B5FE0346002B01D0FFF75EFD77
:1014DC00FFF706FF4FF48060FFF745FF00220F2156
:1014EC00032000F0A6FA032000F0BDFA00BF383745
:1014FC00BD4680BD0028004080B400AFFEE780B43C
:10150C0000AFFEE780B400AFFEE780B400AFFEE7AB
:10151C0080B400AFFEE780B400AF00BFBD465DF8FD
:10152C00047B704780B400AF00BFBD465DF8047B00
:10153C00704780B400AF00BFBD465DF8047B7047B8
:10154C0080B500AF00F012F900BF80BD80B500AFD0
:10155C00024803F06BF900BF80BD00BFCC01002036
:10156C0080B500AF102000F08DFD00BF80BD80B5B0
:10157C0000AF202000F086FD402000F083FD80208D
:10158C0000F080FD00BF80BD80B500AF05F052FBC0
:10159C0000BF80BD80B500AF05F084FB00BF80BDEF
:1015AC0080B500AF00F086FD00BF80BD80B400AFF9
:1015BC00224BD3F88830214A43F47003C2F88830A8
:1015CC004FF0B0431B684FF0B04243F0010313607F
:1015DC004FF0B0434FF4E0229A604FF0B0431A68DA
:1015EC004FF0B041164B13400B604FF0B043D3F8A3
:1015FC0094304FF0B04223F00503C2F894304FF012
:10160C00B043D3F898304FF0B04223F00103C2F846
:10161C0098304FF0B0430B4ADA604FF0B0431B6880
:10162C004FF0B04223F4802313604FF0B0430022FC
:10163C009A6100BFBD465DF8047B704700ED00E089
:10164C00FBFEF6FA00100422D458C4500433C4181C
:10165C008C42F9D37047036004308842FBD3704747
:10166C000C488546FFF7A2FF0B480C490C4A002397
:10167C00FFF7EDFF0B480C490023FFF7EEFF0B487B
:10168C000B490023FFF7E9FF05F0CEFEFFF7B5FA93
:10169C00FEE70000003000200400002024000020A1
:1016AC00747700080C01002040030020E4010320A3
:1016BC00670A0320FEE7000080B582B000AF00236C
:1016CC00FB710C4B1B680B4A43F4807313600320B3
:1016DC0000F0A4F90F2000F00FF80346002B02D005
:1016EC000123FB7101E0FFF757FEFB791846083721
:1016FC00BD4680BD0040005880B584B000AF786016
:10170C000023FB73174B1B78002B24D002F0A6FB95
:10171C000246144B1B7819464FF47A73B3FBF1F362
:10172C00B2FBF3F3184600F0ACF90346002B0FD1D3
:10173C007B680F2B09D8002279684FF0FF3000F03E
:10174C0078F9094A7B68136007E00123FB7304E016
:10175C000123FB7301E00123FB73FB7B184610375D
:10176C00BD4680BD180000201400002080B400AFDE
:10177C00064B1B781A46064B1B681344044A13602D
:10178C0000BFBD465DF8047B704700BF1800002009
:10179C00F401002080B400AF034B1B681846BD4613
:1017AC005DF8047B704700BFF401002080B400AFEB
:1017BC00034B1B681846BD465DF8047B704700BFA1
:1017CC001400002080B400AF054B1B68044A23F0C2
:1017DC000203136000BFBD465DF8047B704700BF79
:1017EC0010E000E080B400AF054B1B68044A43F0E6
:1017FC000203136000BFBD465DF8047B704700BF59
:10180C0010E000E080B485B000AF78607B6803F036
:10181C000703FB600C4BDB68BB60BA684FF6FF0339
:10182C001340BB60FB681A02BB68134343F0BF63F1
:10183C0043F40033BB60044ABB68D36000BF143769
:10184C00BD465DF8047B704700ED00E080B400AF4E
:10185C00044BDB681B0A03F007031846BD465DF812
:10186C00047B704700ED00E080B483B000AF03460A
:10187C00FB7197F90730002B0BDBFB7903F01F0290
:10188C00074997F907305B09012000FA02F241F889
:10189C00232000BF0C37BD465DF8047B704700BFAA
:1018AC0000E100E080B483B000AF0346FB7197F910
:1018BC000730002B0CDBFB7903F01F02074997F96B
:1018CC0007305B09012000FA02F2403341F8232073
:1018DC0000BF0C37BD465DF8047B704700E100E0AB
:1018EC0080B483B000AF0346FB7197F90730002B2F
:1018FC000CDBFB7903F01F02074997F907305B09F2
:10190C00012000FA02F2603341F8232000BF0C37AB
:10191C00BD465DF8047B704700E100E080B483B005
:10192C0000AF03463960FB7197F90730002B0ADBD7
:10193C003B68DAB20C4997F907301201D2B20B446A
:10194C0083F800230AE03B68DAB20849FB7903F01C
:10195C000F03043B1201D2B20B441A7600BF0C37B2
:10196C00BD465DF8047B704700E100E000ED00E04F
:10197C0080B489B000AFF860B9607A60FB6803F09E
:10198C000703FB61FB69C3F10703042B28BF042386
:10199C00BB61FB690433062B02D9FB69033B00E0F6
:1019AC0000237B614FF0FF32BB6902FA03F3DA4389
:1019BC00BB681A407B699A404FF0FF317B6901FA92
:1019CC0003F3D9437B680B40134318462437BD46B9
:1019DC005DF8047B7047000080B582B000AF786082
:1019EC007B68013BB3F1807F01D301230FE00A4AEE
:1019FC007B68013B53600F214FF0FF30FFF78EFFE8
:101A0C00054B00229A60044B07221A6000231846EB
:101A1C000837BD4680BD00BF10E000E080B582B045
:101A2C0000AF78607868FFF7EDFE00BF0837BD4661
:101A3C0080BD80B586B000AF0346B9607A60FB7399
:101A4C00FFF704FF78617A68B9687869FFF790FF4F
:101A5C00024697F90F3011461846FFF75FFF00BF9B
:101A6C001837BD4680BD80B582B000AF0346FB7110
:101A7C0097F907301846FFF7F7FE00BF0837BD4649
:101A8C0080BD80B582B000AF78607868FFF7A4FFA6
:101A9C00034618460837BD4680BD80B582B000AFFE
:101AAC000346FB7197F907301846FFF7FBFE00BFA2
:101ABC000837BD4680BD80B582B000AF0346FB71D0
:101ACC0097F907301846FFF70BFF00BF0837BD46E4
:101ADC0080BD000080B483B000AF0023FB710B4BC2
:101AEC005B69002B0BDA094B094A9A60074B094AD0
:101AFC009A60064B5B69002B01DA0123FB71FB79C1
:101B0C0018460C37BD465DF8047B70470040005802
:101B1C0023016745AB89EFCD80B483B000AF0023C0
:101B2C00FB71094B5B69084A43F000435361064B58
:101B3C005B69002B01DB0123FB71FB7918460C3729
:101B4C00BD465DF8047B70470040005880B584B0FA
:101B5C0000AF7860FFF71EFEB86009E0FFF71AFED1
:101B6C000246BB68D31A7A689A4201D8032354E020
:101B7C002C4B1B6903F48033B3F5803FEED0294B1B
:101B8C001B69FB60FB6803F00103002B02D0254BA3
:101B9C0001221A61FB6803F40043002B07D0214B90
:101BAC004FF400421A61FB6823F40043FB60FA68AF
:101BBC004CF2FA331340FB60FB6803F04043002BFC
:101BCC0007D0184B9A69FB6803F04043154913433F
:101BDC008B61FB6823F04043002B04D0114AFB6857
:101BEC0023F040431361FB68002B0ED00E4AFB68B8
:101BFC005360012311E0FFF7CDFD0246BB68D31AF9
:101C0C007A689A4201D8032307E0064B1B6903F458
:101C1C008023B3F5802FEED0002318461037BD4635
:101C2C0080BD00BF00400058F801002080B584B092
:101C3C0000AF78603960244B1B78012B01D1022353
:101C4C003DE0214B01221A701F4B00225A604FF4C9
:101C5C007A70FFF77BFF0346FB73FB7B002B2AD1CB
:101C6C007B681B68022B24D13B684FF0FF321A6053
:101C7C007B685B68BB6012E0B86800F027F84FF433
:101C8C007A70FFF763FF0346FB73FB7B002B03D0DB
:101C9C003B68BA681A600AE0BB680133BB607B68BA
:101CAC005A687B689B681344BA689A42E4D300F084
:101CBC006FF800F025F8044B00221A70FB7B1846D5
:101CCC001037BD4680BD00BFF801002080B483B042
:101CDC0000AF7860094B5B6923F4FF627B68DB0023
:101CEC001343064A43F4803343F00203536100BFAD
:101CFC000C37BD465DF8047B704700BF00400058B0
:101D0C0080B400AF214B1B6803F40073B3F5007F64
:101D1C0017D11E4B1B681D4A23F4007313601B4B19
:101D2C001B681A4A43F400631360184B1B68174A6C
:101D3C0023F400631360154B1B68144A43F40073BF
:101D4C001360124B1B6803F48063B3F5806F17D1DB
:101D5C000E4B1B680D4A23F4806313600B4B1B68FE
:101D6C000A4A43F480531360084B1B68074A23F458
:101D7C0080531360054B1B68044A43F48063136063
:101D8C0000BFBD465DF8047B704700BF00400058A3
:101D9C0080B400AF064B5B69054A23F4FF6323F064
:101DAC000203536100BFBD465DF8047B704700BF62
:101DBC000040005880B487B000AF786039600023D1
:101DCC007B6146E13B681A6801217B6901FA03F3E8
:101DDC001340FB60FB68002B00F038813B685B68AC
:101DEC0003F00303012B05D03B685B6803F003038E
:101DFC00022B30D17B689B683B617B695B000322C3
:101E0C0002FA03F3DB433A6913403B613B68DA683F
:101E1C007B695B0002FA03F33A6913433B617B680D
:101E2C003A699A607B685B683B6101227B6902FAC4
:101E3C0003F3DB433A6913403B613B685B681B0966
:101E4C0003F001027B6902FA03F33A6913433B6125
:101E5C007B683A695A603B685B6803F00303032BA9
:101E6C0017D07B68DB683B617B695B00032202FA5D
:101E7C0003F3DB433A6913403B613B689A687B6927
:101E8C005B0002FA03F33A6913433B617B683A69DE
:101E9C00DA603B685B6803F00303022B23D17B6998
:101EAC00DA087B68083253F822303B617B6903F017
:101EBC0007039B000F2202FA03F3DB433A6913403A
:101ECC003B613B681A697B6903F007039B0002FACC
:101EDC0003F33A6913433B617B69DA087B68083288
:101EEC00396943F822107B681B683B617B695B0096
:101EFC00032202FA03F3DB433A6913403B613B686C
:101F0C005B6803F003027B695B0002FA03F33A6936
:101F1C0013433B617B683A691A603B685B6803F466
:101F2C004033002B00F09280514A7B699B080233AE
:101F3C0052F823303B617B6903F003039B000F22B3
:101F4C0002FA03F3DB433A6913403B617B68B3F15C
:101F5C00904F13D07B68474A93420DD07B68464A1A
:101F6C00934207D07B68454A934201D1042306E093
:101F7C00072304E0022302E0012300E000237A6936
:101F8C0002F00302920093403A6913433B613849D3
:101F9C007B699B0802333A6941F82320384B1B6854
:101FAC003B61FB68DB433A6913403B613B685B6810
:101FBC0003F48013002B03D03A69FB6813433B6195
:101FCC002F4A3B6913602E4B5B683B61FB68DB431C
:101FDC003A6913403B613B685B6803F40013002BC8
:101FEC0003D03A69FB6813433B61254A3B69536054
:101FFC00234BD3F880303B61FB68DB433A691340D9
:10200C003B613B685B6803F48033002B03D03A6977
:10201C00FB6813433B611A4A3B69C2F88030184B8A
:10202C00D3F884303B61FB68DB433A6913403B6176
:10203C003B685B6803F40033002B03D03A69FB6800
:10204C0013433B610E4A3B69C2F884307B69013310
:10205C007B613B681A687B6922FA03F3002B7FF4DF
:10206C00B1AE00BF00BF1C37BD465DF8047B7047A6
:10207C00000001400004004800080048001000481F
:10208C000008005880B582B000AF0346FB80084BB7
:10209C00DA68FB881340002B06D0054AFB88D36016
:1020AC00FB881846FEF72CFF00BF0837BD4680BDE5
:1020BC000008005880B582B000AF0A4BDB687B602B
:1020CC00084B1A687B68DB43064913400B60054AD2
:1020DC007B685360786800F007F800BF0837BD468E
:1020EC0080BD00BF0015005880B483B000AF78608D
:1020FC0000BF0C37BD465DF8047B704780B582B0DD
:10210C0000AF78607B68002B01D1012381E07B68F4
:10211C0093F84130DBB2002B06D17B68002283F8A8
:10212C0040207868FFF748F97B68242283F8412027
:10213C007B681B681A687B681B6822F001021A60B6
:10214C007B685A687B681B6822F070621A617B6836
:10215C001B689A687B681B6822F400429A607B6853
:10216C00DB68012B07D17B689A687B681B6842F49B
:10217C0000429A6006E07B689A687B681B6842F4B0
:10218C0004429A607B68DB68022B04D17B681B6875
:10219C004FF400625A607B681B685B687A6812684F
:1021AC0043F0007343F4004353607B681B68DA68A8
:1021BC007B681B6822F40042DA607B681A697B68D2
:1021CC005B6942EA03017B689B691A027B681B68A6
:1021DC000A43DA607B68D9697B681A6A7B681B687A
:1021EC000A431A607B681B681A687B681B6842F09C
:1021FC0001021A607B6800225A647B68202283F8F3
:10220C0041207B6800221A637B68002283F84220FD
:10221C00002318460837BD4680BD000080B588B045
:10222C0002AFF8607A601A460B467B8113463B81FD
:10223C00FB6893F84130DBB2202B40F0DA80FB686E
:10224C0093F84030012B01D10223D3E0FB6801222B
:10225C0083F84020FFF79EFA78617B69009319237D
:10226C0001224FF40041F86800F0E6F90346002B18
:10227C0001D00123BEE0FB68212283F84120FB68DA
:10228C00102283F84220FB6800225A64FB687A68AB
:10229C005A62FB683A895A85FB6800225A63FB68CC
:1022AC005B8D9BB2FF2B0ED9FB68FF221A85FB6856
:1022BC001B8DDAB27989514B00934FF08073F8681B
:1022CC0000F0DCFB6CE0FB685B8D9AB2FB681A8556
:1022DC00FB681B8DDAB27989484B00934FF0007381
:1022EC00F86800F0CBFB5BE07A69396AF86800F0BB
:1022FC00E3F90346002B01D001237BE0FB685B6A0A
:10230C001A78FB681B689A62FB685B6A5A1CFB684C
:10231C005A62FB685B8D9BB2013B9AB2FB685A8593
:10232C00FB681B8D013B9AB2FB681A85FB685B8DC1
:10233C009BB2002B34D0FB681B8D002B30D17B69FA
:10234C0000933B6A00228021F86800F075F903467F
:10235C00002B01D001234DE0FB685B8D9BB2FF2B62
:10236C000ED9FB68FF221A85FB681B8DDAB27989BE
:10237C00002300934FF08073F86800F07FFB0FE0B0
:10238C00FB685B8D9AB2FB681A85FB681B8DDAB211
:10239C007989002300934FF00073F86800F06EFB0E
:1023AC00FB685B8D9BB2002B9ED17A69396AF86809
:1023BC0000F0C2F90346002B01D001231AE0FB68A0
:1023CC001B682022DA61FB681B685968FB681A6875
:1023DC000B4B0B405360FB68202283F84120FB68B9
:1023EC00002283F84220FB68002283F8402000235F
:1023FC0000E0022318461837BD4680BD002000803F
:10240C0000E800FE80B588B002AFF8607A601A462A
:10241C000B467B8113463B81FB6893F84130DBB262
:10242C00202B40F0DB80FB6893F84030012B01D16E
:10243C000223D4E0FB68012283F84020FFF7AAF9BD
:10244C0078617B690093192301224FF40041F868ED
:10245C0000F0F2F80346002B01D00123BFE0FB682B
:10246C00222283F84120FB68102283F84220FB686B
:10247C0000225A64FB687A685A62FB683A895A856A
:10248C00FB6800225A63FB685B8D9BB2FF2B0ED955
:10249C00FB68FF221A85FB681B8DDAB27989524BD7
:1024AC0000934FF08073F86800F0E8FA6DE0FB6879
:1024BC005B8D9AB2FB681A85FB681B8DDAB2798941
:1024CC00494B00934FF00073F86800F0D7FA5CE0CA
:1024DC007A69396AF86800F06BF90346002B01D071
:1024EC0001237CE0FB681B685A6AFB685B6AD2B20A
:1024FC001A70FB685B6A5A1CFB685A62FB681B8D7E
:10250C00013B9AB2FB681A85FB685B8D9BB2013B61
:10251C009AB2FB685A85FB685B8D9BB2002B34D05A
:10252C00FB681B8D002B30D17B6900933B6A00222A
:10253C008021F86800F080F80346002B01D00123BD
:10254C004DE0FB685B8D9BB2FF2B0ED9FB68FF2225
:10255C001A85FB681B8DDAB27989002300934FF042
:10256C008073F86800F08AFA0FE0FB685B8D9AB212
:10257C00FB681A85FB681B8DDAB2798900230093FE
:10258C004FF00073F86800F079FAFB685B8D9BB232
:10259C00002B9DD17A69396AF86800F0CDF80346B2
:1025AC00002B01D001231AE0FB681B682022DA61A2
:1025BC00FB681B685968FB681A680C4B0B4053602E
:1025CC00FB68202283F84120FB68002283F842201C
:1025DC00FB68002283F84020002300E00223184609
:1025EC001837BD4680BD00BF0024008000E800FE07
:1025FC0080B483B000AF78607B681B689B6903F084
:10260C000203022B03D17B681B6800229A627B6851
:10261C001B689B6903F00103012B07D07B681B68C7
:10262C009A697B681B6842F001029A6100BF0C3703
:10263C00BD465DF8047B704780B584B000AFF86090
:10264C00B9603B601346FB7122E03B68B3F1FF3F7E
:10265C001ED0FFF79FF80246BB69D31A3A689A421C
:10266C0002D33B68002B13D1FB685B6C43F0200258
:10267C00FB685A64FB68202283F84120FB68002227
:10268C0083F84220FB68002283F8402001230FE0EE
:10269C00FB681B689A69BB681340BA689A420CBF06
:1026AC0001230023DBB21A46FB799A42CDD00023DA
:1026BC0018461037BD4680BD80B584B000AFF860B9
:1026CC00B9607A602CE07A68B968F86800F0EAF8CA
:1026DC000346002B01D001232AE0BB68B3F1FF3F76
:1026EC001ED0FFF757F802467B68D31ABA689A4295
:1026FC0002D3BB68002B13D1FB685B6C43F0200248
:10270C00FB685A64FB68202283F84120FB68002296
:10271C0083F84220FB68002283F84020012307E065
:10272C00FB681B689B6903F00203022BCBD10023CF
:10273C0018461037BD4680BD80B584B000AFF86038
:10274C00B9607A6028E07A68B968F86800F0AAF88D
:10275C000346002B01D0012326E0FFF71BF80246AD
:10276C007B68D31ABA689A4202D3BB68002B13D188
:10277C00FB685B6C43F02002FB685A64FB68202208
:10278C0083F84120FB68002283F84220FB6800227A
:10279C0083F84020012307E0FB681B689B6903F06A
:1027AC002003202BCFD1002318461037BD4680BD07
:1027BC0080B584B000AFF860B9607A6064E07A6884
:1027CC00B968F86800F06EF80346002B01D00123BD
:1027DC0062E0FB681B689B6903F02003202B38D157
:1027EC00FB681B689B6903F00403042B05D1FB6891
:1027FC001B8D002B01D000234EE0FB681B689B69EE
:10280C0003F01003102B07D1FB681B681022DA6150
:10281C00FB6804225A6402E0FB6800225A64FB68DD
:10282C001B682022DA61FB681B685968FB681A6810
:10283C001B4B0B405360FB68202283F84120FB6844
:10284C00002283F84220FB68002283F840200123F9
:10285C0022E0FEF79FFF02467B68D31ABA689A42C1
:10286C0002D3BB68002B0FD1FB685B6C43F02002DA
:10287C00FB685A64FB68202283F84120FB68002225
:10288C0083F84020012307E0FB681B689B6903F079
:10289C000403042B93D1002318461037BD4680BD8A
:1028AC0000E800FE80B58AB000AFF860B9607A60CD
:1028BC00002387F82730FB681B689B69BB610023EA
:1028CC003B627B68FB61BB6903F01003002B75D086
:1028DC00FB681B681022DA6156E0BB68B3F1FF3F5E
:1028EC0052D0FEF757FF0246FB69D31ABA689A42D8
:1028FC0002D3BB68002B47D1FB681B685B6803F4F1
:10290C0080437B61FB6893F84230FB74FB681B6867
:10291C009B6903F40043B3F5004F2ED17B69B3F5EB
:10292C00804F2AD0FB7C202B27D0FB681B685A6871
:10293C00FB681B6842F480425A60FEF72BFFF8617B
:10294C001BE0FEF727FF0246FB69D31A192B14D99B
:10295C00FB685B6C43F02002FB685A64FB68202226
:10296C0083F84120FB68002283F84220FB68002298
:10297C0083F84020012387F82730FB681B689B698C
:10298C0003F02003202BDCD1FB681B689B6903F050
:10299C002003202B03D097F82730002B9DD097F8DD
:1029AC002730002B03D1FB681B682022DA613B6ABD
:1029BC0043F004033B62012387F82730FB681B6854
:1029CC009B69BB61BB6903F48073002B0BD03B6A22
:1029DC0043F001033B62FB681B684FF48072DA61C1
:1029EC00012387F82730BB6903F48063002B0BD0DD
:1029FC003B6A43F008033B62FB681B684FF4806240
:102A0C00DA61012387F82730BB6903F40073002BCC
:102A1C000BD03B6A43F002033B62FB681B684FF42C
:102A2C000072DA61012387F8273097F82730002BE2
:102A3C001CD0F868FFF7DCFDFB681B685968FB6865
:102A4C001A680D4B0B405360FB685A6C3B6A1A4377
:102A5C00FB685A64FB68202283F84120FB68002243
:102A6C0083F84220FB68002283F8402097F8273037
:102A7C0018462837BD4680BD00E800FE80B487B0FC
:102A8C0000AFF8607B600B467B8113467B727B89C1
:102A9C00C3F309027B7A1B0403F47F031A437B689C
:102AAC001A433B6A134323F000437B61FB681B68AA
:102ABC005A683B6A5B0D03F48061084B0B43DB43A4
:102ACC0002EA0301FB681B687A690A435A6000BF7B
:102ADC001C37BD465DF8047B704700BFFF63FF03E6
:102AEC0080B483B000AF786039607B6893F8413074
:102AFC00DBB2202B38D17B6893F84030012B01D10D
:102B0C00022332E07B68012283F840207B68242278
:102B1C0083F841207B681B681A687B681B6822F06D
:102B2C0001021A607B681B681A687B681B6822F4B8
:102B3C0080521A607B681B6819687B681B683A684E
:102B4C000A431A607B681B681A687B681B6842F032
:102B5C0001021A607B68202283F841207B680022E6
:102B6C0083F84020002300E0022318460C37BD46B2
:102B7C005DF8047B704780B485B000AF7860396035
:102B8C007B6893F84130DBB2202B39D17B6893F80A
:102B9C004030012B01D1022333E07B68012283F802
:102BAC0040207B68242283F841207B681B681A68CC
:102BBC007B681B6822F001021A607B681B681B682B
:102BCC00FB60FB6823F47063FB603B681B02FA68D4
:102BDC001343FB607B681B68FA681A607B681B6890
:102BEC001A687B681B6842F001021A607B6820221D
:102BFC0083F841207B68002283F84020002300E00A
:102C0C00022318461437BD465DF8047B704700005C
:102C1C0080B584B000AF78600023FB737B68002B19
:102C2C001ED0134BBB607B6893F83830DBB2002BA3
:102C3C0002D17868FEF708FCB86800F05BF8BB6856
:102C4C001B6843F00112BB681A60786800F02CF81E
:102C5C007B6800225A637B68012283F8382001E0EC
:102C6C000123FB73FB7B18461037BD4680BD00BFAC
:102C7C00000C005880B485B000AFF860B960134602
:102C8C00FB7100BF1437BD465DF8047B704780B400
:102C9C0085B000AFF860B9601346FB7100BF143704
:102CAC00BD465DF8047B704780B485B000AF78609A
:102CBC000023FB600FE07A68FB689B0013440B4A0F
:102CCC005A607A68FB6806339B001344084A5A60C2
:102CDC00FB680133FB60FB68052BECD900BF00BF20
:102CEC001437BD465DF8047B704700BF812C00088B
:102CFC009B2C000880B483B000AF78607B68002206
:102D0C001A607B684FF03F125A607B683F229A60D2
:102D1C0000BF0C37BD465DF8047B704780B400AF34
:102D2C00054B1B68044A43F48073136000BFBD4617
:102D3C005DF8047B704700BF0004005880B582B07A
:102D4C0000AF78600B46FB707B68B3F5804F04D105
:102D5C00FB78184600F04AF803E0FB78184600F0C0
:102D6C001BF800BF0837BD4680BD000080B400AF23
:102D7C00054B9B68044A43F40073936000BFBD4647
:102D8C005DF8047B704700BF0004005880B500AFAD
:102D9C00FFF7ECFF00BF80BD80B483B000AF0346EB
:102DAC00FB71104B1B680F4A23F0070313600E4B8B
:102DBC001B690D4A43F004031361FB79012B01D10C
:102DCC0030BF02E040BF20BF20BF074B1B69064A43
:102DDC0023F00403136100BF0C37BD465DF8047B80
:102DEC00704700BF0004005800ED00E080B483B0D1
:102DFC0000AF0346FB71114B1B6823F007030F4A0E
:102E0C0043F0010313600E4B1B690D4A43F004039E
:102E1C001361FB79012B01D130BF02E040BF20BF11
:102E2C0020BF074B1B69064A23F00403136100BF44
:102E3C000C37BD465DF8047B704700BF000400589A
:102E4C0000ED00E080B400AF4FF0B0431B6803F41A
:102E5C008013B3F5801F01D1012300E00023184635
:102E6C00BD465DF8047B704780B400AF4FF0B043B3
:102E7C001B684FF0B04243F48033136000BFBD4673
:102E8C005DF8047B704780B400AF4FF0B0431B6813
:102E9C004FF0B04223F48033136000BFBD465DF8A1
:102EAC00047B704780B400AF4FF0B0431B6803F451
:102EBC000033B3F5003F01D1012300E00023184695
:102ECC00BD465DF8047B704780B400AF4FF0B04353
:102EDC001B684FF0B04243F48073136000BFBD46D3
:102EEC005DF8047B704780B400AF4FF0B0431B68B3
:102EFC004FF0B04223F48073136000BFBD465DF801
:102F0C00047B704780B400AF4FF0B0431B6803F4F0
:102F1C008063B3F5806F01D1012300E000231846D4
:102F2C00BD465DF8047B704780B483B000AF786019
:102F3C004FF0B0435B6823F0FE427B681B064FF0FA
:102F4C00B04113434B6000BF0C37BD465DF8047BAA
:102F5C00704780B400AF4FF0B043D3F890304FF0CF
:102F6C00B04243F00103C2F8903000BFBD465DF89B
:102F7C00047B704780B400AF4FF0B043D3F890306F
:102F8C004FF0B04223F00103C2F8903000BFBD46B1
:102F9C005DF8047B704780B400AF4FF0B043D3F8BA
:102FAC0090304FF0B04243F00403C2F8903000BFB1
:102FBC00BD465DF8047B704780B400AF4FF0B04362
:102FCC00D3F890304FF0B04223F00403C2F89030A5
:102FDC0000BFBD465DF8047B704780B400AF4FF076
:102FEC00B043D3F8903003F00203022B01D101233C
:102FFC0000E000231846BD465DF8047B704780B4A2
:10300C0000AF4FF0B043D3F894304FF0B04243F0E0
:10301C000103C2F8943000BFBD465DF8047B7047D5
:10302C0080B400AF4FF0B043D3F894304FF0B042BF
:10303C0023F00103C2F8943000BFBD465DF8047B59
:10304C00704780B400AF4FF0B043D3F8943003F026
:10305C000203022B01D1012300E000231846BD46D8
:10306C005DF8047B704780B400AF4FF0B043D3F8E9
:10307C0094304FF0B04243F00403C2F8943000BFD8
:10308C00BD465DF8047B704780B400AF4FF0B04391
:10309C00D3F894304FF0B04223F00403C2F89430CC
:1030AC0000BFBD465DF8047B704780B400AF4FF0A5
:1030BC00B043D3F8943003F00803082B01D101235B
:1030CC0000E000231846BD465DF8047B704780B4D1
:1030DC0083B000AF78604FF0B043D3F8943023F452
:1030EC0070627B681B024FF0B0411343C1F89430FF
:1030FC0000BF0C37BD465DF8047B704780B400AF51
:10310C004FF0B0431B684FF0B04243F00103136023
:10311C0000BFBD465DF8047B704780B400AF4FF034
:10312C00B0431B684FF0B04223F00103136000BFA3
:10313C00BD465DF8047B704780B400AF4FF0B043E0
:10314C001B6803F00203022B01D1012300E00023D2
:10315C001846BD465DF8047B704780B483B000AF61
:10316C0078604FF0B0431B6823F0F0024FF0B04191
:10317C007B6813430B6000BF0C37BD465DF8047BC6
:10318C00704780B483B000AF4FF0B0431B6803F0BE
:10319C00F0037B607B68B02B01D9B0237B607B682C
:1031AC0018460C37BD465DF8047B704780B483B07D
:1031BC0000AF78604FF0B0435B6823F47F427B68CC
:1031CC001B024FF0B04113434B6000BF0C37BD46A0
:1031DC005DF8047B704780B483B000AF78604FF02B
:1031EC00B0439B6823F003024FF0B0417B6813435C
:1031FC008B6000BF0C37BD465DF8047B704780B414
:10320C0000AF4FF0B0439B6803F00C031846BD466B
:10321C005DF8047B704780B483B000AF78604FF0EA
:10322C00B0439B6823F0F0024FF0B0417B6813432E
:10323C008B6000BF0C37BD465DF8047B704780B4D3
:10324C0083B000AF78604FF0B043D3F8083123F06F
:10325C00F0024FF0B0417B681343C1F8083100BF56
:10326C000C37BD465DF8047B704780B483B000AF6B
:10327C0078604FF0B043D3F8083123F00F027B682D
:10328C001B094FF0B0411343C1F8083100BF0C3794
:10329C00BD465DF8047B704780B483B000AF7860A6
:1032AC004FF0B0439B6823F4E0624FF0B0417B6871
:1032BC0013438B6000BF0C37BD465DF8047B704731
:1032CC0080B483B000AF78604FF0B0439B6823F4B8
:1032DC0060524FF0B0417B6813438B6000BF0C37DA
:1032EC00BD465DF8047B704780B400AF4FF0B0432F
:1032FC009B6803F0F0031846BD465DF8047B7047ED
:10330C0080B400AF4FF0B043D3F808311B0103F089
:10331C00F0031846BD465DF8047B704780B400AFDF
:10332C004FF0B0431B684FF0B04243F08073136012
:10333C0000BFBD465DF8047B704780B400AF4FF012
:10334C00B0431B684FF0B04223F08073136000BF92
:10335C00BD465DF8047B704780B400AF4FF0B043BE
:10336C001B6803F00073B3F1007F01D1012300E06F
:10337C0000231846BD465DF8047B704780B400AF4F
:10338C004FF0B043DB681B0A03F07F031846BD46C1
:10339C005DF8047B704780B400AF4FF0B043DB683E
:1033AC0003F060431846BD465DF8047B704780B45B
:1033BC0000AF4FF0B043DB6803F070031846BD4616
:1033CC005DF8047B704780B400AF4FF0B043DB680E
:1033DC0003F003031846BD465DF8047B704780B4C8
:1033EC0000AF4FF0B0439B6803F48033B3F5803FDC
:1033FC0001D1012300E000231846BD465DF8047B93
:10340C00704780B400AF4FF0B043D3F8083103F4E9
:10341C000033B3F5003F01D1012300E0002318462F
:10342C00BD465DF8047B704780B400AF4FF0B043ED
:10343C00D3F8083103F48033B3F5803F01D1012375
:10344C0000E000231846BD465DF8047B704780B44D
:10345C0000AF4FF0B0439B6803F40033B3F5003F6B
:10346C0001D1012300E000231846BD465DF8047B22
:10347C00704780B400AF4FF0B0439B6803F48023D7
:10348C00B3F5802F01D1012300E000231846BD467F
:10349C005DF8047B7047000090B58DB000AF78608C
:1034AC007B68002B01D1012324E37B681B6803F0AC
:1034BC002003002B00F08D80FFF7A1FEF862FFF7D0
:1034CC0082FFB862FB6A002B05D0FB6A0C2B47D13C
:1034DC00BB6A012B44D17B68DB69002B01D1012332
:1034EC0008E37B685C6AFFF74CFE03469C4214D9E8
:1034FC007B685B6A184600F0C5FC0346002B01D0C4
:10350C000123F7E27B685B6A1846FFF726FE7B68AF
:10351C001B6A1846FFF74AFE13E07B685B6A184685
:10352C00FFF71BFE7B681B6A1846FFF73FFE7B68A4
:10353C005B6A184600F0A6FC0346002B01D0012361
:10354C00D8E200F08BFC0346A44A1360A44B1B6822
:10355C001846FEF7D1F80346002B39D00123C9E2F7
:10356C007B68DB69002B1ED0FFF7C8FDFEF712F954
:10357C00786208E0FEF70EF902467B6AD31A022B3A
:10358C0001D90323B6E2FFF7D7FD0346002BF1D098
:10359C007B685B6A1846FFF7E0FD7B681B6A184680
:1035AC00FFF704FE15E0FFF7B8FDFEF7F3F87862BD
:1035BC0008E0FEF7EFF802467B6AD31A022B01D91A
:1035CC00032397E2FFF7B8FD0346002BF1D100E08F
:1035DC0000BF7B681B6803F00103002B47D0FFF78B
:1035EC000EFE3862FFF7EFFEF8613B6A082B05D040
:1035FC003B6A0C2B08D1FB69032B05D17B685B68FC
:10360C00002B34D1012375E27B685B68B3F5803FF6
:10361C0002D1FFF729FC01E0FFF735FC7B685B6802
:10362C00002B12D0FEF7B6F8786208E0FEF7B2F87D
:10363C0002467B6AD31A642B01D903235AE2FFF7A3
:10364C0031FC0346002BF1D011E0FEF7A3F87862B1
:10365C0008E0FEF79FF802467B6AD31A642B01D967
:10366C00032347E2FFF71EFC0346002BF1D17B68D6
:10367C001B6803F00203002B4CD0FFF7C0FDB861B0
:10368C00FFF7A1FE7861BB69042B05D0BB690C2B3D
:10369C000ED17B69022B0BD17B68DB68002B01D12F
:1036AC00012327E27B681B691846FFF73DFC31E0DC
:1036BC007B68DB68002B19D0FFF706FCFEF76AF875
:1036CC00786208E0FEF766F802467B6AD31A022B92
:1036DC0001D903230EE2FFF715FC0346002BF1D0B2
:1036EC007B681B691846FFF71FFC13E0FFF7FBFB19
:1036FC00FEF750F8786208E0FEF74CF802467B6A59
:10370C00D31A022B01D90323F4E1FFF7FBFB034689
:10371C00002BF1D17B681B6803F00803002B06D14A
:10372C007B681B6803F01003002B00F0A3807B6800
:10373C005B69002B76D07B681B6803F01003002BB1
:10374C0046D0FFF77EFC0346002B13D1FFF757FC46
:10375C00FEF720F8786208E0FEF71CF802467B6A58
:10376C00D31A022B01D90323C4E1FFF76AFC0346E9
:10377C00002BF1D0FFF777FCFEF70CF8786208E02D
:10378C00FEF708F802467B6AD31A032B01D90323F0
:10379C00B0E1FFF78AFC0346002BF1D07B689B69F4
:1037AC001846FFF794FCFFF73BFCFDF7F3FF78623C
:1037BC0008E0FDF7EFFF02467B6AD31A022B01D912
:1037CC00032397E1FFF73DFC0346002BF1D151E0B9
:1037DC00FFF715FCFDF7DEFF78620CE0100000200F
:1037EC0014000020FDF7D6FF02467B6AD31A022B89
:1037FC0001D903237EE1FFF724FC0346002BF1D013
:10380C00FFF742FC08E0FDF7C5FF02467B6AD31ABE
:10381C00032B01D903236DE1FFF747FC0346002B73
:10382C00F1D127E0FFF730FCFDF7B4FF786208E038
:10383C00FDF7B0FF02467B6AD31A032B01D9032391
:10384C0058E1FFF732FC0346002BF1D1FFF7E8FB00
:10385C00FDF7A0FF786208E0FDF79CFF02467B6A4B
:10386C00D31A022B01D9032344E1FFF7EAFB0346E9
:10387C00002BF1D17B681B6803F00403002B5BD099
:10388C009E4B1B6803F48073002B14D1FFF746FA90
:10389C00FDF780FF786208E0FDF77CFF02467B6A4B
:1038AC00D31A022B01D9032324E1944B1B6803F494
:1038BC008073002BF0D07B689B68012B02D1FFF743
:1038CC0048FB0CE07B689B68052B04D1FFF763FB7E
:1038DC00FFF73FFB03E0FFF74DFBFFF76DFB7B684A
:1038EC009B68002B14D0FDF755FF78620AE0FDF7BA
:1038FC0051FF02467B6AD31A41F28832934201D9B6
:10390C000323F7E0FFF769FB0346002BEFD013E02E
:10391C00FDF740FF78620AE0FDF73CFF02467B6A48
:10392C00D31A41F28832934201D90323E2E0FFF724
:10393C0054FB0346002BEFD17B689B6A002B00F0F5
:10394C00D880FFF75CFC38614FF0B043DB68FB605C
:10395C007B689B6A022B40F0A680FB6803F0030295
:10396C007B68DB6A9A4223D1FB6803F070027B68A8
:10397C001B6B9A421CD1FB681B0A03F07F027B680D
:10398C005B6B9A4214D1FB6803F478127B689B6BD7
:10399C009A420DD1FB6803F060627B68DB6B9A4244
:1039AC0006D1FB6803F060427B681B6C9A4254D0D2
:1039BC003B690C2B4FD0FFF7C0FCFDF7EBFE786298
:1039CC0008E0FDF7E7FE02467B6AD31A022B01D909
:1039DC0003238FE04FF0B0431B6803F00073002B00
:1039EC00EFD14FF0B043DA68454B13407A68D16A97
:1039FC007A68126B11437A68526B120211437A681F
:103A0C00926B11437A68D26B11437A68126C0A4339
:103A1C004FF0B0411343CB60FFF780FC4FF0B04345
:103A2C00DB684FF0B04243F08053D360FDF7B2FE39
:103A3C00786208E0FDF7AEFE02467B6AD31A022BD1
:103A4C0001D9032356E04FF0B0431B6803F0007319
:103A5C00002BEFD04DE001234CE04FF0B0431B683E
:103A6C0003F00073002B44D1FFF758FC4FF0B04328
:103A7C00DB684FF0B04243F08053D360FDF78AFE11
:103A8C00786208E0FDF786FE02467B6AD31A022BA9
:103A9C0001D903232EE04FF0B0431B6803F00073F1
:103AAC00002BEFD025E03B690C2B20D0FFF745FC19
:103ABC00FDF770FE786208E0FDF76CFE02467B6A4B
:103ACC00D31A022B01D9032314E04FF0B0431B6827
:103ADC0003F00073002BEFD14FF0B043DB684FF0D5
:103AEC00B04223F0805323F00303D36001E00123A1
:103AFC0000E0002318463437BD4690BD0004005842
:103B0C008C80C11180B584B000AF786039607B685F
:103B1C00002B01D101232DE1984B1B6803F0070307
:103B2C003A689A421BD9954B1B6823F007029349BC
:103B3C003B6813430B60FDF72DFEF86008E0FDF7C2
:103B4C0029FE0246FB68D31A022B01D9032311E18B
:103B5C008A4B1B6803F007033A689A42EFD17B68E3
:103B6C001B6803F00203002B16D07B689B68184679
:103B7C00FFF751FBFDF70EFEF86008E0FDF70AFEBB
:103B8C000246FB68D31A022B01D90323F2E0FFF79C
:103B9C0026FC0346002BF1D07B681B6803F0200346
:103BAC00002B16D07B685B691846FFF748FBFDF7C6
:103BBC00F1FDF86008E0FDF7EDFD0246FB68D31A55
:103BCC00022B01D90323D5E0FFF71BFC0346002B86
:103BDC00F1D07B681B6803F04003002B16D07B6888
:103BEC009B691846FFF741FBFDF7D4FDF86008E030
:103BFC00FDF7D0FD0246FB68D31A022B01D9032333
:103C0C00B8E0FFF711FC0346002BF1D07B681B6872
:103C1C0003F00403002B16D07B68DB681846FFF713
:103C2C003BFBFDF7B7FDF86008E0FDF7B3FD02467E
:103C3C00FB68D31A022B01D903239BE0FFF707FC87
:103C4C000346002BF1D07B681B6803F00803002BA4
:103C5C0017D07B681B69DB001846FFF731FBFDF7BB
:103C6C0099FDF86008E0FDF795FD0246FB68D31A54
:103C7C00022B01D903237DE0FFF7FBFB0346002B4E
:103C8C00F1D07B681B6803F00103002B43D07B68E9
:103C9C005B68022B06D1FFF705F90346002B1ED1FA
:103CAC00012367E07B685B68032B06D1FFF754FBAD
:103CBC000346002B13D101235CE07B685B68002B6F
:103CCC0006D1FFF739FA0346002B08D1012351E046
:103CDC00FFF718F90346002B01D101234AE07B685A
:103CEC005B681846FFF777FAFDF754FDF8600AE0B9
:103CFC00FDF750FD0246FB68D31A41F2883293421D
:103D0C0001D9032336E0FFF77AFA02467B685B6839
:103D1C009B009A42ECD1194B1B6803F007033A68DD
:103D2C009A421BD2154B1B6823F0070213493B68C0
:103D3C0013430B60FDF72EFDF86008E0FDF72AFD3C
:103D4C000246FB68D31A022B01D9032312E00B4B5A
:103D5C001B6803F007033A689A42EFD100F07EF833
:103D6C000346074A1360FDF721FD03461846FDF78D
:103D7C00C3FC034618461037BD4680BD00400058B2
:103D8C001000002090B585B000AFFFF738FA7860CE
:103D9C007B68002B0AD1FFF7F4F903461B0903F0EB
:103DAC000F032B4A52F82330FB604BE07B68042B4B
:103DBC0002D1284BFB6045E07B68082B0AD1FFF74A
:103DCC0041F80346012B02D1224BFB603AE0224B17
:103DDC00FB6037E0FFF7F7FA38603B68022B03D043
:103DEC003B68032B03D00DE01A4BBB6015E0FFF7CB
:103DFC0029F80346012B02D1164BBB600DE0164B84
:103E0C00BB600AE0FFF7BDF903461B0903F00F0383
:103E1C000F4A52F82330BB6000BFFFF7AFFA0246DF
:103E2C00BB6803FB02F4FFF7C2FA03461B0901331C
:103E3C00B4FBF3F4FFF7AFFA03465B0F0133B4FBAB
:103E4C00F3F3FB60FB6818461437BD4690BD00BF0A
:103E5C00F47600080024F4000048E80198B500AF9F
:103E6C00FFF790FF0446FFF73FFA03461B0903F0E8
:103E7C000F03034A52F82330B4FBF3F3184698BDF2
:103E8C00B476000880B584B000AF78607B68B02B46
:103E9C0003D9144BDB6AFB6007E07B681B0903F05A
:103EAC000F03104A52F82330FB60FFF729FA034640
:103EBC001B0903F00F030C4A52F82330FA68B2FBCB
:103ECC00F3F3BB60BB68094AA2FB03239B0C4FF4C2
:103EDC000071184600F00CF8034618461037BD4622
:103EEC0080BD00BFF4760008B476000883DE1B4367
:103EFC0090B58FB000AF78603960244B07F11C048B
:103F0C000FCB84E80F00224B07F10C040FCB84E895
:103F1C000F0000237B6300233B6313E03B6B9B0090
:103F2C0038333B4453F81C3C7A689A4207D83B6BB5
:103F3C009B0038333B4453F82C3C7B6305E03B6BD4
:103F4C0001333B633B6B032BE8D9124B1B6823F00B
:103F5C00070210497B6B13430B60FDF71BFCF862E7
:103F6C0008E0FDF717FC0246FB6AD31A022B01D9B5
:103F7C00032307E0074B1B6803F007037A6B9A4295
:103F8C00EFD1002318463C37BD4690BDDC740008C9
:103F9C00EC7400080040005880B400AF4FF0B04300
:103FAC00D3F8903003F00103012B01D1012300E081
:103FBC0000231846BD465DF8047B704780B400AF03
:103FCC004FF0B043D3F8903003F00203022B01D131
:103FDC00012300E000231846BD465DF8047B7047C2
:103FEC0080B483B000AF78604FF0B043D3F8943016
:103FFC0023F440424FF0B0417B681343C1F8943036
:10400C0000BF0C37BD465DF8047B704780B483B0AD
:10401C0000AF78604FF0B0435B6A23F003024FF0BF
:10402C00B0417B6813434B6200BF0C37BD465DF853
:10403C00047B704780B483B000AF78604FF0B0431E
:10404C005B6A23F030024FF0B0417B6813434B6244
:10405C0000BF0C37BD465DF8047B704780B483B05D
:10406C0000AF78604FF0B043D3F8883023F00302F0
:10407C004FF0B0417B681343C1F8883000BF0C3758
:10408C00BD465DF8047B704780B483B000AF7860A8
:10409C004FF0B043D3F8883023F440624FF0B04176
:1040AC007B681343C1F8883000BF0C37BD465DF800
:1040BC00047B704780B483B000AF78604FF0B0439E
:1040CC00D3F888207B681B0903F47F23DB431A4059
:1040DC007B681B0103F47F234FF0B0411343C1F8FD
:1040EC00883000BF0C37BD465DF8047B704780B448
:1040FC0083B000AF78604FF0B043D3F888207B6872
:10410C001B0C1B04DB431A407B681B044FF0B041B3
:10411C001343C1F8883000BF0C37BD465DF8047BF3
:10412C00704780B483B000AF78604FF0B043D3F8E1
:10413C00883023F040424FF0B0417B681343C1F804
:10414C00883000BF0C37BD465DF8047B704780B4E7
:10415C0083B000AF78604FF0B043D3F8883023F0D1
:10416C0040624FF0B0417B681343C1F8883000BF08
:10417C000C37BD465DF8047B704780B483B000AF4C
:10418C0078604FF0B043D3F8883023F040524FF0B2
:10419C00B0417B681343C1F8883000BF0C37BD4673
:1041AC005DF8047B704780B483B000AF78604FF04B
:1041BC00B043D3F8903023F440724FF0B0417B6899
:1041CC001343C1F8903000BF0C37BD465DF8047B3B
:1041DC00704780B400AF4FF0B043D3F8903003F485
:1041EC0040731846BD465DF8047B704780B400AF41
:1041FC004FF0B043D3F890304FF0B04243F48033DB
:10420C00C2F8903000BFBD465DF8047B704780B4A7
:10421C0000AF4FF0B043D3F890304FF0B04223F4DE
:10422C008033C2F8903000BFBD465DF8047B704708
:10423C0080B588B000AF78600023FB770023BB7794
:10424C007B681B6803F40063002B46D0FFF7C1FFAB
:10425C00B8617B681B6ABA699A423CD0FEF75EFD76
:10426C00BB69002B05D17B681B6A1846FFF79BFFC7
:10427C002EE04FF0B043D3F890307B61FFF7B6FFE0
:10428C00FFF7C5FF7B6923F440727B681B6A1343FD
:10429C007B614FF0B0427B69C2F89030FFF77CFE37
:1042AC000346012B14D1FDF775FA38610BE0FDF7CD
:1042BC0071FA02463B69D31A41F28832934202D911
:1042CC000323FB7704E0FFF779FE0346012BEED1C5
:1042DC00FB7FBB7701E0FB7FBB777B681B6803F040
:1042EC000103002B04D07B685B681846FFF7B6FE11
:1042FC007B681B6803F00203002B04D07B689B686F
:10430C001846FFF7C1FE7B681B6803F01003002BF7
:10431C0004D07B681B691846FFF7E9FE7B681B68B5
:10432C0003F02003002B04D07B685B691846FFF771
:10433C00DEFE7B681B6803F00403002B04D07B6853
:10434C00DB681846FFF7B6FE7B681B6803F4007346
:10435C00002B2BD07B689B69B3F1804F08D07B6816
:10436C009B69B3F1004F03D07B689B69002B05D18F
:10437C007B689B691846FFF7D4FE0AE07B689B6953
:10438C0023F08053FB600020FFF7CBFEF868FFF7AB
:10439C00DEFE7B689B69B3F1C05F07D14FF0B04381
:1043AC00DB684FF0B04243F08073D3607B681B68CE
:1043BC0003F48063002B11D07B68DB691846FFF790
:1043CC00DCFE7B68DB69B3F1005F07D14FF0B043D3
:1043DC00DB684FF0B04243F48033D3607B681B68DA
:1043EC0003F48053002B04D07B685B6A1846FFF7FC
:1043FC00F7FD7B681B6803F40053002B09D07B6826
:10440C00DB6A1846FFF716FE7B689B6A1846FFF7B7
:10441C00FDFDBB7F18462037BD4680BD80B582B000
:10442C0000AF78607B68002B01D1012390E07B68A2
:10443C0093F82130DBB2002B06D17B68002283F885
:10444C0020207868FDF724F87B68022283F821206D
:10445C007B681B68CA225A627B681B6853225A62AB
:10446C00786800F09FF80346002B09D07B681B6826
:10447C00FF225A627B68042283F82120012367E023
:10448C007B681B689B687A68126823F4E00323F04E
:10449C00400393607B681B6899687B685A687B68EB
:1044AC001B691A437B689B691A437B681B680A4328
:1044BC009A607B681B687A68D2681A617B681B6893
:1044CC0019697B689B681A047B681B680A431A612C
:1044DC007B681B68DA687B681B6822F08002DA60F4
:1044EC007B681B68DA6C7B681B6822F00202DA645A
:1044FC007B681B68D96C7B68DA697B685B691A43DB
:10450C007B681B680A43DA647B681B689B6803F052
:10451C002003002B13D1786800F01EF80346002B03
:10452C000DD07B681B68FF225A627B68042283F8DB
:10453C0021207B68002283F82020012308E07B687F
:10454C001B68FF225A627B68012283F8212000231A
:10455C0018460837BD4680BD80B584B000AF786082
:10456C007B681B68DA687B681B6822F0A002DA6043
:10457C00FDF710F9F86009E0FDF70CF90246FB684D
:10458C00D31AB3F57A7F01D9032307E07B681B6844
:10459C00DB6803F02003002BEED000231846103705
:1045AC00BD4680BD80B584B000AF78607B681B6869
:1045BC00DB6803F04003002B19D17B681B684FF0BC
:1045CC00FF32DA60FDF7E6F8F86009E0FDF7E2F893
:1045DC000246FB68D31AB3F57A7F01D9032307E0AF
:1045EC007B681B68DB6803F04003002BEED00023D4
:1045FC0018461037BD4680BD80B586B000AFF86058
:10460C00B9607A60FB6893F82030012B01D102234A
:10461C00A8E0FB68012283F82020FB68022283F8C3
:10462C002120FB681B68CA225A62FB681B68532254
:10463C005A62FB681B689B6803F48063002B20D0D4
:10464C00FDF7A8F8786115E0FDF7A4F802467B6940
:10465C00D31AB3F57A7F0DD9FB681B68FF225A6217
:10466C00FB68032283F82120FB68002283F82020BA
:10467C00032377E0FB681B68DB6803F00403002B63
:10468C00E2D1FB681B689A68FB681B6822F48062A5
:10469C009A60FB681B68DB68DAB2FB681B6862F423
:1046AC009062DA60FDF776F8786115E0FDF772F844
:1046BC0002467B69D31AB3F57A7F0DD9FB681B6868
:1046CC00FF225A62FB68032283F82120FB68002238
:1046DC0083F82020032345E0FB681B68DB6803F0AC
:1046EC000403002BE2D0FB681B68BA685A61FB68B4
:1046FC001B689A68FB681B6822F007029A60FB68CB
:10470C001B689968FB681B687A680A439A60174BA8
:10471C00D3F88030154A43F40023C2F88030134B91
:10472C001B68124A43F400231360FB681B689A68E9
:10473C00FB681B6842F480429A60FB681B689A68AD
:10474C00FB681B6842F480629A60FB681B68FF225E
:10475C005A62FB68012283F82120FB68002283F84F
:10476C002020002318461837BD4680BD000800588D
:10477C0080B584B000AF78607B6893F82030012B53
:10478C0001D102234DE07B68012283F820207B6855
:10479C00022283F821207B681B68CA225A627B683C
:1047AC001B6853225A627B681B689A687B681B687B
:1047BC0022F480629A607B681B689A687B681B682D
:1047CC0022F480429A60FCF7E5FFF86015E0FCF7F4
:1047DC00E1FF0246FB68D31AB3F57A7F0DD97B68EB
:1047EC001B68FF225A627B68032283F821207B68B6
:1047FC00002283F82020032313E07B681B68DB680E
:10480C0003F00403002BE2D07B681B68FF225A6282
:10481C007B68012283F821207B68002283F820200A
:10482C00002318461037BD4680BD000080B582B00D
:10483C0000AF78607B681B68DB6803F48063002B37
:10484C000BD0786800F018F87B681B68DB68DAB26C
:10485C007B681B6862F49062DA60064B4FF40022AE
:10486C00DA607B68012283F8212000BF0837BD463F
:10487C0080BD00BF0008005880B483B000AF7860E2
:10488C0000BF0C37BD465DF8047B7047B0B5CEB0A9
:10489C0000AF05460C461046194607F59C73A3F26B
:1048AC0031132A461A7007F59C73A3F59A732246A6
:1048BC001A8007F59C73A3F59B7302461A8007F5C3
:1048CC009C73A3F599730A461A7007F11003C7F885
:1048DC00343197F84C31083307F110021344C7F800
:1048EC00303197F84C2197F854311344093307F1C0
:1048FC0010021344C7F82C3107F59C73A3F229134B
:10490C0000221A700023C7F82831D7F8343107F584
:10491C009C72A2F2311212781A70D7F82831013336
:10492C00C7F82831D7F8343107F59C72A2F59A7282
:10493C001288A3F80120D7F828310233C7F82831A0
:10494C00D7F8343107F59C72A2F59B721288A3F844
:10495C000320D7F828310233C7F82831D7F834317F
:10496C0007F59C72A2F5997212785A71D7F8283112
:10497C000133C7F82831D7F8343197F848219A71A8
:10498C00D7F828310133C7F82831D7F8343197F8E4
:10499C004C21DA71D7F828310133C7F82831D7F810
:1049AC003431083397F84C21D7F85011184600F0E1
:1049BC0021FC97F84C31D7F828211344C7F828313B
:1049CC00D7F8303197F854211A70D7F828310133C1
:1049DC00C7F82831D7F83031013397F85421D7F87C
:1049EC005811184600F006FC97F85431D7F82821D6
:1049FC001344C7F82831D7F82C31B7F85C211A804A
:104A0C00D7F828310233C7F82831D7F82C31B7F84A
:104A1C0060215A80D7F828310233C7F8283107F5BE
:104A2C00887318220021184600F0F4FB3F23A7F8E6
:104A3C0010318323A7F8123107F11003C7F818318E
:104A4C00D7F82831C7F81C3107F10F03C7F820310C
:104A5C000123C7F8243107F588730021184600F0AC
:104A6C004FFE0346002B01DAFF2304E007F59C738D
:104A7C00A3F229131B78184607F59C77BD46B0BDE9
:104A8C0090B5CDB000AF04460846114607F59872B4
:104A9C00A2F59872136007F59873A3F229132246B6
:104AAC001A7007F59873A3F5957302461A7007F5FB
:104ABC009873A3F22B130A461A7007F11003C7F868
:104ACC002C3107F1080307220021184600F0A2FB45
:104ADC000023C7F82831D7F82C3107F59872A2F2C9
:104AEC00291212781A70D7F828310133C7F82831F7
:104AFC00D7F82C3107F59872A2F5957212785A7086
:104B0C00D7F828310133C7F82831D7F82C3107F5FD
:104B1C009872A2F22B1212789A70D7F828310133BE
:104B2C00C7F8283107F5887318220021184600F0C1
:104B3C0071FB3F23A7F810318A23A7F8123107F134
:104B4C001003C7F81831D7F82831C7F81C3107F112
:104B5C000803C7F820310723C7F8243107F58873F9
:104B6C000021184600F0CCFD0346002B01DAFF2390
:104B7C002EE007F59873A3F594731B78002B05D0E2
:104B8C0007F59873A3F594731B7821E007F59873D8
:104B9C00A3F59473B3F801309AB207F59873A3F5A3
:104BAC0098731B681A8007F59873A3F59473B3F880
:104BBC0003309AB2D7F840311A8007F59873A3F5F1
:104BCC009473B3F805309AB2D7F844311A800023A5
:104BDC00184607F59A77BD4690BD80B5CCB000AFAE
:104BEC00024607F59873A3F59873196007F5987347
:104BFC00A3F229131A7007F11003C7F82C3107F52B
:104C0C009873A3F2211300221A700023C7F82831DD
:104C1C00D7F82C3107F59872A2F2291212781A7073
:104C2C00D7F828310133C7F82831D7F82C31581C64
:104C3C0007F59873A3F229131A7807F59873A3F55F
:104C4C009873196800F0D6FA07F59873A3F2291334
:104C5C001B78D7F828211344C7F8283107F5887337
:104C6C0018220021184600F0D5FA3F23A7F810317E
:104C7C008E23A7F8123107F11003C7F81831D7F8B3
:104C8C002831C7F81C3107F10F03C7F82031012375
:104C9C00C7F8243107F588730021184600F030FD61
:104CAC000346002B01DAFF2304E007F59873A3F207
:104CBC0021131B78184607F59877BD4680BD80B543
:104CCC00CCB000AF024607F59873A3F229131A7003
:104CDC0007F11003C7F82C3107F59873A3F22113D1
:104CEC0000221A700023C7F82831D7F82C3107F5A9
:104CFC009872A2F2291212781A70D7F8283101335F
:104D0C00C7F8283107F5887318220021184600F0DF
:104D1C0081FA3F23A7F810318F23A7F8123107F13E
:104D2C001003C7F81831D7F82831C7F81C3107F130
:104D3C000F03C7F820310123C7F8243107F5887316
:104D4C000021184600F0DCFC0346002B01DAFF239F
:104D5C0004E007F59873A3F221131B78184607F5A6
:104D6C009877BD4680BD80B588B000AF0023FB713D
:104D7C0007F1080318220021184600F04BFA3F23D4
:104D8C003B8140F201137B81FB1DBB610123FB6165
:104D9C0007F108030021184600F0B2FC0346002B73
:104DAC0001DAFF2300E0FB7918462037BD4680BDB1
:104DBC00B0B5CCB000AF05460C461046194607F509
:104DCC009873A3F595732A461A8007F59873A3F583
:104DDC00967322461A8007F59873A3F22D13024698
:104DEC001A7007F59873A3F597730A461A7007F1B2
:104DFC001003C7F82C3107F59873A3F22113002286
:104E0C001A700023C7F82831D7F82C3107F598729F
:104E1C00A2F5957212881A80D7F828310233C7F898
:104E2C002831D7F82C3107F59872A2F596721288B2
:104E3C005A80D7F828310233C7F82831D7F82C31EB
:104E4C0007F59872A2F22D1212781A71D7F8283140
:104E5C000133C7F82831D7F82C3107F59872A2F531
:104E6C00977212785A71D7F828310133C7F8283164
:104E7C00D7F82C31981D07F59873A3F597731B7809
:104E8C001A46D7F8401100F0B5F907F59873A3F559
:104E9C0097731B78D7F828211344C7F8283107F5E6
:104EAC00887318220021184600F0B4F93F23A7F8A4
:104EBC0010314FF48373A7F8123107F11003C7F8C0
:104ECC001831D7F82831C7F81C3107F10F03C7F890
:104EDC0020310123C7F8243107F5887300211846C7
:104EEC0000F00EFC0346002B01DAFF2304E007F56B
:104EFC009873A3F221131B78184607F59877BD46D3
:104F0C00B0BD80B5CCB000AF07F59873A3F598731E
:104F1C001A6007F59873A3F2291302461A7007F565
:104F2C009873A3F595730A461A7007F11003C7F826
:104F3C002C3107F59873A3F2211300221A70002369
:104F4C00C7F82831D7F82C3107F59872A2F229123C
:104F5C0012781A70D7F828310133C7F82831D7F8EE
:104F6C002C3107F59872A2F5957212785A70D7F811
:104F7C0028310133C7F82831D7F82C31981C07F5A4
:104F8C009873A3F595731A7807F59873A3F598732E
:104F9C00196800F02FF907F59873A3F595731B7832
:104FAC00D7F828211344C7F8283107F5887318223D
:104FBC000021184600F02EF93F23A7F810310C23DE
:104FCC00A7F8123107F11003C7F81831D7F82831B8
:104FDC00C7F81C3107F10F03C7F820310123C7F8BC
:104FEC00243107F588730021184600F089FB03462D
:104FFC00002B01DAFF2304E007F59873A3F22113C9
:10500C001B78184607F59877BD4680BD80B5CCB0A7
:10501C0000AF024607F59873A3F229131A7007F52F
:10502C009873A3F595730A461A7007F11003C7F825
:10503C002C3107F59873A3F2211300221A70002368
:10504C00C7F82831D7F82C3107F59872A2F229123B
:10505C0012781A70D7F828310133C7F82831D7F8ED
:10506C002C3107F59872A2F5957212785A70D7F810
:10507C0028310133C7F8283107F58873182200212D
:10508C00184600F0C7F83F23A7F810310F23A7F8F4
:10509C00123107F11003C7F81831D7F82831C7F8C7
:1050AC001C3107F10F03C7F820310123C7F8243155
:1050BC0007F588730021184600F022FB0346002BED
:1050CC0001DAFF2304E007F59873A3F221131B7890
:1050DC00184607F59877BD4680BD80B588B000AFFF
:1050EC000023FB7107F1080318220021184600F079
:1050FC0091F803233B8103237B81FB1DBB610123BF
:10510C00FB6107F108030021184600F0F9FA034689
:10511C00002B01DAFF2300E0FB7918462037BD464F
:10512C0080BD80B5CCB000AF024607F59873A3F5EF
:10513C009873196007F59873A3F229131A7007F185
:10514C001003C7F82C3107F59873A3F22113002232
:10515C001A700023C7F82831D7F82C3107F598724C
:10516C00A2F2291212781A70D7F828310133C7F835
:10517C002831D7F82C31581C07F59873A3F5987380
:10518C001F22196800F036F8D7F828311F33C7F8FA
:10519C00283107F5887318220021184600F03AF8D8
:1051AC000823A7F810310923A7F8123107F11003CF
:1051BC00C7F81831D7F82831C7F81C3107F10F039D
:1051CC00C7F820310123C7F8243107F58873002173
:1051DC00184600F095FA0346002B01DAFF2304E091
:1051EC0007F59873A3F221131B78184607F59877E7
:1051FC00BD4680BD80B584B000AFF860B9607A6000
:10520C007A68B968F86802F033F903461846103723
:10521C00BD4680BD80B584B000AFF860B9607A60DF
:10522C007A68B968F86802F031F903461846103705
:10523C00BD4680BD80B400AF00BFBD465DF8047BA9
:10524C00704780B400AF00BFBD465DF8047B70476B
:10525C0080B400AF00BFBD465DF8047B704780B4DE
:10526C0000AF00BFBD465DF8047B704780B400AF53
:10527C0000BFBD465DF8047B704780B400AF00BF33
:10528C00BD465DF8047B704780B400AF00BFBD46DF
:10529C005DF8047B704780B400AF00BFBD465DF87D
:1052AC00047B704780B400AF00BFBD465DF8047B43
:1052BC00704780B400AF00BFBD465DF8047B7047FB
:1052CC0080B400AF00BFBD465DF8047B704780B46E
:1052DC0000AF00BFBD465DF8047B704780B400AFE3
:1052EC0000BFBD465DF8047B704780B400AF00BFC3
:1052FC00BD465DF8047B704780B400AF00BFBD466F
:10530C005DF8047B704780B400AF00BFBD465DF80C
:10531C00047B704780B400AF00BFBD465DF8047BD2
:10532C00704780B400AF00BFBD465DF8047B70478A
:10533C0080B500AF044B00221A77044B00221A7080
:10534C0000F006F800BF80BDC0000020E000002087
:10535C0080B500AFFFF76EFFFFF773FFFFF778FF25
:10536C00FFF77DFFFFF782FFFFF787FFFFF78CFF4B
:10537C00FFF791FFFFF796FFFFF79BFFFFF7A0FFEB
:10538C00FFF7A5FFFFF7AAFFFFF7AFFFFFF7B4FF8B
:10539C00FFF7C0FFFFF7B7FFFFF7C3FF00BF80BDEC
:1053AC0080B586B000AF78607B6801333B61002329
:1053BC00FB753B691B78FF2B25D13B690233FB60E6
:1053CC00FB681B889BB203F47F43B3F5406F18D185
:1053DC0000237B750DE07B7D1A4A52F823307868E8
:1053EC0098470346FB75FB7D002B08D17B7D013371
:1053FC007B75144B1B7F7A7D9A42ECD302E000BF85
:10540C0000E000BF00E000BFFB7D022B0FD0022BA1
:10541C0010DC002B02D0012B06D00BE0786800F0DA
:10542C0087FF0346BB7508E00123BB7505E000232D
:10543C00BB7502E00123BB7500BFBB7D1846183756
:10544C00BD4680BDC000002080B588B000AF78603C
:10545C0007F10C03FB617B6803F10C02FB692C2147
:10546C004FF6664000F0E2FAFB690B33DB78184626
:10547C002037BD4680BD80B588B000AF786007F19D
:10548C000C03FB617B6803F10C02FB690F214FF6E7
:10549C00684000F0CBFAFB690B33DB7818462037F9
:1054AC00BD4680BD80B588B000AF786007F10C03B5
:1054BC00FB61FB697A680E214FF6754000F0B6FA75
:1054CC00FB690B33DB7818462037BD4680BD0000E6
:1054DC0080B48BB000AF786000233B610023FB608D
:1054EC0000237B6200233B620023FB610023BB6033
:1054FC000023BB6100237B614A4BDB6BC3F30D03C1
:10550C003B613B699B0003F1005303F540331B687F
:10551C00BB60BB681B68444A93420FD1BB685B6994
:10552C007B62BB689B693B62BB68DB69FB61BB68E8
:10553C00DB68BB61BB681B697B611AE03B699B0044
:10554C0003F1005303F54033FB60FB681B681B69D8
:10555C007B62FB681B685B693B62FB681B689B6931
:10556C00FB61FB681B685B68BB61FB681B689B6825
:10557C007B617B6A1B0EDAB27B681A707B6A1B0C30
:10558C00DAB27B685A707B6A1B0ADAB27B689A7053
:10559C007B6A1B09DBB203F00F03DAB27B68DA70AB
:1055AC007B6ADBB203F00F03DAB27B681A713B6AD9
:1055BC001B0EDAB27B685A713B6A1B0CDAB27B6841
:1055CC009A713B6A1B0ADAB27B68DA713B6ADAB20F
:1055DC007B681A72FB69DAB27B685A72BB691B0E64
:1055EC00DAB27B689A72BB691B0CDAB27B68DA722E
:1055FC00BB691B0ADAB27B681A737B691B0EDAB2C1
:10560C007B685A737B691B0CDAB27B689A737B6973
:10561C00DAB27B68DA73002318462C37BD465DF886
:10562C00047B704700400058B95646A980B582B03B
:10563C0000AF786039603B685B68084A1360084AC1
:10564C007B68D361064800F073F93B681B68184609
:10565C0000F0D4F800BF0837BD4680BD38020020EA
:10566C001002002080B584B000AF224800F028FD65
:10567C000346002B2BD1204B1B78002B27D007F196
:10568C000C0319461B4800F0AAFD1C4BDB69002BD0
:10569C000CD0FB68BB6001233B71184BDB693A1DD6
:1056AC00104698473A79144B1A7002E0124B0122BB
:1056BC001A70114B1B78002B04D0FB68184600F0B5
:1056CC0003FC04E0FB6819460A4800F01BFD09487E
:1056DC0000F0F6FC0346002B07D1074B1B78002B80
:1056EC0003D0044800F04EFF00BF00BF1037BD468A
:1056FC0080BD00BFE8000020F40000201002002054
:10570C0080B588B000AF78600B46FB70002000F0CD
:10571C00CBF80023FB777B685B881BB2C3F30903D0
:10572C001AB27B681B889B021BB213431BB2BB8350
:10573C007B68DB68D9B27B689A68BB8B184600F033
:10574C008DF84EE048F2E80000F033FF43E007F13B
:10575C000C031946284800F042FDFB685B7A0F2BBE
:10576C0014D1FB680B333B613B695B889BB2BA8BF2
:10577C009A4204D17B681B693A6912781A703B69AA
:10578C005B78002B27D00123FB7724E0FB680B33DD
:10579C00BB61BB69B3F801309BB2BA8B9A4214D18E
:1057AC00FB689B7A033BFB757B685A69FB7D9A42CD
:1057BC00A8BF1A467B685A617B681869BB69D91CFB
:1057CC007B685B691A4601F053FEBB691B78002BA2
:1057DC0001D00123FB77084800F072FC0346002B34
:1057EC00B5D0FB7F002BADD0012000F05DF800237D
:1057FC0018462037BD4680BD3002002080B586B0EB
:10580C0000AF78600F4800F04BFC0F4A7B681360C8
:10581C000E4800F045FC0E4B01221A700D4B1B6814
:10582C00002B0AD07B683B610B4BBB60094B1B68A0
:10583C0007F108021046984700BF00BF1837BD4655
:10584C0080BD00BF30020020F0000020E8000020E6
:10585C00F400002010020020F558000880B582B03A
:10586C0000AF03463A60FB800B467B710C4B1B6808
:10587C00FA88A3F809200A4B1B687A79DA72084B6C
:10588C001B680C337A793968184601F0F1FD054B29
:10589C001B6900210020984700BF0837BD4680BD1A
:1058AC00F00000201002002080B582B000AF03464B
:1058BC00FB71FB79002B08D10A4B1B68002B0DD018
:1058CC00084B1B680020984708E0064B1B68002B10
:1058DC0004D0044B1B680120984700BF00BF083759
:1058EC00BD4680BD3802002080B582B000AF786024
:1058FC007B685B7A0F2B03D07B685B7A0E2B07D10E
:10590C007968094800F024FC002000F047FE06E00E
:10591C007968064800F01CFC044800F033FE00BF18
:10592C000837BD4680BD00BF30020020E8000020D3
:10593C0080B483B000AF78607B68054A1A607B68DE
:10594C00044A1A6100BF0C37BD465DF8047B7047F2
:10595C004D5C0008B55C000880B582B000AF786083
:10596C0039603B685B68084A1360084A7B68D361FE
:10597C00064800F011F93B681B68184600F094F8D3
:10598C0000BF0837BD4680BD5C0200203C020020F1
:10599C0080B584B000AF224800F092FB0346002B88
:1059AC002BD1204B1B78002B27D007F10C03194669
:1059BC001B4800F014FC1C4BDB69002B0CD0FB6863
:1059CC00BB6001233B71184BDB693A1D10469847AD
:1059DC003A79144B1A7002E0124B01221A70114BD7
:1059EC001B78002B04D0FB68184600F06DFA04E01D
:1059FC00FB6819460A4800F085FB094800F060FB7B
:105A0C000346002B07D1074B1B78002B03D004480F
:105A1C00FAF796FF00BF00BF1037BD4680BD00BF30
:105A2C00F8000020080100203C02002080B584B062
:105A3C0000AFBA607B600346FB810B467B73002092
:105A4C0000F064F8164B1B68FA89A3F80920144B74
:105A5C001B687A7BDA72124B1B680C337A7BB96841
:105A6C00184601F005FD0F4B1B69002100209847DB
:105A7C0048F2E800FAF77BFF7B6803F10800084B5B
:105A8C001968074B1B689B7803331A4601F0F0FC2E
:105A9C00012000F03BF800BF1037BD4680BD00BFB1
:105AAC00040100203C02002080B586B000AF786075
:105ABC00104A7B681360104800F0F2FA012000F0E5
:105ACC0025F80E4B01221A700D4B1B68002B0CD0C5
