:020000040800F2
:1000000000300020D93A0008512C0008572C000875
:100010005D2C0008632C0008692C0008000000001B
:100020000000000000000000000000006F2C00082D
:100030007D2C0008000000008B2C0008992C000883
:100040002D3B00082D3B00082D3B0008A52C000887
:100050002D3B00082D3B0008FD2C00082D3B00081F
:100060002D3B00082D3B00080B2D00082D3B000800
:100070002D3B00082D3B0008B12C00082D3B00084B
:100080002D3B00082D3B00082D3B00080000000020
:10009000000000002D3B00082D3B0008192D000832
:1000A0002D3B00082D3B00082D3B00082D3B000890
:1000B0002D3B00082D3B00082D3B00082D3B000880
:1000C00000000000000000002D3B000800000000C0
:1000D000C52C00082D3B0008000000002D3B000847
:1000E0002D3B00082D3B0008000000002D3B0008C0
:1000F000D92C0008E52C0008F12C00082D3B000845
:100100002D3B00080000000000000000000000007F
:100110002D3B00082D3B00082D3B0008000000008F
:1001200000000000000000000000000000000000CF
:0C01300000000000000000002D3B000853
:1001400010B5054C237833B9044B13B10448AFF311
:1001500000800123237010BD140200200000000065
:1001600020C5000808B5034B1BB103490348AFF392
:10017000008008BD000000001802002020C5000813
:1001800010F8012B11F8013B012A28BF9A42F7D041
:10019000D01A7047000000000000000000000000BE
:1001A00001F0FF01102A2BDB10F0070F08D010F828
:1001B000013B013A8B422DD010F0070F42B3F6D12C
:1001C000F0B441EA012141EA014122F007047FF045
:1001D00000070023F0E80256083C85EA010586EA9C
:1001E000010685FA47F5A3FA87F586FA47F6A5FAD8
:1001F00087F68EB9EED1F0BC01F0FF0102F00702E4
:1002000032B110F8013B013A83EA010313B1F8D18E
:100210000020704701387047002D06BF354603386F
:10022000073815F0010F07D1013015F4807F02BFA8
:10023000013015F4C03F0130F0BC0138704700BFF9
:10024000034613F8012B002AFBD1181A0138704716
:1002500081F0004102E000BF83F0004330B54FEA77
:1002600041044FEA430594EA050F08BF90EA020FE4
:100270001FBF54EA000C55EA020C7FEA645C7FEA77
:10028000655C00F0E2804FEA5454D4EB5555B8BF9A
:100290006D420CDD2C4480EA020281EA030382EA0B
:1002A000000083EA010180EA020281EA0303362D9D
:1002B00088BF30BD11F0004F4FEA01314FF4801C70
:1002C0004CEA113102D0404261EB410113F0004F82
:1002D0004FEA03334CEA133302D0524263EB430339
:1002E00094EA050F00F0A780A4F10104D5F1200ED7
:1002F0000DDB02FA0EFC22FA05F2801841F1000132
:1003000003FA0EF2801843FA05F359410EE0A5F105
:1003100020050EF1200E012A03FA0EFC28BF4CF036
:10032000020C43FA05F3C01851EBE37101F00045EC
:1003300007D54FF0000EDCF1000C7EEB00006EEBF9
:100340000101B1F5801F1BD3B1F5001F0CD3490883
:100350005FEA30004FEA3C0C04F101044FEA4452DA
:1003600012F5800F80F09A80BCF1004F08BF5FEA61
:10037000500C50F1000041EB045141EA050130BD41
:100380005FEA4C0C404141EB0101013C28BFB1F553
:10039000801FE9D291F0000F04BF01460020B1FA9E
:1003A00081F308BF2033A3F10B03B3F120020CDA71
:1003B0000C3208DD02F1140CC2F10C0201FA0CF04F
:1003C00021FA02F10CE002F11402D8BFC2F1200CB4
:1003D00001FA02F120FA0CFCDCBF41EA0C0190406A
:1003E000E41AA2BF01EB0451294330BD6FEA0404B3
:1003F0001F3C1CDA0C340EDC04F11404C4F120029E
:1004000020FA04F001FA02F340EA030021FA04F3AF
:1004100045EA030130BDC4F10C04C4F1200220FA06
:1004200002F001FA04F340EA0300294630BD21FA44
:1004300004F0294630BD94F0000F83F4801306BF0A
:1004400081F480110134013D4EE77FEA645C18BFFE
:100450007FEA655C29D094EA050F08BF90EA020F95
:1004600005D054EA000C04BF1946104630BD91EA8D
:10047000030F1EBF0021002030BD5FEA545C05D190
:100480004000494128BF41F0004130BD14F58004CF
:100490003CBF01F5801130BD01F0004545F0FE4143
:1004A00041F470014FF0000030BD7FEA645C1ABF78
:1004B000194610467FEA655C1CBF0B46024650EAAF
:1004C000013406BF52EA033591EA030F41F40021DB
:1004D00030BD00BF90F0000F04BF0021704730B561
:1004E0004FF4806404F132044FF000054FF0000136
:1004F00050E700BF90F0000F04BF0021704730B5F7
:100500004FF4806404F1320410F0004548BF4042CB
:100510004FF000013EE700BF42004FEAE2014FEA20
:1005200031014FEA02701FBF12F07F4393F07F4FFB
:1005300081F06051704732F07F4208BF704793F0FE
:100540007F4F04BF41F40021704730B54FF4607411
:1005500001F0004521F000411CE700BF50EA010214
:1005600008BF704730B54FF000050AE050EA0102BD
:1005700008BF704730B511F0004502D5404261EB2D
:1005800041014FF4806404F132045FEA915C3FF46E
:10059000D8AE4FF003025FEADC0C18BF03325FEA0B
:1005A000DC0C18BF033202EBDC02C2F1200300FABC
:1005B00003FC20FA02F001FA03FE40EA0E0021FAE1
:1005C00002F11444BDE600BF70B54FF0FF0C4CF4CF
:1005D000E06C1CEA11541DBF1CEA135594EA0C0F81
:1005E00095EA0C0F00F0DEF82C4481EA030621EABC
:1005F0004C5123EA4C5350EA013518BF52EA0335F7
:1006000041F4801143F4801338D0A0FB02CE4FF0A8
:100610000005E1FB02E506F00042E0FB03E54FF0D8
:100620000006E1FB03569CF0000F18BF4EF0010ED0
:10063000A4F1FF04B6F5007F64F5407404D25FEACC
:100640004E0E6D4146EB060642EAC62141EA55517F
:100650004FEAC52040EA5E504FEACE2EB4F1FD0CC1
:1006600088BFBCF5E06F1ED8BEF1004F08BF5FEA3F
:10067000500E50F1000041EB045170BD06F00046F1
:1006800046EA010140EA020081EA0301B4EB5C049E
:10069000C2BFD4EB0C0541EA045170BD41F4801196
:1006A0004FF0000E013C00F3AB8014F1360FDEBFBB
:1006B000002001F0004170BDC4F10004203C35DA97
:1006C0000C341BDC04F11404C4F1200500FA05F31A
:1006D00020FA04F001FA05F240EA020001F00042BB
:1006E00021F0004110EBD37021FA04F642EB060131
:1006F0005EEA430E08BF20EAD37070BDC4F10C045B
:10070000C4F1200500FA04F320FA05F001FA04F21E
:1007100040EA020001F0004110EBD37041F100010A
:100720005EEA430E08BF20EAD37070BDC4F1200515
:1007300000FA05F24EEA020E20FA04F301FA05F27D
:1007400043EA020321FA04F001F0004121FA04F225
:1007500020EA020000EBD3705EEA430E08BF20EAF5
:10076000D37070BD94F0000F0FD101F0004640002F
:1007700041EB010111F4801F08BF013CF7D041EAB1
:10078000060195F0000F18BF704703F000465200B5
:1007900043EB030313F4801F08BF013DF7D043EA86
:1007A0000603704794EA0C0F0CEA135518BF95EA3C
:1007B0000C0F0CD050EA410618BF52EA4306D1D1C3
:1007C00081EA030101F000414FF0000070BD50EAE2
:1007D000410606BF1046194652EA430619D094EA6C
:1007E0000C0F02D150EA013613D195EA0C0F05D156
:1007F00052EA03361CBF104619460AD181EA0301AA
:1008000001F0004141F0FE4141F470014FF0000061
:1008100070BD41F0FE4141F4780170BD70B54FF0FC
:10082000FF0C4CF4E06C1CEA11541DBF1CEA13557C
:1008300094EA0C0F95EA0C0F00F0A7F8A4EB05045E
:1008400081EA030E52EA03354FEA013100F0888055
:100850004FEA03334FF0805545EA131343EA12631E
:100860004FEA022245EA111545EA10654FEA0026D3
:100870000EF000419D4208BF964244F1FD0404F58C
:10088000407402D25B084FEA3202B61A65EB0305E8
:100890005B084FEA32024FF480104FF4002CB6EBA5
:1008A000020E75EB030E22BFB61A754640EA0C0025
:1008B0005B084FEA3202B6EB020E75EB030E22BF65
:1008C000B61A754640EA5C005B084FEA3202B6EBA6
:1008D000020E75EB030E22BFB61A754640EA9C0065
:1008E0005B084FEA3202B6EB020E75EB030E22BF35
:1008F000B61A754640EADC0055EA060E18D04FEAF3
:10090000051545EA16754FEA06164FEAC30343EA92
:1009100052734FEAC2025FEA1C1CC0D111F4801F5F
:100920000BD141EA00014FF000004FF0004CB6E758
:1009300011F4801F04BF01430020B4F1FD0C88BFF7
:10094000BCF5E06F3FF6AFAEB5EB030C04BFB6EB02
:10095000020C5FEA500C50F1000041EB045170BDF5
:100960000EF0004E4EEA113114EB5C04C2BFD4EB22
:100970000C0541EA045170BD41F480114FF0000EA6
:10098000013C90E645EA060E8DE60CEA135594EA22
:100990000C0F08BF95EA0C0F3FF43BAF94EA0C0F25
:1009A0000AD150EA01347FF434AF95EA0C0F7FF49A
:1009B00025AF104619462CE795EA0C0F06D152EAEE
:1009C00003353FF4FDAE1046194622E750EA4106D2
:1009D00018BF52EA43067FF4C5AE50EA41047FF4E3
:1009E0000DAF52EA43057FF4EBAE12E74FF0FF3C48
:1009F00006E000BF4FF0010C02E000BF4FF0010C19
:100A00004DF804CD4FEA410C7FEA6C5C4FEA430C91
:100A100018BF7FEA6C5C1BD001B050EA410C0CBFE0
:100A200052EA430C91EA030F02BF90EA020F002042
:100A3000704710F1000F91EA030F58BF994208BFA9
:100A400090422CBFD8176FEAE37040F00100704766
:100A50004FEA410C7FEA6C5C02D150EA013C07D1BD
:100A60004FEA430C7FEA6C5CD6D152EA033CD3D008
:100A70005DF8040B704700BF8446104662468C4602
:100A80001946634600E000BF01B5FFF7B7FF002835
:100A900048BF10F1000F01BD4DF808EDFFF7F4FF5E
:100AA0000CBF012000205DF808FB00BF4DF808EDE9
:100AB000FFF7EAFF34BF012000205DF808FB00BF0C
:100AC0004DF808EDFFF7E0FF94BF012000205DF82E
:100AD00008FB00BF4DF808EDFFF7CEFF94BF0120E3
:100AE00000205DF808FB00BF4DF808EDFFF7C4FFDC
:100AF00034BF012000205DF808FB00BF4FEA410C25
:100B00007FEA6C5C02D150EA013C0AD14FEA430C07
:100B10007FEA6C5C02D152EA033C02D14FF0000044
:100B200070474FF0010070474FEA410212F5001282
:100B300015D211D56FF47873B3EB625212D94FEA24
:100B4000C12343F0004343EA505311F0004F23FA0E
:100B500002F018BF404270474FF00000704750EA63
:100B6000013005D111F0004008BF6FF00040704720
:100B70004FF00000704700BF53B94AB9002908BFC1
:100B800000281CBF4FF0FF314FF0FF3000F070B96C
:100B9000ADF1080C6DE904CE00F006F8DDF804E0D4
:100BA000DDE9022304B070472DE9F047089E0D46A9
:100BB00004460F46002B4AD18A42944665D9B2FAC0
:100BC00082F343B102FA03FCC3F120029F4020FAF2
:100BD00002F217439C404FEA1C4E1FFA8CF5B7FBFC
:100BE000FEF1220C0EFB117742EA074201FB05F0F1
:100BF00090420AD91CEB020201F1FF3780F01C8100
:100C0000904240F2198102396244121AA4B2B2FB36
:100C1000FEF00EFB102244EA024400FB05F5A5425B
:100C20000AD91CEB040400F1FF3280F00781A542D1
:100C300040F204816444023840EA0140641B002110
:100C40001EB1DC400023C6E90043BDE8F0878B42BB
:100C500008D9002E00F0ED800021C6E90005084605
:100C6000BDE8F087B3FA83F1002949D1AB4202D342
:100C7000824200F2F880841A65EB030201201746D5
:100C8000002EE2D0C6E90047DFE702B9FFDEB2FA84
:100C900082F3002B40F090808A1A4FEA1C471FFA1B
:100CA0008CFE0121B2FBF7F507FB1520220C42EA6E
:100CB00000420EFB05F0904208D91CEB020205F140
:100CC000FF3802D2904200F2CB804546121AA4B2FD
:100CD000B2FBF7F007FB102244EA02440EFB00FED1
:100CE000A64508D91CEB040400F1FF3202D2A64548
:100CF00000F2BB801046A4EB0E0440EA05409FE7DB
:100D0000C1F120078B4022FA07FC4CEA030C05FADC
:100D100001F420FA07F3FD404FEA1C492343B5FBD9
:100D2000F9F81FFA8CFE09FB18551C0C44EA05441F
:100D300008FB0EF5A54202FA01F200FA01F00BD908
:100D40001CEB040408F1FF3A80F08880A54240F2D1
:100D50008580A8F102086444641B9DB2B4FBF9F3DA
:100D600009FB134445EA044403FB0EFEA64508D9DB
:100D70001CEB040403F1FF356CD2A6456AD9023B93
:100D8000644443EA0843A3FB0295A4EB0E04AC427F
:100D9000C846AE4656D353D056B1B0EB080264EB0A
:100DA0000E0404FA07F7CA40CC401743C6E90074A2
:100DB00018460021BDE8F087C3F1200102FA03FCC8
:100DC00020FA01F225FA01F19D402A434FEA1C471F
:100DD0001FFA8CFEB1FBF7F007FB1015110C41EA6E
:100DE000054100FB0EF58D4204FA03F408D91CEB13
:100DF000010100F1FF382FD28D422DD90238614414
:100E0000491B92B2B1FBF7F507FB151142EA01420B
:100E100005FB0EF1914208D91CEB020205F1FF38E7
:100E200016D2914214D9023D6244521A45EA004159
:100E300038E73146304608E73946E6E61046FBE635
:100E40004845A9D2B9EB020865EB0C0E013BA3E7BC
:100E50004546EAE72B4694E74046D1E7D0467BE794
:100E6000023D624432E708460AE76444023842E73A
:100E7000704700BF80B485B000AF78604FF0B043DA
:100E8000DA6C4FF0B0417B681343CB644FF0B04352
:100E9000DA6C7B681340FB60FB6800BF1437BD460B
:100EA0005DF8047B704780B483B000AF78604FF08A
:100EB000B043DA6C7B68DB434FF0B0411340CB6446
:100EC00000BF0C37BD465DF8047B704780B485B029
:100ED00000AF78604FF0B043D3F84C214FF0B041F1
:100EE0007B681343C1F84C314FF0B043D3F84C2129
:100EF0007B681340FB60FB6800BF1437BD465DF89C
:100F0000047B704780B586B000AF3B1D00221A609D
:100F10005A609A60DA601A610023FB600323BB60A9
:100F20004FF460437B600120FFF7A4FF3B1D19468F
:100F30004FF0904003F098FC0120FFF7B4FF182316
:100F40007B600220FFF796FF3B1D1946094803F01E
:100F50008BFC0220FFF7A7FF03F03EF803F042F8F6
:100F600003F046F800F024F800F0C4F800BF18378A
:100F7000BD4680BD00040048B0B588B000AF0B4B43
:100F80003C1D1D460FCD0FC495E8070003C4228009
:100F90000234130C237008F0D3FA3B1D184608F0F6
:100FA0003AF800BF2037BD46B0BD00BF38C50008C5
:100FB00080B588B000AF3B1D00221A605A609A606D
:100FC000DA601A610023BB8300237B8300233B8309
:100FD0000023FB7736E0FB7F434ADB0013449B7919
:100FE000002B2CD0FB7F404A52F833303F4A9342CB
:100FF0001BD03E4A934221D8B3F1904F03D03C4AD4
:10100000934209D01AE0FB7F374ADB0013449A88E9
:10101000BB8B1343BB8312E0FB7F334ADB001344DB
:101020009A887B8B13437B8309E0FB7F2E4ADB008E
:1010300013449A883B8B13433B8300E000BFFB7F44
:101040000133FB77FB7F252BC5D90023FB600123F0
:10105000BB6003233B61BB8B002B14D0BB8B7B603D
:101060000120FFF707FF0120FFF730FF3B1D194666
:101070004FF0904003F0F8FBBB8B002219464FF075
:10108000904003F059FD7B8B002B12D07B8B7B6053
:101090000220FFF7EFFE0220FFF718FF3B1D194665
:1010A000134803F0E1FB7B8B00221946104803F044
:1010B00043FD3B8B002B13D03B8B7B600420FFF761
:1010C000D9FE0420FFF702FF3B1D1946074803F035
:1010D000CBFB3B8B00221946044803F02DFD00BFDB
:1010E00000BF2037BD4680BDBCC5000800080048D1
:1010F0000004004880B400AF00BFBD465DF8047B2B
:101100007047000080B483B000AF7860074BD3F81D
:10111000803023F0070205497B681343C1F8803013
:1011200000BF0C37BD465DF8047B704700040058D3
:1011300080B483B000AF7860064BD3F890200549A7
:101140007B681343C1F8903000BF0C37BD465DF893
:10115000047B70470008005880B483B000AF78600B
:101160004FF0B0430A4AC3F89C204FF0B043D3F885
:101170009C3023F47C527B681B024FF0B041134338
:10118000C1F89C3000BF0C37BD465DF8047B70474A
:10119000FECAFECA80B483B000AF78604FF0B0439F
:1011A0009B6823F400424FF0B0417B6813438B608F
:1011B00000BF0C37BD465DF8047B704780B483B038
:1011C00000AF78607B68FF225A6200BF0C37BD46D3
:1011D0005DF8047B704780B483B000AF78607B68B3
:1011E000CA225A627B6853225A6200BF0C37BD463E
:1011F0005DF8047B704780B483B000AF78603960DD
:101200007B689B6823F007023B681A437B689A60FF
:1012100000BF0C37BD465DF8047B704780B500AF5A
:10122000044B4FF400421A6100F030F800F035F83A
:1012300000BF80BD0040005880B500AF00F041F80D
:1012400000F05AF80949002000F0AAFDFFF75AFE05
:101250000121012008F042FA00F0C6F800F0D4F8AD
:1012600000F00EF900F058F800BF80BD30040020F7
:1012700080B400AF00BFBD465DF8047B704780B509
:1012800000AF5020FFF754FF00BF80BD80B400AF17
:1012900000BFBD465DF8047B704780B582B000AFEB
:1012A000002007F079FE78607B68002B05D07B6812
:1012B0009B791846FFF750FF00BF00BF0837BD46B7
:1012C00080BD80B500AFFFF7D3FFFFF7D8FF00F078
:1012D00003F800BF80BD000080B500AF0548FFF7F0
:1012E0007AFF00210348FFF786FF0248FFF766FFF9
:1012F00000BF80BD0028004080B500AF4FF4004023
:10130000FFF748FF08F0A8F90420FFF7FBFE03F001
:101310000DFD00BF80BD000080B58AB000AF07F0B2
:1013200045FF134807F0A3FE124A0021202008F0D1
:1013300037FB114BFB60114B7B60114BBB603B1DBE
:10134000184608F00BF80F4B3B610F4B7B610F4BBE
:10135000BB6140F23C53FB6107F11003184608F0F3
:101360007BF807F01CFF00BF2837BD4680BD00BFDB
:1013700038020020B5130008280603208930000831
:10138000911300084008032034070320EC000320D9
:1013900080B582B000AF78607968054807F099FEA3
:1013A0000021202008F01EFB00BF0837BD4680BD8D
:1013B0003802002080B582B000AFFFF7DDFD0021CC
:1013C000012008F08BF93B1D1946064807F0C8FEBE
:1013D0007B68184608F07CF801F086FD00BF0837EE
:1013E000BD4680BD3802002080B500AF002002F06D
:1013F000B7FB012002F0B4FB022002F0B1FB012098
:1014000002F0E8FB00BF80BD80B500AF01210020E5
:1014100002F014FC0121012002F010FC0121022045
:1014200002F00CFC00BF80BD80B500AF4FF0FF3074
:1014300008F0BAF900BF80BD80B500AF08F07EF9B2
:1014400000BF80BD80B582B000AF786039604FF0DA
:10145000FF3008F0A9F900BF0837BD4680BD80B550
:1014600082B000AF0346FB80FB88012B02D101F064
:101470002BFE00E000BF00BF0837BD4680BD000066
:1014800080B500AF034B01220349002000F07AFE33
:1014900000BF80BD9D1400084002002080B500AF51
:1014A000134B1B88FF2B1AD8124B1B780D2B0BD11B
:1014B00000F026F80E4B00221A804FF480720021B3
:1014C0000D4809F0DAF80AE0094B1B885A1C91B262
:1014D000074A11801A46074B1978074B9954074B56
:1014E00001220449002000F04DFE00BF80BD00BF76
:1014F0004803002040020020480200209D140008FC
:1015000080B500AF15491648FEF73AFE0346002B9A
:1015100007D1144B4FF0B0521A60124803F082F911
:101520001AE011490E48FEF72BFE0346002B06D1A8
:101530000C4B0E4A1A600B4803F074F90CE00C498E
:101540000748FEF71DFE0346002B05D1054B094A4F
:101550001A60044803F066F900BF80BD54C5000856
:10156000480200203002002058C500080400001680
:101570005CC500080600001680B483B000AF786038
:10158000064BD3F8802005497B681343C1F88030AF
:1015900000BF0C37BD465DF8047B7047000800585B
:1015A00080B483B000AF7860054B1A6804497B684B
:1015B00013430B6000BF0C37BD465DF8047B7047DA
:1015C0000008005880B483B000AF0D4B9B6A9BB2FB
:1015D0007B600B4B9B6A9BB23B6005E03B687B608A
:1015E000074B9B6A9BB23B607A683B689A42F5D195
:1015F0003B6818460C37BD465DF8047B704700BF5A
:101600000028004080B485B000AF03460A46FB7155
:101610001346BB71BA791D4913465B001344DB00C6
:101620000B4415331B78FB73FB7B062B09D0FA7B2D
:10163000164913465B001344DB000B441433FA795C
:101640001A70FA79114913465B001344DB000B440E
:101650001533FA7B1A70FA790C4913465B00134470
:10166000DB000B441433BA791A70BA790749134670
:101670005B001344DB000B441533FA791A7000BF8A
:101680001437BD465DF8047B704700BF4C03002053
:1016900080B485B000AF03460A46FB711346BB71A8
:1016A000294B1B78DBB2BA799A4232D0BA792749F2
:1016B00013465B001344DB000B4414331B78FB73AD
:1016C000FA7B224913465B001344DB000B441533BD
:1016D000FA791A70FA791D4913465B001344DB004E
:1016E0000B441533BA791A70FA79184913465B001E
:1016F0001344DB000B441433FA7B1A70BA79134994
:1017000013465B001344DB000B441433FA791A7060
:1017100014E0FA790D4913465B001344DB000B44D7
:101720001533BA791A70BA79084913465B00134425
:10173000DB000B441433FA791A7000BF1437BD462E
:101740005DF8047B704700BFDC0300204C030020E1
:1017500080B584B000AF0346FB714E4B1B78DBB203
:10176000062B18D14B4B1B78DAB24B4B1A70494AF7
:10177000FB791370FA79494913465B001344DB0087
:101780000B44153306221A70454B4FF0FF321A6096
:101790000023FB8178E000F009F90346FB81FA7928
:1017A0003E4913465B001344DB000B4408331968C1
:1017B000FB89FA791944394813465B001344DB006E
:1017C000034408331960FA79344913465B00134423
:1017D000DB000B4408331B68BB602E4B1B78DBB26D
:1017E00019462E4A0B465B000B44DB0013440833BA
:1017F0001B68BA689A4237D3264B1B787B737A7B77
:10180000264913465B001344DB000B4415331B7859
:101810003B7313E07A7B214913465B001344DB00E2
:101820000B4415331B787B737A7B1C4913465B0092
:101830001344DB000B4415331B783B733B7B062BB7
:101840000BD03A7B154913465B001344DB000B4475
:1018500008331B68BA689A42DCD27A7BFB7911465E
:101860001846FFF7CFFE0FE00A4B1B78DAB2FB7980
:1018700011461846FFF70CFF064B1B78DAB2064BF1
:101880001A70044AFB791370FB8918461037BD465D
:1018900080BD00BFDC030020DD0300204C030020DE
:1018A000E003002080B485B000AF03460A46FB7118
:1018B0001346BB71394B1B78DBB2FA799A4211D1CE
:1018C000364B1B78DAB2364B1A70FA793549134623
:1018D0005B001344DB000B4415331B78DAB22F4B4B
:1018E0001A703EE0FA792F4913465B001344DB007F
:1018F0000B4414331B78FB73FA792A4913465B00B7
:101900001344DB000B4415331B78BB73F979FA7B66
:1019100024480B465B000B44DB00034415331B7863
:10192000D8B2204913465B001344DB000B44153347
:1019300002461A70BB7B062B13D0F979BA7B194883
:101940000B465B000B44DB00034414331B78D8B216
:10195000144913465B001344DB000B441433024666
:101960001A70FA790F4913465B001344DB000B44ED
:101970000C3301221A70094B1B78DBB2062B07D1FE
:10198000BB79002B04D1084B4FF0FF321A6000BF27
:1019900000BF1437BD465DF8047B7047DC030020B0
:1019A000DD0300204C030020E003002080B582B05E
:1019B00000AF1A4B1B68B3F1FF3F26D0FFF702FEC2
:1019C0007860164B1B687A689A4205D8134B1A68E0
:1019D0007B68D31A7B600AE0114B1B881A467B6830
:1019E000D31A3B600D4B1B683A6813447B600D4B68
:1019F0001B781A467B6802FB03F37B600A4B1B785B
:101A00001A467B68D3407B6001E000237B607B68E3
:101A10009BB218460837BD4680BD00BFE0030020DA
:101A2000E8030020E6030020E503002080B582B033
:101A300000AF0346FB80FB88002B08D1FFF7C2FDF7
:101A40000346214A1360032002F055FC39E0FB886D
:101A5000012B03D81D4B1B78012B02D0FB88013BC7
:101A6000FB8000BF1A4B1B68DB6803F00403002BEC
:101A7000F8D0174B1B68DB68DAB2154B1B6862F4B1
:101A80009062DA60134B4FF40022DA60032002F018
:101A900040FC114B5B691B0C1B04FA880E49134375
:101AA0004B61FFF78FFD0346074A1360084B1B6825
:101AB0009A68074B1B6842F480629A60AFF300801B
:101AC00000BF0837BD4680BDE0030020E5030020CD
:101AD00030040020000800580028004080B584B081
:101AE00000AF454B9B6803F48063B3F5806F07D16B
:101AF00000BF424B1B68DB6803F00403002BF8D1E6
:101B00003E4B1B689A683D4B1B6822F480629A60CA
:101B10003B4B1B78FB73FA7B3A4913465B0013443B
:101B2000DB000B4408331B68BB60FFF73FFF034635
:101B3000FB80FB88BA689A4205D20023BB81324BF6
:101B400001221A704DE0FB88304A128892B2134489
:101B50001A46BB68934206D92C4B1B88BB812A4B83
:101B600000221A703DE0BB689AB2FB88D31ABB8191
:101B7000254B01221A7034E0FA7B224913465B00A0
:101B80001344DB000B4408331A68FB889A420AD2DC
:101B9000FA7B1C4913465B001344DB000B440833FB
:101BA00000221A6013E0FA7B164913465B001344C7
:101BB000DB000B4408331968FB88FA7BC91A11480B
:101BC00013465B001344DB00034408331960FA7BBF
:101BD0000C4913465B001344DB000B4415331B78A0
:101BE000FB73FB7B062BC7D1BB891846FFF71EFF93
:101BF00000BF1037BD4680BD0028004030040020E3
:101C0000DC0300204C030020E4030020EA03002052
:101C100080B58AB000AFEFF310837B617B697B6294
:101C200072B600BF594B1B68CA225A62574B1B68D9
:101C300053225A62554B1B689A68544B1B6822F416
:101C400080629A60524B1B7887F8233097F82320E4
:101C5000504913465B001344DB000B440C331B78E4
:101C6000DBB2022B6ED197F823204A4913465B0062
:101C70001344DB000B441B68FB6197F823204549A4
:101C800013465B001344DB000B4410331B68BB613D
:101C9000414B1B78DBB2002B4CD097F823203D49F9
:101CA00013465B001344DB000B440D331B78DBB29F
:101CB000012B24D197F8233001211846FFF7F2FDBC
:101CC0007B6A3B613B6983F3108800BF97F8232050
:101CD000304913465B001344DB000B4404331A689D
:101CE00097F823301146184600F0B8F9274B1B68C7
:101CF000CA225A62254B1B6853225A6212E07B6A41
:101D0000FB60FB6883F3108800BF97F82330184608
:101D100000F020F91D4B1B68CA225A621B4B1B683E
:101D200053225A6297F82330FA691946B86900F0CD
:101D30001BFA22E0FFF7D2FE7B6ABB60BB6883F32D
:101D400010881AE000BF114B1B68DB6803F0040326
:101D5000002BF8D00D4B1B68DB68DAB20B4B1B680D
:101D600062F49062DA600D4B4FF40022DA607B6A15
:101D70007B607B6883F3108800BF044B1B68FF22E5
:101D80005A6200BF2837BD4680BD00BF3004002026
:101D9000DC0300204C030020E4030020000800586E
:101DA00080B588B000AF03463960FB715E4B1B689D
:101DB000CA225A625C4B1B6853225A625B4B9B6877
:101DC0005A4A43F020039360584B9B68DBB203F000
:101DD0000703DBB2C3F10403DAB2554B1A70534B5D
:101DE0001B6903F4FE034FF4FE023A613A6992FA6A
:101DF000A2F2FA60FA687A617A69002A01D1202297
:101E000003E07A69B2FA82F2D2B2D340DBB2013394
:101E1000DAB2484B1A70454B1B699BB2C3F30E03F1
:101E20009BB201339AB2444B1A80434B1B88013B4F
:101E3000404A127802FB03F3A3F5A0733C4A1278E0
:101E4000D340BB61BB694FF6FE72934204D93B4B52
:101E50004FF6FF721A8003E0BB699AB2374B1A80C3
:101E60004FF40020FFF79CFB4FF40020FFF784FBAA
:101E7000FB79002B3DD1324B01221A70314B4FF0D0
:101E8000FF321A600023FB770CE0FA7F2E491346DD
:101E90005B001344DB000B440C3300221A70FB7F01
:101EA0000133FB77FB7F052BEFD9284B06221A70F5
:101EB0001D4B1B689A681C4B1B6822F480629A6059
:101EC000194B1B68DB68DAB2174B1B6862F490622F
:101ED000DA601F4B4FF40022DA60032002F019FA97
:101EE000114B1B689A68104B1B6842F480429A6041
:101EF00009E00D4B1B68DB6803F48063002B02D004
:101F0000032002F0F8F9084B1B68FF225A620022F6
:101F10000321032002F0ADF9032002F0C4F900BF51
:101F20002037BD4680BD00BF30040020002800409F
:101F3000E5030020E6030020E8030020EA03002078
:101F4000E4030020E00300204C030020DC03002019
:101F50000008005880B586B000AF0346FB71EFF370
:101F60001083FB60FB687B6172B600BF032002F048
:101F7000A8F9344B1B68CA225A62324B1B685322A1
:101F80005A62FA79304913465B001344DB000B4474
:101F90000C331B78DBB2022B42D1FB7900211846AF
:101FA000FFF780FC294B1B78FB74FB7C062B2FD1A1
:101FB000274B9B6803F48063B3F5806F07D100BFA4
:101FC000204B1B68DB6803F00403002BF8D11D4B8A
:101FD0001B689A681B4B1B6822F480629A6000BFE2
:101FE000184B1B68DB6803F00403002BF8D0154B7B
:101FF0001B68DB68DAB2134B1B6862F49062DA602C
:10200000144B4FF40022DA60032002F082F907E05B
:10201000114B1B78DBB2FA7C9A4201D0FFF75EFDD0
:10202000084B1B68FF225A62032002F03CF97B69CF
:10203000BB60BB6883F3108800BF00BF1837BD4684
:1020400080BD00BF300400204C030020DC030020D2
:102050000028004000080058DD03002080B586B04D
:1020600000AF03463960FB71FA793B4913465B00C8
:102070001344DB000B440C331B78DBB2022B03D17F
:10208000FB791846FFF766FFEFF31083FB60FB68F0
:102090007B6172B600BF032002F013F92F4B1B685F
:1020A000CA225A622D4B1B6853225A62FA792A4976
:1020B00013465B001344DB000B440C3302221A70FE
:1020C000FA79254913465B001344DB000B440833BF
:1020D0003A681A60FA79204913465B001344DB0022
:1020E0000B4404333A681A60FB791846FFF730FB5B
:1020F00003467B821A4B1B787B741A4B1B78DBB22E
:102100007A7C9A4202D0FFF7E9FC13E0FA7912498F
:1021100013465B001344DB000B44083319687B8AC9
:10212000FA79C91A0C4813465B001344DB000344D8
:1021300008331960094B1B68FF225A62032002F022
:10214000B2F87B69BB60BB6883F3108800BF00BF37
:102150001837BD4680BD00BF4C030020300400206E
:10216000DC030020DD03002080B584B000AFF86000
:102170000B467A60FB727B68984700BF1037BD46FC
:1021800080BD000080B584B000AFB9607B600346BD
:10219000FB731346BB81FB7B002B0CD1084A7B6889
:1021A0001360084B084A1A60BB891A46B96805488B
:1021B00004F0E8FB00E000BF00BF1037BD4680BD63
:1021C000EC030020540400200038014080B584B0A6
:1021D00000AFB9607B600346FB731346BB81FB7B9A
:1021E000002B0CD1084A7B681360084B084A1A6020
:1021F000BB891A46B968054804F030FB00E000BF0F
:1022000000BF1037BD4680BDF003002054040020FD
:102210000038014080B582B000AF78607B681B68F1
:102220001A46094B9A4207D1084B1B68002B05D070
:10223000064B1B68984701E000BF00E000BF00BFED
:102240000837BD4680BD00BF00380140EC030020C8
:1022500080B582B000AF78607B681B681A46094B76
:102260009A4207D1084B1B68002B05D0064B1B6810
:10227000984701E000BF00E000BF00BF0837BD463F
:1022800080BD00BF00380140F003002080B483B05F
:1022900000AF78604FF0B043D3F8903023F01802CD
:1022A0004FF0B0417B681343C1F8903000BF0C374A
:1022B000BD465DF8047B704780B485B000AF7860A0
:1022C0004FF0B0439A6C4FF0B0417B6813438B647E
:1022D0004FF0B0439A6C7B681340FB60FB6800BF13
:1022E0001437BD465DF8047B704780B485B000AFFD
:1022F00078604FF0B043DA6C4FF0B0417B68134325
:10230000CB644FF0B043DA6C7B681340FB60FB6832
:1023100000BF1437BD465DF8047B704780B500AF41
:1023200001F0B4FDFEF77AFF00F011F800F05BF861
:1023300000F07AF800F01CF900F008F900F088F8D5
:1023400000F0B6F8FEF778FFFFF76EF8FCE780B50F
:1023500098B000AF07F11C0344220021184608F092
:102360008CF93B4600221A605A609A60DA601A6162
:102370005A619A6102F0BAFC0020FFF787FF072339
:10238000FB614FF480333B6201237B624FF4807327
:10239000BB624023FB6200237B6407F11C031846E9
:1023A00003F00CF80346002B01D000F0EBF86F238C
:1023B0003B6002237B600023BB600023FB600023A3
:1023C0003B6100237B610023BB613B460121184632
:1023D00003F02AFB0346002B01D000F0D3F800BF26
:1023E0006037BD4680BD80B58CB000AF3B46302223
:1023F0000021184608F041F94FF440533B604FF478
:1024000080437B620223BB621023FB623B4618467B
:1024100003F0CCFE0346002B01D000F0B3F800BF60
:102420003037BD4680BD000080B500AF064B074A7F
:102430001A60054802F0D4FB0346002B01D000F0DF
:10244000A1F800BF80BD00BFF4030020000C0058BD
:1024500080B500AF144B154A1A60134B00225A6026
:10246000114B0F229A60104B47F6FF72DA600E4B49
:1024700000221A610C4B00229A610B4B00225A6118
:10248000094803F089FF0346002B01D000F07AF8D9
:1024900000220021044804F07FF80346002B01D0FD
:1024A00000F070F800BF80BD30040020002800401C
:1024B00080B500AF234B244A1A60224B4FF4E1321F
:1024C0005A60204B00229A601E4B0022DA601D4B9E
:1024D00000221A611B4B0C225A611A4B00229A618E
:1024E000184B4FF40042DA61164B00221A62154B6A
:1024F00000225A62134B00229A62124804F05EF9DD
:102500000346002B01D000F03DF800210D4806F0F5
:102510007AFA0346002B01D000F034F80021094874
:1025200006F0AFFA0346002B01D000F02BF8054867
:1025300006F030FA0346002B01D000F023F800BF6C
:1025400080BD00BF540400200038014080B500AFBA
:102550000420FFF7B1FE0120FFF7AEFE00220F219D
:102560000E2001F086FE0E2001F09DFE00BF80BD12
:1025700080B500AF0420FFF7B8FE0120FFF7B5FEDD
:1025800000BF80BD80B400AF00BFBD465DF8047BD6
:102590007047000080B483B000AF7860064B1B68C2
:1025A00023F0070204497B6813430B6000BF0C371C
:1025B000BD465DF8047B70470004005880B400AF4E
:1025C000034B09229A6100BFBD465DF8047B70474A
:1025D0000004005880B400AF074BD3F8883003F4F0
:1025E0008063B3F5806F01D1012300E0002318461A
:1025F000BD465DF8047B70470004005880B400AF0E
:10260000074BD3F8883003F40043B3F5004F01D1F2
:10261000012300E000231846BD465DF8047B7047A7
:102620000004005880B400AF4FF0B0431B684FF077
:10263000B04243F48033136000BFBD465DF8047BB5
:10264000704780B400AF4FF0B0431B6803F4003311
:10265000B3F5003F01D1012300E000231846BD4639
:102660005DF8047B704780B400AF4FF0B0431B6847
:102670004FF0B04243F48073136000BFBD465DF875
:10268000047B704780B400AF4FF0B0431B6803F485
:102690008063B3F5806F01D1012300E00023184669
:1026A000BD465DF8047B704780B483B000AF7860AE
:1026B0004FF0B0439B6823F003024FF0B0417B68BA
:1026C00013438B6000BF0C37BD465DF8047B704739
:1026D00080B400AF4FF0B0439B6803F00C03184682
:1026E000BD465DF8047B704780B483B000AF78606E
:1026F0004FF0B0435B6A23F003024FF0B0417B68B8
:1027000013434B6200BF0C37BD465DF8047B704736
:1027100080B400AF4FF0B043D3F894304FF0B042E4
:1027200043F40003C2F8943000BFBD465DF8047B5B
:102730007047000080B400AF054B1B69044A23F0CA
:102740000403136100BFBD465DF8047B704700BF02
:1027500000ED00E080B400AF054B1B69044A43F074
:102760000403136100BFBD465DF8047B704700BFE2
:1027700000ED00E080B483B000AF786039607B6822
:102780003A68203253F82230054A934201D001239F
:1027900000E0002318460C37BD465DF8047B704707
:1027A0000004008080B485B000AFF860B9607A6042
:1027B0007B6843F48061FB68BA6843F8221000BF6D
:1027C0001437BD465DF8047B704780B500AF01F05B
:1027D000E3FBFFF79DFF00F035F8FFF7EFFE032066
:1027E000FFF7D8FEFFF7B6FF00BF80BD80B400AF93
:1027F00000BFBD465DF8047B704780B500AF01F0B7
:10280000CBFB00F01FF80120FFF7C4FEFFF7A2FF8B
:1028100030BF00BF80BD80B500AF00F04FF801F0C1
:10282000CBFB00BF80BD80B500AF01F0B5FBFFF76B
:1028300081FF30BF00BF80BD80B500AF01F0BCFBA1
:1028400000BF80BD80B500AF00BF03211948FFF76E
:1028500091FF0346002BF8D104211648FFF78AFFA9
:102860000346002B17D1FFF7C9FE0346002B04D106
:10287000FFF7B0FE0346002B15D0002204210D48BF
:10288000FFF790FF00F052F80B4B1B680A4A23F049
:102890000703136007E000F049F8074B1B68064A7E
:1028A00023F007031360002203210248FFF77AFF99
:1028B00000BF80BD001400580040005880B500AF34
:1028C000002204211748FFF76DFF00BF03211548C0
:1028D000FFF750FF0346002BF8D1FFF7F9FE034640
:1028E000042B18D1FFF79EFE0F4B1B6823F0070344
:1028F0000D4A43F00103136000BFFFF7A2FE034639
:10290000002BFAD00220FFF7CFFE00BFFFF7E0FE5A
:102910000346082BFAD1002203210248FFF742FFA9
:1029200000BF80BD001400580040005880B500AFC3
:10293000FFF799FE00BFFFF7A5FE0346002BFAD074
:102940000120FFF7B1FE0020FFF7CEFE00BFFFF72A
:10295000BFFE0346042BFAD100BF80BD80B483B014
:1029600000AF78604FF0B043D3F8903023F440725A
:102970004FF0B0417B681343C1F8903000BF0C3773
:10298000BD465DF8047B704780B400AF4FF0B043A4
:10299000D3F890304FF0B04243F40043C2F8903087
:1029A00000BFBD465DF8047B704780B485B000AFC2
:1029B00078604FF0B043DA6C4FF0B0417B6813435E
:1029C000CB644FF0B043DA6C7B681340FB60FB686C
:1029D00000BF1437BD465DF8047B704780B485B0F6
:1029E00000AF78604FF0B0431A6D4FF0B0417B6894
:1029F00013430B654FF0B0431A6D7B681340FB60C7
:102A0000FB6800BF1437BD465DF8047B704780B497
:102A100085B000AF78604FF0B0439A6D4FF0B04191
:102A20007B6813438B654FF0B0439A6D7B6813400E
:102A3000FB60FB6800BF1437BD465DF8047B704740
:102A400080B485B000AF78604FF0B0431A6E4FF09D
:102A5000B0417B6813430B664FF0B0431A6E7B683E
:102A60001340FB60FB6800BF1437BD465DF8047B74
:102A7000704780B500AF4FF40020FFF7AFFF002292
:102A800000212E2001F0F5FB2E2001F00CFC00BFF0
:102A900080BD000080B582B000AF78607B681B68A5
:102AA0000D4A934213D14FF48010FFF797FF002295
:102AB00000212C2001F0DDFB2C2001F0F4FB002292
:102AC00000212D2001F0D5FB2D2001F0ECFB00BFF3
:102AD0000837BD4680BD00BF000C005880B58EB0E1
:102AE00000AF786007F1080330220021184607F094
:102AF000C4FD7B681B68184A934228D102F0F6F89F
:102B000002F0F4F84FF48070FFF728FF4FF40063F1
:102B1000BB604FF48073BB6207F10803184603F0F3
:102B200045FB0346002B01D0FFF72CFDFFF72CFFE0
:102B30004FF48060FFF76BFF00220021032001F0BB
:102B400098FB032001F0AFFB786803F0E1FD00BFC4
:102B50003837BD4680BD00BF0028004080B594B026
:102B600000AF786007F13C0300221A605A609A6057
:102B7000DA601A6107F10C0330220021184607F0D1
:102B80007CFD7B681B682F4A934257D10123FB6071
:102B900000233B6107F10C03184603F007FB0346D3
:102BA000002B01D0FFF7EEFC4FF48040FFF748FF09
:102BB0000120FFF7FAFE4FF4C063FB6302233B647E
:102BC00001237B640323BB640723FB6407F13C03FD
:102BD00019464FF0904001F047FE1B4B1B4A1A600C
:102BE000194B0F225A60184B10229A60164B002284
:102BF000DA60154B80221A61134B00225A61124B86
:102C000000229A61104B0022DA610F4B00221A62F7
:102C10000D4801F08DFB0346002B01D0FFF7B2FCFD
:102C20007B68094ADA67084A7B68936200220021C0
:102C3000242001F01EFB242001F035FB00BF50379B
:102C4000BD4680BD00380140E80400204400024039
:102C500080B400AFFEE780B400AFFEE780B400AF01
:102C6000FEE780B400AFFEE780B400AFFEE780B4BB
:102C700000AF00BFBD465DF8047B704780B400AF75
:102C800000BFBD465DF8047B704780B400AF00BF55
:102C9000BD465DF8047B704780B500AF01F050F988
:102CA00000BF80BD80B500AFFEF7B2FF00BF80BDA2
:102CB00080B500AF024801F085FC00BF80BD00BFB9
:102CC000E804002080B500AF024803F0A7FE00BF73
:102CD00080BD00BF5404002080B500AF00F0A4FD0B
:102CE00000BF80BD80B500AF00F0D4FD00BF80BD47
:102CF00080B500AF01F050FF00BF80BD80B500AFD0
:102D0000012001F031FF00BF80BD80B500AF102071
:102D100001F02AFF00BF80BD80B500AF402001F068
:102D200023FF00BF80BD80B400AF01231846BD461D
:102D30005DF8047B704780B582B000AF7860396081
:102D400007F0EEFC034616221A604FF0FF331846D8
:102D50000837BD4680BD80B582B000AF78604FF0C7
:102D6000FF317868FFF7E7FFFEE780B586B000AF78
:102D7000F860B9607A6000237B610AE0AFF30080FD
:102D80000146BB685A1CBA60CAB21A707B6901332B
:102D90007B617A697B689A42F0DB7B68184618375A
:102DA000BD4680BD80B586B000AFF860B9607A607E
:102DB00000237B6109E0BB685A1CBA601B78184687
:102DC000AFF300807B6901337B617A697B689A424B
:102DD000F1DB7B6818461837BD4680BD80B483B0F0
:102DE00000AF78604FF0FF3318460C37BD465DF8F2
:102DF000047B704780B483B000AF786039603B6873
:102E00004FF400525A60002318460C37BD465DF857
:102E1000047B704780B483B000AF7860012318460C
:102E20000C37BD465DF8047B704780B485B000AFB9
:102E3000F860B9607A60002318461437BD465DF823
:102E4000047B704780B586B000AF7860144A154B9C
:102E5000D31A7B617B693B61134B1B68002B02D14A
:102E6000114B124A1A60104B1A687B6813443A6976
:102E70009A4207D207F054FC03460C221A604FF026
:102E8000FF3309E0084B1B68FB60074B1A687B683F
:102E90001344054A1360FB6818461837BD4680BDC9
:102EA000003000200010000048050020B00800207D
:102EB00080B400AF044B1B68C3F30B031846BD4638
:102EC0005DF8047B704700BF002004E080B400AFD1
:102ED000044B1B681B0C9BB21846BD465DF8047B77
:102EE000704700BF002004E0B0B59CB000AF07F110
:102EF000400300221A605A609A60DA600023FB6681
:102F00000023BB664B4B3C1D1D460FCD0FC40FCDA0
:102F10000FC40FCD0FC495E8070003C42280464BB1
:102F2000DB6BC3F30D037B667B6E9B0003F10053E9
:102F300003F540331A46414B1A60414BBB65414B88
:102F4000FB65414B3B65414B7B6507F150031846E0
:102F500006F066F90121022006F0C0FB01210220E3
:102F600006F08CFB3A4B00221A703A4B00221A7082
:102F70000F2387F84030FFF7A9FFF866FB6E9BB27E
:102F8000A7F84C30FFF794FFB866BB6E9BB2A7F86A
:102F90004E3007F14003184606F054F8034687F810
:102FA000633097F86330002B01D0FFF7EBFA3B1D3D
:102FB000184606F019F8034687F8633097F863302F
:102FC000002B01D0FFF7DEFA234A0021082006F08B
:102FD000E7FC224A0021012006F0E2FC204A002101
:102FE000102006F0DDFC1F4A0021022006F0D8FC6C
:102FF0001D4A0021042006F0D3FC1C4B01221A704C
:103000001B4B00221A601B4806F031F8FFF750FAFC
:10301000194B1A4A1A601A4B00221A70164B19687B
:10302000184B01220020FFF7ADF800BF7037BD46F6
:10303000B0BD00BF60C50008004000587406002005
:103040004C090320580A0320593500087D35000833
:103050007906002078060020BD310008899200081A
:1030600009310008B1930008219300087006002080
:103070006C06002064060020600600204C0500203D
:10308000510500205132000880B582B000AF786051
:103090000B4B1B78002B06D0094B00221A70012025
:1030A00006F0CCFC08E07968064806F012F800212A
:1030B000102006F097FC00BF0837BD4680BD00BF5A
:1030C000780600206406002080B500AF0D4B1B7809
:1030D000002B0AD1012000F097FD0A4B01221A7043
:1030E0000021022006F0CAFA0AE0012000F072FD79
:1030F000044B00221A700121022006F0BFFA00BF23
:1031000080BD00BF7906002080B584B000AFEFF32A
:103110001083BB60BB68FB60234B1B78012B3FD146
:10312000214B00221A702149214806F019F8214B41
:103130001B78002B31D11D4B1B681B7A022B16D13B
:1031400072B600BF194B1B6803F10801174B1B68CF
:10315000B3F80B309BB205339AB2174B0020FFF740
:1031600035F8FB687B607B6883F3108817E072B6E4
:1031700000BF0E4B1B6803F108010C4B1B689B7AC8
:103180009BB203339AB20C4B0020FFF71FF8FB6889
:103190003B603B6883F3108801E000F0A9F900BFB1
:1031A00000BF1037BD4680BD700600206C060020B1
:1031B0006406002079060020F134000880B500AFD5
:1031C000204BB3F809309BB24FF66252934214D0B1
:1031D0004FF66252934214DC4FF66052934204D091
:1031E0004FF66152934204D00BE0164805F048FDBB
:1031F0001EE0144805F0E0FD1AE0124805F026FE36
:1032000016E0114B0F4AB2F8092092B2A3F8012040
:103210000D4B0122DA700C4B01221A70094B21224E
:103220001A72084B0E225A72064B04229A7200BF81
:103230000449064805F04DFF0021102006F0D2FB9E
:1032400000BF80BD540500205F05002064060020FB
:1032500080B582B000AF0023FB800023BB809E4B73
:103260001B78022B00F0FD80022B00F32681002B3F
:1032700002D0012B62D020E1984B1B681B78FB70B9
:10328000FB78013B1F2B53D801A252F823F000BF5B
:1032900011330008213300083133000831330008AE
:1032A000313300083133000831330008313300086E
:1032B000313300083133000831330008313300085E
:1032C000313300083133000831330008113300086E
:1032D000313300083133000831330008313300083E
:1032E000313300083133000831330008313300082E
:1032F000313300083133000831330008313300081E
:10330000313300083133000831330008113300082D
:10331000714B01221A700323FB800123BB800CE058
:103320006D4B01221A700423FB800123BB8004E053
:103330000123FB800023BB8000BFBFE0674B1B68FD
:103340001B78FB70FB78202B19D0202B46DC022B3E
:1033500025D0102B42D1614B1B6803331B78FB80B7
:103360005F4B1B68DB681B6808335C4A13605B4B70
:103370001B685C4A12681A600423BB8042E0574B0A
:103380001B6803331B78FB80544B574A1A60534B1E
:103390001B68544A12681A600423BB8032E04F4B0A
:1033A0001B6803331B789AB24C4B1B6804331B78A1
:1033B0009BB21B029BB21344FB80494B1B685B68AA
:1033C000DB680833454A1360444B1B68454A106864
:1033D000186012791A710523BB8013E03F4B1B68FC
:1033E00003331B78FB803E4B1B685B681B6808330C
:1033F0003A4A1360394B1B683A4A12681A60042330
:10340000BB8000BFFB88002B03D0334B02221A7015
:1034100054E0FB78202B0AD0202B12DC022B0BD09F
:10342000102B0ED10021022006F0DCFA0EE0002164
:10343000082006F0D7FA09E00021042006F0D2FAAD
:1034400004E00021012006F0CDFA00BF224B00224B
:103450001A700123FB800023BB80204B214A1A6095
:103460002CE01E4B1B681B78FB70FB78202B0AD0CE
:10347000202B12DC022B0BD0102B0ED100210220AE
:1034800006F0B0FA0EE00021082006F0ABFA09E0E1
:103490000021042006F0A6FA04E00021012006F035
:1034A000A1FA00BF0C4B00221A700123FB800023FD
:1034B000BB800A4B0B4A1A6000E000BF074B1A683A
:1034C000BB88D118FA88094B0020FEF75BFE00BFCD
:1034D0000837BD4680BD00BF5105002060060020B2
:1034E000740600204C0500205C05002051320008C5
:1034F00080B500AF144B01221A70144B1B681B6976
:103500009A68134B1B689A4211D8104B1B681B69B1
:103510009A680E4B1B681B69DB681A440C4B1B68CE
:103520009A4204D90A4B1B68184605F0D1FF094896
:1035300005F0ADFD0346002B04D10021102006F05C
:1035400051FA00BF00BF80BD700600207406002045
:103550006C0600206406002080B582B000AF786061
:103560007968054805F0B5FD0021102006F03AFA0B
:1035700000BF0837BD4680BD6406002080B400AFA0
:1035800000BFBD465DF8047B7047000080B588B081
:1035900000AFBA607B600346FB810B467B731B4B1D
:1035A000DB6BC3F30D03FB61FB699B0003F100536D
:1035B00003F54033BB61164B01221A70BB69DB680F
:1035C0001B687B617B69FA89A3F809207B697A7B98
:1035D000DA727B690C337A7BB968184607F0CDF84C
:1035E0000021002005F0E4FE012006F047FA7B6888
:1035F00003F108007B699B7803331A46796907F069
:10360000BCF800BF2037BD4680BD00BF0040005859
:103610007806002080B400AF054BDB68044A43F411
:103620000043D36000BFBD465DF8047B704700BF18
:103630000004005880B483B000AF7860064BD3F824
:10364000D42005497B681343C1F8D43000BF0C3740
:10365000BD465DF8047B70470008005880B483B015
:1036600000AF7860054B1A6A04497B6813430B620C
:1036700000BF0C37BD465DF8047B7047000800585A
:1036800080B485B000AF78604FF0B0431A6D4FF052
:10369000B0417B6813430B654FF0B0431A6D7B68F4
:1036A0001340FB60FB6800BF1437BD465DF8047B28
:1036B000704780B485B000AF78604FF0B043D3F866
:1036C00050214FF0B0417B681343C1F850314FF0A7
:1036D000B043D3F850217B681340FB60FB6800BF08
:1036E0001437BD465DF8047B704780B483B000AFEB
:1036F00078607B681B6843F480327B681A6000BF87
:103700000C37BD465DF8047B704780B483B000AFD2
:1037100078607B681B6843F001027B681A6000BF19
:103720000C37BD465DF8047B704780B483B000AFB2
:10373000786039607B685A683B681B04DB431A4039
:103740007B685A6000BF0C37BD465DF8047B70474C
:1037500080B483B000AF786039607B685A683B689A
:103760001B041A437B685A6000BF0C37BD465DF8E6
:10377000047B704780B483B000AF786039607B68A9
:103780005A683B68DB431A407B685A6000BF0C37BD
:10379000BD465DF8047B704780B483B000AF7860AD
:1037A00039607B683A689A6000BF0C37BD465DF8A7
:1037B000047B704780B483B000AF786039603B68A9
:1037C0001A047B689A6000BF0C37BD465DF8047B25
:1037D000704780B483B000AF786039607B68DA6886
:1037E0003B6813403A689A4201D1012300E000236C
:1037F00018460C37BD465DF8047B704780B483B033
:1038000000AF786039607B68DA693B6813403A68DA
:103810009A4201D1012300E0002318460C37BD462F
:103820005DF8047B7047000080B500AF02211848A6
:10383000FFF7E4FF0346002B08D0154B5B6803F04D
:103840000203002B02D100F0E3F81EE00121104832
:10385000FFF7D4FF0346002B08D00D4B5B6803F045
:103860000103002B02D100F089F80EE0082108487E
:10387000FFF7C4FF0346002B08D0054B5B6803F03D
:103880000803002B02D100F00FF900BF00BF80BD7C
:10389000000C005880B500AF02211848FFF799FFCF
:1038A0000346002B08D1154B5B6803F40033002B53
:1038B00002D100F0A1F81EE008211048FFF789FFAF
:1038C0000346002B08D10D4B5B6803F40023002B4B
:1038D00002D100F0CBF80EE020210848FFF779FF75
:1038E0000346002B08D1054B5B6803F40013002B43
:1038F00002D100F05DF800BF00BF80BD000C005891
:1039000080B500AF4FF48010FFF7D3FE4FF4007086
:10391000FFF7A4FE4FF40070FFF78CFE40BF20BFFE
:10392000FFF778FE00BF80BD80B500AF4FF4801078
:10393000FFF7A6FE0648FFF7E8FE0548FFF7D5FEAD
:103940002C2000F0B0FC2D2000F0ADFC00BF80BDAD
:10395000000C005880B500AF01210248FFF70AFFB4
:1039600000BF80BD000C005880B500AF01210248A7
:10397000FFF720FF00BF80BD000C005880B500AFEE
:1039800005F09EFC01210248FFF706FF00BF80BD45
:10399000000C005880B500AF20210448FFF70AFF53
:1039A00020210248FFF7C1FE00BF80BD000C005877
:1039B00080B500AF20210348FFF7CAFE05F0C4FC24
:1039C00000BF80BD000C005880B500AF0221024846
:1039D000FFF7D0FE00BF80BD000C005880B500AFDF
:1039E00002210448FFF7E6FE02210248FFF79DFE90
:1039F00000BF80BD000C005880B500AF0221034815
:103A0000FFF7A6FE05F0F0FC00BF80BD000C0058DB
:103A100080B500AF05F0FEFC02210248FFF7BCFEB6
:103A200000BF80BD000C005880B582B000AF786048
:103A300008210C48FFF7CDFE0346002B07D00A4AA9
:103A40007B68136008210748FFF76FFE06E07B687C
:103A5000984708210348FFF7ADFE00BF0837BD4671
:103A600080BD00BF000C00587C06002080B500AF70
:103A700008210648FFF76CFE054B1B689847082194
:103A80000248FFF797FE00BF80BD00BF000C005842
:103A90007C06002080B500AF08210248FFF76AFECF
:103AA00000BF80BD000C005880B500AF05F05AFD86
:103AB00008210248FFF770FE00BF80BD000C0058CF
:103AC000D458C4500433C4188C42F9D370470360EF
:103AD00004308842FBD370470C48854600F054F907
:103AE0000B480C490C4A0023FFF7EDFF0B480C492B
:103AF0000023FFF7EEFF0B480B490023FFF7E9FF18
:103B000006F014FEFEF70AFCFEE70000003000207D
:103B1000080000201402002084CB000814020020BA
:103B2000AC080020D80003206F0B0320FEE780B410
:103B300085B000AF78604FF0B043DA6C4FF0B04121
:103B40007B681343CB644FF0B043DA6C7B6813405F
:103B5000FB60FB6800BF1437BD465DF8047B70470F
:103B600080B588B000AF0346FB7107F10C0300225B
:103B70001A605A609A60DA601A610220FFF7D7FF74
:103B8000FB79124A32F81330FB6001233B610023BA
:103B90007B610223BB61FB790D4A52F8233007F1A8
:103BA0000C021146184600F05FFEFB79084A52F8F5
:103BB0002300FB79054A32F813300022194600F041
:103BC000BBFF002318462037BD4680BD04C7000850
:103BD0000800002080B582B000AF0346FB71FB797E
:103BE000074A52F82300FB79064A32F813300122C3
:103BF000194600F0A1FF002318460837BD4680BDD6
:103C00000800002004C7000880B582B000AF03465A
:103C1000FB71FB79074A52F82300FB79064A32F818
:103C200013300022194600F087FF0023184608379A
:103C3000BD4680BD0800002004C7000880B588B0DC
:103C400000AF03460A46FB711346BB7107F10C0334
:103C500000221A605A609A60DA601A61FB79002BC0
:103C600003D10120FFF763FF0CE0FB79012B03D1A7
:103C70001020FFF75CFF05E0FB79022B02D1012049
:103C8000FFF755FFFB79294A32F81330FB60012317
:103C90007B610223BB61BB79002B0CD100233B610C
:103CA000FB79234A52F8233007F10C0211461846DB
:103CB00000F0DAFD35E04FF404133B61FB791C4A58
:103CC00052F8233007F10C021146184600F0CCFDE3
:103CD000FB79DB00174A1A44FB79174951F8233066
:103CE0001946104600F08AFDFB79DB00114A98184E
:103CF000FB79124A52F823301A46002100F064FD85
:103D0000FB790F4AD056FB790E4A52F82330002235
:103D1000194600F0AEFAFB79094AD356184600F06E
:103D2000C2FA002318462037BD4680BD0CC70008E4
:103D3000140000208006002018C700082000002082
:103D400014C700082C00002080B483B000AF0346E5
:103D5000FB7100BF0C37BD465DF8047B704780B532
:103D600000AF0020FFF7F0FF00BF80BD80B500AFBF
:103D70000120FFF7E9FF00BF80BD80B500AF022042
:103D8000FFF7E2FF00BF80BD80B400AF244B0022EC
:103D90009A60234BD3F88830214A43F47003C2F869
:103DA00088304FF0B0431B684FF0B04243F001033E
:103DB00013604FF0B0434FF4E0229A604FF0B043ED
:103DC0001A684FF0B041174B13400B604FF0B043EF
:103DD000D3F894304FF0B04223F00503C2F894308A
:103DE0004FF0B043D3F898304FF0B04223F00103C6
:103DF000C2F898304FF0B0430B4ADA604FF0B0434E
:103E00001B684FF0B04223F4802313604FF0B0439F
:103E100000229A6100BFBD465DF8047B704700BF79
:103E200000ED00E0FBFEF6FA0010042280B400AFC3
:103E3000054B5B68044A23F00103536000BFBD4695
:103E40005DF8047B704700BF002004E080B400AF41
:103E5000054B5B68044A23F00203536000BFBD4674
:103E60005DF8047B704700BF002004E080B400AF21
:103E7000054B5B68044A23F00403536000BFBD4652
:103E80005DF8047B704700BF002004E080B582B07D
:103E900000AF0023FB710C4B1B680B4A43F480738B
:103EA0001360032000F0DAF9002000F00FF8034659
:103EB000002B02D00123FB7101E0FEF7DAFDFB7954
:103EC00018460837BD4680BD0040005880B584B014
:103ED00000AF78600023FB73174B1B78002B24D0B6
:103EE00001F04EFF0246144B1B7819464FF47A73CB
:103EF000B3FBF1F3B2FBF3F3184600F0F0F903461D
:103F0000002B0FD17B680F2B09D8002279684FF066
:103F1000FF3000F0AEF9094A7B68136007E0012327
:103F2000FB7304E00123FB7301E00123FB73FB7BC4
:103F300018461037BD4680BD400000203C000020E0
:103F400080B400AF064B1B781A46064B1B6813441F
:103F5000044A136000BFBD465DF8047B704700BF94
:103F6000400000209806002080B400AF034B1B687F
:103F70001846BD465DF8047B704700BF98060020D8
:103F800080B400AF034B1B681846BD465DF8047B48
:103F9000704700BF3C00002080B400AF054B1B6899
:103FA000044A23F00203136000BFBD465DF8047BA2
:103FB000704700BF10E000E080B400AF054B1B6805
:103FC000044A43F00203136000BFBD465DF8047B62
:103FD000704700BF10E000E080B500AFFFF726FF9C
:103FE00000BF80BD80B500AFFFF730FF00BF80BDD0
:103FF00080B500AFFFF73AFF00BF80BD80B485B049
:1040000000AF78607B6803F00703FB600C4BDB6854
:10401000BB60BA684FF6FF031340BB60FB681A022F
:10402000BB68134343F0BF6343F40033BB60044AEF
:10403000BB68D36000BF1437BD465DF8047B704792
:1040400000ED00E080B400AF044BDB681B0A03F016
:1040500007031846BD465DF8047B704700ED00E09D
:1040600080B483B000AF0346FB7197F90730002B93
:104070000BDBFB7903F01F02074997F907305B0957
:10408000012000FA02F241F8232000BF0C37BD46A0
:104090005DF8047B704700BF00E100E080B483B0AE
:1040A00000AF0346FB7197F90730002B12DBFB7959
:1040B00003F01F020A4997F907305B09012000FA53
:1040C00002F2203341F82320BFF34F8F00BFBFF32C
:1040D0006F8F00BF00BF0C37BD465DF8047B704793
:1040E00000E100E080B483B000AF0346FB7197F9B4
:1040F0000730002B0CDBFB7903F01F02074997F90F
:1041000007305B09012000FA02F2403341F8232016
:1041100000BF0C37BD465DF8047B704700E100E04E
:1041200080B483B000AF0346FB7197F90730002BD2
:104130000CDBFB7903F01F02074997F907305B0995
:10414000012000FA02F2603341F8232000BF0C374F
:10415000BD465DF8047B704700E100E080B483B0A9
:1041600000AF03463960FB7197F90730002B0ADB7B
:104170003B68DAB20C4997F907301201D2B20B440E
:1041800083F800230AE03B68DAB20849FB7903F0C0
:104190000F03043B1201D2B20B441A7600BF0C3756
:1041A000BD465DF8047B704700E100E000ED00E0F3
:1041B00080B489B000AFF860B9607A60FB6803F042
:1041C0000703FB61FB69C3F10703042B28BF04232A
:1041D000BB61FB690433062B02D9FB69033B00E09A
:1041E00000237B614FF0FF32BB6902FA03F3DA432D
:1041F000BB681A407B699A404FF0FF317B6901FA36
:1042000003F3D9437B680B40134318462437BD465C
:104210005DF8047B7047000080B582B000AF786025
:104220007B68013BB3F1807F01D301230FE00A4A91
:104230007B68013B53600F214FF0FF30FFF78EFF8B
:10424000054B00229A60044B07221A60002318468F
:104250000837BD4680BD00BF10E000E080B582B0E9
:1042600000AF78607868FFF7C9FE00BF0837BD4629
:1042700080BD80B586B000AF0346B9607A60FB733D
:10428000FFF7E0FE78617A68B9687869FFF790FF18
:10429000024697F90F3011461846FFF75FFF00BF3F
:1042A0001837BD4680BD80B582B000AF0346FB71B4
:1042B00097F907301846FFF7D3FE00BF0837BD4611
:1042C00080BD80B582B000AF0346FB7197F907301F
:1042D0001846FFF7E3FE00BF0837BD4680BD80B536
:1042E00082B000AF78607868FFF796FF0346184603
:1042F0000837BD4680BD80B582B000AF0346FB7174
:1043000097F907301846FFF7EDFE00BF0837BD46A6
:1043100080BD80B582B000AF0346FB7197F90730CE
:104320001846FFF7FDFE00BF0837BD4680BD000000
:1043300080B584B000AF78607B68002B01D1012389
:1043400078E07B681B681A463C4B13443C4AA2FB4E
:1043500003231B099A007B685A647B68394A1A64F4
:104360007B68022283F825207B681B681B68FB6042
:10437000FB6823F4FF4323F07003FB607B689A68BB
:104380007B68DB681A437B681B691A437B685B693F
:104390001A437B689B691A437B68DB691A437B6815
:1043A0001B6A1343FA681343FB607B681B68FA6857
:1043B0001A60786800F0B6F97B689B68B3F5804FA7
:1043C00002D17B6800225A607B685A687B689B6CCC
:1043D00002F03F021A607B68DB6C7A68126D5A60EB
:1043E0007B685B68002B10D07B685B68042B0CD863
:1043F000786800F0C3F97B685B6D00221A607B6807
:104400009B6D7A68D26D5A6008E07B6800225A651D
:104410007B6800229A657B680022DA657B6800224F
:10442000DA637B68012283F825207B68002283F809
:104430002420002318461037BD4680BDF8FFFDBF7D
:10444000CDCCCCCC0000024080B483B000AF78600B
:104450007B68002B01D101234FE07B6893F8253066
:10446000DBB2022B08D07B680422DA637B6800226F
:1044700083F82420012340E07B681B681A687B686E
:104480001B6822F00E021A607B689B6C1A687B68BE
:104490009B6C22F480721A607B681B681A687B68C8
:1044A0001B6822F001021A607B685B6C03F01C023F
:1044B0007B681B6C012101FA02F25A607B68DB6C9D
:1044C0007A68126D5A607B685B6D002B0CD07B683C
:1044D0005B6D1A687B685B6D22F480721A607B6882
:1044E0009B6D7A68D26D5A607B68012283F8252023
:1044F0007B68002283F82420002318460C37BD4631
:104500005DF8047B704780B584B000AF786000230D
:10451000FB737B6893F82530DBB2022B05D07B68F8
:104520000422DA630123FB7347E07B681B681A6887
:104530007B681B6822F00E021A607B681B681A6891
:104540007B681B6822F001021A607B689B6C1A680A
:104550007B689B6C22F480721A607B685B6C03F052
:104560001C027B681B6C012101FA02F25A607B6815
:10457000DB6C7A68126D5A607B685B6D002B0CD027
:104580007B685B6D1A687B685B6D22F480721A60D1
:104590007B689B6D7A68D26D5A607B68012283F8D4
:1045A00025207B68002283F824207B689B6B002BEE
:1045B00003D07B689B6B78689847FB7B1846103765
:1045C000BD4680BD80B584B000AF78607B681B6C51
:1045D0001B68FB607B681B681B68BB607B685B6C4F
:1045E00003F01C0304229A40FB681340002B26D0E2
:1045F000BB6803F00403002B21D07B681B681B6899
:1046000003F02003002B07D17B681B681A687B68C6
:104610001B6822F004021A607B685B6C03F01C02CA
:104620007B681B6C042101FA02F25A607B681B6BE9
:10463000002B71D07B681B6B786898476CE07B68B7
:104640005B6C03F01C0302229A40FB681340002BB2
:104650002ED0BB6803F00203002B29D07B681B68B7
:104660001B6803F02003002B0BD17B681B681A68C2
:104670007B681B6822F00A021A607B68012283F8BB
:1046800025207B685B6C03F01C027B681B6C02219D
:1046900001FA02F25A607B68002283F824207B68CA
:1046A000DB6A002B38D07B68DB6A7868984733E098
:1046B0007B685B6C03F01C0308229A40FB68134084
:1046C000002B2AD0BB6803F00803002B25D07B68A1
:1046D0001B681A687B681B6822F00E021A607B68F0
:1046E0005B6C03F01C027B681B6C012101FA02F277
:1046F0005A607B680122DA637B68012283F82520F7
:104700007B68002283F824207B685B6B002B04D03D
:104710007B685B6B7868984700BF00BF1037BD4669
:1047200080BD000080B485B000AF78607B685B6CB2
:104730009B089B0003F1804303F502337A6893647E
:104740007B681B68DBB2083B0A4AA2FB03231B09F8
:10475000FB607B68084ADA64FB6803F01F030122F0
:104760009A407B681A6500BF1437BD465DF8047B2C
:10477000704700BFCDCCCCCC8008024080B485B05F
:1047800000AF78607B685B6803F03F03FB60FA680A
:104790000B4B13449B001A467B685A657B68094A99
:1047A0009A65FB68013B03F0030301229A407B6892
:1047B000DA6500BF1437BD465DF8047B704700BF63
:1047C0003F8200104009024080B487B000AFF8601B
:1047D0000B467A60FB720023FB75FB7A002B03D13A
:1047E000FB687A685A6002E00123FB7500BFFB7D1D
:1047F00018461C37BD465DF8047B704780B483B013
:1048000000AF786039607B68002B01D1012303E0A1
:104810007B683A681A60002318460C37BD465DF87D
:10482000047B704780B487B000AF78607B681B68FA
:104830001B0C03F001037B617B681B6803F01F0303
:10484000012202FA03F33B617B695B0103F1B04390
:1048500003F60803FB60FB683A691A6000BF1C3767
:10486000BD465DF8047B704780B487B000AF7860C8
:10487000396000237B6146E13B681A6801217B694E
:1048800001FA03F31340FB60FB68002B00F0388152
:104890003B685B6803F00303012B05D03B685B6852
:1048A00003F00303022B30D17B689B683B617B697B
:1048B0005B00032202FA03F3DB433A6913403B61D6
:1048C0003B68DA687B695B0002FA03F33A691343D9
:1048D0003B617B683A699A607B685B683B61012257
:1048E0007B6902FA03F3DB433A6913403B613B689F
:1048F0005B681B0903F001027B6902FA03F33A6962
:1049000013433B617B683A695A603B685B6803F01C
:104910000303032B17D07B68DB683B617B695B007B
:10492000032202FA03F3DB433A6913403B613B681D
:104930009A687B695B0002FA03F33A6913433B61AF
:104940007B683A69DA603B685B6803F00303022B1B
:1049500023D17B69DA087B68083253F822303B6147
:104960007B6903F007039B000F2202FA03F3DB438A
:104970003A6913403B613B681A697B6903F007039E
:104980009B0002FA03F33A6913433B617B69DA083F
:104990007B680832396943F822107B681B683B61E9
:1049A0007B695B00032202FA03F3DB433A6913409D
:1049B0003B613B685B6803F003027B695B0002FAC2
:1049C00003F33A6913433B617B683A691A603B68B9
:1049D0005B6803F44033002B00F09280514A7B69FE
:1049E0009B08023352F823303B617B6903F00303D9
:1049F0009B000F2202FA03F3DB433A6913403B6149
:104A00007B68B3F1904F13D07B68474A93420DD037
:104A10007B68464A934207D07B68454A934201D15E
:104A2000042306E0072304E0022302E0012300E060
:104A300000237A6902F00302920093403A6913431B
:104A40003B6138497B699B0802333A6941F823206E
:104A5000384B1B683B61FB68DB433A6913403B61A1
:104A60003B685B6803F48013002B03D03A69FB6852
:104A700013433B612F4A3B6913602E4B5B683B61DC
:104A8000FB68DB433A6913403B613B685B6803F4B6
:104A90000013002B03D03A69FB6813433B61254A9E
:104AA0003B695360234BD3F880303B61FB68DB43A9
:104AB0003A6913403B613B685B6803F48033002B29
:104AC00003D03A69FB6813433B611A4A3B69C2F859
:104AD0008030184BD3F884303B61FB68DB433A6984
:104AE00013403B613B685B6803F40033002B03D049
:104AF0003A69FB6813433B610E4A3B69C2F8843054
:104B00007B6901337B613B681A687B6922FA03F396
:104B1000002B7FF4B1AE00BF00BF1C37BD465DF86F
:104B2000047B704700000140000400480008004872
:104B3000001000480008005880B483B000AF7860CF
:104B40000B467B8013467B707B78002B03D07A88E2
:104B50007B689A6102E07A887B689A6200BF0C37B2
:104B6000BD465DF8047B704780B582B000AF034658
:104B7000FB80084BDA68FB881340002B06D0054AFF
:104B8000FB88D360FB881846FCF769FC00BF083738
:104B9000BD4680BD0008005880B582B000AF0A4B0A
:104BA000DB687B60084B1A687B68DB43064913406F
:104BB0000B60054A7B685360786800F007F800BF17
:104BC0000837BD4680BD00BF0015005880B483B0D3
:104BD00000AF786000BF0C37BD465DF8047B7047BE
:104BE00080B584B000AF78600023FB737B68002B36
:104BF0001ED0134BBB607B6893F83830DBB2002BC0
:104C000002D17868FDF746FFB86800F05BF8BB6832
:104C10001B6843F00112BB681A60786800F02CF83A
:104C20007B6800225A637B68012283F8382001E008
:104C30000123FB73FB7B18461037BD4680BD00BFC8
:104C4000000C005880B485B000AFF860B96013461E
:104C5000FB7100BF1437BD465DF8047B704780B41C
:104C600085B000AFF860B9601346FB7100BF143720
:104C7000BD465DF8047B704780B485B000AF7860B6
:104C80000023FB600FE07A68FB689B0013440B4A2B
:104C90005A607A68FB6806339B001344084A5A60DE
:104CA000FB680133FB60FB68052BECD900BF00BF3C
:104CB0001437BD465DF8047B704700BF454C0008C3
:104CC0005F4C000880B483B000AF78607B6800223E
:104CD0001A607B684FF03F125A607B683F229A60EF
:104CE00000BF0C37BD465DF8047B704780B400AF51
:104CF000054B1B68044A43F48073136000BFBD4634
:104D00005DF8047B704700BF0004005880B400AF1A
:104D1000054B9B68044A43F40073936000BFBD4693
:104D20005DF8047B704700BF0004005880B500AFF9
:104D3000FFF7ECFF00BF80BD80B400AF4FF0B04381
:104D40001B6803F48013B3F5801F01D1012300E039
:104D500000231846BD465DF8047B704780B400AF61
:104D60004FF0B0431B684FF0B04243F48033136000
:104D700000BFBD465DF8047B704780B400AF4FF0C4
:104D8000B0431B684FF0B04223F48033136000BF80
:104D9000BD465DF8047B704780B400AF4FF0B04370
:104DA0001B6803F40033B3F5003F01D1012300E099
:104DB00000231846BD465DF8047B704780B400AF01
:104DC0004FF0B0431B684FF0B04243F48073136060
:104DD00000BFBD465DF8047B704780B400AF4FF064
:104DE000B0431B684FF0B04223F48073136000BFE0
:104DF000BD465DF8047B704780B400AF4FF0B04310
:104E00001B6803F48063B3F5806F01D1012300E0D8
:104E100000231846BD465DF8047B704780B483B01C
:104E200000AF78604FF0B0435B6823F0FE427B68D0
:104E30001B064FF0B04113434B6000BF0C37BD461B
:104E40005DF8047B704780B400AF4FF0B043D3F8F7
:104E500090304FF0B04243F00103C2F8903000BFF1
:104E6000BD465DF8047B704780B400AF4FF0B0439F
:104E7000D3F890304FF0B04223F00103C2F89030E5
:104E800000BFBD465DF8047B704780B400AF4FF0B3
:104E9000B043D3F890304FF0B04243F00403C2F86F
:104EA000903000BFBD465DF8047B704780B400AF12
:104EB0004FF0B043D3F890304FF0B04223F00403EA
:104EC000C2F8903000BFBD465DF8047B704780B4E7
:104ED00000AF4FF0B043D3F8903003F00203022B41
:104EE00001D1012300E000231846BD465DF8047B94
:104EF000704780B400AF4FF0B043D3F894304FF018
:104F0000B04243F00103C2F8943000BFBD465DF8E3
:104F1000047B704780B400AF4FF0B043D3F89430B7
:104F20004FF0B04223F00103C2F8943000BFBD46F9
:104F30005DF8047B704780B400AF4FF0B043D3F806
:104F4000943003F00203022B01D1012300E000237F
:104F50001846BD465DF8047B704780B400AF4FF043
:104F6000B043D3F894304FF0B04243F00403C2F89A
:104F7000943000BFBD465DF8047B704780B400AF3D
:104F80004FF0B043D3F894304FF0B04223F0040315
:104F9000C2F8943000BFBD465DF8047B704780B412
:104FA00000AF4FF0B043D3F8943003F00803082B60
:104FB00001D1012300E000231846BD465DF8047BC3
:104FC000704780B483B000AF78604FF0B043D3F83F
:104FD000943023F470627B681B024FF0B04113439E
:104FE000C1F8943000BF0C37BD465DF8047B7047B4
:104FF00080B400AF4FF0B0431B684FF0B04243F0B5
:105000000103136000BFBD465DF8047B704780B4A8
:1050100000AF4FF0B0431B684FF0B04223F00103E4
:10502000136000BFBD465DF8047B704780B400AFDD
:105030004FF0B0431B6803F00203022B01D10123A0
:1050400000E000231846BD465DF8047B704780B43D
:1050500083B000AF78604FF0B0431B6823F0F002DC
:105060004FF0B0417B6813430B6000BF0C37BD4667
:105070005DF8047B704780B483B000AF4FF0B0435D
:105080001B6803F0F0037B607B68B02B01D9B02371
:105090007B607B6818460C37BD465DF8047B704723
:1050A00080B483B000AF78604FF0B0435B6823F406
:1050B0007F427B681B024FF0B04113434B6000BF3F
:1050C0000C37BD465DF8047B704780B483B000AFF9
:1050D00078604FF0B0439B6823F003024FF0B0417B
:1050E0007B6813438B6000BF0C37BD465DF8047BC3
:1050F000704780B400AF4FF0B0439B6803F00C03DF
:105100001846BD465DF8047B704780B483B000AF9D
:1051100078604FF0B0439B6823F0F0024FF0B0414D
:105120007B6813438B6000BF0C37BD465DF8047B82
:10513000704780B483B000AF78604FF0B043D3F8CD
:10514000083123F0F0024FF0B0417B681343C1F8FF
:10515000083100BF0C37BD465DF8047B704780B452
:1051600083B000AF78604FF0B043D3F8083123F03C
:105170000F027B681B094FF0B0411343C1F808319F
:1051800000BF0C37BD465DF8047B704780B483B028
:1051900000AF78604FF0B0439B6823F4E0624FF0BB
:1051A000B0417B6813438B6000BF0C37BD465DF890
:1051B000047B704780B483B000AF78604FF0B04399
:1051C0009B6823F460524FF0B0417B6813438B60BF
:1051D00000BF0C37BD465DF8047B704780B400AF5C
:1051E0004FF0B0439B6803F0F0031846BD465DF8EE
:1051F000047B704780B400AF4FF0B043D3F8083160
:105200001B0103F0F0031846BD465DF8047B7047B0
:1052100080B400AF4FF0B0439B6803F4E0631846DE
:10522000BD465DF8047B704780B400AF4FF0B043DB
:105230009B6803F460531846BD465DF8047B7047D5
:1052400080B400AF4FF0B0431B684FF0B04243F062
:105250008073136000BFBD465DF8047B704780B467
:1052600000AF4FF0B0431B684FF0B04223F08073A3
:10527000136000BFBD465DF8047B704780B400AF8B
:105280004FF0B0431B6803F00073B3F1007F01D10E
:10529000012300E000231846BD465DF8047B7047FB
:1052A00080B400AF4FF0B043DB681B0A03F07F030C
:1052B0001846BD465DF8047B704780B400AF4FF0E0
:1052C000B043DB6803F060431846BD465DF8047BDD
:1052D000704780B400AF4FF0B043DB6803F0700359
:1052E0001846BD465DF8047B704780B400AF4FF0B0
:1052F000B043DB6803F003031846BD465DF8047B4A
:10530000704780B400AF4FF0B0439B6803F4803324
:10531000B3F5803F01D1012300E000231846BD46CC
:105320005DF8047B704780B400AF4FF0B043D3F812
:10533000083103F40033B3F5003F01D1012300E04D
:1053400000231846BD465DF8047B704780B400AF6B
:105350004FF0B043D3F8083103F48033B3F5803F06
:1053600001D1012300E000231846BD465DF8047B0F
:10537000704780B400AF4FF0B0439B6803F4003334
:10538000B3F5003F01D1012300E000231846BD46DC
:105390005DF8047B704780B400AF4FF0B0439B686A
:1053A00003F48023B3F5802F01D1012300E0002313
:1053B0001846BD465DF8047B7047000090B58DB07F
:1053C00000AF78607B68002B01D1012324E37B6868
:1053D0001B6803F02003002B00F08D80FFF789FE8F
:1053E000F862FFF782FFB862FB6A002B05D0FB6A08
:1053F0000C2B47D1BB6A012B44D17B68DB69002BA6
:1054000001D1012308E37B685C6AFFF734FE0346A1
:105410009C4214D97B685B6A184600F0F1FC034695
:10542000002B01D00123F7E27B685B6A1846FFF787
:105430000EFE7B681B6A1846FFF732FE13E07B689E
:105440005B6A1846FFF703FE7B681B6A1846FFF786
:1054500027FE7B685B6A184600F0D2FC0346002BEF
:1054600001D00123D8E200F08BFC0346A44A13606C
:10547000A44B1B681846FEF729FD0346002B39D0C4
:105480000123C9E27B68DB69002B1ED0FFF7B0FD6A
:10549000FEF76AFD786208E0FEF766FD02467B6A69
:1054A000D31A022B01D90323B6E2FFF7BFFD03464F
:1054B000002BF1D07B685B6A1846FFF7C8FD7B685C
:1054C0001B6A1846FFF7ECFD15E0FFF7A0FDFEF79D
:1054D0004BFD786208E0FEF747FD02467B6AD31A6F
:1054E000022B01D9032397E2FFF7A0FD0346002B0F
:1054F000F1D100E000BF7B681B6803F00103002BC3
:1055000047D0FFF7F6FD3862FFF7EFFEF8613B6A20
:10551000082B05D03B6A0C2B08D1FB69032B05D166
:105520007B685B68002B34D1012375E27B685B6884
:10553000B3F5803F02D1FFF711FC01E0FFF71DFC3E
:105540007B685B68002B12D0FEF70EFD786208E0E6
:10555000FEF70AFD02467B6AD31A642B01D90323A6
:105560005AE2FFF719FC0346002BF1D011E0FEF7D9
:10557000FBFC786208E0FEF7F7FC02467B6AD31A70
:10558000642B01D9032347E2FFF706FC0346002BF7
:10559000F1D17B681B6803F00203002B4CD0FFF7AE
:1055A000A8FDB861FFF7A1FE7861BB69042B05D0A7
:1055B000BB690C2B0ED17B69022B0BD17B68DB689E
:1055C000002B01D1012327E27B681B691846FFF7F6
:1055D00025FC31E07B68DB68002B19D0FFF7EEFB80
:1055E000FEF7C2FC786208E0FEF7BEFC02467B6A6A
:1055F000D31A022B01D903230EE2FFF7FDFB03466A
:10560000002BF1D07B681B691846FFF707FC13E0FD
:10561000FFF7E3FBFEF7A8FC786208E0FEF7A4FCC6
:1056200002467B6AD31A022B01D90323F4E1FFF768
:10563000E3FB0346002BF1D17B681B6803F00803F2
:10564000002B06D17B681B6803F01003002B00F0D1
:10565000A3807B685B69002B76D07B681B6803F0B6
:105660001003002B46D0FFF766FC0346002B13D136
:10567000FFF73FFCFEF778FC786208E0FEF774FC69
:1056800002467B6AD31A022B01D90323C4E1FFF738
:1056900052FC0346002BF1D0FFF75FFCFEF764FCE1
:1056A000786208E0FEF760FC02467B6AD31A032B9F
:1056B00001D90323B0E1FFF772FC0346002BF1D0C0
:1056C0007B689B691846FFF77CFCFFF723FCFEF71D
:1056D0004BFC786208E0FEF747FC02467B6AD31A6F
:1056E000022B01D9032397E1FFF725FC0346002B8A
:1056F000F1D151E0FFF7FDFBFEF736FC78620CE0DC
:10570000380000203C000020FEF72EFC02467B6A99
:10571000D31A022B01D903237EE1FFF70CFC0346C9
:10572000002BF1D0FFF72AFC08E0FEF71DFC024633
:105730007B6AD31A032B01D903236DE1FFF72FFCFA
:105740000346002BF1D127E0FFF718FCFEF70CFC15
:10575000786208E0FEF708FC02467B6AD31A032B46
:1057600001D9032358E1FFF71AFC0346002BF1D1BE
:10577000FFF7D0FBFEF7F8FB786208E0FEF7F4FBDA
:1057800002467B6AD31A022B01D9032344E1FFF7B7
:10579000D2FB0346002BF1D17B681B6803F00403A6
:1057A000002B5BD09E4B1B6803F48073002B14D13D
:1057B000FFF79CFAFEF7D8FB786208E0FEF7D4FB0F
:1057C00002467B6AD31A022B01D9032324E1944BAE
:1057D0001B6803F48073002BF0D07B689B68012B5F
:1057E00002D1FFF730FB0CE07B689B68052B04D1EE
:1057F000FFF74BFBFFF727FB03E0FFF735FBFFF756
:1058000055FB7B689B68002B14D0FEF7ADFB7862DC
:105810000AE0FEF7A9FB02467B6AD31A41F28832FE
:10582000934201D90323F7E0FFF751FB0346002B16
:10583000EFD013E0FEF798FB78620AE0FEF794FBE6
:1058400002467B6AD31A41F28832934201D903237C
:10585000E2E0FFF73CFB0346002BEFD17B689B6A3D
:10586000002B00F0D880FFF744FC38614FF0B043C4
:10587000DB68FB607B689B6A022B40F0A680FB68BC
:1058800003F003027B68DB6A9A4223D1FB6803F0D2
:1058900070027B681B6B9A421CD1FB681B0A03F0E9
:1058A0007F027B685B6B9A4214D1FB6803F4781229
:1058B0007B689B6B9A420DD1FB6803F060627B684A
:1058C000DB6B9A4206D1FB6803F060427B681B6C7D
:1058D0009A4254D03B690C2B4FD0FFF7C0FCFEF727
:1058E00043FB786208E0FEF73FFB02467B6AD31A6F
:1058F000022B01D903238FE04FF0B0431B6803F064
:105900000073002BEFD14FF0B043DA68454B1340E2
:105910007A68D16A7A68126B11437A68526B120204
:1059200011437A68926B11437A68D26B11437A689B
:10593000126C0A434FF0B0411343CB60FFF780FC79
:105940004FF0B043DB684FF0B04243F08053D36078
:10595000FEF70AFB786208E0FEF706FB02467B6A68
:10596000D31A022B01D9032356E04FF0B0431B6832
:1059700003F00073002BEFD04DE001234CE04FF01B
:10598000B0431B6803F00073002B44D1FFF758FCB1
:105990004FF0B043DB684FF0B04243F08053D36028
:1059A000FEF7E2FA786208E0FEF7DEFA02467B6A6A
:1059B000D31A022B01D903232EE04FF0B0431B680A
:1059C00003F00073002BEFD025E03B690C2B20D0B7
:1059D000FFF745FCFEF7C8FA786208E0FEF7C4FA64
:1059E00002467B6AD31A022B01D9032314E04FF03D
:1059F000B0431B6803F00073002BEFD14FF0B043AE
:105A0000DB684FF0B04223F0805323F00303D360F0
:105A100001E0012300E0002318463437BD4690BD65
:105A2000000400588C80C11180B584B000AF78604C
:105A300039607B68002B01D101232DE1984B1B6855
:105A400003F007033A689A421BD9954B1B6823F071
:105A5000070293493B6813430B60FEF785FAF86031
:105A600008E0FEF781FA0246FB68D31A022B01D93F
:105A7000032311E18A4B1B6803F007033A689A423B
:105A8000EFD17B681B6803F00203002B16D07B6804
:105A90009B681846FFF739FBFEF766FAF86008E0E6
:105AA000FEF762FA0246FB68D31A022B01D90323E0
:105AB000F2E0FFF726FC0346002BF1D07B681B6861
:105AC00003F02003002B16D07B685B691846FFF7B4
:105AD00030FBFEF749FAF86008E0FEF745FA0246A7
