:020000040800F2
:100000000030002045440008492D00084F2D00080D
:10001000552D00085B2D0008612D00080000000030
:10002000000000000000000000000000672D000834
:10003000752D000800000000832D0008912D000898
:100040009944000899440008994400089D2D00082F
:100050009944000899440008F52D000899440008C7
:100060009944000899440008032E000899440008A8
:100070009944000899440008A92D000899440008F3
:1000800099440008994400089944000800000000C1
:10009000000000009944000899440008112E00084F
:1000A00099440008994400089944000899440008BC
:1000B00099440008994400089944000899440008AC
:1000C000000000000000000099440008000000004B
:1000D000BD2D000899440008000000009944000864
:1000E0009944000899440008000000009944000861
:1000F000D12D0008DD2D0008E92D000899440008E5
:10010000994400080000000000000000000000000A
:100110009944000899440008994400080000000030
:1001200000000000000000000000000000000000CF
:0C013000000000000000000099440008DE
:1001400010B5054C237833B9044B13B10448AFF311
:1001500000800123237010BD700200200000000009
:10016000F0F6000808B5034B1BB103490348AFF391
:10017000008008BD0000000074020020F0F60008B6
:1001800010F8012B11F8013B012A28BF9A42F7D041
:10019000D01A7047034613F8012B002AFBD1181A16
:1001A000013870470000000000000000000000005F
:1001B00001F0FF01102A2BDB10F0070F08D010F818
:1001C000013B013A8B422DD010F0070F42B3F6D11C
:1001D000F0B441EA012141EA014122F007047FF035
:1001E00000070023F0E80256083C85EA010586EA8C
:1001F000010685FA47F5A3FA87F586FA47F6A5FAC8
:1002000087F68EB9EED1F0BC01F0FF0102F00702D3
:1002100032B110F8013B013A83EA010313B1F8D17E
:100220000020704701387047002D06BF354603385F
:10023000073815F0010F07D1013015F4807F02BF98
:10024000013015F4C03F0130F0BC0138704700BFE9
:1002500081F0004102E000BF83F0004330B54FEA77
:1002600041044FEA430594EA050F08BF90EA020FE4
:100270001FBF54EA000C55EA020C7FEA645C7FEA77
:10028000655C00F0E2804FEA5454D4EB5555B8BF9A
:100290006D420CDD2C4480EA020281EA030382EA0B
:1002A000000083EA010180EA020281EA0303362D9D
:1002B00088BF30BD11F0004F4FEA01314FF4801C70
:1002C0004CEA113102D0404261EB410113F0004F82
:1002D0004FEA03334CEA133302D0524263EB430339
:1002E00094EA050F00F0A780A4F10104D5F1200ED7
:1002F0000DDB02FA0EFC22FA05F2801841F1000132
:1003000003FA0EF2801843FA05F359410EE0A5F105
:1003100020050EF1200E012A03FA0EFC28BF4CF036
:10032000020C43FA05F3C01851EBE37101F00045EC
:1003300007D54FF0000EDCF1000C7EEB00006EEBF9
:100340000101B1F5801F1BD3B1F5001F0CD3490883
:100350005FEA30004FEA3C0C04F101044FEA4452DA
:1003600012F5800F80F09A80BCF1004F08BF5FEA61
:10037000500C50F1000041EB045141EA050130BD41
:100380005FEA4C0C404141EB0101013C28BFB1F553
:10039000801FE9D291F0000F04BF01460020B1FA9E
:1003A00081F308BF2033A3F10B03B3F120020CDA71
:1003B0000C3208DD02F1140CC2F10C0201FA0CF04F
:1003C00021FA02F10CE002F11402D8BFC2F1200CB4
:1003D00001FA02F120FA0CFCDCBF41EA0C0190406A
:1003E000E41AA2BF01EB0451294330BD6FEA0404B3
:1003F0001F3C1CDA0C340EDC04F11404C4F120029E
:1004000020FA04F001FA02F340EA030021FA04F3AF
:1004100045EA030130BDC4F10C04C4F1200220FA06
:1004200002F001FA04F340EA0300294630BD21FA44
:1004300004F0294630BD94F0000F83F4801306BF0A
:1004400081F480110134013D4EE77FEA645C18BFFE
:100450007FEA655C29D094EA050F08BF90EA020F95
:1004600005D054EA000C04BF1946104630BD91EA8D
:10047000030F1EBF0021002030BD5FEA545C05D190
:100480004000494128BF41F0004130BD14F58004CF
:100490003CBF01F5801130BD01F0004545F0FE4143
:1004A00041F470014FF0000030BD7FEA645C1ABF78
:1004B000194610467FEA655C1CBF0B46024650EAAF
:1004C000013406BF52EA033591EA030F41F40021DB
:1004D00030BD00BF90F0000F04BF0021704730B561
:1004E0004FF4806404F132044FF000054FF0000136
:1004F00050E700BF90F0000F04BF0021704730B5F7
:100500004FF4806404F1320410F0004548BF4042CB
:100510004FF000013EE700BF42004FEAE2014FEA20
:1005200031014FEA02701FBF12F07F4393F07F4FFB
:1005300081F06051704732F07F4208BF704793F0FE
:100540007F4F04BF41F40021704730B54FF4607411
:1005500001F0004521F000411CE700BF50EA010214
:1005600008BF704730B54FF000050AE050EA0102BD
:1005700008BF704730B511F0004502D5404261EB2D
:1005800041014FF4806404F132045FEA915C3FF46E
:10059000D8AE4FF003025FEADC0C18BF03325FEA0B
:1005A000DC0C18BF033202EBDC02C2F1200300FABC
:1005B00003FC20FA02F001FA03FE40EA0E0021FAE1
:1005C00002F11444BDE600BF70B54FF0FF0C4CF4CF
:1005D000E06C1CEA11541DBF1CEA135594EA0C0F81
:1005E00095EA0C0F00F0DEF82C4481EA030621EABC
:1005F0004C5123EA4C5350EA013518BF52EA0335F7
:1006000041F4801143F4801338D0A0FB02CE4FF0A8
:100610000005E1FB02E506F00042E0FB03E54FF0D8
:100620000006E1FB03569CF0000F18BF4EF0010ED0
:10063000A4F1FF04B6F5007F64F5407404D25FEACC
:100640004E0E6D4146EB060642EAC62141EA55517F
:100650004FEAC52040EA5E504FEACE2EB4F1FD0CC1
:1006600088BFBCF5E06F1ED8BEF1004F08BF5FEA3F
:10067000500E50F1000041EB045170BD06F00046F1
:1006800046EA010140EA020081EA0301B4EB5C049E
:10069000C2BFD4EB0C0541EA045170BD41F4801196
:1006A0004FF0000E013C00F3AB8014F1360FDEBFBB
:1006B000002001F0004170BDC4F10004203C35DA97
:1006C0000C341BDC04F11404C4F1200500FA05F31A
:1006D00020FA04F001FA05F240EA020001F00042BB
:1006E00021F0004110EBD37021FA04F642EB060131
:1006F0005EEA430E08BF20EAD37070BDC4F10C045B
:10070000C4F1200500FA04F320FA05F001FA04F21E
:1007100040EA020001F0004110EBD37041F100010A
:100720005EEA430E08BF20EAD37070BDC4F1200515
:1007300000FA05F24EEA020E20FA04F301FA05F27D
:1007400043EA020321FA04F001F0004121FA04F225
:1007500020EA020000EBD3705EEA430E08BF20EAF5
:10076000D37070BD94F0000F0FD101F0004640002F
:1007700041EB010111F4801F08BF013CF7D041EAB1
:10078000060195F0000F18BF704703F000465200B5
:1007900043EB030313F4801F08BF013DF7D043EA86
:1007A0000603704794EA0C0F0CEA135518BF95EA3C
:1007B0000C0F0CD050EA410618BF52EA4306D1D1C3
:1007C00081EA030101F000414FF0000070BD50EAE2
:1007D000410606BF1046194652EA430619D094EA6C
:1007E0000C0F02D150EA013613D195EA0C0F05D156
:1007F00052EA03361CBF104619460AD181EA0301AA
:1008000001F0004141F0FE4141F470014FF0000061
:1008100070BD41F0FE4141F4780170BD70B54FF0FC
:10082000FF0C4CF4E06C1CEA11541DBF1CEA13557C
:1008300094EA0C0F95EA0C0F00F0A7F8A4EB05045E
:1008400081EA030E52EA03354FEA013100F0888055
:100850004FEA03334FF0805545EA131343EA12631E
:100860004FEA022245EA111545EA10654FEA0026D3
:100870000EF000419D4208BF964244F1FD0404F58C
:10088000407402D25B084FEA3202B61A65EB0305E8
:100890005B084FEA32024FF480104FF4002CB6EBA5
:1008A000020E75EB030E22BFB61A754640EA0C0025
:1008B0005B084FEA3202B6EB020E75EB030E22BF65
:1008C000B61A754640EA5C005B084FEA3202B6EBA6
:1008D000020E75EB030E22BFB61A754640EA9C0065
:1008E0005B084FEA3202B6EB020E75EB030E22BF35
:1008F000B61A754640EADC0055EA060E18D04FEAF3
:10090000051545EA16754FEA06164FEAC30343EA92
:1009100052734FEAC2025FEA1C1CC0D111F4801F5F
:100920000BD141EA00014FF000004FF0004CB6E758
:1009300011F4801F04BF01430020B4F1FD0C88BFF7
:10094000BCF5E06F3FF6AFAEB5EB030C04BFB6EB02
:10095000020C5FEA500C50F1000041EB045170BDF5
:100960000EF0004E4EEA113114EB5C04C2BFD4EB22
:100970000C0541EA045170BD41F480114FF0000EA6
:10098000013C90E645EA060E8DE60CEA135594EA22
:100990000C0F08BF95EA0C0F3FF43BAF94EA0C0F25
:1009A0000AD150EA01347FF434AF95EA0C0F7FF49A
:1009B00025AF104619462CE795EA0C0F06D152EAEE
:1009C00003353FF4FDAE1046194622E750EA4106D2
:1009D00018BF52EA43067FF4C5AE50EA41047FF4E3
:1009E0000DAF52EA43057FF4EBAE12E74FF0FF3C48
:1009F00006E000BF4FF0010C02E000BF4FF0010C19
:100A00004DF804CD4FEA410C7FEA6C5C4FEA430C91
:100A100018BF7FEA6C5C1BD001B050EA410C0CBFE0
:100A200052EA430C91EA030F02BF90EA020F002042
:100A3000704710F1000F91EA030F58BF994208BFA9
:100A400090422CBFD8176FEAE37040F00100704766
:100A50004FEA410C7FEA6C5C02D150EA013C07D1BD
:100A60004FEA430C7FEA6C5CD6D152EA033CD3D008
:100A70005DF8040B704700BF8446104662468C4602
:100A80001946634600E000BF01B5FFF7B7FF002835
:100A900048BF10F1000F01BD4DF808EDFFF7F4FF5E
:100AA0000CBF012000205DF808FB00BF4DF808EDE9
:100AB000FFF7EAFF34BF012000205DF808FB00BF0C
:100AC0004DF808EDFFF7E0FF94BF012000205DF82E
:100AD00008FB00BF4DF808EDFFF7CEFF94BF0120E3
:100AE00000205DF808FB00BF4DF808EDFFF7C4FFDC
:100AF00034BF012000205DF808FB00BF4FEA410C25
:100B00007FEA6C5C02D150EA013C0AD14FEA430C07
:100B10007FEA6C5C02D152EA033C02D14FF0000044
:100B200070474FF0010070474FEA410212F5001282
:100B300015D211D56FF47873B3EB625212D94FEA24
:100B4000C12343F0004343EA505311F0004F23FA0E
:100B500002F018BF404270474FF00000704750EA63
:100B6000013005D111F0004008BF6FF00040704720
:100B70004FF00000704700BF53B94AB9002908BFC1
:100B800000281CBF4FF0FF314FF0FF3000F074B968
:100B9000ADF1080C6DE904CE00F006F8DDF804E0D4
:100BA000DDE9022304B070472DE9F047089D0446B3
:100BB0008E46002B4DD18A42944669D9B2FA82F210
:100BC00052B101FA02F3C2F1200120FA01F10CFA4C
:100BD00002FC41EA030E94404FEA1C48210CBEFB84
:100BE000F8F61FFA8CF708FB16E341EA034306FB0D
:100BF00007F199420AD91CEB030306F1FF3080F09C
:100C00001F81994240F21C81023E63445B1AA4B2E8
:100C1000B3FBF8F008FB103344EA034400FB07F78A
:100C2000A7420AD91CEB040400F1FF3380F00A81CB
:100C3000A74240F207816444023840EA0640E41BC0
:100C400000261DB1D4400023C5E900433146BDE86C
:100C5000F0878B4209D9002D00F0EF800026C5E90E
:100C6000000130463146BDE8F087B3FA83F6002E26
:100C70004AD18B4202D3824200F2F980841A61EB9E
:100C8000030301209E46002DE0D0C5E9004EDDE7BC
:100C900002B9FFDEB2FA82F2002A40F09280A1EBA4
:100CA0000C014FEA1C471FFA8CFE0126200CB1FBF9
:100CB000F7F307FB131140EA01410EFB03F08842F2
:100CC00008D91CEB010103F1FF3802D2884200F27F
:100CD000CB804346091AA4B2B1FBF7F007FB101111
:100CE00044EA01440EFB00FEA64508D91CEB0404AF
:100CF00000F1FF3102D2A64500F2BB800846A4EB0A
:100D00000E0440EA03409CE7C6F12007B34022FAF4
:100D100007FC4CEA030C20FA07F401FA06F31C4323
:100D2000F9404FEA1C4900FA06F3B1FBF9F8200C30
:100D30001FFA8CFE09FB181140EA014108FB0EF076
:100D4000884202FA06F20BD91CEB010108F1FF3AC6
:100D500080F08880884240F28580A8F102086144D2
:100D6000091AA4B2B1FBF9F009FB101144EA0141E0
:100D700000FB0EFE8E4508D91CEB010100F1FF348B
:100D80006CD28E456AD90238614440EA0840A0FB23
:100D90000294A1EB0E01A142C846A64656D353D0F9
:100DA0005DB1B3EB080261EB0E0101FA07F722FA1D
:100DB00006F3F1401F43C5E9007100263146BDE846
:100DC000F087C2F12003D8400CFA02FC21FA03F3A9
:100DD000914001434FEA1C471FFA8CFEB3FBF7F02A
:100DE00007FB10360B0C43EA064300FB0EF69E424F
:100DF00004FA02F408D91CEB030300F1FF382FD2E8
:100E00009E422DD9023863449B1B89B2B3FBF7F68F
:100E100007FB163341EA034106FB0EF38B4208D968
:100E20001CEB010106F1FF3816D28B4214D9023EA9
:100E30006144C91A46EA004638E72E46284605E7C7
:100E40000646E3E61846F8E64B45A9D2B9EB020898
:100E500064EB0C0E0138A3E74646EAE7204694E728
:100E60004046D1E7D0467BE7023B614432E730465B
:100E700009E76444023842E7704700BF80B483B09A
:100E800000AF7860064BD3F8902005497B68134388
:100E9000C1F8903000BF0C37BD465DF8047B704749
:100EA0000008005880B485B000AF78604FF0B043C0
:100EB000DA6C4FF0B0417B681343CB644FF0B04322
:100EC000DA6C7B681340FB60FB6800BF1437BD46DB
:100ED0005DF8047B704780B485B000AF78604FF058
:100EE000B043D3F84C214FF0B0417B681343C1F8B5
:100EF0004C314FF0B043D3F84C217B681340FB607A
:100F0000FB6800BF1437BD465DF8047B704780B5B1
:100F100000AF03F0E7FC03F0EBFC4FF48030FFF789
:100F2000ADFF09F057FD00F021F800F0C3F800BF55
:100F300080BD0000B0B588B000AF0B4B3C1D1D4616
:100F40000FCD0FC495E8070003C422800234130CB0
:100F500023700BF08FFA3B1D18460AF0E0F800BF33
:100F60002037BD46B0BD00BF08F7000880B588B087
:100F700000AF3B1D00221A605A609A60DA601A6165
:100F80000023BB8300237B8300233B830023FB7769
:100F900038E0FB7F444ADB0013449B79002B2BD0C5
:100FA000FB7F414A52F83330404A93421BD03F4ABC
:100FB000934223D8B3F1904F03D03D4A934209D0D6
:100FC0001CE0FB7F384ADB0013449A88BB8B134339
:100FD000BB8314E0FB7F344ADB0013449A887B8B8D
:100FE00013437B830BE0FB7F2F4ADB0013449A887B
:100FF0003B8B13433B8302E000BF00E000BFFB7F5D
:101000000133FB77FB7F252BC3D90023FB60012332
:10101000BB6003233B61BB8B002B14D0BB8B7B607D
:101020000120FFF73FFF0120FFF755FF3B1D194649
:101030004FF0904004F050F9BB8B002219464FF05E
:10104000904004F0B1FA7B8B002B12D07B8B7B603D
:101050000220FFF727FF0220FFF73DFF3B1D194647
:10106000134804F039F97B8B00221946104804F02C
:101070009BFA3B8B002B13D03B8B7B600420FFF74C
:1010800011FF0420FFF727FF3B1D1946074804F016
:1010900023F93B8B00221946044804F085FA00BF6F
:1010A00000BF2037BD4680BDCC0B010800080048BA
:1010B0000004004880B400AF00BFBD465DF8047B6B
:1010C000704780B500AF01F02BFC00BF80BD80B53C
:1010D00084B000AFF8600B467A607B817A897B68C8
:1010E000F968002001F036FA00BF1037BD4680BD18
:1010F00080B483B000AF7860074BD3F8803023F022
:10110000070205497B681343C1F8803000BF0C37E4
:10111000BD465DF8047B70470004005880B483B07E
:1011200000AF7860064BD3F8902005497B681343E5
:10113000C1F8903000BF0C37BD465DF8047B7047A6
:101140000008005880B483B000AF78604FF0B0431F
:101150000A4AC3F89C204FF0B043D3F89C3023F4E4
:101160007C527B681B024FF0B0411343C1F89C30A6
:1011700000BF0C37BD465DF8047B7047FECAFECA4F
:1011800080B483B000AF78604FF0B0439B6823F425
:1011900000424FF0B0417B6813438B6000BF0C37B7
:1011A000BD465DF8047B704780B400AF044B1B68FC
:1011B000C3F30B031846BD465DF8047B704700BFC0
:1011C000002004E080B400AF044B1B681B0C9BB2F2
:1011D0001846BD465DF8047B704700BF002004E060
:1011E00080B483B000AF78607B68FF225A6200BF92
:1011F0000C37BD465DF8047B704780B483B000AF08
:1012000078607B68CA225A627B6853225A6200BFA8
:101210000C37BD465DF8047B704780B483B000AFE7
:10122000786039607B689B6823F007023B681A434B
:101230007B689A6000BF0C37BD465DF8047B704741
:1012400080B500AF044B4FF400421A6100F030F853
:1012500000F035F800BF80BD0040005880B500AFF9
:1012600000F041F800F05AF80949002000F0E2FED1
:10127000FFF74DFE012101200BF09AF900F0B2F9C1
:1012800000F0C0F900F02AFA00F058F800BF80BD65
:101290009804002080B400AF00BFBD465DF8047B19
:1012A000704780B500AF5020FFF738FF00BF80BD0A
:1012B00080B400AF00BFBD465DF8047B704780B5C9
:1012C00082B000AF002009F0BFFD78607B68002B82
:1012D00005D07B689B791846FFF734FF00BF00BF3D
:1012E0000837BD4680BD80B500AFFFF7D3FFFFF7DD
:1012F000D8FF00F003F800BF80BD000080B500AF4C
:101300000548FFF77AFF00210348FFF786FF0248F0
:10131000FFF766FF00BF80BD0028004080B500AF2A
:101320004FF40040FFF72CFF0BF030F90420FFF7DB
:10133000DFFE04F033FA00BF80BD000080B588B046
:1013400000AF0AF0E1FE114A002140200BF05CFAE8
:101350000F4B3B600F4B7B603B4619460E4809F034
:10136000B9FF0E4BBB600E4BFB600E4B3B6140F276
:101370003C537B6107F1080318460BF007F80AF0AD
:10138000BDFE00BF2037BD4680BD00BF0DB30008C5
:1013900034070320A9130008C11300084C090320D7
:1013A00040080320F801032080B483B000AF034657
:1013B000FB7100BF0C37BD465DF8047B7047000031
:1013C00080B588B000AF78607B685B680B33FB61E9
:1013D000FB691B889BB2A3F51243072B60D801A2BF
:1013E00052F823F0051400084714000855140008AB
:1013F000A114000871140008811400088914000861
:101400009914000807F10C03184609F0B5FE3B7B60
:1014100019467B7B1A46BB7B24480BF0E1FF3B7CE3
:10142000194623480BF0DCFFBB7D1946FB7D1A46AD
:101430003B7E20480BF0D4FF1F480BF0D1FF7868AB
:1014400000F070F82DE01D480BF0CAFF786800F03E
:1014500043F826E01A480CF05FF8FB69023319687C
:10146000FB6902335B681A4616480BF0B9FF18E0B7
:10147000FB6902331B68194613480BF0B1FF10E0FB
:1014800012480BF0ADFF0CE0FB6902331B681946F4
:101490000F480BF0A5FF04E00E480BF0A1FF00E0A1
:1014A00000BF00BF2037BD4680BD00BF24F7000845
:1014B00048F7000864F700087CF700089CF700086C
:1014C000C0F7000810F8000838F8000874F80008A1
:1014D00098F80008D4F8000880B584B000AF7860B0
:1014E0007B685B680B33FB60FB680233BB60BB68E7
:1014F0001B78194608480BF073FFBB681B78002B5C
:1015000003D106480CF008F803E005480CF004F895
:1015100000BF1037BD4680BDF8F8000828F9000864
:1015200064F9000880B58AB000AF786007F108035D
:1015300000221A605A609A60DA6000237B620023FE
:101540003B627B685B680B33FB61FB690233BB6109
:10155000BB691B78002B28D11D480BF0DDFFFFF77E
:10156000E9FC0F233B727F23BB72FFF72BFE7862EF
:10157000796A18480BF034FF7B6A9BB2BB82FFF795
:1015800013FE3862396A14480BF02AFF3B6A9BB29B
:10159000FB8207F10803184609F0D8FD01F00CFDA5
:1015A000002101200BF004F80EE0BB691B78012B31
:1015B00006D10A480BF014FF7B6800221A7003E082
:1015C00007480BF00DFF00BF2837BD4680BD00BFA8
:1015D0009CF90008B8F90008DCF90008FCF90008DB
:1015E00030FA000880B500AF002002F06FFF012044
:1015F00002F06CFF022002F069FF012002F0A0FF60
:1016000000BF80BD80B500AF0121002002F0CCFFFB
:101610000121012002F0C8FF0121022002F0C4FFD5
:1016200000BF80BD80B500AF4FF0FF300AF0F0FF83
:1016300000BF80BD80B400AF00BFBD465DF8047B35
:10164000704780B582B000AF786039604FF0FF30EE
:101650000AF0DEFF00BF0837BD4680BD80B582B00E
:1016600000AF7860002140200BF0F0F800BF083791
:10167000BD4680BD80B582B000AF786002200BF01F
:1016800051F900BF0837BD4680BD80B582B000AFBC
:10169000786002200BF066F900BF0837BD4680BDB8
:1016A00080B582B000AF0346FB80FB88402B0CD096
:1016B000402B0DDC012B02D0102B03D008E001F0F1
:1016C0008BFF06E001F08EFF03E001F093FF00E0E6
:1016D00000BF00BF0837BD4680BD000080B500AF29
:1016E000034B01220349002000F010FF00BF80BD22
:1016F000F91600089402002080B500AF154B1B8836
:10170000FF2B1ED8144B1B780D2B0FD113491448F7
:101710000BF066FE00F028F80E4B00221A804FF402
:10172000807200210D480BF0E9F90AE0094B1B8893
:101730005A1C91B2074A11801A46074B1978074B79
:101740009954084B01220449002000F0DFFE00BF3D
:1017500080BD00BF9C030020940200209C0200205A
:1017600064FA0008F916000880B500AF1C491D484E
:10177000FEF706FD0346002B0AD11B480BF0CCFEFA
:101780001A4B4FF0B0521A60184803F083FD25E061
:1017900017491448FEF7F4FC0346002B09D11548FD
:1017A0000BF0BAFE114B144A1A60104803F072FD98
:1017B00014E012490B48FEF7E3FC0346002B09D165
:1017C0000F480BF0A9FE094B0E4A1A60074803F0B8
:1017D00061FD03E003490C480BF002FE00BF80BD31
:1017E00074FA00089C02002078FA00088C0200209D
:1017F00080FA000884FA0008040000168CFA000839
:1018000090FA00080600001698FA000880B483B029
:1018100000AF7860064BD3F8802005497B681343FE
:10182000C1F8803000BF0C37BD465DF8047B7047BF
:101830000008005880B483B000AF7860054B1A6888
:1018400004497B6813430B6000BF0C37BD465DF84D
:10185000047B70470008005880B483B000AF0D4B84
:101860009B6A9BB27B600B4B9B6A9BB23B6005E023
:101870003B687B60074B9B6A9BB23B607A683B6826
:101880009A42F5D13B6818460C37BD465DF8047B9B
:10189000704700BF0028004080B485B000AF034609
:1018A0000A46FB711346BB71BA791D4913465B00AA
:1018B0001344DB000B4415331B78FB73FB7B062BB7
:1018C00009D0FA7B164913465B001344DB000B4436
:1018D0001433FA791A70FA79114913465B001344EC
:1018E000DB000B441533FA7B1A70FA790C49134666
:1018F0005B001344DB000B441433BA791A70BA79D5
:10190000074913465B001344DB000B441533FA7997
:101910001A7000BF1437BD465DF8047B704700BFE6
:10192000A003002080B485B000AF03460A46FB71D7
:101930001346BB71294B1B78DBB2BA799A4232D07D
:10194000BA79274913465B001344DB000B44143378
:101950001B78FB73FA7B224913465B001344DB00C0
:101960000B441533FA791A70FA791D4913465B0056
:101970001344DB000B441533BA791A70FA7918490D
:1019800013465B001344DB000B441433FA7B1A70DC
:10199000BA79134913465B001344DB000B4414333C
:1019A000FA791A7014E0FA790D4913465B00134472
:1019B000DB000B441533BA791A70BA79084913461B
:1019C0005B001344DB000B441433FA791A7000BF38
:1019D0001437BD465DF8047B704700BF300400201B
:1019E000A003002080B584B000AF0346FB714E4BCE
:1019F0001B78DBB2062B18D14B4B1B78DAB24B4B62
:101A00001A70494AFB791370FA79494913465B0009
:101A10001344DB000B44153306221A70454B4FF07C
:101A2000FF321A600023FB8178E000F009F90346D9
:101A3000FB81FA793E4913465B001344DB000B44FB
:101A400008331968FB89FA791944394813465B0051
:101A50001344DB00034408331960FA793449134610
:101A60005B001344DB000B4408331B68BB602E4B48
:101A70001B78DBB219462E4A0B465B000B44DB0099
:101A8000134408331B68BA689A4237D3264B1B7835
:101A90007B737A7B264913465B001344DB000B44BF
:101AA00015331B783B7313E07A7B214913465B00A7
:101AB0001344DB000B4415331B787B737A7B1C4982
:101AC00013465B001344DB000B4415331B783B7358
:101AD0003B7B062B0BD03A7B154913465B00134426
:101AE000DB000B4408331B68BA689A42DCD27A7B6D
:101AF000FB7911461846FFF7CFFE0FE00A4B1B7823
:101B0000DAB2FB7911461846FFF70CFF064B1B783B
:101B1000DAB2064B1A70044AFB791370FB89184637
:101B20001037BD4680BD00BF3004002031040020C6
:101B3000A00300203404002080B485B000AF034629
:101B40000A46FB711346BB71394B1B78DBB2FA793D
:101B50009A4211D1364B1B78DAB2364B1A70FA79A9
:101B6000354913465B001344DB000B4415331B78E7
:101B7000DAB22F4B1A703EE0FA792F4913465B0018
:101B80001344DB000B4414331B78FB73FA792A49A6
:101B900013465B001344DB000B4415331B78BB7307
:101BA000F979FA7B24480B465B000B44DB000344C5
:101BB00015331B78D8B2204913465B001344DB0071
:101BC0000B44153302461A70BB7B062B13D0F979F0
:101BD000BA7B19480B465B000B44DB00034414330B
:101BE0001B78D8B2144913465B001344DB000B4446
:101BF000143302461A70FA790F4913465B001344F6
:101C0000DB000B440C3301221A70094B1B78DBB24A
:101C1000062B07D1BB79002B04D1084B4FF0FF32C4
:101C20001A6000BF00BF1437BD465DF8047B7047E3
:101C30003004002031040020A003002034040020E0
:101C400080B582B000AF1A4B1B68B3F1FF3F26D0BE
:101C5000FFF702FE7860164B1B687A689A4205D837
:101C6000134B1A687B68D31A7B600AE0114B1B8800
:101C70001A467B68D31A3B600D4B1B683A681344C5
:101C80007B600D4B1B781A467B6802FB03F37B607D
:101C90000A4B1B781A467B68D3407B6001E0002327
:101CA0007B607B689BB218460837BD4680BD00BF8D
:101CB000340400203C0400203A04002039040020B1
:101CC00080B582B000AF0346FB80FB88002B08D1B3
:101CD000FFF7C2FD0346214A1360032002F08BFF89
:101CE00039E0FB88012B03D81D4B1B78012B02D058
:101CF000FB88013BFB8000BF1A4B1B68DB6803F0CD
:101D00000403002BF8D0174B1B68DB68DAB2154BC5
:101D10001B6862F49062DA60134B4FF40022DA60C1
:101D2000032002F076FF114B5B691B0C1B04FA8841
:101D30000E4913434B61FFF78FFD0346074A1360BB
:101D4000084B1B689A68074B1B6842F480629A60D4
:101D5000AFF3008000BF0837BD4680BD34040020CB
:101D60003904002098040020000800580028004092
:101D700080B584B000AF454B9B6803F48063B3F536
:101D8000806F07D100BF424B1B68DB6803F0040380
:101D9000002BF8D13E4B1B689A683D4B1B6822F420
:101DA00080629A603B4B1B78FB73FA7B3A4913467F
:101DB0005B001344DB000B4408331B68BB60FFF778
:101DC0003FFF0346FB80FB88BA689A4205D2002396
:101DD000BB81324B01221A704DE0FB88304A1288D9
:101DE00092B213441A46BB68934206D92C4B1B8807
:101DF000BB812A4B00221A703DE0BB689AB2FB8877
:101E0000D31ABB81254B01221A7034E0FA7B224998
:101E100013465B001344DB000B4408331A68FB884D
:101E20009A420AD2FA7B1C4913465B001344DB003A
:101E30000B44083300221A6013E0FA7B164913465C
:101E40005B001344DB000B4408331968FB88FA7B02
:101E5000C91A114813465B001344DB0003440833DE
:101E60001960FA7B0C4913465B001344DB000B44FA
:101E700015331B78FB73FB7B062BC7D1BB89184638
:101E8000FFF71EFF00BF1037BD4680BD0028004091
:101E90009804002030040020A00300203804002013
:101EA0003E04002080B58AB000AFEFF310837B6161
:101EB0007B697B6272B600BF594B1B68CA225A62AB
:101EC000574B1B6853225A62554B1B689A68544BF8
:101ED0001B6822F480629A60524B1B7887F823308B
:101EE00097F82320504913465B001344DB000B4452
:101EF0000C331B78DBB2022B6ED197F823204A49B2
:101F000013465B001344DB000B441B68FB6197F82E
:101F10002320454913465B001344DB000B44103378
:101F20001B68BB61414B1B78DBB2002B4CD097F890
:101F300023203D4913465B001344DB000B440D3363
:101F40001B78DBB2012B24D197F8233001211846EE
:101F5000FFF7F2FD7B6A3B613B6983F3108800BFAA
:101F600097F82320304913465B001344DB000B44F1
:101F700004331A6897F823301146184600F032FAF5
:101F8000274B1B68CA225A62254B1B6853225A6290
:101F900012E07B6AFB60FB6883F3108800BF97F850
:101FA0002330184600F09AF91D4B1B68CA225A626A
:101FB0001B4B1B6853225A6297F82330FA69194663
:101FC000B86900F095FA22E0FFF7D2FE7B6ABB60A9
:101FD000BB6883F310881AE000BF114B1B68DB68F5
:101FE00003F00403002BF8D00D4B1B68DB68DAB25A
:101FF0000B4B1B6862F49062DA600D4B4FF40022C9
:10200000DA607B6A7B607B6883F3108800BF044BD7
:102010001B68FF225A6200BF2837BD4680BD00BF43
:102020009804002030040020A00300203804002081
:102030000008005880B588B000AF03463960FB71D6
:102040005E4B1B68CA225A625C4B1B6853225A6261
:102050005B4B9B685A4A43F020039360584B9B6844
:10206000DBB203F00703DBB2C3F10403DAB2554B72
:102070001A70534B1B6903F4FE034FF4FE023A61DE
:102080003A6992FAA2F2FA60FA687A617A69002AE9
:1020900001D1202203E07A69B2FA82F2D2B2D340AF
:1020A000DBB20133DAB2484B1A70454B1B699BB265
:1020B000C3F30E039BB201339AB2444B1A80434BD5
:1020C0001B88013B404A127802FB03F3A3F5A0737F
:1020D0003C4A1278D340BB61BB694FF6FE72934213
:1020E00004D93B4B4FF6FF721A8003E0BB699AB2EA
:1020F000374B1A804FF40020FFF79CFB4FF4002071
:10210000FFF784FBFB79002B3DD1324B01221A7083
:10211000314B4FF0FF321A600023FB770CE0FA7F5F
:102120002E4913465B001344DB000B440C330022A2
:102130001A70FB7F0133FB77FB7F052BEFD9284B10
:1021400006221A701D4B1B689A681C4B1B6822F4F0
:1021500080629A60194B1B68DB68DAB2174B1B6808
:1021600062F49062DA601F4B4FF40022DA600320C1
:1021700002F04FFD114B1B689A68104B1B6842F42C
:1021800080429A6009E00D4B1B68DB6803F48063B2
:10219000002B02D0032002F02EFD084B1B68FF220B
:1021A0005A6200220321032002F0E3FC032002F024
:1021B000FAFC00BF2037BD4680BD00BF9804002058
:1021C00000280040390400203A0400203C0400208C
:1021D0003E0400203804002034040020A003002026
:1021E000300400200008005880B48BB000AFF860C5
:1021F000B9603B601346FB71002387F82630EFF38C
:102200001083FB61FB693B6272B600BF04E097F884
:102210002630013387F8263097F82630052B0CD866
:1022200097F826202C4913465B001344DB000B442F
:102230000C331B78DBB2002BE9D197F82630062B44
:1022400038D097F82620244913465B001344DB005E
:102250000B440C3301221A703B6ABB61BB6983F3E8
:10226000108800BF97F826201B4913465B001344D3
:10227000DB000B441033FA681A6097F826201649E1
:1022800013465B001344DB000B440D33FA791A70DC
:1022900097F82620104913465B001344DB000B44DB
:1022A0003A681A60BB6897F826201A70002387F8EE
:1022B000273008E03B6A7B617B6983F3108800BFAD
:1022C000012387F8273097F8273018462C37BD466A
:1022D0005DF8047B704700BFA003002080B586B086
:1022E00000AF0346FB71EFF31083FB60FB687B617B
:1022F00072B600BF032002F064FC344B1B68CA2294
:102300005A62324B1B6853225A62FA79304913469B
:102310005B001344DB000B440C331B78DBB2022B55
:1023200042D1FB7900211846FFF706FC294B1B78A8
:10233000FB74FB7C062B2FD1274B9B6803F4806337
:10234000B3F5806F07D100BF204B1B68DB6803F03B
:102350000403002BF8D11D4B1B689A681B4B1B68AC
:1023600022F480629A6000BF184B1B68DB6803F0A0
:102370000403002BF8D0154B1B68DB68DAB2134B53
:102380001B6862F49062DA60144B4FF40022DA604A
:10239000032002F03EFC07E0114B1B78DBB2FA7C15
:1023A0009A4201D0FFF7E4FC084B1B68FF225A62F7
:1023B000032002F0F8FB7B69BB60BB6883F31088E5
:1023C00000BF00BF1837BD4680BD00BF9804002085
:1023D000A00300203004002000280040000800581E
:1023E0003104002080B586B000AF03463960FB7130
:1023F000FA793B4913465B001344DB000B440C3372
:102400001B78DBB2022B03D1FB791846FFF766FF7E
:10241000EFF31083FB60FB687B6172B600BF0320A3
:1024200002F0CFFB2F4B1B68CA225A622D4B1B6850
:1024300053225A62FA792A4913465B001344DB009F
:102440000B440C3302221A70FA79254913465B00BB
:102450001344DB000B4408333A681A60FA792049C8
:1024600013465B001344DB000B4404333A681A60E4
:10247000FB791846FFF7B6FA03467B821A4B1B78A6
:102480007B741A4B1B78DBB27A7C9A4202D0FFF73E
:102490006FFC13E0FA79124913465B001344DB002A
:1024A0000B44083319687B8AFA79C91A0C48134619
:1024B0005B001344DB00034408331960094B1B68BD
:1024C000FF225A62032002F06EFB7B69BB60BB688F
:1024D00083F3108800BF00BF1837BD4680BD00BF22
:1024E000A0030020980400203004002031040020C4
:1024F00080B584B000AFF8600B467A60FB727B68F1
:10250000984700BF1037BD4680BD000080B584B03D
:1025100000AFB9607B600346FB731346BB81FB7B56
:10252000002B0CD1084A7B681360084B084A1A60DC
:10253000BB891A46B968054804F0FEFE00E000BFFA
:1025400000BF1037BD4680BD40040020BC04002001
:102550000038014080B586B000AFB9607B600346AB
:10256000FB731346BB810023FB750023BB75FB7B0C
:10257000002B0ED1174A7B681360174B174A1A605D
:10258000BB891A46B968144804F022FF0346FB755C
:1025900000E000BFFB7D032B16D801A252F823F008
:1025A000B1250008B7250008BD250008C32500088F
:1025B0000023BB7509E00123BB7506E00223BB7550
:1025C00003E00323BB7500E000BFBB7D184618374E
:1025D000BD4680BD44040020BC04002000380140FA
:1025E00080B582B000AF78607B681B681A46094BE3
:1025F0009A4207D1084B1B68002B05D0064B1B687D
:10260000984701E000BF00E000BF00BF0837BD46AB
:1026100080BD00BF003801404004002080B582B07A
:1026200000AF78607B681B681A46094B9A4207D155
:10263000084B1B68002B05D0064B1B68984701E030
:1026400000BF00E000BF00BF0837BD4680BD00BF2F
:10265000003801404404002080B483B000AF7860AB
:102660004FF0B043D3F8903023F018024FF0B04150
:102670007B681343C1F8903000BF0C37BD465DF84E
:10268000047B704780B485B000AF78604FF0B043F2
:102690009A6C4FF0B0417B6813438B644FF0B043AA
:1026A0009A6C7B681340FB60FB6800BF1437BD4623
:1026B0005DF8047B704780B485B000AF78604FF060
:1026C000B043DA6C4FF0B0417B681343CB644FF0FA
:1026D000B043DA6C7B681340FB60FB6800BF1437C3
:1026E000BD465DF8047B704780B483B000AF78606E
:1026F0007B68FF225A6200BF0C37BD465DF8047B41
:10270000704780B483B000AF78607B68CA225A6299
:102710007B6853225A6200BF0C37BD465DF8047BCC
:10272000704780B483B000AF786039607B689B6885
:1027300023F007023B681A437B689A6000BF0C379E
:10274000BD465DF8047B704780B500AF02F044F8E9
:10275000FEF776FD00F013F800F05DF800F07CF86D
:1027600000F03EF900F02AF900F0A0F800F0D8F8E7
:1027700000F086F8FEF772FDFEF754FFFCE780B527
:1027800098B000AF07F11C034422002118460AF05C
:10279000B5F93B4600221A605A609A60DA601A6105
:1027A0005A619A6102F0DAFF0020FFF755FF072314
:1027B000FB614FF480333B6201237B624FF48073F3
:1027C000BB624023FB6200237B6407F11C031846B5
:1027D00003F02CFB0346002B01D000F00BF96F2314
:1027E0003B6002237B600023BB600023FB6000236F
:1027F0003B6100237B610023BB613B4601211846FE
:1028000003F04AFE0346002B01D000F0F3F800BFAE
:102810006037BD4680BD80B58CB000AF3B463022EE
:10282000002118460AF06AF94FF440533B604FF418
:1028300080437B620223BB621023FB623B46184647
:1028400004F0ECF90346002B01D000F0D3F800BFF0
:102850003037BD4680BD000080B500AF064B074A4B
:102860001A60054802F0F4FE0346002B01D000F088
:10287000C1F800BF80BD00BF48040020000C005814
:1028800080B500AF074B084A1A60064B00225A6019
:10289000044804F0B9FA0346002B01D000F0AAF86E
:1028A00000BF80BD840400200010005880B500AF38
:1028B000194B1A4A1A60184B00225A60164B0F2205
:1028C0009A60154B47F6FF72DA60134B00221A61CB
:1028D000114B00229A61104B00225A610E4804F0FD
:1028E000C9FA0346002B01D000F084F80022002131
:1028F000094804F0BFFB0346002B01D000F07AF832
:102900000648FFF7FEFE00210448FFF70AFF0348D0
:10291000FFF7EAFE00BF80BD9804002000280040B9
:1029200080B500AF234B244A1A60224B4FF4E132AA
:102930005A60204B00229A601E4B0022DA601D4B29
:1029400000221A611B4B0C225A611A4B00229A6119
:10295000184B4FF40042DA61164B00221A62154BF5
:1029600000225A62134B00229A62124804F094FC2F
:102970000346002B01D000F03DF800210D4806F081
:10298000E0FC0346002B01D000F034F80021094898
:1029900006F015FD0346002B01D000F02BF805488A
:1029A00006F096FC0346002B01D000F023F800BF90
:1029B00080BD00BFBC0400200038014080B500AFDE
:1029C0000420FFF75FFE0120FFF75CFE00220F21CD
:1029D0000E2002F0CEF80E2002F0E5F800BF80BD18
:1029E00080B500AF0420FFF766FE0120FFF763FE0D
:1029F00000BF80BD80B400AF00BFBD465DF8047B62
:102A0000704780B483B000AF78604FF0B043D3F824
:102A1000903023F440724FF0B0417B681343C1F80B
:102A2000903000BF0C37BD465DF8047B704780B422
:102A300000AF4FF0B043D3F890304FF0B04243F4C2
:102A40000043C2F8903000BFBD465DF8047B70477C
:102A500080B485B000AF78604FF0B043DA6C4FF0CF
:102A6000B0417B681343CB644FF0B043DA6C7B68B2
:102A70001340FB60FB6800BF1437BD465DF8047B64
:102A8000704780B485B000AF78604FF0B0431A6DE6
:102A90004FF0B0417B6813430B654FF0B0431A6DA4
:102AA0007B681340FB60FB6800BF1437BD465DF8D0
:102AB000047B704780B485B000AF78604FF0B043BE
:102AC0009A6D4FF0B0417B6813438B654FF0B04374
:102AD0009A6D7B681340FB60FB6800BF1437BD46EE
:102AE0005DF8047B704780B485B000AF78604FF02C
:102AF000B0431A6E4FF0B0417B6813430B664FF042
:102B0000B0431A6E7B681340FB60FB6800BF14374C
:102B1000BD465DF8047B704780B500AF4FF40020E0
:102B2000FFF7AFFF002200212E2002F022F82E2016
:102B300002F039F800BF80BD80B582B000AF786088
:102B40007B681B680D4A934213D14FF48010FFF746
:102B500098FF002200212C2002F00BF82C2002F01C
:102B600022F8002200212D2002F003F82D2002F08F
:102B70001AF800BF0837BD4680BD00BF000C0058E2
:102B800080B58EB000AF786007F1080330220021D5
:102B9000184609F0B3FF7B681B680D4A934213D1B6
:102BA0004FF40073BB604FF000433B6207F1080332
:102BB000184604F033F80346002B01D0FFF71AFF44
:102BC0004FF48020FFF75DFF00BF3837BD4680BD62
:102BD0000010005880B58EB000AF786007F1080390
:102BE00030220021184609F089FF7B681B68184ACB
:102BF000934228D102F0B2FD02F0B0FD4FF4807094
:102C0000FFF7FFFE4FF40063BB604FF48073BB62BD
:102C100007F10803184604F001F80346002B01D021
:102C2000FFF7E8FEFFF703FF4FF48060FFF742FF76
:102C300000220021032001F09CFF032001F0B3FFDC
:102C4000786804F0D3FA00BF3837BD4680BD00BFB6
:102C50000028004080B594B000AF786007F13C03D5
:102C600000221A605A609A60DA601A6107F10C0358
:102C700030220021184609F041FF7B681B682F4A6B
:102C8000934257D10123FB6000233B6107F10C0302
:102C9000184603F0C3FF0346002B01D0FFF7AAFE3E
:102CA0004FF48040FFF71FFF0120FFF7D1FE4FF4E4
:102CB000C063FB6302233B6401237B640323BB6487
:102CC0000723FB6407F13C0319464FF0904002F0E4
:102CD00003FB1B4B1B4A1A60194B0F225A60184BFF
:102CE00010229A60164B0022DA60154B80221A617E
:102CF000134B00225A61124B00229A61104B0022A2
:102D0000DA610F4B00221A620D4801F091FF034671
:102D1000002B01D0FFF76EFE7B68094ADA67084A8C
:102D20007B68936200220021242001F022FF2420EE
:102D300001F039FF00BF5037BD4680BD003801406B
:102D4000500500204400024080B400AFFEE780B48C
:102D500000AFFEE780B400AFFEE780B400AFFEE74F
:102D600080B400AFFEE780B400AF00BFBD465DF8A1
:102D7000047B704780B400AF00BFBD465DF8047BA4
:102D8000704780B400AF00BFBD465DF8047B70475C
:102D900080B500AF01F07AFD00BF80BD80B500AF07
:102DA000FFF780F800BF80BD80B500AF024802F099
:102DB00004F900BF80BD00BF5005002080B500AF02
:102DC000024804F085FB00BF80BD00BFBC040020AA
:102DD00080B500AF01F0E6F900BF80BD80B500AF5F
:102DE00001F018FA00BF80BD80B500AF02F00CFC06
:102DF00000BF80BD80B500AF012002F0EDFB00BF39
:102E000080BD80B500AF102002F0E6FB00BF80BDA2
:102E100080B500AF402002F0DFFB00BF80BD80B472
:102E200000AF01231846BD465DF8047B704780B5AE
:102E300082B000AF7860396009F028FE03461622A0
:102E40001A604FF0FF3318460837BD4680BD80B585
:102E500082B000AF78604FF0FF317868FFF7E7FF8E
:102E6000FEE780B586B000AFF860B9607A600023F5
:102E70007B610AE0AFF300800146BB685A1CBA6070
:102E8000CAB21A707B6901337B617A697B689A42A6
:102E9000F0DB7B6818461837BD4680BD80B483B030
:102EA00000AF78604FF0FF3318460C37BD465DF831
:102EB000047B704780B483B000AF786039603B68B2
:102EC0004FF400525A60002318460C37BD465DF897
:102ED000047B704780B483B000AF7860012318464C
:102EE0000C37BD465DF8047B704780B485B000AFF9
:102EF000F860B9607A60002318461437BD465DF863
:102F0000047B704780B586B000AF7860144A154BDB
:102F1000D31A7B617B693B61134B1B68002B02D189
:102F2000114B124A1A60104B1A687B6813443A69B5
:102F30009A4207D209F0AAFD03460C221A604FF00C
:102F4000FF3309E0084B1B68FB60074B1A687B687E
:102F50001344054A1360FB6818461837BD4680BD08
:102F60000030002000100000B0050020C017002035
:102F700080B400AF034B1B681846BD465DF8047B68
:102F8000704700BF8075FF1F80B400AF034B1B6804
:102F9000DBB21846BD465DF8047B70478475FF1FA1
:102FA00080B400AF034B1B681B0A1846BD465DF892
:102FB000047B70478475FF1FB0B590B000AF9223BB
:102FC00087F83F303F4B3C1D1D460FCD0FC40FCD42
:102FD0000FC40FCD0FC495E8070003C4228000F092
:102FE00011FB0121022009F0E3FA374A00210420F5
:102FF00009F00AFC3B1D184608F07AF8034687F8EA
:103000003E3097F83E30002B08D097F83E301946F6
:103010002E480AF0E5F9FFF7EDFC02E02C480AF033
:10302000DFF900F005FB08F0C3FF2A4B002283F80C
:103030008020284B4FF6FF72DA82274A00210120B8
:1030400009F0E2FB254A0021022009F0DDFB062001
:1030500007F075FA034687F83F3097F83F30002BAA
:1030600006D097F83F3019461D480AF0B9F902E03A
:103070001C480AF0B5F91C4B00221A701B4B0122A8
:103080001A7000F025FF1A4B00221A490020FFF7A2
:10309000ABF8194B002219490020FFF7A5F80D4B9A
:1030A00000225A760B4B00221A76154B80221A808A
:1030B000144BA0221A80012000F064FC00BF4037AE
:1030C000BD46B0BD94FB000809AB0008B8FA000883
:1030D000F0FA0008BC050020653B0008AD3C000884
:1030E00018FB00085CFB0008480600204906002089
:1030F000C53B00083D060020D53B00083E060020E9
:103100004006002042060020B0B590B004AF7860C1
:1031100096480AF065F9922387F82F307B680133CF
:10312000BB62BB6A1B78FF2B00F04081FF2B00F3D2
:103130001C82052B02D03E2B2ED016E2BB6A023336
:10314000FB60FB68B3F801309AB2894BDB8A9A4284
:1031500014D1874B0022DA82854B002283F880202D
:1031600084480AF0D9F9FB68B3F801309BB21946DC
:10317000FB68DB781A4680480AF032F9012000F03B
:1031800001FC7E4B01221A70794BDA8A7B4B5A8004
:103190007A4800F089FEEBE1BB6A0233FB61FB6910
:1031A0001B780C2B33D00C2B00F3DE80012B6CD062
:1031B000032B40F0D980FB6901337B6170480AF032
:1031C000ABF97B69B3F803309BB21846FDF792F96F
:1031D0004FF000026B4BFDF7F7F902460B46104625
:1031E00019467B69B3F805309BB21C467B69B3F87E
:1031F00007309BB21A4613469B0013445B000193B1
:10320000009402460B4660480AF0EAF8ADE0FB691C
:103210000133BB615D480AF0E3F8BB691B78002B02
:1032200003D15B480AF078F902E05A480AF074F9D1
:103230004F4BDB8A07F10A0207F10B01184607F032
:10324000F6F9034687F82F3097F82F30002B03D07C
:1032500051480AF0C5F888E050480AF05DF9FB7A59
:10326000022B0AD1BB7A022B07D1FB7A1946BB7A13
:103270001A464B480AF0B4F877E0FB7A1946BB7A55
:103280001A4647480AF0ACF86FE0FB6901333B612E
:10329000374B93F881301846FFF720F83B69B3F8B5
:1032A00001309BB219463F480AF09AF83B699B7A75
:1032B00018463B695B7A1C463B691B7A1D463B6995
:1032C000DB791A463B699B7919463B695B79029326
:1032D000019100922B462246014633480AF080F8BD
:1032E0003B69B3F80B309BB21846FDF703F94FF07A
:1032F0000002244BFDF768F902460B4610461946BA
:103300003B69B3F80D309BB21C463B69B3F80F30F4
:103310009BB21A4613469B0013445B000193009432
:1033200002460B4618480AF05BF8114B93F88030C0
:10333000042B04D10E4B062283F8802003E00C4BB3
:10334000052283F880203B69B3F801309AB2084B1C
:10335000DA820A4B00221A70054BDA8A074B5A8030
:10336000064800F0A1FD00E000BF01E1D0FB00082D
:10337000BC050020E8FB000814FC000844060020FF
:1033800050FC00080000F43F84FC0008F0FC00083A
:1033900020FD00082CFD000838FD000858FD00083D
:1033A00078FD00089CFD0008E4FD0008BB6A0233BC
:1033B0007B627B6A1B889BB2B3F5006F00F0C18013
:1033C000B3F5006F00F3D380042B00F0C280042B10
:1033D000C0F2CD8040F20A42934200F3C880B3F5B8
:1033E000806FC0F2C480A3F580630A2B00F2BF8017
:1033F00001A252F823F000BF253400080D35000863
:103400002D340008633400086B340008733400085E
:103410006F3500084B350008A7340008B7340008A2
:10342000AF34000855480AF077F89DE054480AF098
:1034300073F8544BDB8A5449184606F083FA034666
:1034400087F82F3097F82F30002B06D097F82F30C1
:1034500019464E4809F0C4FF86E04D480AF05CF872
:1034600082E04C480AF058F87EE04B480AF054F8E5
:103470007AE04A480AF050F8424BDB8A184606F0D8
:103480000BFC034687F82F3097F82F30002B06D01F
:1034900097F82F301946424809F0A2FF64E04148EE
:1034A0000AF03AF860E040480AF036F85CE03F483D
:1034B0000AF032F858E03E480AF02EF87B6A0233F0
:1034C000D3F8023019463B4809F08AFF7B6A023381
:1034D000D3F802301946384809F082FF294BDB8ABD
:1034E0000121184606F02CFC034687F82F3097F888
:1034F0002F30002B06D097F82F3019462F4809F0AF
:103500006FFF31E02E480AF007F82DE07B6A0233A6
:103510003B622C480AF000F83B6A9B78002B03D1F1
:10352000294809F0F9FF08E03B6A9B7819463B6A95
:10353000DB781A46254809F053FF0A2009F068FF96
:1035400012E0234B01221A700EE0224809F048FFD6
:103550000AE0012000F0F4FF0A4B93F882300A21C0
:103560001846FEF73FFF00BF01E000BF00E000BFCC
:10357000012318463037BD46B0BD00BF34FE0008F9
:1035800064FE0008BC05002040E201008CFE00083B
:10359000C0FE0008E8FE000814FF000848FF00080D
:1035A0006CFF00089CFF0008C4FF0008F0FF000843
:1035B000200001085400010870000108880001087B
:1035C000D8000108200101084C010108640101082C
:1035D00049060020A001010880B500AF00F0A4FC5E
:1035E00000BF80BD80B500AF0021022009F02EF998
:1035F00000BF80BD80B400AF00BFBD465DF8047B56
:103600007047000080B582B000AF064B3B60064BB0
:103610007B603B461946054807F05AFA00BF083759
:10362000BD4680BD28000320553D00081D3D000813
:10363000F0B58DB006AF00233B809223FB75A24806
:1036400009F06AFF06F0CFFF0346FB75FB7D002BF8
:1036500005D0FB7D19469D4809F0C2FE02E09C485A
:1036600009F05AFF00F03AFA38613A690621002061
:1036700006F079FE0346FB75FB7D002B05D0FB7D34
:103680001946944809F0ACFE21E0934809F044FF44
:103690003B6905331B7818463B6904331B781C468D
:1036A0003B6903331B781D463B6902331B781A467E
:1036B0003B6901331B7819463B691B7802930191E2
:1036C00000922B4622460146844809F089FE3B6958
:1036D0005A79834B1A723B691A79814B5A723B694A
:1036E000DA787F4B9A723B699A787D4BDA723B6944
:1036F0005A787B4B1A733B691A78794B5A73794A1B
:103700001021182006F02FFE0346FB75FB7D002BD1
:1037100005D0FB7D1946744809F062FE02E073484B
:1037200009F0FAFE724A1021082006F01CFE03463A
:10373000FB75FB7D002B05D0FB7D19466D4809F01C
:103740004FFE02E06C4809F0E7FE1821012006F068
:103750008FFE0346FB75FB7D002B05D0FB7D1946D4
:10376000664809F03DFE02E0654809F0D5FE06F026
:103770004EFB0346FB75FB7D002B05D0FB7D1946F8
:10378000604809F02DFE02E05F4809F0C5FE002305
:10379000FB73FB7B43F00103FB73FB7B002B2BD004
:1037A0005A4BBB60BA1DF87BBB1C01933B1D0093B9
:1037B00013460722002106F02CF90346FB75FB7D1A
:1037C000002B05D0FB7D1946514809F009FE02E0A7
:1037D000504809F0A1FEFC88BD88B868FCF7DAFC07
:1037E0000346DAB2BB6800931346002229462046FE
:1037F00006F010FD0346FB75F88879883B46009378
:103800000223002206F006FD0346FB750222022178
:10381000002006F08AFF0346FB75FB7D002B05D0D8
:10382000FB7D19463C4809F0DBFD02E03B4809F00E
:1038300073FE3B4B01221A70394B1B78184605F07A
:1038400069FF0346FB75FB7D002B05D0FB7D194608
:10385000344809F0C5FD02E0334809F05DFE304B05
:1038600001225A702E4B08221A712D4B10225A71C8
:103870002B4B0022DA702A4B2C4A9A60284B0122EB
:103880009A70274B9C78264B5D78254B1B79244AF0
:1038900052792349C978224880680026049603900B
:1038A000029101920093002301222946204605F04F
:1038B00085FF0346FB75FB7D002B3BD0FB7D194646
:1038C0001B4809F08DFD38E0C8010108F40101082A
:1038D0002402010844020108A0020108EC020108C8
:1038E00010000020040D01082803010880030108CE
:1038F000140D0108C8030108200401086804010828
:10390000A8040108D80401080C05010830050108C5
:10391000380501086805010888050108C405010883
:10392000BC050020F00501083006010807B20100BF
:10393000600601080E4809F0EFFD0E4B9B78002B46
:103940000FD006F085F90346FB75FB7D002B05D0F3
:10395000FB7D1946084809F043FD02E0074809F0DD
:10396000DBFD074809F03CFD00BF1C37BD46F0BD3C
:10397000AC060108BC050020E8060108280701087C
:103980005807010880B58CB008AF0346FB7192233D
:10399000FB72FB79012B06D1414B1B88FB81414B0C
:1039A0001B88BB8105E04FF4C863FB814FF47A6349
:1039B000BB813D4B93F881301846FEF78FFCFB79B5
:1039C000022B19D1384B93F88030012B04D0364BA1
:1039D00093F88030022B0FD105F07EFD0346FB7279
:1039E000FB7A002B05D0FB7A1946304809F0F8FC29
:1039F00002E02F4809F090FD2B4AFB7982F88030D5
:103A0000294B1B7EBA89F989002006900020059079
:103A1000284804900393284B029308230193002322
:103A200000930023002005F07BFD0346FB72FB7A28
:103A3000002B05D0FB7A1946204809F0D1FC02E0A2
:103A40001F4809F069FD1F490E2006F08FF8034654
:103A5000FB72FB7A002B0ED0FB79012B05D1FB7A90
:103A60001946194809F0BCFC17E0FB7A19461748BB
:103A700009F0B6FC11E0FB79012B0AD1144809F0DA
:103A8000AFFC094B93F8813012491846FEF7AAFCA7
:103A900003E0114809F0A4FC00BF1037BD4680BD0B
:103AA0004006002042060020BC05002084070108D3
:103AB000D0070108D5050020240D010818080108C9
:103AC000500801081000002078080108AC0801081F
:103AD000E408010846E001000C09010880B586B041
:103AE00000AFFFF745FA38613B69B3F1FF3F23D0E0
:103AF000FFF756FAB860FFF747FA78603B69DAB229
:103B0000164B1A703B691B0ADAB2144B5A707B6869
:103B1000DAB2124B9A70BB68DAB2104BDA70BB683B
:103B20001B0ADAB20D4B1A71BB681B0CDAB20B4BD5
:103B30005A710A4B7B610BE0002007F085F9F860B1
:103B4000FB68002B02D0FB687B6101E0044B7B61CA
:103B50007B6918461837BD4680BD00BFB4050020FC
:103B6000FC0C010880B582B000AF012000F002FD1E
:103B7000104B93F88030052B17D09223FB7105F082
:103B8000ABFC0346FB710B4B002283F88020FB79D2
:103B9000002B03D0084809F023FC06E0074809F091
:103BA0001FFC074809F01CFC00BF00BF0837BD46DA
:103BB00080BD00BFBC0500203C0901086009010868
:103BC0006809010880B500AF0021012008F03EFE21
:103BD00000BF80BD80B500AF012000F0CBFC00BF6E
:103BE00080BD000090B589B002AF0346FB80294B31
:103BF0001B78012B49D1274B00221A70264B1B78CA
:103C00000133002B03F00103B8BF5B42DAB2224B51
:103C10001A70214B1B78214A9B00134493ED007AC4
:103C2000F7EE046AC7EE267AFDEEE77A17EE903AD1
:103C3000FB82194B1B78194A9B00134493ED007AC1
:103C4000F7EE046AC7EE267AFDEEE77A17EE903AB1
:103C5000BB8200237B824FF4FA733B82104BD88ADD
:103C60007C8ABA8AF98A3B8A0093234606F0DAFDF9
:103C70000346FB73FB7B002B03D00A4809F0B0FB23
:103C800003E0094809F0ACFB00BF00BF1C37BD468C
:103C900090BD00BF49060020480600200800002013
:103CA000BC05002084090108AC09010880B500AFFB
:103CB000084B93F88030012B0AD0064B93F88030E4
:103CC000002B05D0034BDB8A1846FFF78BFF00BFA4
:103CD00000BF80BDBC05002080B582B000AF786019
:103CE0000021042008F0B2FD00BF0837BD4680BDAA
:103CF00080B582B000AF7860012008F013FE00BFED
:103D00000837BD4680BD80B582B000AF7860012025
:103D100008F028FE00BF0837BD4680BD80B584B0DE
:103D200000AF78607B68FB60FB685B68083318460F
:103D300008F090F90346FB72FB7A002B03D0FB6876
:103D400001221A7003E0FB6800221A7000BF1037CE
:103D5000BD4680BD80B584B000AF0346FB71FB79E2
:103D6000002B02D0012B06D00BE03F23FB60F8684C
:103D700008F098FD05E03F23FB60F86808F0B2FD0D
:103D800000BF00BF1037BD4680BD000080B582B0C7
:103D900000AF78607B681B78032B1AD0032B6BDC99
:103DA000002B02D0012B0AD066E0374B01221A709B
:103DB000364809F0B1FB364809F012FB5FE0324BA0
:103DC00000221A70334809F0A7FB314809F008FBBC
:103DD00055E07B685B681B78002B23D17B685B68B0
:103DE00001331B78012B0BD1002000F0A9FB2A48DE
:103DF00009F092FB264809F0F3FA234B01229A704E
:103E00007B685B6801331B78002B0BD1002000F02E
:103E1000B1FB224809F080FB1D4809F0E1FA1A4B7A
:103E200000229A707B685B681B78012B26D17B6827
:103E30005B6801331B78012B0BD1002000F080FB65
:103E4000174809F069FB124809F0CAFA0E4B012223
:103E50009A707B685B6801331B78002B0ED10020C1
:103E600000F088FB0F4809F057FB094809F0B8FA41
:103E7000054B00229A7001E000BF00E000BF00BFC8
:103E80000837BD4680BD00BF4C060020DC09010894
:103E9000100A0108140A0108480A0108700A0108FA
:103EA000980A0108C00A010880B582B000AF7860A6
:103EB0007B681B78002B05D0012B00D003E000F0BD
:103EC00019F800E000BF00BF0837BD4680BD000004
:103ED00080B500AF054A0021082008F095FC044B8E
:103EE00000221A7000F006F800BF80BD393F0008BC
:103EF0004C06002080B500AF002000F03BFB0848D6
:103F000009F00AFB074B01225A70064B00229A70F7
:103F1000044B0122DA70034B00221A7100BF80BDEE
:103F2000E80A01084C06002080B500AF00210820F7
:103F300008F08CFC00BF80BD80B500AF0F4B1B7933
:103F4000002B03D10D4B01221A7102E00B4B002212
:103F50001A710A4B1B78002B0BD0094809F040FA64
:103F6000084809F03DFA08494FF6426007F09EF80C
:103F700003E0064809F034FA00BF80BD4C0600207B
:103F8000F80A0108100A01084F060020380B010842
:103F900080B400AF054BDB68044A43F40043D360B0
:103FA00000BFBD465DF8047B704700BF00040058A9
:103FB00080B483B000AF7860064BD3F8D4200549B5
:103FC0007B681343C1F8D43000BF0C37BD465DF8A1
:103FD000047B70470008005880B483B000AF78605D
:103FE000054B1A6A04497B6813430B6200BF0C3708
:103FF000BD465DF8047B70470008005880B485B06A
:1040000000AF78604FF0B0431A6D4FF0B0417B685D
:1040100013430B654FF0B0431A6D7B681340FB6090
:10402000FB6800BF1437BD465DF8047B704780B461
:1040300085B000AF78604FF0B043D3F850214FF017
:10404000B0417B681343C1F850314FF0B043D3F80F
:1040500050217B681340FB60FB6800BF1437BD46EE
:104060005DF8047B704780B483B000AF78607B68F4
:104070001B6843F480327B681A6000BF0C37BD4672
:104080005DF8047B704780B483B000AF78607B68D4
:104090001B6843F001027B681A6000BF0C37BD4605
:1040A0005DF8047B704780B483B000AF78603960FE
:1040B0007B685A683B681B04DB431A407B685A6084
:1040C00000BF0C37BD465DF8047B704780B483B0F9
:1040D00000AF786039607B685A683B681B041A43FC
:1040E0007B685A6000BF0C37BD465DF8047B7047A3
:1040F00080B483B000AF786039607B685A683B68F1
:10410000DB431A407B685A6000BF0C37BD465DF840
:10411000047B704780B483B000AF786039607B68FF
:104120003A689A6000BF0C37BD465DF8047B704763
:1041300080B483B000AF786039603B681A047B6854
:104140009A6000BF0C37BD465DF8047B704780B4B1
:1041500083B000AF786039607B68DA683B681340F1
:104160003A689A4201D1012300E0002318460C3737
:10417000BD465DF8047B704780B483B000AF7860C3
:1041800039607B68DA693B6813403A689A4201D12A
:10419000012300E0002318460C37BD465DF8047B80
:1041A0007047000080B500AF02211948FFF7E4FF17
:1041B0000346002B09D0164B5B68DB4303F0020378
:1041C000002B02D000F0DAF81FE001211048FFF7C1
:1041D000D3FF0346002B08D00D4B5B6803F00103AF
:1041E000002B02D100F08EF80FE008210848FFF7FD
:1041F000C3FF0346002B09D0054B5B68DB4303F08C
:104200000803002B02D000F005F900BF00BF80BDFD
:10421000000C005880B500AF02211A48FFF797FF45
:104220000346002B09D1174B5B68DB4303F40033D3
:10423000002B02D000F096F820E008211148FFF78B
:1042400086FF0346002B09D10E4B5B68DB4303F46A
:104250000023002B02D000F0BFF80FE02021094816
:10426000FFF775FF0346002B09D1064B5B68DB4364
:1042700003F40013002B02D000F050F800BF00BF81
:1042800080BD00BF000C005880B500AF4FF4801017
:10429000FFF7CDFE4FF40070FFF79EFE4FF4007065
:1042A000FFF786FE40BF20BFFFF772FE00BF80BD54
:1042B00080B500AF4FF48010FFF7A0FE0648FFF76F
:1042C000E2FE0548FFF7CFFE2C2000F06CFC2D200D
:1042D00000F069FC00BF80BD000C005880B500AF45
:1042E00001210248FFF704FF00BF80BD000C005809
:1042F00080B500AF01210248FFF71AFF00BF80BD63
:10430000000C005880B500AF07F088FF012102487B
:10431000FFF700FF00BF80BD000C005880B500AF64
:1043200020210348FFF7D2FE07F0A8FF00BF80BDA1
:10433000000C005880B500AF02210248FFF7D8FEFC
:1043400000BF80BD000C005880B500AF02210448BA
:10435000FFF7EEFE02210248FFF7A5FE00BF80BD79
:10436000000C005880B500AF02210348FFF7AEFEF5
:1043700007F0D4FF00BF80BD000C005880B500AF2F
:1043800007F0E2FF02210248FFF7C4FE00BF80BD34
:10439000000C005880B582B000AF786008210C484E
:1043A000FFF7D5FE0346002B07D00A4A7B6813604F
:1043B00008210748FFF777FE06E07B689847082149
:1043C0000348FFF7B5FE00BF0837BD4680BD00BFFC
:1043D000000C00585406002080B500AF08210648A4
:1043E000FFF774FE054B1B68984708210248FFF74A
:1043F0009FFE00BF80BD00BF000C00585406002087
:1044000080B500AF08210248FFF772FE00BF80BDF3
:10441000000C005880B500AF08F03EF808210248B3
:10442000FFF778FE00BF80BD000C0058D458C45080
:104430000433C4188C42F9D37047036004308842B7
:10444000FBD370470C48854600F054F90B480C49E3
:104450000C4A0023FFF7EDFF0B480C490023FFF740
:10446000EEFF0B480B490023FFF7E9FF08F014FBB0
:10447000FEF76AF9FEE70000003000200800002087
:10448000340200200C12010870020020C017002026
:10449000E4010320670A0320FEE780B485B000AF83
:1044A00078604FF0B043DA6C4FF0B0417B68134353
:1044B000CB644FF0B043DA6C7B681340FB60FB6861
:1044C00000BF1437BD465DF8047B704780B588B0E7
:1044D00000AF0346FB7107F10C0300221A605A601B
:1044E0009A60DA601A610220FFF7D7FFFB79124A5F
:1044F00032F81330FB6001233B6100237B61022310
:10450000BB61FB790D4A52F8233007F10C021146CA
:10451000184600F0E1FEFB79084A52F82300FB79C7
:10452000054A32F813300022194601F03DF8002305
:1045300018462037BD4680BD2C0D01082000002004
:1045400080B582B000AF0346FB71FB79074A52F891
:104550002300FB79064A32F813300122194601F094
:1045600023F8002318460837BD4680BD20000020F0
:104570002C0D010880B582B000AF0346FB71FB79BA
:10458000074A52F82300FB79064A32F8133000221A
:10459000194601F009F8002318460837BD4680BDCA
:1045A000200000202C0D010880B588B000AF034624
:1045B0000A46FB711346BB7107F10C0300221A6017
:1045C0005A609A60DA601A61FB79002B03D10120EE
:1045D000FFF763FF0CE0FB79012B03D11020FFF7FD
:1045E0005CFF05E0FB79022B02D10120FFF755FFAC
:1045F000FB79294A32F81330FB6001237B610223E7
:10460000BB61BB79002B0CD100233B61FB79234AB2
:1046100052F8233007F10C021146184600F05CFEF8
:1046200035E04FF404133B61FB791C4A52F8233008
:1046300007F10C021146184600F04EFEFB79DB0034
:10464000174A1A44FB79174951F823301946104686
:1046500000F00CFEFB79DB00114A9818FB79124A36
:1046600052F823301A46002100F0E6FDFB790F4A8C
:10467000D056FB790E4A52F823300022194600F03A
:1046800078FAFB79094AD356184600F08CFA0023D1
:1046900018462037BD4680BD340D01082C0000208F
:1046A00058060020400D0108380000203C0D01088C
:1046B0004400002080B483B000AF0346FB7100BF0C
:1046C0000C37BD465DF8047B704780B500AF002015
:1046D000FFF7F0FF00BF80BD80B500AF0120FFF7FE
:1046E000E9FF00BF80BD80B500AF0220FFF7E2FF09
:1046F00000BF80BD80B400AF244B00229A60234BE2
:10470000D3F88830214A43F47003C2F888304FF060
:10471000B0431B684FF0B04243F0010313604FF009
:10472000B0434FF4E0229A604FF0B0431A684FF064
:10473000B041174B13400B604FF0B043D3F89430A7
:104740004FF0B04223F00503C2F894304FF0B0436D
:10475000D3F898304FF0B04223F00103C2F89830FC
:104760004FF0B0430B4ADA604FF0B0431B684FF094
:10477000B04223F4802313604FF0B04300229A61CB
:1047800000BFBD465DF8047B704700BF00ED00E050
:10479000FBFEF6FA0010042280B400AF054B5B6804
:1047A000044A43F00103536000BFBD465DF8047B3B
:1047B000704700BF002004E080B400AF054B5B6889
:1047C000044A43F00203536000BFBD465DF8047B1A
:1047D000704700BF002004E080B582B000AF002326
:1047E000FB710C4B1B680B4A43F48073136003206E
:1047F00000F0B4F9002000F00FF80346002B02D0BF
:104800000123FB7101E0FEF787F9FB7918460837B1
:10481000BD4680BD0040005880B584B000AF7860D0
:104820000023FB73174B1B78002B24D001F0E0FF13
:104830000246144B1B7819464FF47A73B3FBF1F31D
:10484000B2FBF3F3184600F0CAF90346002B0FD170
:104850007B680F2B09D8002279684FF0FF3000F0F9
:1048600088F9094A7B68136007E00123FB7304E0C1
:104870000123FB7301E00123FB73FB7B1846103718
:10488000BD4680BD580000205400002080B400AF19
:10489000064B1B781A46064B1B681344044A1360E8
:1048A00000BFBD465DF8047B704700BF5800002084
:1048B0007006002080B400AF034B1B681846BD464D
:1048C0005DF8047B704700BF7006002080B400AF25
:1048D000034B1B681846BD465DF8047B704700BF5C
:1048E0005400002080B500AFFFF756FF00BF80BD29
:1048F00080B500AFFFF760FF00BF80BD80B485B01A
:1049000000AF78607B6803F00703FB600C4BDB684B
:10491000BB60BA684FF6FF031340BB60FB681A0226
:10492000BB68134343F0BF6343F40033BB60044AE6
:10493000BB68D36000BF1437BD465DF8047B704789
:1049400000ED00E080B400AF044BDB681B0A03F00D
:1049500007031846BD465DF8047B704700ED00E094
:1049600080B483B000AF0346FB7197F90730002B8A
:104970000BDBFB7903F01F02074997F907305B094E
:10498000012000FA02F241F8232000BF0C37BD4697
:104990005DF8047B704700BF00E100E080B483B0A5
:1049A00000AF0346FB7197F90730002B12DBFB7950
:1049B00003F01F020A4997F907305B09012000FA4A
:1049C00002F2203341F82320BFF34F8F00BFBFF323
:1049D0006F8F00BF00BF0C37BD465DF8047B70478A
:1049E00000E100E080B483B000AF0346FB7197F9AB
:1049F0000730002B0CDBFB7903F01F02074997F906
:104A000007305B09012000FA02F2403341F823200D
:104A100000BF0C37BD465DF8047B704700E100E045
:104A200080B483B000AF0346FB7197F90730002BC9
:104A30000CDBFB7903F01F02074997F907305B098C
:104A4000012000FA02F2603341F8232000BF0C3746
:104A5000BD465DF8047B704700E100E080B483B0A0
:104A600000AF03463960FB7197F90730002B0ADB72
:104A70003B68DAB20C4997F907301201D2B20B4405
:104A800083F800230AE03B68DAB20849FB7903F0B7
:104A90000F03043B1201D2B20B441A7600BF0C374D
:104AA000BD465DF8047B704700E100E000ED00E0EA
:104AB00080B489B000AFF860B9607A60FB6803F039
:104AC0000703FB61FB69C3F10703042B28BF042321
:104AD000BB61FB690433062B02D9FB69033B00E091
:104AE00000237B614FF0FF32BB6902FA03F3DA4324
:104AF000BB681A407B699A404FF0FF317B6901FA2D
:104B000003F3D9437B680B40134318462437BD4653
:104B10005DF8047B7047000080B582B000AF78601C
:104B20007B68013BB3F1807F01D301230FE00A4A88
:104B30007B68013B53600F214FF0FF30FFF78EFF82
:104B4000054B00229A60044B07221A600023184686
:104B50000837BD4680BD00BF10E000E080B582B0E0
:104B600000AF78607868FFF7C9FE00BF0837BD4620
:104B700080BD80B586B000AF0346B9607A60FB7334
:104B8000FFF7E0FE78617A68B9687869FFF790FF0F
:104B9000024697F90F3011461846FFF75FFF00BF36
:104BA0001837BD4680BD80B582B000AF0346FB71AB
:104BB00097F907301846FFF7D3FE00BF0837BD4608
:104BC00080BD80B582B000AF0346FB7197F9073016
:104BD0001846FFF7E3FE00BF0837BD4680BD80B52D
:104BE00082B000AF78607868FFF796FF03461846FA
:104BF0000837BD4680BD80B582B000AF0346FB716B
:104C000097F907301846FFF7EDFE00BF0837BD469D
:104C100080BD80B582B000AF0346FB7197F90730C5
:104C20001846FFF7FDFE00BF0837BD4680BD0000F7
:104C300080B584B000AF78607B68002B01D1012380
:104C400078E07B681B681A463C4B13443C4AA2FB45
:104C500003231B099A007B685A647B68394A1A64EB
:104C60007B68022283F825207B681B681B68FB6039
:104C7000FB6823F4FF4323F07003FB607B689A68B2
:104C80007B68DB681A437B681B691A437B685B6936
:104C90001A437B689B691A437B68DB691A437B680C
:104CA0001B6A1343FA681343FB607B681B68FA684E
:104CB0001A60786800F06EFA7B689B68B3F5804FE5
:104CC00002D17B6800225A607B685A687B689B6CC3
:104CD00002F03F021A607B68DB6C7A68126D5A60E2
:104CE0007B685B68002B10D07B685B68042B0CD85A
:104CF000786800F07BFA7B685B6D00221A607B6845
:104D00009B6D7A68D26D5A6008E07B6800225A6514
:104D10007B6800229A657B680022DA657B68002246
:104D2000DA637B68012283F825207B68002283F800
:104D30002420002318461037BD4680BDF8FFFDBF74
:104D4000CDCCCCCC0000024080B586B000AFF8607E
:104D5000B9607A603B600023FB75FB6893F82430F0
:104D6000012B01D1022366E0FB68012283F8242095
:104D7000FB6893F82530DBB2012B55D1FB6802228A
:104D800083F82520FB680022DA63FB681B681A6839
:104D9000FB681B6822F001021A603B687A68B968F8
:104DA000F86800F0B9F9FB681B6B002B08D0FB68B2
:104DB0001B681A68FB681B6842F00E021A600FE05D
:104DC000FB681B681A68FB681B6822F004021A6003
:104DD000FB681B681A68FB681B6842F00A021A60CD
:104DE000FB689B6C1B6803F48033002B07D0FB68C7
:104DF0009B6C1A68FB689B6C42F480721A60FB68BB
:104E00005B6D002B07D0FB685B6D1A68FB685B6D00
:104E100042F480721A60FB681B681A68FB681B68A2
:104E200042F001021A6005E0FB68002283F82420AA
:104E30000223FB75FB7D18461837BD4680BD80B444
:104E400083B000AF78607B68002B01D101234FE075
:104E50007B6893F82530DBB2022B08D07B680422F4
:104E6000DA637B68002283F82420012340E07B681A
:104E70001B681A687B681B6822F00E021A607B6848
:104E80009B6C1A687B689B6C22F480721A607B684A
:104E90001B681A687B681B6822F001021A607B6835
:104EA0005B6C03F01C027B681B6C012101FA02F2AF
:104EB0005A607B68DB6C7A68126D5A607B685B6D48
:104EC000002B0CD07B685B6D1A687B685B6D22F4ED
:104ED00080721A607B689B6D7A68D26D5A607B68BD
:104EE000012283F825207B68002283F824200023F8
:104EF00018460C37BD465DF8047B704780B584B01A
:104F000000AF78600023FB737B6893F82530DBB239
:104F1000022B05D07B680422DA630123FB7347E090
:104F20007B681B681A687B681B6822F00E021A6097
:104F30007B681B681A687B681B6822F001021A6094
:104F40007B689B6C1A687B689B6C22F480721A6089
:104F50007B685B6C03F01C027B681B6C012101FA0F
:104F600002F25A607B68DB6C7A68126D5A607B686B
:104F70005B6D002B0CD07B685B6D1A687B685B6D8A
:104F800022F480721A607B689B6D7A68D26D5A60D9
:104F90007B68012283F825207B68002283F8242087
:104FA0007B689B6B002B03D07B689B6B7868984772
:104FB000FB7B18461037BD4680BD80B584B000AF7E
:104FC00078607B681B6C1B68FB607B681B681B68D8
:104FD000BB607B685B6C03F01C0304229A40FB6897
:104FE0001340002B26D0BB6803F00403002B21D014
:104FF0007B681B681B6803F02003002B07D17B68CC
:105000001B681A687B681B6822F004021A607B68C0
:105010005B6C03F01C027B681B6C042101FA02F23A
:105020005A607B681B6B002B71D07B681B6B7868A8
:1050300098476CE07B685B6C03F01C0302229A408B
:10504000FB681340002B2ED0BB6803F00203002B3B
:1050500029D07B681B681B6803F02003002B0BD151
:105060007B681B681A687B681B6822F00A021A605A
:105070007B68012283F825207B685B6C03F01C02AF
:105080007B681B6C022101FA02F25A607B680022E5
:1050900083F824207B68DB6A002B38D07B68DB6ACE
:1050A0007868984733E07B685B6C03F01C03082248
:1050B0009A40FB681340002B2AD0BB6803F008031A
:1050C000002B25D07B681B681A687B681B6822F060
:1050D0000E021A607B685B6C03F01C027B681B6C21
:1050E000012101FA02F25A607B680122DA637B68CF
:1050F000012283F825207B68002283F824207B6826
:105100005B6B002B04D07B685B6B7868984700BFB3
:1051100000BF1037BD4680BD80B485B000AFF860D9
:10512000B9607A603B60FB68DB6CFA68126D5A60AC
:10513000FB685B6D002B04D0FB689B6DFA68D26D39
:105140005A60FB685B6C03F01C02FB681B6C01215E
:1051500001FA02F25A60FB681B683A685A60FB6801
:105160009B68102B08D1FB681B687A689A60FB6803
:105170001B68BA68DA6007E0FB681B68BA689A6067
:10518000FB681B687A68DA6000BF1437BD465DF8BB
:10519000047B704780B485B000AF78607B685B6C3F
:1051A0009B089B0003F1804303F502337A68936404
:1051B0007B681B68DBB2083B0A4AA2FB03231B097E
:1051C000FB607B68084ADA64FB6803F01F03012276
:1051D0009A407B681A6500BF1437BD465DF8047BB2
:1051E000704700BFCDCCCCCC8008024080B485B0E5
:1051F00000AF78607B685B6803F03F03FB60FA6890
:105200000B4B13449B001A467B685A657B68094A1E
:105210009A65FB68013B03F0030301229A407B6817
:10522000DA6500BF1437BD465DF8047B704700BFE8
:105230003F8200104009024080B487B000AFF860A0
:105240000B467A60FB720023FB75FB7A002B03D1BF
:10525000FB687A685A6002E00123FB7500BFFB7DA2
:1052600018461C37BD465DF8047B704780B483B098
:1052700000AF786039607B68002B01D1012303E027
:105280007B683A681A60002318460C37BD465DF803
:10529000047B704780B487B000AF78607B681B6880
:1052A0001B0C03F001037B617B681B6803F01F0389
:1052B000012202FA03F33B617B695B0103F1B04316
:1052C00003F60803FB60FB683A691A6000BF1C37ED
:1052D000BD465DF8047B704780B487B000AF78604E
:1052E000396000237B6146E13B681A6801217B69D4
:1052F00001FA03F31340FB60FB68002B00F03881D8
:105300003B685B6803F00303012B05D03B685B68D7
:1053100003F00303022B30D17B689B683B617B6900
:105320005B00032202FA03F3DB433A6913403B615B
:105330003B68DA687B695B0002FA03F33A6913435E
:105340003B617B683A699A607B685B683B610122DC
:105350007B6902FA03F3DB433A6913403B613B6824
:105360005B681B0903F001027B6902FA03F33A69E7
:1053700013433B617B683A695A603B685B6803F0A2
:105380000303032B17D07B68DB683B617B695B0001
:10539000032202FA03F3DB433A6913403B613B68A3
:1053A0009A687B695B0002FA03F33A6913433B6135
:1053B0007B683A69DA603B685B6803F00303022BA1
:1053C00023D17B69DA087B68083253F822303B61CD
:1053D0007B6903F007039B000F2202FA03F3DB4310
:1053E0003A6913403B613B681A697B6903F0070324
:1053F0009B0002FA03F33A6913433B617B69DA08C5
:105400007B680832396943F822107B681B683B616E
:105410007B695B00032202FA03F3DB433A69134022
:105420003B613B685B6803F003027B695B0002FA47
:1054300003F33A6913433B617B683A691A603B683E
:105440005B6803F44033002B00F09280514A7B6983
:105450009B08023352F823303B617B6903F003035E
:105460009B000F2202FA03F3DB433A6913403B61CE
:105470007B68B3F1904F13D07B68474A93420DD0BD
:105480007B68464A934207D07B68454A934201D1E4
:10549000042306E0072304E0022302E0012300E0E6
:1054A00000237A6902F00302920093403A691343A1
:1054B0003B6138497B699B0802333A6941F82320F4
:1054C000384B1B683B61FB68DB433A6913403B6127
:1054D0003B685B6803F48013002B03D03A69FB68D8
:1054E00013433B612F4A3B6913602E4B5B683B6162
:1054F000FB68DB433A6913403B613B685B6803F43C
:105500000013002B03D03A69FB6813433B61254A23
:105510003B695360234BD3F880303B61FB68DB432E
:105520003A6913403B613B685B6803F48033002BAE
:1055300003D03A69FB6813433B611A4A3B69C2F8DE
:105540008030184BD3F884303B61FB68DB433A6909
:1055500013403B613B685B6803F40033002B03D0CE
:105560003A69FB6813433B610E4A3B69C2F88430D9
:105570007B6901337B613B681A687B6922FA03F31C
:10558000002B7FF4B1AE00BF00BF1C37BD465DF8F5
:10559000047B7047000001400004004800080048F8
:1055A000001000480008005880B483B000AF786055
:1055B0000B467B8013467B707B78002B03D07A8868
:1055C0007B689A6102E07A887B689A6200BF0C3738
:1055D000BD465DF8047B704780B582B000AF0346DE
:1055E000FB80084BDA68FB881340002B06D0054A85
:1055F000FB88D360FB881846FCF752F800BF0837D9
:10560000BD4680BD0008005880B582B000AF0A4B8F
:10561000DB687B60084B1A687B68DB4306491340F4
:105620000B60054A7B685360786800F007F800BF9C
:105630000837BD4680BD00BF0015005880B483B058
:1056400000AF786000BF0C37BD465DF8047B704743
:1056500080B584B000AF78600023FB737B68002BBB
:105660001ED0134BBB607B6893F83830DBB2002B45
:1056700002D17868FDF760FAB86800F05BF8BB68A3
:105680001B6843F00112BB681A60786800F02CF8C0
:105690007B6800225A637B68012283F8382001E08E
:1056A0000123FB73FB7B18461037BD4680BD00BF4E
:1056B000000C005880B485B000AFF860B9601346A4
:1056C000FB7100BF1437BD465DF8047B704780B4A2
:1056D00085B000AFF860B9601346FB7100BF1437A6
:1056E000BD465DF8047B704780B485B000AF78603C
:1056F0000023FB600FE07A68FB689B0013440B4AB1
:105700005A607A68FB6806339B001344084A5A6063
:10571000FB680133FB60FB68052BECD900BF00BFC1
:105720001437BD465DF8047B704700BFB5560008CE
:10573000CF56000880B483B000AF78607B68002249
:105740001A607B684FF03F125A607B683F229A6074
:1057500000BF0C37BD465DF8047B704780B400AFD6
:10576000054B1B68044A43F48073136000BFBD46B9
:105770005DF8047B704700BF0004005880B400AFA0
:10578000054B9B68044A43F40073936000BFBD4619
:105790005DF8047B704700BF0004005880B500AF7F
:1057A000FFF7ECFF00BF80BD80B400AF4FF0B04307
:1057B0001B6803F48013B3F5801F01D1012300E0BF
:1057C00000231846BD465DF8047B704780B400AFE7
:1057D0004FF0B0431B684FF0B04243F48033136086
:1057E00000BFBD465DF8047B704780B400AF4FF04A
:1057F000B0431B684FF0B04223F48033136000BF06
:10580000BD465DF8047B704780B400AF4FF0B043F5
:105810001B6803F40033B3F5003F01D1012300E01E
:1058200000231846BD465DF8047B704780B400AF86
:105830004FF0B0431B684FF0B04243F480731360E5
:1058400000BFBD465DF8047B704780B400AF4FF0E9
:10585000B0431B684FF0B04223F48073136000BF65
:10586000BD465DF8047B704780B400AF4FF0B04395
:105870001B6803F48063B3F5806F01D1012300E05E
:1058800000231846BD465DF8047B704780B483B0A2
:1058900000AF78604FF0B0435B6823F0FE427B6856
:1058A0001B064FF0B04113434B6000BF0C37BD46A1
:1058B0005DF8047B704780B400AF4FF0B043D3F87D
:1058C00090304FF0B04243F00103C2F8903000BF77
:1058D000BD465DF8047B704780B400AF4FF0B04325
:1058E000D3F890304FF0B04223F00103C2F890306B
:1058F00000BFBD465DF8047B704780B400AF4FF039
:10590000B043D3F890304FF0B04243F00403C2F8F4
:10591000903000BFBD465DF8047B704780B400AF97
:105920004FF0B043D3F890304FF0B04223F004036F
:10593000C2F8903000BFBD465DF8047B704780B46C
:1059400000AF4FF0B043D3F8903003F00203022BC6
:1059500001D1012300E000231846BD465DF8047B19
:10596000704780B400AF4FF0B043D3F894304FF09D
:10597000B04243F00103C2F8943000BFBD465DF869
:10598000047B704780B400AF4FF0B043D3F894303D
:105990004FF0B04223F00103C2F8943000BFBD467F
:1059A0005DF8047B704780B400AF4FF0B043D3F88C
:1059B000943003F00203022B01D1012300E0002305
:1059C0001846BD465DF8047B704780B400AF4FF0C9
:1059D000B043D3F894304FF0B04243F00403C2F820
:1059E000943000BFBD465DF8047B704780B400AFC3
:1059F0004FF0B043D3F894304FF0B04223F004039B
:105A0000C2F8943000BFBD465DF8047B704780B497
:105A100000AF4FF0B043D3F8943003F00803082BE5
:105A200001D1012300E000231846BD465DF8047B48
:105A3000704780B483B000AF78604FF0B043D3F8C4
:105A4000943023F470627B681B024FF0B041134323
:105A5000C1F8943000BF0C37BD465DF8047B704739
:105A600080B400AF4FF0B0431B684FF0B04243F03A
:105A70000103136000BFBD465DF8047B704780B42E
:105A800000AF4FF0B0431B684FF0B04223F001036A
:105A9000136000BFBD465DF8047B704780B400AF63
:105AA0004FF0B0431B6803F00203022B01D1012326
:105AB00000E000231846BD465DF8047B704780B4C3
:105AC00083B000AF78604FF0B0431B6823F0F00262
:105AD0004FF0B0417B6813430B6000BF0C37BD46ED
