:020000040800F2
:1000000000300020A53B0008D92B0008DF2B00089A
:10001000E52B0008EB2B0008F12B00080000000086
:10002000000000000000000000000000F72B0008A6
:10003000052C000800000000132C0008212C0008EB
:10004000F93B0008F93B0008F93B00082D2C00089B
:10005000F93B0008F93B0008852C0008F93B000833
:10006000F93B0008F93B0008932C0008F93B000815
:10007000F93B0008F93B0008392C0008F93B00085F
:10008000F93B0008F93B0008F93B000800000000BC
:1000900000000000F93B0008F93B0008A12C000813
:1000A000F93B0008F93B0008F93B0008F93B000860
:1000B000F93B0008F93B0008F93B0008F93B000850
:1000C0000000000000000000F93B000800000000F4
:1000D0004D2C0008F93B000800000000F93B000827
:1000E000F93B0008F93B000800000000F93B00085C
:1000F000612C00086D2C0008792C0008F93B0008E1
:10010000F93B0008000000000000000000000000B3
:10011000F93B0008F93B0008F93B0008000000002B
:1001200000000000000000000000000000000000CF
:0C0130000000000000000000F93B000887
:1001400010B5054C237833B9044B13B10448AFF311
:1001500000800123237010BD700200200000000009
:100160009CE4000808B5034B1BB103490348AFF3F7
:10017000008008BD00000000740200209CE400081C
:1001800010F8012B11F8013B012A28BF9A42F7D041
:10019000D01A7047000000000000000000000000BE
:1001A00001F0FF01102A2BDB10F0070F08D010F828
:1001B000013B013A8B422DD010F0070F42B3F6D12C
:1001C000F0B441EA012141EA014122F007047FF045
:1001D00000070023F0E80256083C85EA010586EA9C
:1001E000010685FA47F5A3FA87F586FA47F6A5FAD8
:1001F00087F68EB9EED1F0BC01F0FF0102F00702E4
:1002000032B110F8013B013A83EA010313B1F8D18E
:100210000020704701387047002D06BF354603386F
:10022000073815F0010F07D1013015F4807F02BFA8
:10023000013015F4C03F0130F0BC0138704700BFF9
:10024000034613F8012B002AFBD1181A0138704716
:1002500081F0004102E000BF83F0004330B54FEA77
:1002600041044FEA430594EA050F08BF90EA020FE4
:100270001FBF54EA000C55EA020C7FEA645C7FEA77
:10028000655C00F0E2804FEA5454D4EB5555B8BF9A
:100290006D420CDD2C4480EA020281EA030382EA0B
:1002A000000083EA010180EA020281EA0303362D9D
:1002B00088BF30BD11F0004F4FEA01314FF4801C70
:1002C0004CEA113102D0404261EB410113F0004F82
:1002D0004FEA03334CEA133302D0524263EB430339
:1002E00094EA050F00F0A780A4F10104D5F1200ED7
:1002F0000DDB02FA0EFC22FA05F2801841F1000132
:1003000003FA0EF2801843FA05F359410EE0A5F105
:1003100020050EF1200E012A03FA0EFC28BF4CF036
:10032000020C43FA05F3C01851EBE37101F00045EC
:1003300007D54FF0000EDCF1000C7EEB00006EEBF9
:100340000101B1F5801F1BD3B1F5001F0CD3490883
:100350005FEA30004FEA3C0C04F101044FEA4452DA
:1003600012F5800F80F09A80BCF1004F08BF5FEA61
:10037000500C50F1000041EB045141EA050130BD41
:100380005FEA4C0C404141EB0101013C28BFB1F553
:10039000801FE9D291F0000F04BF01460020B1FA9E
:1003A00081F308BF2033A3F10B03B3F120020CDA71
:1003B0000C3208DD02F1140CC2F10C0201FA0CF04F
:1003C00021FA02F10CE002F11402D8BFC2F1200CB4
:1003D00001FA02F120FA0CFCDCBF41EA0C0190406A
:1003E000E41AA2BF01EB0451294330BD6FEA0404B3
:1003F0001F3C1CDA0C340EDC04F11404C4F120029E
:1004000020FA04F001FA02F340EA030021FA04F3AF
:1004100045EA030130BDC4F10C04C4F1200220FA06
:1004200002F001FA04F340EA0300294630BD21FA44
:1004300004F0294630BD94F0000F83F4801306BF0A
:1004400081F480110134013D4EE77FEA645C18BFFE
:100450007FEA655C29D094EA050F08BF90EA020F95
:1004600005D054EA000C04BF1946104630BD91EA8D
:10047000030F1EBF0021002030BD5FEA545C05D190
:100480004000494128BF41F0004130BD14F58004CF
:100490003CBF01F5801130BD01F0004545F0FE4143
:1004A00041F470014FF0000030BD7FEA645C1ABF78
:1004B000194610467FEA655C1CBF0B46024650EAAF
:1004C000013406BF52EA033591EA030F41F40021DB
:1004D00030BD00BF90F0000F04BF0021704730B561
:1004E0004FF4806404F132044FF000054FF0000136
:1004F00050E700BF90F0000F04BF0021704730B5F7
:100500004FF4806404F1320410F0004548BF4042CB
:100510004FF000013EE700BF42004FEAE2014FEA20
:1005200031014FEA02701FBF12F07F4393F07F4FFB
:1005300081F06051704732F07F4208BF704793F0FE
:100540007F4F04BF41F40021704730B54FF4607411
:1005500001F0004521F000411CE700BF50EA010214
:1005600008BF704730B54FF000050AE050EA0102BD
:1005700008BF704730B511F0004502D5404261EB2D
:1005800041014FF4806404F132045FEA915C3FF46E
:10059000D8AE4FF003025FEADC0C18BF03325FEA0B
:1005A000DC0C18BF033202EBDC02C2F1200300FABC
:1005B00003FC20FA02F001FA03FE40EA0E0021FAE1
:1005C00002F11444BDE600BF70B54FF0FF0C4CF4CF
:1005D000E06C1CEA11541DBF1CEA135594EA0C0F81
:1005E00095EA0C0F00F0DEF82C4481EA030621EABC
:1005F0004C5123EA4C5350EA013518BF52EA0335F7
:1006000041F4801143F4801338D0A0FB02CE4FF0A8
:100610000005E1FB02E506F00042E0FB03E54FF0D8
:100620000006E1FB03569CF0000F18BF4EF0010ED0
:10063000A4F1FF04B6F5007F64F5407404D25FEACC
:100640004E0E6D4146EB060642EAC62141EA55517F
:100650004FEAC52040EA5E504FEACE2EB4F1FD0CC1
:1006600088BFBCF5E06F1ED8BEF1004F08BF5FEA3F
:10067000500E50F1000041EB045170BD06F00046F1
:1006800046EA010140EA020081EA0301B4EB5C049E
:10069000C2BFD4EB0C0541EA045170BD41F4801196
:1006A0004FF0000E013C00F3AB8014F1360FDEBFBB
:1006B000002001F0004170BDC4F10004203C35DA97
:1006C0000C341BDC04F11404C4F1200500FA05F31A
:1006D00020FA04F001FA05F240EA020001F00042BB
:1006E00021F0004110EBD37021FA04F642EB060131
:1006F0005EEA430E08BF20EAD37070BDC4F10C045B
:10070000C4F1200500FA04F320FA05F001FA04F21E
:1007100040EA020001F0004110EBD37041F100010A
:100720005EEA430E08BF20EAD37070BDC4F1200515
:1007300000FA05F24EEA020E20FA04F301FA05F27D
:1007400043EA020321FA04F001F0004121FA04F225
:1007500020EA020000EBD3705EEA430E08BF20EAF5
:10076000D37070BD94F0000F0FD101F0004640002F
:1007700041EB010111F4801F08BF013CF7D041EAB1
:10078000060195F0000F18BF704703F000465200B5
:1007900043EB030313F4801F08BF013DF7D043EA86
:1007A0000603704794EA0C0F0CEA135518BF95EA3C
:1007B0000C0F0CD050EA410618BF52EA4306D1D1C3
:1007C00081EA030101F000414FF0000070BD50EAE2
:1007D000410606BF1046194652EA430619D094EA6C
:1007E0000C0F02D150EA013613D195EA0C0F05D156
:1007F00052EA03361CBF104619460AD181EA0301AA
:1008000001F0004141F0FE4141F470014FF0000061
:1008100070BD41F0FE4141F4780170BD70B54FF0FC
:10082000FF0C4CF4E06C1CEA11541DBF1CEA13557C
:1008300094EA0C0F95EA0C0F00F0A7F8A4EB05045E
:1008400081EA030E52EA03354FEA013100F0888055
:100850004FEA03334FF0805545EA131343EA12631E
:100860004FEA022245EA111545EA10654FEA0026D3
:100870000EF000419D4208BF964244F1FD0404F58C
:10088000407402D25B084FEA3202B61A65EB0305E8
:100890005B084FEA32024FF480104FF4002CB6EBA5
:1008A000020E75EB030E22BFB61A754640EA0C0025
:1008B0005B084FEA3202B6EB020E75EB030E22BF65
:1008C000B61A754640EA5C005B084FEA3202B6EBA6
:1008D000020E75EB030E22BFB61A754640EA9C0065
:1008E0005B084FEA3202B6EB020E75EB030E22BF35
:1008F000B61A754640EADC0055EA060E18D04FEAF3
:10090000051545EA16754FEA06164FEAC30343EA92
:1009100052734FEAC2025FEA1C1CC0D111F4801F5F
:100920000BD141EA00014FF000004FF0004CB6E758
:1009300011F4801F04BF01430020B4F1FD0C88BFF7
:10094000BCF5E06F3FF6AFAEB5EB030C04BFB6EB02
:10095000020C5FEA500C50F1000041EB045170BDF5
:100960000EF0004E4EEA113114EB5C04C2BFD4EB22
:100970000C0541EA045170BD41F480114FF0000EA6
:10098000013C90E645EA060E8DE60CEA135594EA22
:100990000C0F08BF95EA0C0F3FF43BAF94EA0C0F25
:1009A0000AD150EA01347FF434AF95EA0C0F7FF49A
:1009B00025AF104619462CE795EA0C0F06D152EAEE
:1009C00003353FF4FDAE1046194622E750EA4106D2
:1009D00018BF52EA43067FF4C5AE50EA41047FF4E3
:1009E0000DAF52EA43057FF4EBAE12E74FF0FF3C48
:1009F00006E000BF4FF0010C02E000BF4FF0010C19
:100A00004DF804CD4FEA410C7FEA6C5C4FEA430C91
:100A100018BF7FEA6C5C1BD001B050EA410C0CBFE0
:100A200052EA430C91EA030F02BF90EA020F002042
:100A3000704710F1000F91EA030F58BF994208BFA9
:100A400090422CBFD8176FEAE37040F00100704766
:100A50004FEA410C7FEA6C5C02D150EA013C07D1BD
:100A60004FEA430C7FEA6C5CD6D152EA033CD3D008
:100A70005DF8040B704700BF8446104662468C4602
:100A80001946634600E000BF01B5FFF7B7FF002835
:100A900048BF10F1000F01BD4DF808EDFFF7F4FF5E
:100AA0000CBF012000205DF808FB00BF4DF808EDE9
:100AB000FFF7EAFF34BF012000205DF808FB00BF0C
:100AC0004DF808EDFFF7E0FF94BF012000205DF82E
:100AD00008FB00BF4DF808EDFFF7CEFF94BF0120E3
:100AE00000205DF808FB00BF4DF808EDFFF7C4FFDC
:100AF00034BF012000205DF808FB00BF4FEA410C25
:100B00007FEA6C5C02D150EA013C0AD14FEA430C07
:100B10007FEA6C5C02D152EA033C02D14FF0000044
:100B200070474FF0010070474FEA410212F5001282
:100B300015D211D56FF47873B3EB625212D94FEA24
:100B4000C12343F0004343EA505311F0004F23FA0E
:100B500002F018BF404270474FF00000704750EA63
:100B6000013005D111F0004008BF6FF00040704720
:100B70004FF00000704700BF53B94AB9002908BFC1
:100B800000281CBF4FF0FF314FF0FF3000F070B96C
:100B9000ADF1080C6DE904CE00F006F8DDF804E0D4
:100BA000DDE9022304B070472DE9F047089E0D46A9
:100BB00004460F46002B4AD18A42944665D9B2FAC0
:100BC00082F343B102FA03FCC3F120029F4020FAF2
:100BD00002F217439C404FEA1C4E1FFA8CF5B7FBFC
:100BE000FEF1220C0EFB117742EA074201FB05F0F1
:100BF00090420AD91CEB020201F1FF3780F01C8100
:100C0000904240F2198102396244121AA4B2B2FB36
:100C1000FEF00EFB102244EA024400FB05F5A5425B
:100C20000AD91CEB040400F1FF3280F00781A542D1
:100C300040F204816444023840EA0140641B002110
:100C40001EB1DC400023C6E90043BDE8F0878B42BB
:100C500008D9002E00F0ED800021C6E90005084605
:100C6000BDE8F087B3FA83F1002949D1AB4202D342
:100C7000824200F2F880841A65EB030201201746D5
:100C8000002EE2D0C6E90047DFE702B9FFDEB2FA84
:100C900082F3002B40F090808A1A4FEA1C471FFA1B
:100CA0008CFE0121B2FBF7F507FB1520220C42EA6E
:100CB00000420EFB05F0904208D91CEB020205F140
:100CC000FF3802D2904200F2CB804546121AA4B2FD
:100CD000B2FBF7F007FB102244EA02440EFB00FED1
:100CE000A64508D91CEB040400F1FF3202D2A64548
:100CF00000F2BB801046A4EB0E0440EA05409FE7DB
:100D0000C1F120078B4022FA07FC4CEA030C05FADC
:100D100001F420FA07F3FD404FEA1C492343B5FBD9
:100D2000F9F81FFA8CFE09FB18551C0C44EA05441F
:100D300008FB0EF5A54202FA01F200FA01F00BD908
:100D40001CEB040408F1FF3A80F08880A54240F2D1
:100D50008580A8F102086444641B9DB2B4FBF9F3DA
:100D600009FB134445EA044403FB0EFEA64508D9DB
:100D70001CEB040403F1FF356CD2A6456AD9023B93
:100D8000644443EA0843A3FB0295A4EB0E04AC427F
:100D9000C846AE4656D353D056B1B0EB080264EB0A
:100DA0000E0404FA07F7CA40CC401743C6E90074A2
:100DB00018460021BDE8F087C3F1200102FA03FCC8
:100DC00020FA01F225FA01F19D402A434FEA1C471F
:100DD0001FFA8CFEB1FBF7F007FB1015110C41EA6E
:100DE000054100FB0EF58D4204FA03F408D91CEB13
:100DF000010100F1FF382FD28D422DD90238614414
:100E0000491B92B2B1FBF7F507FB151142EA01420B
:100E100005FB0EF1914208D91CEB020205F1FF38E7
:100E200016D2914214D9023D6244521A45EA004159
:100E300038E73146304608E73946E6E61046FBE635
:100E40004845A9D2B9EB020865EB0C0E013BA3E7BC
:100E50004546EAE72B4694E74046D1E7D0467BE794
:100E6000023D624432E708460AE76444023842E73A
:100E7000704700BF80B483B000AF7860064BD3F8F2
:100E8000902005497B681343C1F8903000BF0C37B0
:100E9000BD465DF8047B70470008005880B485B0FB
:100EA00000AF78604FF0B043DA6C4FF0B0417B6830
:100EB0001343CB644FF0B043DA6C7B681340FB60A4
:100EC000FB6800BF1437BD465DF8047B704780B4F3
:100ED00085B000AF78604FF0B043D3F84C214FF0AD
:100EE000B0417B681343C1F84C314FF0B043D3F8A5
:100EF0004C217B681340FB60FB6800BF1437BD4684
:100F00005DF8047B704780B500AF03F09BF803F0F9
:100F10009FF84FF48030FFF7ADFF08F081FC00F040
:100F200021F800F0C1F800BF80BD0000B0B588B066
:100F300000AF0B4B3C1D1D460FCD0FC495E80700BD
:100F400003C422800234130C23700AF097F83B1D6F
:100F5000184608F0DEFE00BF2037BD46B0BD00BF1A
:100F6000B8E4000880B588B000AF3B1D00221A60CD
:100F70005A609A60DA601A610023BB8300237B8386
:100F800000233B830023FB7736E0FB7F434ADB00F3
:100F900013449B79002B2CD0FB7F404A52F833300E
:100FA0003F4A93421BD03E4A934221D8B3F1904F1F
:100FB00003D03C4A934209D01AE0FB7F374ADB005A
:100FC00013449A88BB8B1343BB8312E0FB7F334AE5
:100FD000DB0013449A887B8B13437B8309E0FB7F00
:100FE0002E4ADB0013449A883B8B13433B8300E07B
:100FF00000BFFB7F0133FB77FB7F252BC5D9002387
:10100000FB600123BB6003233B61BB8B002B14D02F
:10101000BB8B7B600120FFF741FF0120FFF757FFEB
:101020003B1D19464FF0904003F006FDBB8B00229C
:1010300019464FF0904003F067FE7B8B002B12D0D7
:101040007B8B7B600220FFF729FF0220FFF73FFF29
:101050003B1D1946134803F0EFFC7B8B0022194619
:10106000104803F051FE3B8B002B13D03B8B7B6071
:101070000420FFF713FF0420FFF729FF3B1D19464B
:10108000074803F0D9FC3B8B00221946044803F0C3
:101090003BFE00BF00BF2037BD4680BD78EC000896
:1010A000000800480004004880B400AF00BFBD46FF
:1010B0005DF8047B704780B500AF01F0A3FB00BF73
:1010C00080BD80B584B000AFF8600B467A607B814C
:1010D0007A897B68F968002001F000FA00BF1037B8
:1010E000BD4680BD80B483B000AF7860074BD3F8B5
:1010F000803023F0070205497B681343C1F8803034
:1011000000BF0C37BD465DF8047B704700040058F3
:1011100080B483B000AF7860064BD3F890200549C7
:101120007B681343C1F8903000BF0C37BD465DF8B3
:10113000047B70470008005880B483B000AF78602B
:101140004FF0B0430A4AC3F89C204FF0B043D3F8A5
:101150009C3023F47C527B681B024FF0B041134358
:10116000C1F89C3000BF0C37BD465DF8047B70476A
:10117000FECAFECA80B483B000AF78604FF0B043BF
:101180009B6823F400424FF0B0417B6813438B60AF
:1011900000BF0C37BD465DF8047B704780B400AFDC
:1011A000044B1B68C3F30B031846BD465DF8047B74
:1011B000704700BF002004E080B400AF044B1B6800
:1011C0001B0C9BB21846BD465DF8047B704700BF00
:1011D000002004E080B483B000AF78607B68FF2219
:1011E0005A6200BF0C37BD465DF8047B704780B47F
:1011F00083B000AF78607B68CA225A627B68532252
:101200005A6200BF0C37BD465DF8047B704780B45E
:1012100083B000AF786039607B689B6823F0070279
:101220003B681A437B689A6000BF0C37BD465DF887
:10123000047B704780B500AF044B4FF400421A6145
:1012400000F030F800F035F800BF80BD00400058D5
:1012500080B500AF00F041F800F05AF809490020CD
:1012600000F0ACFEFFF74FFE0121012009F0A4FFC2
:1012700000F07CF900F08AF900F0F4F900F058F879
:1012800000BF80BD8404002080B400AF00BFBD4615
:101290005DF8047B704780B500AF5020FFF738FF42
:1012A00000BF80BD80B400AF00BFBD465DF8047BC9
:1012B000704780B582B000AF002008F0EBFC78608A
:1012C0007B68002B05D07B689B791846FFF734FFBD
:1012D00000BF00BF0837BD4680BD80B500AFFFF737
:1012E000D3FFFFF7D8FF00F003F800BF80BD000078
:1012F00080B500AF0548FFF77AFF00210348FFF7EC
:1013000086FF0248FFF766FF00BF80BD002800404F
:1013100080B500AF4FF40040FFF72CFF09F03AFF13
:101320000420FFF7DFFE03F0E9FD00BF80BD0000F1
:1013300080B588B000AF09F0EBFC114A00214FF4F2
:1013400080700AF065F80F4B3B600F4B7B603B46AB
:1013500019460E4808F0B8FD0D4BBB600D4BFB6005
:101360000D4B3B6140F23C537B6107F1080318468B
:1013700009F010FE09F0C6FC00BF2037BD4680BD55
:10138000019F0008340703209D130008B5130008CF
:101390004C09032040080320F801032080B483B0E7
:1013A00000AF0346FB7100BF0C37BD465DF8047B00
:1013B0007047000080B588B000AF78607B685B68DC
:1013C0000B33FB61FB691B889BB2A3F51243072B10
:1013D00048D801A252F823F0F91300080B140008B2
:1013E0001914000865140008351400084514000895
:1013F0004D1400085D14000807F10C03184608F0AE
:10140000B5FC786800F068F82DE019480AF06AFE2B
:10141000786800F03BF826E016480AF0C9FEFB6940
:1014200002331968FB6902335B681A4612480AF0F6
:1014300059FE18E0FB6902331B6819460F480AF091
:1014400051FE10E00E480AF04DFE0CE0FB6902333D
:101450001B6819460B480AF045FE04E00A480AF0EA
:1014600041FE00E000BF00BF2037BD4680BD00BF89
:10147000D4E40008F8E4000848E5000870E5000836
:10148000ACE50008D0E500080CE6000880B584B0A3
:1014900000AF78607B685B680B33FB60FB680233EE
:1014A000BB60BB681B78194608480AF01BFEBB6886
:1014B0001B78002B03D106480AF07AFE03E00548AA
:1014C0000AF076FE00BF1037BD4680BD30E600084A
:1014D00060E600089CE6000880B58AB000AF78603E
:1014E00007F1080300221A605A609A60DA6000234C
:1014F0007B6200233B627B685B680B33FB61FB69AB
:101500000233BB61BB691B78002B1DD1FFF70EFDB9
:101510000F233B727F23BB72FFF74EFE78627B6A1C
:101520009BB2BB82FFF73AFE38623B6A9BB2FB82FA
:1015300007F10803184608F003FC01F085FC0021C0
:10154000012009F039FE0BE0BB691B78012B03D1A8
:101550007B6800221A7003E003480AF0C3FD00BF55
:101560002837BD4680BD00BFD4E6000880B500AF77
:10157000002002F05BFB012002F058FB022002F089
:1015800055FB012002F08CFB00BF80BD80B500AF91
:101590000121002002F0B8FB0121012002F0B4FB80
:1015A0000121022002F0B0FB00BF80BD80B500AF7A
:1015B0004FF0FF3009F030FE00BF80BD80B400AFB7
:1015C00000BFBD465DF8047B704780B582B000AFB8
:1015D000786039604FF0FF3009F01EFE00BF083719
:1015E000BD4680BD80B582B000AF786000214FF469
:1015F000807009F02FFF00BF0837BD4680BD80B561
:1016000082B000AF7860022009F090FF00BF083779
:10161000BD4680BD80B582B000AF7860022009F081
:10162000A5FF00BF0837BD4680BD80B582B000AFC2
:101630000346FB80FB88402B0CD0402B0DDC012B9C
:1016400002D0102B03D008E001F0D8FD06E001F035
:10165000E5FD03E001F0EAFD00E000BF00BF083750
:10166000BD4680BD80B500AF034B01220349002079
:1016700000F010FF00BF80BD81160008940200201A
:1016800080B500AF154B1B88FF2B1ED8144B1B7861
:101690000D2B0FD1134914480AF024FD00F028F84F
:1016A0000E4B00221A804FF4807200210D480AF080
:1016B0007FFE0AE0094B1B885A1C91B2074A118031
:1016C0001A46074B1978074B9954084B01220449D5
:1016D000002000F0DFFE00BF80BD00BF9C030020A3
:1016E000940200209C02002008E7000881160008F0
:1016F00080B500AF1C491D48FEF742FD0346002B94
:101700000AD11B480AF054FD1A4B4FF0B0521A6030
:10171000184803F06FF925E017491448FEF730FD2B
:101720000346002B09D115480AF042FD114B144A1B
:101730001A60104803F05EF914E012490B48FEF7F6
:101740001FFD0346002B09D10F480AF031FD094B5C
:101750000E4A1A60074803F04DF903E003490C48AC
:101760000AF0C0FC00BF80BD18E700089C02002002
:101770001CE700088C02002024E7000828E7000886
:101780000400001630E7000834E7000806000016E1
:101790003CE7000880B483B000AF7860064BD3F814
:1017A000802005497B681343C1F8803000BF0C37A7
:1017B000BD465DF8047B70470008005880B483B0D4
:1017C00000AF7860054B1A6804497B6813430B60CF
:1017D00000BF0C37BD465DF8047B70470008005819
:1017E00080B483B000AF0D4B9B6A9BB27B600B4B08
:1017F0009B6A9BB23B6005E03B687B60074B9B6A42
:101800009BB23B607A683B689A42F5D13B681846C8
:101810000C37BD465DF8047B704700BF00280040D0
:1018200080B485B000AF03460A46FB711346BB7116
:10183000BA791D4913465B001344DB000B44153392
:101840001B78FB73FB7B062B09D0FA7B16491346EA
:101850005B001344DB000B441433FA791A70FA79F5
:10186000114913465B001344DB000B441533FA7B2C
:101870001A70FA790C4913465B001344DB000B44E1
:101880001433BA791A70BA79074913465B001344C6
:10189000DB000B441533FA791A7000BF1437BD46CC
:1018A0005DF8047B704700BFA003002080B485B0C2
:1018B00000AF03460A46FB711346BB71294B1B78E8
:1018C000DBB2BA799A4232D0BA79274913465B0023
:1018D0001344DB000B4414331B78FB73FA7B22495F
:1018E00013465B001344DB000B441533FA791A707E
:1018F000FA791D4913465B001344DB000B44153392
:10190000BA791A70FA79184913465B001344DB0060
:101910000B441433FA7B1A70BA79134913465B00EF
:101920001344DB000B441433FA791A7014E0FA798B
:101930000D4913465B001344DB000B441533BA79A1
:101940001A70BA79084913465B001344DB000B4454
:101950001433FA791A7000BF1437BD465DF8047B62
:10196000704700BF30040020A003002080B584B081
:1019700000AF0346FB714E4B1B78DBB2062B18D130
:101980004B4B1B78DAB24B4B1A70494AFB791370F8
:10199000FA79494913465B001344DB000B441533C5
:1019A00006221A70454B4FF0FF321A600023FB816C
:1019B00078E000F009F90346FB81FA793E491346C5
:1019C0005B001344DB000B4408331968FB89FA7988
:1019D0001944394813465B001344DB0003440833C1
:1019E0001960FA79344913465B001344DB000B4459
:1019F00008331B68BB602E4B1B78DBB219462E4A9E
:101A00000B465B000B44DB00134408331B68BA68C9
:101A10009A4237D3264B1B787B737A7B2649134631
:101A20005B001344DB000B4415331B783B7313E05E
:101A30007A7B214913465B001344DB000B441533CA
:101A40001B787B737A7B1C4913465B001344DB00D5
:101A50000B4415331B783B733B7B062B0BD03A7B37
:101A6000154913465B001344DB000B4408331B6825
:101A7000BA689A42DCD27A7BFB7911461846FFF7A6
:101A8000CFFE0FE00A4B1B78DAB2FB7911461846FD
:101A9000FFF70CFF064B1B78DAB2064B1A70044AAC
:101AA000FB791370FB8918461037BD4680BD00BF17
:101AB0003004002031040020A00300203404002062
:101AC00080B485B000AF03460A46FB711346BB7174
:101AD000394B1B78DBB2FA799A4211D1364B1B781D
:101AE000DAB2364B1A70FA79354913465B00134463
:101AF000DB000B4415331B78DAB22F4B1A703EE033
:101B0000FA792F4913465B001344DB000B4414336E
:101B10001B78FB73FA792A4913465B001344DB00F8
:101B20000B4415331B78BB73F979FA7B24480B46B9
:101B30005B000B44DB00034415331B78D8B220490B
:101B400013465B001344DB000B44153302461A7046
:101B5000BB7B062B13D0F979BA7B19480B465B0087
:101B60000B44DB00034414331B78D8B214491346EA
:101B70005B001344DB000B44143302461A70FA79FD
:101B80000F4913465B001344DB000B440C33012266
:101B90001A70094B1B78DBB2062B07D1BB79002BDF
:101BA00004D1084B4FF0FF321A6000BF00BF14375A
:101BB000BD465DF8047B70473004002031040020EE
:101BC000A00300203404002080B582B000AF1A4B7F
:101BD0001B68B3F1FF3F26D0FFF702FE7860164B7B
:101BE0001B687A689A4205D8134B1A687B68D31A27
:101BF0007B600AE0114B1B881A467B68D31A3B6056
:101C00000D4B1B683A6813447B600D4B1B781A46DA
:101C10007B6802FB03F37B600A4B1B781A467B68E8
:101C2000D3407B6001E000237B607B689BB2184659
:101C30000837BD4680BD00BF340400203C040020AE
:101C40003A0400203904002080B582B000AF03467A
:101C5000FB80FB88002B08D1FFF7C2FD0346214A19
:101C60001360032002F077FB39E0FB88012B03D8D7
:101C70001D4B1B78012B02D0FB88013BFB8000BF72
:101C80001A4B1B68DB6803F00403002BF8D0174BDA
:101C90001B68DB68DAB2154B1B6862F49062DA608D
:101CA000134B4FF40022DA60032002F062FB114B69
:101CB0005B691B0C1B04FA880E4913434B61FFF749
:101CC0008FFD0346074A1360084B1B689A68074B51
:101CD0001B6842F480629A60AFF3008000BF08374F
:101CE000BD4680BD34040020390400208404002057
:101CF000000800580028004080B584B000AF454B74
:101D00009B6803F48063B3F5806F07D100BF424B3B
:101D10001B68DB6803F00403002BF8D13E4B1B6803
:101D20009A683D4B1B6822F480629A603B4B1B789B
:101D3000FB73FA7B3A4913465B001344DB000B4408
:101D400008331B68BB60FFF73FFF0346FB80FB883F
:101D5000BA689A4205D20023BB81324B01221A7025
:101D60004DE0FB88304A128892B213441A46BB6891
:101D7000934206D92C4B1B88BB812A4B00221A7038
:101D80003DE0BB689AB2FB88D31ABB81254B012288
:101D90001A7034E0FA7B224913465B001344DB00DF
:101DA0000B4408331A68FB889A420AD2FA7B1C4912
:101DB00013465B001344DB000B44083300221A6017
:101DC00013E0FA7B164913465B001344DB000B4417
:101DD00008331968FB88FA7BC91A114813465B005F
:101DE0001344DB00034408331960FA7B0C491346A3
:101DF0005B001344DB000B4415331B78FB73FB7B48
:101E0000062BC7D1BB891846FFF71EFF00BF10374E
:101E1000BD4680BD0028004084040020300400201E
:101E2000A0030020380400203E04002080B58AB0C2
:101E300000AFEFF310837B617B697B6272B600BFFA
:101E4000594B1B68CA225A62574B1B6853225A626D
:101E5000554B1B689A68544B1B6822F480629A6049
:101E6000524B1B7887F8233097F8232050491346AC
:101E70005B001344DB000B440C331B78DBB2022BFA
:101E80006ED197F823204A4913465B001344DB00C8
:101E90000B441B68FB6197F82320454913465B0000
:101EA0001344DB000B4410331B68BB61414B1B78B0
:101EB000DBB2002B4CD097F823203D4913465B0042
:101EC0001344DB000B440D331B78DBB2012B24D110
:101ED00097F8233001211846FFF7F2FD7B6A3B613A
:101EE0003B6983F3108800BF97F8232030491346DD
:101EF0005B001344DB000B4404331A6897F823306B
:101F00001146184600F032FA274B1B68CA225A6263
:101F1000254B1B6853225A6212E07B6AFB60FB6808
:101F200083F3108800BF97F82330184600F09AF921
:101F30001D4B1B68CA225A621B4B1B6853225A62F4
:101F400097F82330FA691946B86900F095FA22E04B
:101F5000FFF7D2FE7B6ABB60BB6883F310881AE090
:101F600000BF114B1B68DB6803F00403002BF8D0A3
:101F70000D4B1B68DB68DAB20B4B1B6862F4906296
:101F8000DA600D4B4FF40022DA607B6A7B607B687D
:101F900083F3108800BF044B1B68FF225A6200BF06
:101FA0002837BD4680BD00BF8404002030040020D7
:101FB000A0030020380400200008005880B588B035
:101FC00000AF03463960FB715E4B1B68CA225A6240
:101FD0005C4B1B6853225A625B4B9B685A4A43F026
:101FE00020039360584B9B68DBB203F00703DBB21E
:101FF000C3F10403DAB2554B1A70534B1B6903F457
:10200000FE034FF4FE023A613A6992FAA2F2FA60D4
:10201000FA687A617A69002A01D1202203E07A699C
:10202000B2FA82F2D2B2D340DBB20133DAB2484B19
:102030001A70454B1B699BB2C3F30E039BB201336D
:102040009AB2444B1A80434B1B88013B404A12789A
:1020500002FB03F3A3F5A0733C4A1278D340BB61A3
:10206000BB694FF6FE72934204D93B4B4FF6FF72A9
:102070001A8003E0BB699AB2374B1A804FF40020F4
:10208000FFF79CFB4FF40020FFF784FBFB79002B4C
:102090003DD1324B01221A70314B4FF0FF321A60A2
:1020A0000023FB770CE0FA7F2E4913465B001344B4
:1020B000DB000B440C3300221A70FB7F0133FB77EB
:1020C000FB7F052BEFD9284B06221A701D4B1B688E
:1020D0009A681C4B1B6822F480629A60194B1B683B
:1020E000DB68DAB2174B1B6862F49062DA601F4B50
:1020F0004FF40022DA60032002F03BF9114B1B6819
:102100009A68104B1B6842F480429A6009E00D4BBC
:102110001B68DB6803F48063002B02D0032002F00D
:102120001AF9084B1B68FF225A6200220321032080
:1021300002F0CFF8032002F0E6F800BF2037BD46DA
:1021400080BD00BF84040020002800403904002026
:102150003A0400203C0400203E0400203804002003
:1021600034040020A00300203004002000080058A0
:1021700080B48BB000AFF860B9603B601346FB7170
:10218000002387F82630EFF31083FB61FB693B6285
:1021900072B600BF04E097F82630013387F8263086
:1021A00097F82630052B0CD897F826202C49134693
:1021B0005B001344DB000B440C331B78DBB2002BB9
:1021C000E9D197F82630062B38D097F826202449F5
:1021D00013465B001344DB000B440C3301221A70DE
:1021E0003B6ABB61BB6983F3108800BF97F8262068
:1021F0001B4913465B001344DB000B441033FA68A1
:102200001A6097F82620164913465B001344DB003A
:102210000B440D33FA791A7097F8262010491346AB
:102220005B001344DB000B443A681A60BB6897F804
:1022300026201A70002387F8273008E03B6A7B616C
:102240007B6983F3108800BF012387F8273097F854
:10225000273018462C37BD465DF8047B704700BF19
:10226000A003002080B586B000AF0346FB71EFF3FA
:102270001083FB60FB687B6172B600BF032002F035
:1022800050F8344B1B68CA225A62324B1B685322E7
:102290005A62FA79304913465B001344DB000B4461
:1022A0000C331B78DBB2022B42D1FB79002118469C
:1022B000FFF706FC294B1B78FB74FB7C062B2FD108
:1022C000274B9B6803F48063B3F5806F07D100BF91
:1022D000204B1B68DB6803F00403002BF8D11D4B77
:1022E0001B689A681B4B1B6822F480629A6000BFCF
:1022F000184B1B68DB6803F00403002BF8D0154B68
:102300001B68DB68DAB2134B1B6862F49062DA6018
:10231000144B4FF40022DA60032002F02AF807E0A1
:10232000114B1B78DBB2FA7C9A4201D0FFF7E4FC38
:10233000084B1B68FF225A62032001F0E4FF7B690F
:10234000BB60BB6883F3108800BF00BF1837BD4671
:1023500080BD00BF84040020A003002030040020C2
:1023600000280040000800583104002080B586B0E5
:1023700000AF03463960FB71FA793B4913465B00B5
:102380001344DB000B440C331B78DBB2022B03D16C
:10239000FB791846FFF766FFEFF31083FB60FB68DD
:1023A0007B6172B600BF032001F0BBFF2F4B1B689F
:1023B000CA225A622D4B1B6853225A62FA792A4963
:1023C00013465B001344DB000B440C3302221A70EB
:1023D000FA79254913465B001344DB000B440833AC
:1023E0003A681A60FA79204913465B001344DB000F
:1023F0000B4404333A681A60FB791846FFF7B6FAC3
:1024000003467B821A4B1B787B741A4B1B78DBB21A
:102410007A7C9A4202D0FFF76FFC13E0FA791249F6
:1024200013465B001344DB000B44083319687B8AB6
:10243000FA79C91A0C4813465B001344DB000344C5
:1024400008331960094B1B68FF225A62032001F010
:102450005AFF7B69BB60BB6883F3108800BF00BF75
:102460001837BD4680BD00BFA003002084040020B3
:10247000300400203104002080B584B000AFF86043
:102480000B467A60FB727B68984700BF1037BD46E9
:1024900080BD000080B584B000AFB9607B600346AA
:1024A000FB731346BB81FB7B002B0CD1084A7B6876
:1024B0001360084B084A1A60BB891A46B968054878
:1024C00004F0B4FA00E000BF00BF1037BD4680BD85
:1024D00040040020A80400200038014080B586B0E8
:1024E00000AFB9607B600346FB731346BB810023DA
:1024F000FB750023BB75FB7B002B0ED1174A7B6855
:102500001360174B174A1A60BB891A46B9681448FA
:1025100004F0D8FA0346FB7500E000BFFB7D032BF7
:1025200016D801A252F823F0392500083F250008EB
:10253000452500084B2500080023BB7509E0012351
:10254000BB7506E00223BB7503E00323BB7500E007
:1025500000BFBB7D18461837BD4680BD440400202F
:10256000A80400200038014080B582B000AF786038
:102570007B681B681A46094B9A4207D1084B1B68B7
:10258000002B05D0064B1B68984701E000BF00E018
:1025900000BF00BF0837BD4680BD00BF0038014006
:1025A0004004002080B582B000AF78607B681B6873
:1025B0001A46094B9A4207D1084B1B68002B05D0DD
:1025C000064B1B68984701E000BF00E000BF00BF5A
:1025D0000837BD4680BD00BF0038014044040020DC
:1025E00080B483B000AF78604FF0B043D3F8903040
:1025F00023F018024FF0B0417B681343C1F89030CC
:1026000000BF0C37BD465DF8047B704780B485B0D1
:1026100000AF78604FF0B0439A6C4FF0B0417B68E8
:1026200013438B644FF0B0439A6C7B681340FB609C
:10263000FB6800BF1437BD465DF8047B704780B46B
:1026400085B000AF78604FF0B043DA6C4FF0B04126
:102650007B681343CB644FF0B043DA6C7B68134064
:10266000FB60FB6800BF1437BD465DF8047B704714
:1026700080B500AF01F060FCFEF7DCFD00F011F862
:1026800000F05BF800F07AF800F01CF900F008F9AF
:1026900000F088F800F0B6F8FEF7DAFDFEF786FFE6
:1026A000FCE780B598B000AF07F11C03442200217D
:1026B000184609F07DFE3B4600221A605A609A6077
:1026C000DA601A615A619A6102F0F8FB0020FFF7A4
:1026D00087FF0723FB614FF480333B6201237B625A
:1026E0004FF48073BB624023FB6200237B6407F1DD
:1026F0001C03184602F04AFF0346002B01D000F0ED
:10270000EBF86F233B6002237B600023BB60002358
:10271000FB6000233B6100237B610023BB613B46E0
:102720000121184603F068FA0346002B01D000F09F
:10273000D3F800BF6037BD4680BD80B58CB000AF18
:102740003B4630220021184609F032FE4FF4405338
:102750003B604FF480437B620223BB621023FB6229
:102760003B46184603F00AFE0346002B01D000F05A
:10277000B3F800BF3037BD4680BD000080B500AF64
:10278000064B074A1A60054802F012FB0346002B6D
:1027900001D000F0A1F800BF80BD00BF48040020B8
:1027A000000C005880B500AF144B154A1A60134B4B
:1027B00000225A60114B0F229A60104B47F6FF72AD
:1027C000DA600E4B00221A610C4B00229A610B4B0F
:1027D00000225A61094803F0C7FE0346002B01D0CE
:1027E00000F07AF800220021044803F0BDFF034600
:1027F000002B01D000F070F800BF80BD84040020E1
:102800000028004080B500AF234B244A1A60224BB9
:102810004FF4E1325A60204B00229A601E4B002296
:10282000DA601D4B00221A611B4B0C225A611A4BB5
:1028300000229A61184B4FF40042DA61164B0022D5
:102840001A62154B00225A62134B00229A621248F8
:1028500004F09CF80346002B01D000F03DF8002165
:102860000D4806F0E8F80346002B01D000F034F8DC
:102870000021094806F01DF90346002B01D000F0A5
:102880002BF8054806F09EF80346002B01D000F017
:1028900023F800BF80BD00BFA8040020003801401D
:1028A00080B500AF0420FFF7B1FE0120FFF7AEFEB8
:1028B00000220F210E2001F00CFD0E2001F023FD5F
:1028C00000BF80BD80B500AF0420FFF7B8FE012037
:1028D000FFF7B5FE00BF80BD80B400AF00BFBD46AE
:1028E0005DF8047B704780B483B000AF78604FF030
:1028F000B043D3F8903023F440724FF0B0417B687E
:102900001343C1F8903000BF0C37BD465DF8047B1F
:10291000704780B400AF4FF0B043D3F890304FF021
:10292000B04243F40043C2F8903000BFBD465DF8AA
:10293000047B704780B485B000AF78604FF0B0433F
:10294000DA6C4FF0B0417B681343CB644FF0B04377
:10295000DA6C7B681340FB60FB6800BF1437BD4630
:102960005DF8047B704780B485B000AF78604FF0AD
:10297000B0431A6D4FF0B0417B6813430B654FF0C5
:10298000B0431A6D7B681340FB60FB6800BF1437CF
:10299000BD465DF8047B704780B485B000AF7860B9
:1029A0004FF0B0439A6D4FF0B0417B6813438B6595
:1029B0004FF0B0439A6D7B681340FB60FB6800BF2B
:1029C0001437BD465DF8047B704780B485B000AF16
:1029D00078604FF0B0431A6E4FF0B0417B681343FC
:1029E0000B664FF0B0431A6E7B681340FB60FB68C8
:1029F00000BF1437BD465DF8047B704780B500AF5B
:102A00004FF40020FFF7AFFF002200212E2001F03D
:102A100060FC2E2001F077FC00BF80BD80B582B045
:102A200000AF78607B681B680D4A934213D14FF466
:102A30008010FFF798FF002200212C2001F049FCB4
:102A40002C2001F060FC002200212D2001F041FC2F
:102A50002D2001F058FC00BF0837BD4680BD00BFE7
:102A6000000C005880B58EB000AF786007F1080305
:102A700030220021184609F09BFC7B681B68184A2D
:102A8000934228D102F01AFA02F018FA4FF480703B
:102A9000FFF729FF4FF40063BB604FF48073BB6204
:102AA00007F10803184603F069FC0346002B01D028
:102AB000FFF712FFFFF72DFF4FF48060FFF76CFF69
:102AC00000220021032001F004FC032001F01BFC84
:102AD000786803F005FF00BF3837BD4680BD00BFF2
:102AE0000028004080B594B000AF786007F13C0347
:102AF00000221A605A609A60DA601A6107F10C03CA
:102B000030220021184609F053FC7B681B682F4ACD
:102B1000934257D10123FB6000233B6107F10C0373
:102B2000184603F02BFC0346002B01D0FFF7D4FE20
:102B30004FF48040FFF749FF0120FFF7FBFE4FF401
:102B4000C063FB6302233B6401237B640323BB64F8
:102B50000723FB6407F13C0319464FF0904001F056
:102B60006BFF1B4B1B4A1A60194B0F225A60184B04
:102B700010229A60164B0022DA60154B80221A61EF
:102B8000134B00225A61124B00229A61104B002213
:102B9000DA610F4B00221A620D4801F0F9FB03467F
:102BA000002B01D0FFF798FE7B68094ADA67084AD4
:102BB0007B68936200220021242001F08AFB2420FC
:102BC00001F0A1FB00BF5037BD4680BD0038014079
:102BD0003C0500204400024080B400AFFEE780B412
:102BE00000AFFEE780B400AFFEE780B400AFFEE7C1
:102BF00080B400AFFEE780B400AF00BFBD465DF813
:102C0000047B704780B400AF00BFBD465DF8047B15
:102C1000704780B400AF00BFBD465DF8047B7047CD
:102C200080B500AF01F0E2F900BF80BD80B500AF14
:102C3000FFF7FCF800BF80BD80B500AF024801F08F
:102C40006CFD00BF80BD00BF3C05002080B500AF1B
:102C5000024803F0B7FF00BF80BD00BFA8040020FA
:102C600080B500AF00F054FE00BF80BD80B500AF5E
:102C700000F084FE00BF80BD80B500AF02F074F8A4
:102C800000BF80BD80B500AF012002F055F800BF45
:102C900080BD80B500AF102002F04EF800BF80BDAF
:102CA00080B500AF402002F047F800BF80BD80B47F
:102CB00000AF01231846BD465DF8047B704780B520
:102CC00082B000AF7860396009F0D4FB0346162269
:102CD0001A604FF0FF3318460837BD4680BD80B5F7
:102CE00082B000AF78604FF0FF317868FFF7E7FF00
:102CF000FEE780B586B000AFF860B9607A60002367
:102D00007B610AE0AFF300800146BB685A1CBA60E1
:102D1000CAB21A707B6901337B617A697B689A4217
:102D2000F0DB7B6818461837BD4680BD80B483B0A1
:102D300000AF78604FF0FF3318460C37BD465DF8A2
:102D4000047B704780B483B000AF786039603B6823
:102D50004FF400525A60002318460C37BD465DF808
:102D6000047B704780B483B000AF786001231846BD
:102D70000C37BD465DF8047B704780B485B000AF6A
:102D8000F860B9607A60002318461437BD465DF8D4
:102D9000047B704780B586B000AF7860144A154B4D
:102DA000D31A7B617B693B61134B1B68002B02D1FB
:102DB000114B124A1A60104B1A687B6813443A6927
:102DC0009A4207D209F056FB03460C221A604FF0D4
:102DD000FF3309E0084B1B68FB60074B1A687B68F0
:102DE0001344054A1360FB6818461837BD4680BD7A
:102DF00000300020001000009C050020F01800208A
:102E000080B400AF034B1B681846BD465DF8047BD9
:102E1000704700BF8075FF1F80B400AF034B1B6875
:102E2000DBB21846BD465DF8047B70478475FF1F12
:102E300080B400AF034B1B681B0A1846BD465DF803
:102E4000047B70478475FF1FB0B590B000AF92232C
:102E500087F83F302C4B3C1D1D460FCD0FC40FCDC6
:102E60000FC40FCD0FC495E8070003C4228000F003
:102E7000EFF90121022008F09FF9244A00211020D7
:102E800008F0C6FA3B1D184606F02CFF034687F8EB
:102E90003E3097F83E30002B07D097F83E30194669
:102EA0001B4809F01FF9FFF717FD00F0E7F907F0DD
:102EB00081FE184A0021012008F0AAFA164A0021D2
:102EC000022008F0A5FA154B002283F8802020206C
:102ED00006F0F6FB034687F83F3097F83F30002BAB
:102EE00005D097F83F3019460D4809F0FBF80D4B17
:102EF00000220D490020FFF73BF90C4809F0F2F8D9
:102F000000BF4037BD46B0BD48E8000855990008ED
:102F1000A0E700089D34000805350008B005002032
:102F2000D8E7000889350008310600201CE80008B1
:102F30002DE9B04FAEB00EAF78607B6801337B6790
:102F40007B6F1B783E2B40F043817B6F02333B67E6
:102F50003B6F1B78022B40F037813B6F0133FB66E0
:102F6000FB6E5B7887F86B30FB6E093301337B6651
:102F700097F86B30032B40F02981994B1B7887F829
:102F8000443007F1450300221A800023BB6307F198
:102F90003C0300221A605A600523FB6719E0FA6EB1
:102FA000FB6F134403331B7887F8493097F84920A7
:102FB00007F144038B49184609F002F907F144026E
:102FC00007F138031146184609F0FAF9FB6F013B87
:102FD000FB67FB6F002BE2DA834B1A6807F13803BB
:102FE00011461846FDF7CCF80346002B0BD07F4B5B
:102FF0001A6807F1380311461846FDF7C1F8034671
:10300000002B40F0E380764B1B7887F8343007F1D3
:10301000350300221A800023FB6007F11003002211
:103020001A605A609A60DA601A615A619A610023E4
:10303000BB671AE0BB6F06331A467B6E13441B78DE
:1030400087F84A3097F84A2007F134036549184653
:1030500009F0B6F807F1340207F10C0311461846DF
:1030600009F0AEF9BB6F0133BB67BB6F0F2BE1DD1E
:103070005F4B1A6807F10C0311461846FDF780F8FC
:103080000346002B40F0A2807B6E04331B781B02AA
:103090001AB27B6E05331B781BB213431BB2A7F821
:1030A00062307B6E16331B781B021AB27B6E1733AD
:1030B0001B781BB213431BB2A7F860307B6E18332A
:1030C0001B781B021AB27B6E19331B781BB2134399
:1030D0001BB2A7F85E307B6E1A331B781B021AB244
:1030E0007B6E1B331B781BB213431BB2A7F85C30FB
:1030F000B7F8623007EE903AF8EE677A9FED3D7AC6
:1031000067EE877AC7ED167AB7F8603007EE903A27
:10311000F8EE677A9FED377A67EE877AC7ED157A12
:10312000B7F85E3007EE903AF8EE677A9FED317AA5
:1031300067EE877AC7ED147AB7F85C3007EE903AFD
:10314000F8EE677A9FED2B7A67EE877AC7ED137AF0
:10315000FB6E5B7A1A467B6E13441B7887F84B3004
:103160004BF2C203FB6200233B86B86DFDF7D4F936
:1031700082468B46786DFDF7CFF904460D46386DD3
:10318000FDF7CAF980468946F86CFDF7C5F9024695
:103190000B4697F94B100D9107F12C010C91CDE9DD
:1031A0000A2307F12C030893CDE9068907F12C03C4
:1031B0000493CDE9024507F12C03009352465B4688
:1031C0000D4808F08FFF01E000BF02E000BF00E003
:1031D00000BF012318468037BD46BDE8B08F00BF51
:1031E000E4E8000884E800080C000020100000203B
:1031F000080000200000003C8CE8000880B500AF0B
:1032000000F070FA0346062B04D00021012008F0DC
:1032100021F901E000F05DFA00BF80BD80B400AF8D
:1032200000BFBD465DF8047B7047000080B500AF6D
:10323000022000F035FD002000F04CFD034808F0AE
:1032400051FF802005F086FF00BF80BDE8E8000840
:1032500080B582B000AF064B3B60064B7B603B46BF
:103260001946054806F05AFB00BF0837BD4680BD29
:10327000280003209D36000865360008F0B58DB0A3
:1032800006AF00233B809223FB7506F06DFA0346E0
:10329000FB75FB7D002B04D0FB7D1946704808F0C0
:1032A00021FF00F079F938613A690621002006F023
:1032B0001BF90346FB75FB7D002B04D0FB7D1946F3
:1032C000684808F00FFF684A1021182006F00CF932
:1032D0000346FB75FB7D002B04D0FB7D194663483C
:1032E00008F000FF624A1021082006F0FDF80346AE
:1032F000FB75FB7D002B04D0FB7D19465D4808F073
:10330000F1FE1821012006F074F90346FB75FB7DE0
:10331000002B04D0FB7D1946574808F0E3FE06F069
:1033200015F80346FB75FB7D002B04D0FB7D194689
:10333000524808F0D7FE0023FB73FB7B43F00803E1
:10334000FB73FB7B002B27D04D4BBB60BA1DF87B7A
:10335000BB1C01933B1D009313460722002105F07F
:103360004DFD0346FB75FB7D002B04D0FB7D19460C
:10337000444808F0B7FEFC88BD88B868FCF760FFD9
:103380000346DAB2BB680093134600222946204662
:1033900006F001F80346FB75F88879883B460093F0
:1033A0000223002205F0F7FF0346FB75364B01228E
:1033B0001A70354B1B78184605F008FC0346FB7560
:1033C000FB7D002B04D0FB7D1946304808F08AFEB7
:1033D0002D4B01225A702C4B08221A712A4B1022B5
:1033E0005A71294B0122DA70274B294A9A60264BE1
:1033F00001229A70244B9C78234B5D78224B1B79D9
:10340000214A52792049C9781F48806800260496CD
:103410000390029101920093002301222946204645
:1034200005F028FC0346FB75FB7D002B04D0FB7DDB
:103430001946184808F056FE134B9B78002B0BD00A
:1034400005F089FD0346FB75FB7D002B04D0FB7D59
:103450001946114808F046FE00BF1C37BD46F0BDB6
:1034600018E9000848E90008B0ED0008A4E90008E0
:10347000C0ED0008FCE9000854EA000894EA0008DE
:10348000C8EA0008D0EA0008B005002000EB0008F8
:1034900007B2010040EB00088CEB000880B584B057
:1034A00002AF154B93F88030062B21D0002000F09E
:1034B000F7FB022000F00EFC002301930123009390
:1034C000002300224FF480414FF4804005F096FE27
:1034D0000346FB71FB79002B03D1084808F002FE7C
:1034E00006E0022000F0DCFB054808F0FBFD00BF11
:1034F00000BF0837BD4680BDB0050020CCEB0008FA
:10350000FCEB000880B58AB008AF1B4808F0EAFD64
:103510001A4B93F88030062B29D0194B1A781023B8
:103520000693102305934FF4FA7304930023039337
:10353000502302932823019300230093114B4FF44F
:1035400048714FF4487005F02AFD0346FB71FB7982
:10355000002B04D1094B042283F8802007E00220CD
:1035600000F09EFB054B002283F8802000BF00BFC7
:103570000837BD4680BD00BF2CEC0008B005002018
:10358000AE050020A805002080B500AF012000F0A6
:10359000A1FB00BF80BD000080B586B000AFFFF783
:1035A0002FFC38613B69B3F1FF3F23D0FFF740FCAC
:1035B000B860FFF731FC78603B69DAB2164B1A70DD
:1035C0003B691B0ADAB2144B5A707B68DAB2124BB1
:1035D0009A70BB68DAB2104BDA70BB681B0ADAB2B9
:1035E0000D4B1A71BB681B0CDAB20B4B5A710A4BAC
:1035F0007B610BE0002006F04DFBF860FB68002BC0
:1036000002D0FB687B6101E0044B7B617B6918465B
:103610001837BD4680BD00BFA0050020A8ED0008FA
:1036200080B582B000AF78600021102007F012FF53
:1036300000BF0837BD4680BD80B582B000AF78605E
:10364000012007F073FF00BF0837BD4680BD80B57D
:1036500082B000AF7860012007F088FF00BF083714
:10366000BD4680BD80B584B000AF78607B68FB60EC
:10367000FB685B680833184607F0D4FA0346FB7210
:10368000FB7A002B03D0FB6801221A7003E0FB6871
:1036900000221A7000BF1037BD4680BD80B584B0CF
:1036A00000AF0346FB71FB79002B02D0012B06D043
:1036B0000BE0FF23FB60F86807F0F8FE05E0FF234E
:1036C000FB60F86807F012FF00BF00BF1037BD466F
:1036D00080BD80B500AF0021202007F0BBFE00BFF9
:1036E00080BD000080B400AF034B1B781846BD4678
:1036F0005DF8047B704700BF3406002080B400AF43
:10370000054BDB68044A43F40043D36000BFBD4669
:103710005DF8047B704700BF0004005880B483B09C
:1037200000AF7860064BD3F8D42005497B6813437B
:10373000C1F8D43000BF0C37BD465DF8047B70473C
:103740000008005880B483B000AF7860054B1A6A57
:1037500004497B6813430B6200BF0C37BD465DF81C
:10376000047B70470008005880B485B000AF7860D3
:103770004FF0B0431A6D4FF0B0417B6813430B65B7
:103780004FF0B0431A6D7B681340FB60FB6800BFCD
:103790001437BD465DF8047B704780B485B000AF38
:1037A00078604FF0B043D3F850214FF0B0417B68C0
:1037B0001343C1F850314FF0B043D3F850217B6828
:1037C0001340FB60FB6800BF1437BD465DF8047B07
:1037D000704780B483B000AF78607B681B6843F4A7
:1037E00080327B681A6000BF0C37BD465DF8047BF1
:1037F000704780B483B000AF78607B681B6843F08B
:1038000001027B681A6000BF0C37BD465DF8047B7F
:10381000704780B483B000AF786039607B685A68C5
:103820003B681B04DB431A407B685A6000BF0C37BF
:10383000BD465DF8047B704780B483B000AF78600C
:1038400039607B685A683B681B041A437B685A607E
:1038500000BF0C37BD465DF8047B704780B483B071
:1038600000AF786039607B685A683B68DB431A4078
:103870007B685A6000BF0C37BD465DF8047B70471B
:1038800080B483B000AF786039607B683A689A6032
:1038900000BF0C37BD465DF8047B704780B483B031
:1038A00000AF786039603B681A047B689A6000BF9B
:1038B0000C37BD465DF8047B704780B483B000AF21
:1038C000786039607B68DA683B6813403A689A42EE
:1038D00001D1012300E0002318460C37BD465DF8F6
:1038E000047B704780B483B000AF786039607B6838
:1038F000DA693B6813403A689A4201D1012300E03B
:10390000002318460C37BD465DF8047B7047000065
:1039100080B500AF02211848FFF7E4FF0346002BF3
:1039200008D0154B5B6803F00203002B02D100F0B6
:10393000D5F81EE001211048FFF7D4FF0346002B05
:1039400008D00D4B5B6803F00103002B02D100F09F
:1039500089F80EE008210848FFF7C4FF0346002B52
:1039600008D0054B5B6803F00803002B02D100F080
:1039700001F900BF00BF80BD000C005880B500AF4A
:1039800002211848FFF799FF0346002B08D1154B79
:103990005B6803F40033002B02D100F093F81EE0C3
:1039A00008211048FFF789FF0346002B08D10D4B73
:1039B0005B6803F40023002B02D100F0BDF80EE099
:1039C00020210848FFF779FF0346002B08D1054B5B
:1039D0005B6803F40013002B02D100F04FF800BF26
:1039E00000BF80BD000C005880B500AF4FF48010C0
:1039F000FFF7D3FE4FF40070FFF7A4FE4FF4007002
:103A0000FFF78CFE40BF20BFFFF778FE00BF80BDF0
:103A100080B500AF4FF48010FFF7A6FE0648FFF711
:103A2000E8FE0548FFF7D5FE2C2000F06CFC2D20A9
:103A300000F069FC00BF80BD000C005880B500AFED
:103A400001210248FFF70AFF00BF80BD000C0058AB
:103A500080B500AF01210248FFF720FF00BF80BD05
:103A6000000C005880B500AF07F0DCF901210248D6
:103A7000FFF706FF00BF80BD000C005880B500AF07
:103A800020210348FFF7D8FE07F0FCF900BF80BDF6
:103A9000000C005880B500AF02210248FFF7DEFE9F
:103AA00000BF80BD000C005880B500AF0221044863
:103AB000FFF7F4FE02210248FFF7ABFE00BF80BD16
:103AC000000C005880B500AF02210348FFF7B4FE98
:103AD00007F028FA00BF80BD000C005880B500AF89
:103AE00007F036FA02210248FFF7CAFE00BF80BD88
:103AF000000C005880B582B000AF786008210C48F7
:103B0000FFF7DBFE0346002B07D00A4A7B681360F1
:103B100008210748FFF77DFE06E07B6898470821EB
:103B20000348FFF7BBFE00BF0837BD4680BD00BF9E
:103B3000000C00584406002080B500AF082106485C
:103B4000FFF77AFE054B1B68984708210248FFF7EC
:103B5000A5FE00BF80BD00BF000C00584406002039
:103B600080B500AF08210248FFF778FE00BF80BD96
:103B7000000C005880B500AF07F092FA0821024807
:103B8000FFF77EFE00BF80BD000C0058D458C45023
:103B90000433C4188C42F9D3704703600430884260
:103BA000FBD370470C48854600F054F90B480C498C
:103BB0000C4A0023FFF7EDFF0B480C490023FFF7E9
:103BC000EEFF0B480B490023FFF7E9FF08F058FC14
:103BD000FEF74EFDFEE70000003000200800002048
:103BE000200200204CF2000870020020EC18002097
:103BF000E4010320670A0320FEE780B485B000AF2C
:103C000078604FF0B043DA6C4FF0B0417B681343FB
:103C1000CB644FF0B043DA6C7B681340FB60FB6809
:103C200000BF1437BD465DF8047B704780B588B08F
:103C300000AF0346FB7107F10C0300221A605A60C3
:103C40009A60DA601A610220FFF7D7FFFB79124A07
:103C500032F81330FB6001233B6100237B610223B8
:103C6000BB61FB790D4A52F8233007F10C02114673
:103C7000184600F0E1FEFB79084A52F82300FB7970
:103C8000054A32F813300022194601F03DF80023AE
:103C900018462037BD4680BDD0ED00081400002036
:103CA00080B582B000AF0346FB71FB79074A52F83A
:103CB0002300FB79064A32F813300122194601F03D
:103CC00023F8002318460837BD4680BD14000020A5
:103CD000D0ED000880B582B000AF0346FB71FB79E0
:103CE000074A52F82300FB79064A32F813300022C3
:103CF000194601F009F8002318460837BD4680BD73
:103D000014000020D0ED000880B588B000AF034655
:103D10000A46FB711346BB7107F10C0300221A60BF
:103D20005A609A60DA601A61FB79002B03D1012096
:103D3000FFF763FF0CE0FB79012B03D11020FFF7A5
:103D40005CFF05E0FB79022B02D10120FFF755FF54
:103D5000FB79294A32F81330FB6001237B6102238F
:103D6000BB61BB79002B0CD100233B61FB79234A5B
:103D700052F8233007F10C021146184600F05CFEA1
:103D800035E04FF404133B61FB791C4A52F82330B1
:103D900007F10C021146184600F04EFEFB79DB00DD
:103DA000174A1A44FB79174951F82330194610462F
:103DB00000F00CFEFB79DB00114A9818FB79124ADF
:103DC00052F823301A46002100F0E6FDFB790F4A35
:103DD000D056FB790E4A52F823300022194600F0E3
:103DE00078FAFB79094AD356184600F08CFA00237A
:103DF00018462037BD4680BDD8ED000820000020C1
:103E000048060020E4ED00082C000020E0ED00084A
:103E10003800002080B483B000AF0346FB7100BFC0
:103E20000C37BD465DF8047B704780B500AF0020BD
:103E3000FFF7F0FF00BF80BD80B500AF0120FFF7A6
:103E4000E9FF00BF80BD80B500AF0220FFF7E2FFB1
:103E500000BF80BD80B400AF244B00229A60234B8A
:103E6000D3F88830214A43F47003C2F888304FF009
:103E7000B0431B684FF0B04243F0010313604FF0B2
:103E8000B0434FF4E0229A604FF0B0431A684FF00D
:103E9000B041174B13400B604FF0B043D3F8943050
:103EA0004FF0B04223F00503C2F894304FF0B04316
:103EB000D3F898304FF0B04223F00103C2F89830A5
:103EC0004FF0B0430B4ADA604FF0B0431B684FF03D
:103ED000B04223F4802313604FF0B04300229A6174
:103EE00000BFBD465DF8047B704700BF00ED00E0F9
:103EF000FBFEF6FA0010042280B400AF054B5B68AD
:103F0000044A43F00103536000BFBD465DF8047BE3
:103F1000704700BF002004E080B400AF054B5B6831
:103F2000044A43F00203536000BFBD465DF8047BC2
:103F3000704700BF002004E080B582B000AF0023CE
:103F4000FB710C4B1B680B4A43F480731360032016
:103F500000F0B4F9002000F00FF80346002B02D067
:103F60000123FB7101E0FEF749FDFB791846083794
:103F7000BD4680BD0040005880B584B000AF786079
:103F80000023FB73174B1B78002B24D001F0E0FFBC
:103F90000246144B1B7819464FF47A73B3FBF1F3C6
:103FA000B2FBF3F3184600F0CAF90346002B0FD119
:103FB0007B680F2B09D8002279684FF0FF3000F0A2
:103FC00088F9094A7B68136007E00123FB7304E06A
:103FD0000123FB7301E00123FB73FB7B18461037C1
:103FE000BD4680BD4C0000204800002080B400AFDA
:103FF000064B1B781A46064B1B681344044A136091
:1040000000BFBD465DF8047B704700BF4C00002038
:104010006006002080B400AF034B1B681846BD4605
:104020005DF8047B704700BF6006002080B400AFDD
:10403000034B1B681846BD465DF8047B704700BF04
:104040004800002080B500AFFFF756FF00BF80BDDD
:1040500080B500AFFFF760FF00BF80BD80B485B0C2
:1040600000AF78607B6803F00703FB600C4BDB68F4
:10407000BB60BA684FF6FF031340BB60FB681A02CF
:10408000BB68134343F0BF6343F40033BB60044A8F
:10409000BB68D36000BF1437BD465DF8047B704732
:1040A00000ED00E080B400AF044BDB681B0A03F0B6
:1040B00007031846BD465DF8047B704700ED00E03D
:1040C00080B483B000AF0346FB7197F90730002B33
:1040D0000BDBFB7903F01F02074997F907305B09F7
:1040E000012000FA02F241F8232000BF0C37BD4640
:1040F0005DF8047B704700BF00E100E080B483B04E
:1041000000AF0346FB7197F90730002B12DBFB79F8
:1041100003F01F020A4997F907305B09012000FAF2
:1041200002F2203341F82320BFF34F8F00BFBFF3CB
:104130006F8F00BF00BF0C37BD465DF8047B704732
:1041400000E100E080B483B000AF0346FB7197F953
:104150000730002B0CDBFB7903F01F02074997F9AE
:1041600007305B09012000FA02F2403341F82320B6
:1041700000BF0C37BD465DF8047B704700E100E0EE
:1041800080B483B000AF0346FB7197F90730002B72
:104190000CDBFB7903F01F02074997F907305B0935
:1041A000012000FA02F2603341F8232000BF0C37EF
:1041B000BD465DF8047B704700E100E080B483B049
:1041C00000AF03463960FB7197F90730002B0ADB1B
:1041D0003B68DAB20C4997F907301201D2B20B44AE
:1041E00083F800230AE03B68DAB20849FB7903F060
:1041F0000F03043B1201D2B20B441A7600BF0C37F6
:10420000BD465DF8047B704700E100E000ED00E092
:1042100080B489B000AFF860B9607A60FB6803F0E1
:104220000703FB61FB69C3F10703042B28BF0423C9
:10423000BB61FB690433062B02D9FB69033B00E039
:1042400000237B614FF0FF32BB6902FA03F3DA43CC
:10425000BB681A407B699A404FF0FF317B6901FAD5
:1042600003F3D9437B680B40134318462437BD46FC
:104270005DF8047B7047000080B582B000AF7860C5
:104280007B68013BB3F1807F01D301230FE00A4A31
:104290007B68013B53600F214FF0FF30FFF78EFF2B
:1042A000054B00229A60044B07221A60002318462F
:1042B0000837BD4680BD00BF10E000E080B582B089
:1042C00000AF78607868FFF7C9FE00BF0837BD46C9
:1042D00080BD80B586B000AF0346B9607A60FB73DD
:1042E000FFF7E0FE78617A68B9687869FFF790FFB8
:1042F000024697F90F3011461846FFF75FFF00BFDF
:104300001837BD4680BD80B582B000AF0346FB7153
:1043100097F907301846FFF7D3FE00BF0837BD46B0
:1043200080BD80B582B000AF0346FB7197F90730BE
:104330001846FFF7E3FE00BF0837BD4680BD80B5D5
:1043400082B000AF78607868FFF796FF03461846A2
:104350000837BD4680BD80B582B000AF0346FB7113
:1043600097F907301846FFF7EDFE00BF0837BD4646
:1043700080BD80B582B000AF0346FB7197F907306E
:104380001846FFF7FDFE00BF0837BD4680BD0000A0
:1043900080B584B000AF78607B68002B01D1012329
:1043A00078E07B681B681A463C4B13443C4AA2FBEE
:1043B00003231B099A007B685A647B68394A1A6494
:1043C0007B68022283F825207B681B681B68FB60E2
:1043D000FB6823F4FF4323F07003FB607B689A685B
:1043E0007B68DB681A437B681B691A437B685B69DF
:1043F0001A437B689B691A437B68DB691A437B68B5
:104400001B6A1343FA681343FB607B681B68FA68F6
:104410001A60786800F06EFA7B689B68B3F5804F8D
:1044200002D17B6800225A607B685A687B689B6C6B
:1044300002F03F021A607B68DB6C7A68126D5A608A
:104440007B685B68002B10D07B685B68042B0CD802
:10445000786800F07BFA7B685B6D00221A607B68ED
:104460009B6D7A68D26D5A6008E07B6800225A65BD
:104470007B6800229A657B680022DA657B680022EF
:10448000DA637B68012283F825207B68002283F8A9
:104490002420002318461037BD4680BDF8FFFDBF1D
:1044A000CDCCCCCC0000024080B586B000AFF86027
:1044B000B9607A603B600023FB75FB6893F8243099
:1044C000012B01D1022366E0FB68012283F824203E
:1044D000FB6893F82530DBB2012B55D1FB68022233
:1044E00083F82520FB680022DA63FB681B681A68E2
:1044F000FB681B6822F001021A603B687A68B968A1
:10450000F86800F0B9F9FB681B6B002B08D0FB685A
:104510001B681A68FB681B6842F00E021A600FE005
:10452000FB681B681A68FB681B6822F004021A60AB
:10453000FB681B681A68FB681B6842F00A021A6075
:10454000FB689B6C1B6803F48033002B07D0FB686F
:104550009B6C1A68FB689B6C42F480721A60FB6863
:104560005B6D002B07D0FB685B6D1A68FB685B6DA9
:1045700042F480721A60FB681B681A68FB681B684B
:1045800042F001021A6005E0FB68002283F8242053
:104590000223FB75FB7D18461837BD4680BD80B4ED
:1045A00083B000AF78607B68002B01D101234FE01E
:1045B0007B6893F82530DBB2022B08D07B6804229D
:1045C000DA637B68002283F82420012340E07B68C3
:1045D0001B681A687B681B6822F00E021A607B68F1
:1045E0009B6C1A687B689B6C22F480721A607B68F3
:1045F0001B681A687B681B6822F001021A607B68DE
:104600005B6C03F01C027B681B6C012101FA02F257
:104610005A607B68DB6C7A68126D5A607B685B6DF0
:10462000002B0CD07B685B6D1A687B685B6D22F495
:1046300080721A607B689B6D7A68D26D5A607B6865
:10464000012283F825207B68002283F824200023A0
:1046500018460C37BD465DF8047B704780B584B0C2
:1046600000AF78600023FB737B6893F82530DBB2E2
:10467000022B05D07B680422DA630123FB7347E039
:104680007B681B681A687B681B6822F00E021A6040
:104690007B681B681A687B681B6822F001021A603D
:1046A0007B689B6C1A687B689B6C22F480721A6032
:1046B0007B685B6C03F01C027B681B6C012101FAB8
:1046C00002F25A607B68DB6C7A68126D5A607B6814
:1046D0005B6D002B0CD07B685B6D1A687B685B6D33
:1046E00022F480721A607B689B6D7A68D26D5A6082
:1046F0007B68012283F825207B68002283F8242030
:104700007B689B6B002B03D07B689B6B786898471A
:10471000FB7B18461037BD4680BD80B584B000AF26
:1047200078607B681B6C1B68FB607B681B681B6880
:10473000BB607B685B6C03F01C0304229A40FB683F
:104740001340002B26D0BB6803F00403002B21D0BC
:104750007B681B681B6803F02003002B07D17B6874
:104760001B681A687B681B6822F004021A607B6869
:104770005B6C03F01C027B681B6C042101FA02F2E3
:104780005A607B681B6B002B71D07B681B6B786851
:1047900098476CE07B685B6C03F01C0302229A4034
:1047A000FB681340002B2ED0BB6803F00203002BE4
:1047B00029D07B681B681B6803F02003002B0BD1FA
:1047C0007B681B681A687B681B6822F00A021A6003
:1047D0007B68012283F825207B685B6C03F01C0258
:1047E0007B681B6C022101FA02F25A607B6800228E
:1047F00083F824207B68DB6A002B38D07B68DB6A77
:104800007868984733E07B685B6C03F01C030822F0
:104810009A40FB681340002B2AD0BB6803F00803C2
:10482000002B25D07B681B681A687B681B6822F008
:104830000E021A607B685B6C03F01C027B681B6CC9
:10484000012101FA02F25A607B680122DA637B6877
:10485000012283F825207B68002283F824207B68CE
:104860005B6B002B04D07B685B6B7868984700BF5C
:1048700000BF1037BD4680BD80B485B000AFF86082
:10488000B9607A603B60FB68DB6CFA68126D5A6055
:10489000FB685B6D002B04D0FB689B6DFA68D26DE2
:1048A0005A60FB685B6C03F01C02FB681B6C012107
:1048B00001FA02F25A60FB681B683A685A60FB68AA
:1048C0009B68102B08D1FB681B687A689A60FB68AC
:1048D0001B68BA68DA6007E0FB681B68BA689A6010
:1048E000FB681B687A68DA6000BF1437BD465DF864
:1048F000047B704780B485B000AF78607B685B6CE8
:104900009B089B0003F1804303F502337A689364AC
:104910007B681B68DBB2083B0A4AA2FB03231B0926
:10492000FB607B68084ADA64FB6803F01F0301221E
:104930009A407B681A6500BF1437BD465DF8047B5A
:10494000704700BFCDCCCCCC8008024080B485B08D
:1049500000AF78607B685B6803F03F03FB60FA6838
:104960000B4B13449B001A467B685A657B68094AC7
:104970009A65FB68013B03F0030301229A407B68C0
:10498000DA6500BF1437BD465DF8047B704700BF91
:104990003F8200104009024080B487B000AFF86049
:1049A0000B467A60FB720023FB75FB7A002B03D168
:1049B000FB687A685A6002E00123FB7500BFFB7D4B
:1049C00018461C37BD465DF8047B704780B483B041
:1049D00000AF786039607B68002B01D1012303E0D0
:1049E0007B683A681A60002318460C37BD465DF8AC
:1049F000047B704780B487B000AF78607B681B6829
:104A00001B0C03F001037B617B681B6803F01F0331
:104A1000012202FA03F33B617B695B0103F1B043BE
:104A200003F60803FB60FB683A691A6000BF1C3795
:104A3000BD465DF8047B704780B487B000AF7860F6
:104A4000396000237B6146E13B681A6801217B697C
:104A500001FA03F31340FB60FB68002B00F0388180
:104A60003B685B6803F00303012B05D03B685B6880
:104A700003F00303022B30D17B689B683B617B69A9
:104A80005B00032202FA03F3DB433A6913403B6104
:104A90003B68DA687B695B0002FA03F33A69134307
:104AA0003B617B683A699A607B685B683B61012285
:104AB0007B6902FA03F3DB433A6913403B613B68CD
:104AC0005B681B0903F001027B6902FA03F33A6990
:104AD00013433B617B683A695A603B685B6803F04B
:104AE0000303032B17D07B68DB683B617B695B00AA
:104AF000032202FA03F3DB433A6913403B613B684C
:104B00009A687B695B0002FA03F33A6913433B61DD
:104B10007B683A69DA603B685B6803F00303022B49
:104B200023D17B69DA087B68083253F822303B6175
:104B30007B6903F007039B000F2202FA03F3DB43B8
:104B40003A6913403B613B681A697B6903F00703CC
:104B50009B0002FA03F33A6913433B617B69DA086D
:104B60007B680832396943F822107B681B683B6117
:104B70007B695B00032202FA03F3DB433A691340CB
:104B80003B613B685B6803F003027B695B0002FAF0
:104B900003F33A6913433B617B683A691A603B68E7
:104BA0005B6803F44033002B00F09280514A7B692C
:104BB0009B08023352F823303B617B6903F0030307
:104BC0009B000F2202FA03F3DB433A6913403B6177
:104BD0007B68B3F1904F13D07B68474A93420DD066
:104BE0007B68464A934207D07B68454A934201D18D
:104BF000042306E0072304E0022302E0012300E08F
:104C000000237A6902F00302920093403A69134349
:104C10003B6138497B699B0802333A6941F823209C
:104C2000384B1B683B61FB68DB433A6913403B61CF
:104C30003B685B6803F48013002B03D03A69FB6880
:104C400013433B612F4A3B6913602E4B5B683B610A
:104C5000FB68DB433A6913403B613B685B6803F4E4
:104C60000013002B03D03A69FB6813433B61254ACC
:104C70003B695360234BD3F880303B61FB68DB43D7
:104C80003A6913403B613B685B6803F48033002B57
:104C900003D03A69FB6813433B611A4A3B69C2F887
:104CA0008030184BD3F884303B61FB68DB433A69B2
:104CB00013403B613B685B6803F40033002B03D077
:104CC0003A69FB6813433B610E4A3B69C2F8843082
:104CD0007B6901337B613B681A687B6922FA03F3C5
:104CE000002B7FF4B1AE00BF00BF1C37BD465DF89E
:104CF000047B7047000001400004004800080048A1
:104D0000001000480008005880B483B000AF7860FD
:104D10000B467B8013467B707B78002B03D07A8810
:104D20007B689A6102E07A887B689A6200BF0C37E0
:104D3000BD465DF8047B704780B582B000AF034686
:104D4000FB80084BDA68FB881340002B06D0054A2D
:104D5000FB88D360FB881846FCF767FC00BF083768
:104D6000BD4680BD0008005880B582B000AF0A4B38
:104D7000DB687B60084B1A687B68DB43064913409D
:104D80000B60054A7B685360786800F007F800BF45
:104D90000837BD4680BD00BF0015005880B483B001
:104DA00000AF786000BF0C37BD465DF8047B7047EC
:104DB00080B584B000AF78600023FB737B68002B64
:104DC0001ED0134BBB607B6893F83830DBB2002BEE
:104DD00002D17868FDF722FEB86800F05BF8BB6886
:104DE0001B6843F00112BB681A60786800F02CF869
:104DF0007B6800225A637B68012283F8382001E037
:104E00000123FB73FB7B18461037BD4680BD00BFF6
:104E1000000C005880B485B000AFF860B96013464C
:104E2000FB7100BF1437BD465DF8047B704780B44A
:104E300085B000AFF860B9601346FB7100BF14374E
:104E4000BD465DF8047B704780B485B000AF7860E4
:104E50000023FB600FE07A68FB689B0013440B4A59
:104E60005A607A68FB6806339B001344084A5A600C
:104E7000FB680133FB60FB68052BECD900BF00BF6A
:104E80001437BD465DF8047B704700BF154E00081F
:104E90002F4E000880B483B000AF78607B6800229A
:104EA0001A607B684FF03F125A607B683F229A601D
:104EB00000BF0C37BD465DF8047B704780B400AF7F
:104EC000054B1B68044A43F48073136000BFBD4662
:104ED0005DF8047B704700BF0004005880B400AF49
:104EE000054B9B68044A43F40073936000BFBD46C2
:104EF0005DF8047B704700BF0004005880B500AF28
:104F0000FFF7ECFF00BF80BD80B400AF4FF0B043AF
:104F10001B6803F48013B3F5801F01D1012300E067
:104F200000231846BD465DF8047B704780B400AF8F
:104F30004FF0B0431B684FF0B04243F4803313602E
:104F400000BFBD465DF8047B704780B400AF4FF0F2
:104F5000B0431B684FF0B04223F48033136000BFAE
:104F6000BD465DF8047B704780B400AF4FF0B0439E
:104F70001B6803F40033B3F5003F01D1012300E0C7
:104F800000231846BD465DF8047B704780B400AF2F
:104F90004FF0B0431B684FF0B04243F4807313608E
:104FA00000BFBD465DF8047B704780B400AF4FF092
:104FB000B0431B684FF0B04223F48073136000BF0E
:104FC000BD465DF8047B704780B400AF4FF0B0433E
:104FD0001B6803F48063B3F5806F01D1012300E007
:104FE00000231846BD465DF8047B704780B483B04B
:104FF00000AF78604FF0B0435B6823F0FE427B68FF
:105000001B064FF0B04113434B6000BF0C37BD4649
:105010005DF8047B704780B400AF4FF0B043D3F825
:1050200090304FF0B04243F00103C2F8903000BF1F
:10503000BD465DF8047B704780B400AF4FF0B043CD
:10504000D3F890304FF0B04223F00103C2F8903013
:1050500000BFBD465DF8047B704780B400AF4FF0E1
:10506000B043D3F890304FF0B04243F00403C2F89D
:10507000903000BFBD465DF8047B704780B400AF40
:105080004FF0B043D3F890304FF0B04223F0040318
:10509000C2F8903000BFBD465DF8047B704780B415
:1050A00000AF4FF0B043D3F8903003F00203022B6F
:1050B00001D1012300E000231846BD465DF8047BC2
:1050C000704780B400AF4FF0B043D3F894304FF046
:1050D000B04243F00103C2F8943000BFBD465DF812
:1050E000047B704780B400AF4FF0B043D3F89430E6
:1050F0004FF0B04223F00103C2F8943000BFBD4628
:105100005DF8047B704780B400AF4FF0B043D3F834
:10511000943003F00203022B01D1012300E00023AD
:105120001846BD465DF8047B704780B400AF4FF071
:10513000B043D3F894304FF0B04243F00403C2F8C8
:10514000943000BFBD465DF8047B704780B400AF6B
:105150004FF0B043D3F894304FF0B04223F0040343
:10516000C2F8943000BFBD465DF8047B704780B440
:1051700000AF4FF0B043D3F8943003F00803082B8E
:1051800001D1012300E000231846BD465DF8047BF1
:10519000704780B483B000AF78604FF0B043D3F86D
:1051A000943023F470627B681B024FF0B0411343CC
:1051B000C1F8943000BF0C37BD465DF8047B7047E2
:1051C00080B400AF4FF0B0431B684FF0B04243F0E3
:1051D0000103136000BFBD465DF8047B704780B4D7
:1051E00000AF4FF0B0431B684FF0B04223F0010313
:1051F000136000BFBD465DF8047B704780B400AF0C
:105200004FF0B0431B6803F00203022B01D10123CE
:1052100000E000231846BD465DF8047B704780B46B
:1052200083B000AF78604FF0B0431B6823F0F0020A
:105230004FF0B0417B6813430B6000BF0C37BD4695
:105240005DF8047B704780B483B000AF4FF0B0438B
:105250001B6803F0F0037B607B68B02B01D9B0239F
:105260007B607B6818460C37BD465DF8047B704751
:1052700080B483B000AF78604FF0B0435B6823F434
:105280007F427B681B024FF0B04113434B6000BF6D
:105290000C37BD465DF8047B704780B483B000AF27
:1052A00078604FF0B0439B6823F003024FF0B041A9
:1052B0007B6813438B6000BF0C37BD465DF8047BF1
:1052C000704780B400AF4FF0B0439B6803F00C030D
:1052D0001846BD465DF8047B704780B483B000AFCC
:1052E00078604FF0B0439B6823F0F0024FF0B0417C
:1052F0007B6813438B6000BF0C37BD465DF8047BB1
:10530000704780B483B000AF78604FF0B043D3F8FB
:10531000083123F0F0024FF0B0417B681343C1F82D
:10532000083100BF0C37BD465DF8047B704780B480
:1053300083B000AF78604FF0B043D3F8083123F06A
:105340000F027B681B094FF0B0411343C1F80831CD
:1053500000BF0C37BD465DF8047B704780B483B056
:1053600000AF78604FF0B0439B6823F4E0624FF0E9
:10537000B0417B6813438B6000BF0C37BD465DF8BE
:10538000047B704780B483B000AF78604FF0B043C7
:105390009B6823F460524FF0B0417B6813438B60ED
:1053A00000BF0C37BD465DF8047B704780B400AF8A
:1053B0004FF0B0439B6803F0F0031846BD465DF81C
:1053C000047B704780B400AF4FF0B043D3F808318E
:1053D0001B0103F0F0031846BD465DF8047B7047DF
:1053E00080B400AF4FF0B0439B6803F4E06318460D
:1053F000BD465DF8047B704780B400AF4FF0B0430A
:105400009B6803F460531846BD465DF8047B704703
:1054100080B400AF4FF0B0431B684FF0B04243F090
:105420008073136000BFBD465DF8047B704780B495
:1054300000AF4FF0B0431B684FF0B04223F08073D1
:10544000136000BFBD465DF8047B704780B400AFB9
:105450004FF0B0431B6803F00073B3F1007F01D13C
:10546000012300E000231846BD465DF8047B704729
:1054700080B400AF4FF0B043DB681B0A03F07F033A
:105480001846BD465DF8047B704780B400AF4FF00E
:10549000B043DB6803F060431846BD465DF8047B0B
:1054A000704780B400AF4FF0B043DB6803F0700387
:1054B0001846BD465DF8047B704780B400AF4FF0DE
:1054C000B043DB6803F003031846BD465DF8047B78
:1054D000704780B400AF4FF0B0439B6803F4803353
:1054E000B3F5803F01D1012300E000231846BD46FB
:1054F0005DF8047B704780B400AF4FF0B043D3F841
:10550000083103F40033B3F5003F01D1012300E07B
:1055100000231846BD465DF8047B704780B400AF99
:105520004FF0B043D3F8083103F48033B3F5803F34
:1055300001D1012300E000231846BD465DF8047B3D
:10554000704780B400AF4FF0B0439B6803F4003362
:10555000B3F5003F01D1012300E000231846BD460A
:105560005DF8047B704780B400AF4FF0B0439B6898
:1055700003F48023B3F5802F01D1012300E0002341
:105580001846BD465DF8047B7047000090B58DB0AD
:1055900000AF78607B68002B01D1012324E37B6896
:1055A0001B6803F02003002B00F08D80FFF789FEBD
:1055B000F862FFF782FFB862FB6A002B05D0FB6A36
:1055C0000C2B47D1BB6A012B44D17B68DB69002BD4
:1055D00001D1012308E37B685C6AFFF734FE0346D0
:1055E0009C4214D97B685B6A184600F0F1FC0346C4
:1055F000002B01D00123F7E27B685B6A1846FFF7B6
:105600000EFE7B681B6A1846FFF732FE13E07B68CC
:105610005B6A1846FFF703FE7B681B6A1846FFF7B4
:1056200027FE7B685B6A184600F0D2FC0346002B1D
:1056300001D00123D8E200F08BFC0346A44A13609A
:10564000A44B1B681846FEF797FC0346002B39D085
:105650000123C9E27B68DB69002B1ED0FFF7B0FD98
:10566000FEF7D8FC786208E0FEF7D4FC02467B6ABD
:10567000D31A022B01D90323B6E2FFF7BFFD03467D
:10568000002BF1D07B685B6A1846FFF7C8FD7B688A
:105690001B6A1846FFF7ECFD15E0FFF7A0FDFEF7CB
:1056A000B9FC786208E0FEF7B5FC02467B6AD31AC3
:1056B000022B01D9032397E2FFF7A0FD0346002B3D
:1056C000F1D100E000BF7B681B6803F00103002BF1
:1056D00047D0FFF7F6FD3862FFF7EFFEF8613B6A4F
:1056E000082B05D03B6A0C2B08D1FB69032B05D195
:1056F0007B685B68002B34D1012375E27B685B68B3
:10570000B3F5803F02D1FFF711FC01E0FFF71DFC6C
:105710007B685B68002B12D0FEF77CFC786208E0A7
:10572000FEF778FC02467B6AD31A642B01D9032367
:105730005AE2FFF719FC0346002BF1D011E0FEF707
:1057400069FC786208E0FEF765FC02467B6AD31AC2
:10575000642B01D9032347E2FFF706FC0346002B25
:10576000F1D17B681B6803F00203002B4CD0FFF7DC
:10577000A8FDB861FFF7A1FE7861BB69042B05D0D5
:10578000BB690C2B0ED17B69022B0BD17B68DB68CC
:10579000002B01D1012327E27B681B691846FFF724
:1057A00025FC31E07B68DB68002B19D0FFF7EEFBAE
:1057B000FEF730FC786208E0FEF72CFC02467B6ABC
:1057C000D31A022B01D903230EE2FFF7FDFB034698
:1057D000002BF1D07B681B691846FFF707FC13E02C
:1057E000FFF7E3FBFEF716FC786208E0FEF712FC19
:1057F00002467B6AD31A022B01D90323F4E1FFF797
:10580000E3FB0346002BF1D17B681B6803F0080320
:10581000002B06D17B681B6803F01003002B00F0FF
:10582000A3807B685B69002B76D07B681B6803F0E4
:105830001003002B46D0FFF766FC0346002B13D164
:10584000FFF73FFCFEF7E6FB786208E0FEF7E2FBBD
:1058500002467B6AD31A022B01D90323C4E1FFF766
:1058600052FC0346002BF1D0FFF75FFCFEF7D2FBA2
:10587000786208E0FEF7CEFB02467B6AD31A032B60
:1058800001D90323B0E1FFF772FC0346002BF1D0EE
:105890007B689B691846FFF77CFCFFF723FCFEF74B
:1058A000B9FB786208E0FEF7B5FB02467B6AD31AC3
:1058B000022B01D9032397E1FFF725FC0346002BB8
:1058C000F1D151E0FFF7FDFBFEF7A4FB78620CE09D
:1058D0004400002048000020FEF79CFB02467B6A43
:1058E000D31A022B01D903237EE1FFF70CFC0346F8
:1058F000002BF1D0FFF72AFC08E0FEF78BFB0246F5
:105900007B6AD31A032B01D903236DE1FFF72FFC28
:105910000346002BF1D127E0FFF718FCFEF77AFBD6
:10592000786208E0FEF776FB02467B6AD31A032B07
:1059300001D9032358E1FFF71AFC0346002BF1D1EC
:10594000FFF7D0FBFEF766FB786208E0FEF762FB2C
:1059500002467B6AD31A022B01D9032344E1FFF7E5
:10596000D2FB0346002BF1D17B681B6803F00403D4
:10597000002B5BD09E4B1B6803F48073002B14D16B
:10598000FFF79CFAFEF746FB786208E0FEF742FB61
:1059900002467B6AD31A022B01D9032324E1944BDC
:1059A0001B6803F48073002BF0D07B689B68012B8D
:1059B00002D1FFF730FB0CE07B689B68052B04D11C
:1059C000FFF74BFBFFF727FB03E0FFF735FBFFF784
:1059D00055FB7B689B68002B14D0FEF71BFB78629D
:1059E0000AE0FEF717FB02467B6AD31A41F28832BF
:1059F000934201D90323F7E0FFF751FB0346002B45
:105A0000EFD013E0FEF706FB78620AE0FEF702FB38
:105A100002467B6AD31A41F28832934201D90323AA
:105A2000E2E0FFF73CFB0346002BEFD17B689B6A6B
:105A3000002B00F0D880FFF744FC38614FF0B043F2
:105A4000DB68FB607B689B6A022B40F0A680FB68EA
:105A500003F003027B68DB6A9A4223D1FB6803F000
:105A600070027B681B6B9A421CD1FB681B0A03F017
:105A70007F027B685B6B9A4214D1FB6803F4781257
:105A80007B689B6B9A420DD1FB6803F060627B6878
:105A9000DB6B9A4206D1FB6803F060427B681B6CAB
:105AA0009A4254D03B690C2B4FD0FFF7C0FCFEF755
:105AB000B1FA786208E0FEF7ADFA02467B6AD31AC3
:105AC000022B01D903238FE04FF0B0431B6803F092
:105AD0000073002BEFD14FF0B043DA68454B134011
