:020000040800F2
:100000000030002085200008251F00082B1F000855
:10001000311F0008371F00083D1F000800000000C6
:10002000000000000000000000000000431F000866
:10003000511F0008000000005F1F00086D1F00082E
:10004000D9200008D9200008D9200008791F00080D
:10005000D9200008D9200008D9200008D92000089C
:10006000D9200008D9200008851F0008D9200008E1
:10007000D9200008D9200008D9200008D92000087C
:10008000D9200008D9200008D9200008000000006D
:1000900000000000D9200008D9200008931F0008A4
:1000A000D9200008D9200008D9200008D92000084C
:1000B000D9200008D9200008D9200008D92000083C
:1000C0000000000000000000D9200008000000002F
:1000D000D9200008D920000800000000D92000081D
:1000E000D9200008D920000800000000D92000080D
:1000F000AD1F0008B91F0008C51F0008D92000085F
:10010000D9200008000000000000000000000000EE
:10011000D9200008D9200008D920000800000000DC
:1001200000000000000000000000000000000000CF
:0C0130000000000000000000D9200008C2
:10013C0010B5054C237833B9044B13B10448AFF315
:10014C0000800123237010BD70000020000000000F
:10015C001480000808B5034B1BB103490348AFF3E7
:10016C00008008BD0000000074000020148000080E
:10017C00034613F8012B002AFBD1181A01387047DB
:10018C0084B080B582B002AF07F1080C8CE80F0088
:10019C00144B00221A7097F85C3099B264230093C8
:1001AC000123104A07F1080002F082FD97F85C3039
:1001BC0099B26423009302230A4A07F1080002F063
:1001CC008FFE084B1B781B021AB2064B5B781BB2D6
:1001DC0013431BB29BB21846BD46BDE8804004B029
:1001EC00704700BF8C00002084B080B582B002AF95
:1001FC0007F1080C8CE80F000D4B01221A700C4A09
:10020C0097F85C3053700A4A97F86030937097F8FF
:10021C00643099B2642300930323054A07F1080064
:10022C0002F046FD00BFBD46BDE8804004B07047FB
:10023C0090000020B0B588B000AF154B1A88154B54
:10024C009A80154B1A88134BDA80144B1A88114B71
:10025C001A81134B1A880F4B5A81124B1A880D4B6B
:10026C009A81114B3C1D1D460FCD0FC495E807001C
:10027C0003C422800234130C237006F0D1FB3B1D07
:10028C00184605F062FE00BF2037BD46B0BD00BF6A
:10029C0004000020E80103200600002008000020D4
:1002AC000A0000200C0000202C80000880B400AF55
:1002BC00054BDB69044A43F40043D36100BFBD46E0
:1002CC005DF8047B704700BF0004005880B483B015
:1002DC0000AF7860064BDB6923F0700204497B6841
:1002EC001343CB6100BF0C37BD465DF8047B7047F0
:1002FC000004005880B487B000AF7860184B1B68BE
:10030C001B0A03F00F03FB60FB68002B08D1154B95
:10031C00DB6923F00F0213497B681343CB6119E0AF
:10032C00FB68063B3B617B683A6913447B617B69E4
:10033C00002B02DA00237B6104E07B690F2B01DDCB
:10034C000F237B61074BDB6923F00F027B690549A7
:10035C001343CB6100BF1C37BD465DF8047B70476F
:10036C005875FF1F0004005880B483B000AF78604C
:10037C00074BD3F8803023F0070205497B68134301
:10038C00C1F8803000BF0C37BD465DF8047B704768
:10039C000004005880B483B000AF7860064BD3F8EB
:1003AC00902005497B681343C1F8903000BF0C378F
:1003BC00BD465DF8047B70470008005880B483B0DC
:1003CC0000AF78604FF0B0430A4AC3F89C204FF05E
:1003DC00B043D3F89C3023F47C527B681B024FF063
:1003EC00B0411343C1F89C3000BF0C37BD465DF8DB
:1003FC00047B7047FECAFECA80B483B000AF78603D
:10040C004FF0B0439B6823F400424FF0B0417B683F
:10041C0013438B6000BF0C37BD465DF8047B7047FF
:10042C0080B400AF4FF0B043D3F890304FF0B042EF
:10043C0043F48033C2F8903000BFBD465DF8047BB6
:10044C00704780B400AF4FF0B043D3F890304FF00A
:10045C00B04223F48033C2F8903000BFBD465DF843
:10046C00047B704780B400AF4FF0B043D3F89430A6
:10047C0003F08063B3F1806F01D1012300E000230E
:10048C001846BD465DF8047B704780B400AF4FF052
:10049C00B043D3F8943003F08053B3F1805F01D1B3
:1004AC00012300E000231846BD465DF8047B70472D
:1004BC0080B485B000AF78604FF0B0431A6D4FF048
:1004CC00B0417B6813430B654FF0B0431A6D7B68EA
:1004DC001340FB60FB6800BF1437BD465DF8047B1E
:1004EC007047000080B400AF044B1B68C3F30B03D0
:1004FC001846BD465DF8047B704700BF002004E041
:10050C0080B400AF044B1B681B0C9BB21846BD4655
:10051C005DF8047B704700BF002004E080B483B01A
:10052C0000AF786039607B685A683B681B041A43DB
:10053C007B685A6000BF0C37BD465DF8047B704782
:10054C0080B483B000AF786039607B685A683B68D0
:10055C001A437B685A6000BF0C37BD465DF8047BBC
:10056C00704780B483B000AF786039607B685A699B
:10057C003B681B041A437B685A6100BF0C37BD46AD
:10058C005DF8047B704780B483B000AF786039604D
:10059C007B685A693B681A437B685A6100BF0C3709
:1005AC00BD465DF8047B704780B483B000AF7860C3
:1005BC0039607B683A689A6000BF0C37BD465DF8BD
:1005CC00047B704780B483B000AF786039607B687F
:1005DC003A689A6100BF0C37BD465DF8047B7047E2
:1005EC0080B483B000AF78607B68FF225A6200BF92
:1005FC000C37BD465DF8047B704780B483B000AF08
:10060C0078607B68CA225A627B6853225A6200BFA8
:10061C000C37BD465DF8047B704780B483B000AFE7
:10062C00786039607B689B6823F007023B681A434B
:10063C007B689A6000BF0C37BD465DF8047B704741
:10064C0080B500AF044B4FF400421A6100F029F85A
:10065C0000F068F800BF80BD0040005880B500AFC6
:10066C0000F074F800F08CF80349002000F0B4FDA1
:10067C0000F096F800BF80BDC401002080B500AF2B
:10068C000020FFF723FE0420FFF734FEFFF70EFED9
:10069C0000BF80BD80B500AF5020FFF77BFE00BFD0
:1006AC0080BD80B500AF00F004F800F019F800BF71
:1006BC0080BD80B500AFFFF7D5FE0346002B0DD0F3
:1006CC00FFF7E3FE0346002B08D103F0AFF803F06D
:1006DC00ADF8FFF7A5FEFFF7B4FE00BF00BF80BD6D
:1006EC0080B500AF4FF48010FFF7E2FE3F210C48BD
:1006FC00FFF75AFF3F210A48FFF764FF3F210848E4
:10070C00FFF70CFF3F210648FFF72BFF3F21044862
:10071C00FFF716FF3F210248FFF735FF00BF80BDF2
:10072C00000C005880B582B000AF002006F004FA2F
:10073C0078607B68002B05D07B689B791846FFF7A7
:10074C003DFE00BF00BF0837BD4680BD80B500AF81
:10075C00FFF794FFFFF79EFF00F002F800BF80BD8B
:10076C0080B500AF0548FFF748FF00210348FFF7AD
:10077C0054FF0248FFF734FF00BF80BD0028004043
:10078C0080B500AF4FF40040FFF736FE07F04CF990
:10079C000420FFF7E9FD03F081F800BF80BD0000E5
:1007AC0080B588B000AF05F085FF114A00211020FC
:1007BC0007F0AEFA0F4B3B600F4B7B603B46194684
:1007CC000E4805F039FE0E4BBB600E4BFB600E4B1A
:1007DC003B6140F23C537B6107F10803184606F07D
:1007EC00ABF805F061FF00BF2037BD4680BD00BFF0
:1007FC007D6400083407032019080008310800083C
:10080C004C09032040080320F801032080B483B076
:10081C0000AF0346FB7100BF0C37BD465DF8047B8F
:10082C007047000080B588B000AF78607B685B686B
:10083C000B33FB61FB691B889BB2A3F51243072B9F
:10084C001FD801A252F823F0750800088708000889
:10085C008F0800088F0800088F0800088F08000810
:10086C008F0800088F08000807F10C03184605F0E4
:10087C0099FB786800F01BF804E0786800F006F843
:10088C0000E000BF00BF2037BD4680BD80B485B0FE
:10089C0000AF78607B685B680B33FB60FB680233EE
:1008AC00BB6000BF1437BD465DF8047B704780B554
:1008BC008AB000AF786007F1080300221A605A6012
:1008CC009A60DA6000237B6200233B627B685B6882
:1008DC000B33FB61FB690233BB61BB691B78002BDB
:1008EC001DD1FFF7A7FC0F233B727F23BB72FFF7D1
:1008FC0007FE78627B6A9BB2BB82FFF7F3FD38621E
:10090C003B6A9BB2FB8207F10803184605F034FBE7
:10091C0006F032FA0021012007F098F807E0BB69D5
:10092C001B78012B03D17B6800221A7000BF00BF1B
:10093C002837BD4680BD80B500AF4FF0FF3007F0C3
:10094C00EBF800BF80BD80B500AF07F0AFF800BF7B
:10095C0080BD80B582B000AF786039604FF0FF3059
:10096C0007F0DAF800BF0837BD4680BD80B582B00D
:10097C0000AF78600021102007F0ECF900BF0837B9
:10098C00BD4680BD80B582B000AF7860022007F014
:10099C004DFA00BF0837BD4680BD80B582B000AFB0
:1009AC007860022007F062FA00BF0837BD4680BDB0
:1009BC0080B483B000AF7860064BD3F88020054933
:1009CC007B681343C1F8803000BF0C37BD465DF81F
:1009DC00047B70470008005880B483B000AF786087
:1009EC00054B1A6804497B6813430B6000BF0C3736
:1009FC00BD465DF8047B70470008005880B483B096
:100A0C0000AF0D4B9B6A9BB27B600B4B9B6A9BB2FE
:100A1C003B6005E03B687B60074B9B6A9BB23B608D
:100A2C007A683B689A42F5D13B6818460C37BD464C
:100A3C005DF8047B704700BF0028004080B485B08F
:100A4C0000AF03460A46FB711346BB71BA791D49C8
:100A5C0013465B001344DB000B4415331B78FB730C
:100A6C00FB7B062B09D0FA7B164913465B0013441B
:100A7C00DB000B441433FA791A70FA7911491346D6
:100A8C005B001344DB000B441533FA7B1A70FA79C4
:100A9C000C4913465B001344DB000B441433BA7946
:100AAC001A70BA79074913465B001344DB000B44F8
:100ABC001533FA791A7000BF1437BD465DF8047B04
:100ACC00704700BF9400002080B485B000AF03468F
:100ADC000A46FB711346BB71294B1B78DBB2BA7902
:100AEC009A4232D0BA79274913465B001344DB0093
:100AFC000B4414331B78FB73FA7B224913465B00BF
:100B0C001344DB000B441533FA791A70FA791D493A
:100B1C0013465B001344DB000B441533BA791A708F
:100B2C00FA79184913465B001344DB000B44143369
:100B3C00FA7B1A70BA79134913465B001344DB0035
:100B4C000B441433FA791A7014E0FA790D491346F0
:100B5C005B001344DB000B441533BA791A70BA7975
:100B6C00084913465B001344DB000B441433FA7939
:100B7C001A7000BF1437BD465DF8047B704700BF88
:100B8C00240100209400002080B584B000AF0346FF
:100B9C00FB714E4B1B78DBB2062B18D14B4B1B78E1
:100BAC00DAB24B4B1A70494AFB791370FA794949FE
:100BBC0013465B001344DB000B44153306221A70FA
:100BCC00454B4FF0FF321A600023FB8178E000F0B8
:100BDC0009F90346FB81FA793E4913465B0013443D
:100BEC00DB000B4408331968FB89FA79194439483E
:100BFC0013465B001344DB00034408331960FA7995
:100C0C00344913465B001344DB000B4408331B6868
:100C1C00BB602E4B1B78DBB219462E4A0B465B0091
:100C2C000B44DB00134408331B68BA689A4237D371
:100C3C00264B1B787B737A7B264913465B00134447
:100C4C00DB000B4415331B783B7313E07A7B214993
:100C5C0013465B001344DB000B4415331B787B738A
:100C6C007A7B1C4913465B001344DB000B441533A1
:100C7C001B783B733B7B062B0BD03A7B15491346F9
:100C8C005B001344DB000B4408331B68BA689A42C0
:100C9C00DCD27A7BFB7911461846FFF7CFFE0FE0CA
:100CAC000A4B1B78DAB2FB7911461846FFF70CFF9A
:100CBC00064B1B78DAB2064B1A70044AFB79137098
:100CCC00FB8918461037BD4680BD00BF24010020AB
:100CDC0025010020940000202801002080B485B05C
:100CEC0000AF03460A46FB711346BB71394B1B78A8
:100CFC00DBB2FA799A4211D1364B1B78DAB2364B09
:100D0C001A70FA79354913465B001344DB000B4427
:100D1C0015331B78DAB22F4B1A703EE0FA792F4953
:100D2C0013465B001344DB000B4414331B78FB733A
:100D3C00FA792A4913465B001344DB000B44153344
:100D4C001B78BB73F979FA7B24480B465B000B4488
:100D5C00DB00034415331B78D8B2204913465B00E3
:100D6C001344DB000B44153302461A70BB7B062B75
:100D7C0013D0F979BA7B19480B465B000B44DB00A6
:100D8C00034414331B78D8B2144913465B00134444
:100D9C00DB000B44143302461A70FA790F491346E0
:100DAC005B001344DB000B440C3301221A70094B1B
:100DBC001B78DBB2062B07D1BB79002B04D1084B77
:100DCC004FF0FF321A6000BF00BF1437BD465DF80C
:100DDC00047B704724010020250100209400002092
:100DEC002801002080B582B000AF1A4B1B68B3F10C
:100DFC00FF3F26D0FFF702FE7860164B1B687A681F
:100E0C009A4205D8134B1A687B68D31A7B600AE0A8
:100E1C00114B1B881A467B68D31A3B600D4B1B6821
:100E2C003A6813447B600D4B1B781A467B6802FBB7
:100E3C0003F37B600A4B1B781A467B68D3407B60BC
:100E4C0001E000237B607B689BB218460837BD46E7
:100E5C0080BD00BF28010020300100202E010020A1
:100E6C002D01002080B582B000AF0346FB80FB88CB
:100E7C00002B08D1FFF7C2FD0346214A1360032063
:100E8C0001F049FB39E0FB88012B03D81D4B1B7883
:100E9C00012B02D0FB88013BFB8000BF1A4B1B6867
:100EAC00DB6803F00403002BF8D0174B1B68DB68DE
:100EBC00DAB2154B1B6862F49062DA60134B4FF494
:100ECC000022DA60032001F034FB114B5B691B0C30
:100EDC001B04FA880E4913434B61FFF78FFD034641
:100EEC00074A1360084B1B689A68074B1B6842F44F
:100EFC0080629A60AFF3008000BF0837BD4680BDAA
:100F0C00280100202D010020C401002000080058F9
:100F1C000028004080B584B000AF454B9B6803F4BB
:100F2C008063B3F5806F07D100BF424B1B68DB6851
:100F3C0003F00403002BF8D13E4B1B689A683D4B21
:100F4C001B6822F480629A603B4B1B78FB73FA7B24
:100F5C003A4913465B001344DB000B4408331B680F
:100F6C00BB60FFF73FFF0346FB80FB88BA689A42E1
:100F7C0005D20023BB81324B01221A704DE0FB8855
:100F8C00304A128892B213441A46BB68934206D96F
:100F9C002C4B1B88BB812A4B00221A703DE0BB688E
:100FAC009AB2FB88D31ABB81254B01221A7034E00C
:100FBC00FA7B224913465B001344DB000B440833D5
:100FCC001A68FB889A420AD2FA7B1C4913465B00CA
:100FDC001344DB000B44083300221A6013E0FA7B45
:100FEC00164913465B001344DB000B4408331968A5
:100FFC00FB88FA7BC91A114813465B001344DB00CB
:10100C00034408331960FA7B0C4913465B00134404
:10101C00DB000B4415331B78FB73FB7B062BC7D112
:10102C00BB891846FFF71EFF00BF1037BD4680BDB9
:10103C0000280040C401002024010020940000205E
:10104C002C0100203201002080B58AB000AFEFF3F4
:10105C0010837B617B697B6272B600BF594B1B6846
:10106C00CA225A62574B1B6853225A62554B1B6853
:10107C009A68544B1B6822F480629A60524B1B781E
:10108C0087F8233097F82320504913465B0013440C
:10109C00DB000B440C331B78DBB2022B6ED197F8C0
:1010AC0023204A4913465B001344DB000B441B68A6
:1010BC00FB6197F82320454913465B001344DB0082
:1010CC000B4410331B68BB61414B1B78DBB2002B0C
:1010DC004CD097F823203D4913465B001344DB00AA
:1010EC000B440D331B78DBB2012B24D197F8233042
:1010FC0001211846FFF7F2FD7B6A3B613B6983F3E4
:10110C00108800BF97F82320304913465B00134426
:10111C00DB000B4404331A6897F823301146184649
:10112C0000F0B8F9274B1B68CA225A62254B1B6882
:10113C0053225A6212E07B6AFB60FB6883F31088CF
:10114C0000BF97F82330184600F020F91D4B1B68A0
:10115C00CA225A621B4B1B6853225A6297F82330DF
:10116C00FA691946B86900F01BFA22E0FFF7D2FEC3
:10117C007B6ABB60BB6883F310881AE000BF114B1D
:10118C001B68DB6803F00403002BF8D00D4B1B68C5
:10119C00DB68DAB20B4B1B6862F49062DA600D4BC1
:1011AC004FF40022DA607B6A7B607B6883F31088E3
:1011BC0000BF044B1B68FF225A6200BF2837BD4694
:1011CC0080BD00BFC4010020240100209400002039
:1011DC002C0100200008005880B588B000AF0346F1
:1011EC003960FB715E4B1B68CA225A625C4B1B68F0
:1011FC0053225A625B4B9B685A4A43F0200393601C
:10120C00584B9B68DBB203F00703DBB2C3F104035A
:10121C00DAB2554B1A70534B1B6903F4FE034FF4AF
:10122C00FE023A613A6992FAA2F2FA60FA687A61BD
:10123C007A69002A01D1202203E07A69B2FA82F29B
:10124C00D2B2D340DBB20133DAB2484B1A70454B01
:10125C001B699BB2C3F30E039BB201339AB2444B8E
:10126C001A80434B1B88013B404A127802FB03F364
:10127C00A3F5A0733C4A1278D340BB61BB694FF60F
:10128C00FE72934204D93B4B4FF6FF721A8003E077
:10129C00BB699AB2374B1A804FF40020FFF79CFBC6
:1012AC004FF40020FFF784FBFB79002B3DD1324B30
:1012BC0001221A70314B4FF0FF321A600023FB777A
:1012CC000CE0FA7F2E4913465B001344DB000B4401
:1012DC000C3300221A70FB7F0133FB77FB7F052B4D
:1012EC00EFD9284B06221A701D4B1B689A681C4BB1
:1012FC001B6822F480629A60194B1B68DB68DAB2B7
:10130C00174B1B6862F49062DA601F4B4FF400229B
:10131C00DA60032001F00DF9114B1B689A68104B31
:10132C001B6842F480429A6009E00D4B1B68DB6835
:10133C0003F48063002B02D0032001F0ECF8084B7F
:10134C001B68FF225A6200220321032001F0A1F83E
:10135C00032001F0B8F800BF2037BD4680BD00BFA8
:10136C00C4010020002800402D0100202E01002087
:10137C0030010020320100202C0100202801002027
:10138C0094000020240100200008005880B586B08D
:10139C0000AF0346FB71EFF31083FB60FB687B61CE
:1013AC0072B600BF032001F09CF8344B1B68CA22B4
:1013BC005A62324B1B6853225A62FA7930491346EF
:1013CC005B001344DB000B440C331B78DBB2022BA9
:1013DC0042D1FB7900211846FFF780FC294B1B7882
:1013EC00FB74FB7C062B2FD1274B9B6803F480638B
:1013FC00B3F5806F07D100BF204B1B68DB6803F08F
:10140C000403002BF8D11D4B1B689A681B4B1B68FF
:10141C0022F480629A6000BF184B1B68DB6803F0F3
:10142C000403002BF8D0154B1B68DB68DAB2134BA6
:10143C001B6862F49062DA60144B4FF40022DA609D
:10144C00032001F076F807E0114B1B78DBB2FA7C35
:10145C009A4201D0FFF75EFD084B1B68FF225A62CF
:10146C00032001F030F87B69BB60BB6883F3108804
:10147C0000BF00BF1837BD4680BD00BFC4010020AF
:10148C00940000202401002000280040000800588F
:10149C002501002080B586B000AF03463960FB7192
:1014AC00FA793B4913465B001344DB000B440C33C5
:1014BC001B78DBB2022B03D1FB791846FFF766FFD2
:1014CC00EFF31083FB60FB687B6172B600BF0320F7
:1014DC0001F007F82F4B1B68CA225A622D4B1B6870
:1014EC0053225A62FA792A4913465B001344DB00F3
:1014FC000B440C3302221A70FA79254913465B000F
:10150C001344DB000B4408333A681A60FA7920491B
:10151C0013465B001344DB000B4404333A681A6037
:10152C00FB791846FFF730FB03467B821A4B1B787E
:10153C007B741A4B1B78DBB27A7C9A4202D0FFF791
:10154C00E9FC13E0FA79124913465B001344DB0003
:10155C000B44083319687B8AFA79C91A0C4813466C
:10156C005B001344DB00034408331960094B1B6810
:10157C00FF225A62032000F0A6FF7B69BB60BB68A8
:10158C0083F3108800BF00BF1837BD4680BD00BF75
:10159C0094000020C401002024010020250100201B
:1015AC0080B584B000AFF8600B467A60FB727B6844
:1015BC00984700BF1037BD4680BD80B483B000AFE4
:1015CC0078604FF0B043D3F8903023F018024FF00E
:1015DC00B0417B681343C1F8903000BF0C37BD4657
:1015EC005DF8047B704780B485B000AF78604FF035
:1015FC00B043DA6C4FF0B0417B681343CB644FF0CF
:10160C00B043DA6C7B681340FB60FB6800BF143797
:10161C00BD465DF8047B704780B500AF00F058FD07
:10162C00FFF70EF800F011F800F05BF800F0BAF8D4
:10163C0000F008F900F0D2F800F074F800F0C6F8E9
:10164C00FFF70CF8FFF777F9FCE780B598B000AF1F
:10165C0007F11C0344220021184606F09BFC3B4674
:10166C0000221A605A609A60DA601A615A619A61B3
:10167C0002F0DCF80020FFF7A0FF0723FB614FF41A
:10168C0080333B6201237B624FF48073BB62402347
:10169C00FB6200237B6407F11C03184602F084FCF8
:1016AC000346002B01D000F081F96F233B6002232D
:1016BC007B608023BB600023FB6000233B61002325
:1016CC007B610023BB613B460121184602F0A2FF5F
:1016DC000346002B01D000F069F900BF6037BD460E
:1016EC0080BD80B58CB000AF3B463022002118463F
:1016FC0006F050FC4FF440533B604FF480437B6248
:10170C000023BB621023FB623B46184603F018FB18
:10171C000346002B01D000F049F900BF3037BD461D
:10172C0080BD000080B500AF1B4B1C4A1A601A4BE1
:10173C001B4A5A60184B00229A60174B0122DA6040
:10174C00154B00221A61144B00225A61124B0022D5
:10175C009A61114B0022DA610F4B00221A620E487B
:10176C0001F00AFA0346002B01D000F01FF900210A
:10177C00094801F03DFF0346002B01D000F016F99B
:10178C000021054801F07FFF0346002B01D000F03B
:10179C000DF900BF80BD00BF340100200054004093
:1017AC005B3D300080B500AF064B074A1A60054818
:1017BC0001F0B6FF0346002B01D000F0F7F800BF94
:1017CC0080BD00BF88010020000C005880B400AF21
:1017DC0000BFBD465DF8047B7047000080B500AFCC
:1017EC00164B174A1A60154B00225A60134B0F22E6
:1017FC009A60124B47F6FF72DA60104B00221A61A6
:10180C000E4B00229A610D4B00225A610B4803F0DB
:10181C008DFB0346002B01D000F0C8F800224FF6D8
:10182C00FF71064803F082FC0346002B01D000F048
:10183C00BDF8024803F036FD00BF80BDC401002096
:10184C000028004080B586B000AF3B1D00221A6016
:10185C005A609A60DA601A610420FFF7C4FE802097
:10186C00FFF7C1FE0220FFF7BEFE0120FFF7BBFE13
:10187C001020FFF7B8FE08237B600323BB60002316
:10188C00FB603B1D1946234800F0D2FF4FF6FF7357
:10189C007B600323BB600023FB603B1D19464FF0AC
:1018AC00904000F0C5FF0F237B600323BB60002337
:1018BC00FB603B1D1946184800F0BAFF10237B60F3
:1018CC000323BB600023FB603B1D1946134800F04B
:1018DC00AFFFF0237B604FF40413BB600023FB606D
:1018EC003B1D19460C4800F0A3FF00220F210A20D3
:1018FC0000F0CFFD0A2000F0E6FD00220C2117209D
:10190C0000F0C7FD172000F0DEFD00BF1837BD4604
:10191C0080BD00BF001C00480004004800100048B7
:10192C0080B582B000AF0346FB80FB88102B0BD137
:10193C00FFF78BFE00F062FC1B4B01221A7000219A
:10194C00082006F007FA2BE0FB88202B0BD1FFF7C1
:10195C007CFE00F053FC144B02221A70002108206C
:10196C0006F0F8F91CE0FB88402B0BD1FFF76DFE5D
:10197C0000F044FC0C4B03221A700021082006F0E6
:10198C00E9F90DE0FB88802B0AD1FFF75EFE00F031
:10199C0035FC054B04221A700021082006F0DAF9F8
:1019AC0000BF0837BD4680BDE801002080B400AF01
:1019BC0072B600BFFEE7000080B483B000AF786061
:1019CC00064B1B6823F0070204497B6813430B602A
:1019DC0000BF0C37BD465DF8047B7047000400580F
:1019EC0080B400AF034B09229A6100BFBD465DF87D
:1019FC00047B70470004005880B400AF074BD3F849
:101A0C00883003F48063B3F5806F01D1012300E0CB
:101A1C0000231846BD465DF8047B7047000400584F
:101A2C0080B400AF074BD3F8883003F40043B3F510
:101A3C00004F01D1012300E000231846BD465DF89C
:101A4C00047B70470004005880B400AF4FF0B043E3
:101A5C001B684FF0B04243F48073136000BFBD4667
:101A6C005DF8047B704780B400AF4FF0B0431B6847
:101A7C0003F48063B3F5806F01D1012300E00023F0
:101A8C001846BD465DF8047B704780B483B000AF48
:101A9C0078604FF0B0439B6823F003024FF0B041E5
:101AAC007B6813438B6000BF0C37BD465DF8047B2D
:101ABC00704780B400AF4FF0B0439B6803F00C0349
:101ACC001846BD465DF8047B704780B483B000AF08
:101ADC0078604FF0B0435B6A23F003024FF0B041E3
:101AEC007B6813434B6200BF0C37BD465DF8047B2B
:101AFC00704780B400AF4FF0B043D3F894304FF040
:101B0C00B04243F40003C2F8943000BFBD465DF808
:101B1C00047B704780B400AF054B1B69044A23F06B
:101B2C000403136100BFBD465DF8047B704700BF22
:101B3C0000ED00E080B400AF054B1B69044A43F094
:101B4C000403136100BFBD465DF8047B704700BF02
:101B5C0000ED00E080B483B000AF786039607B6842
:101B6C003A68203253F82230054A934201D00123BF
:101B7C0000E0002318460C37BD465DF8047B704727
:101B8C000004008080B485B000AFF860B9607A6062
:101B9C007B6843F48061FB68BA6843F8221000BF8D
:101BAC001437BD465DF8047B704780B500AF00F07C
:101BBC0015FBFFF79EFF00F035F8FFF711FF032030
:101BCC00FFF7FAFEFFF7B6FF00BF80BD80B400AF91
:101BDC0000BFBD465DF8047B704780B500AF00F0D8
:101BEC00FDFA00F01FF80120FFF7E6FEFFF7A2FF59
:101BFC0030BF00BF80BD80B500AF00F04FF800F0E3
:101C0C00FDFA00BF80BD80B500AF00F0E7FAFFF72A
:101C1C0081FF30BF00BF80BD80B500AF00F0EEFA91
:101C2C0000BF80BD80B500AF00BF03211948FFF78E
:101C3C0091FF0346002BF8D104211648FFF78AFFC9
:101C4C000346002B17D1FFF7EBFE0346002B04D104
:101C5C00FFF7D2FE0346002B15D0002204210D48BD
:101C6C00FFF790FF00F034F80B4B1B680A4A23F087
:101C7C000703136007E000F02BF8074B1B68064ABC
:101C8C0023F007031360002203210248FFF77AFFB9
:101C9C0000BF80BD001400580040005880B500AF54
:101CAC00002204210948FFF76DFF00BF03210748FC
:101CBC00FFF750FF0346002BF8D1FFF7FAFE002286
:101CCC0003210248FFF75EFF00BF80BD00140058DF
:101CDC0080B500AFFFF7B8FE00BFFFF7C4FE0346A8
:101CEC00002BFAD00120FFF7D0FE0020FFF7EDFE0D
:101CFC0000BFFFF7DEFE0346042BFAD100BF80BD08
:101D0C0080B400AF4FF0B043D3F890304FF0B042F6
:101D1C0043F40043C2F8903000BFBD465DF8047B2D
:101D2C00704780B485B000AF78604FF0B043DA6C88
:101D3C004FF0B0417B681343CB644FF0B043DA6C87
:101D4C007B681340FB60FB6800BF1437BD465DF831
:101D5C00047B704780B485B000AF78604FF0B0431F
:101D6C001A6D4FF0B0417B6813430B654FF0B043D5
:101D7C001A6D7B681340FB60FB6800BF1437BD46CF
:101D8C005DF8047B704780B485B000AF78604FF08D
:101D9C00B0439A6D4FF0B0417B6813438B654FF0A5
:101DAC00B0439A6D7B681340FB60FB6800BF14372F
:101DBC00BD465DF8047B704780B500AF4FF4002042
:101DCC00FFF7C8FF002200212E2000F062FB2E201E
:101DDC0000F079FB00BF80BD80B594B000AF786097
:101DEC0007F13C0300221A605A609A60DA601A61AB
:101DFC0007F10C0330220021184606F0CBF87B6863
:101E0C001B68174A934226D10423FB604FF44033DE
:101E1C00BB6107F10C03184602F092FF0346002B3E
:101E2C0001D0FFF7C3FD0220FFF77BFF4FF4407397
:101E3C00FB6312233B6400237B640023BB640423F9
:101E4C00FB6407F13C031946064800F0F1FC4FF423
:101E5C000010FFF798FF00BF5037BD4680BD00BF94
:101E6C00005400400004004880B582B000AF786098
:101E7C007B681B680D4A934213D14FF48010FFF717
:101E8C0069FF002200212C2000F003FB2C2000F025
:101E9C001AFB002200212D2000F0FBFA2D2000F06F
:101EAC0012FB00BF0837BD4680BD00BF000C0058B8
:101EBC0080B58EB000AF786007F1080330220021A6
:101ECC00184606F067F87B681B68124A93421DD1CE
:101EDC004FF40063BB604FF48073BB6207F10803DF
:101EEC00184602F02DFF0346002B01D0FFF75EFDD4
:101EFC00FFF706FF4FF48060FFF745FF00220F212C
:101F0C00032000F0C6FA032000F0DDFA00BF3837DA
:101F1C00BD4680BD0028004080B400AFFEE780B411
:101F2C0000AFFEE780B400AFFEE780B400AFFEE781
:101F3C0080B400AFFEE780B400AF00BFBD465DF8D3
:101F4C00047B704780B400AF00BFBD465DF8047BD6
:101F5C00704780B400AF00BFBD465DF8047B70478E
:101F6C0080B500AF00F00EF900BF80BD80B500AFAA
:101F7C00FFF76AF800BF80BD80B500AF102000F0FD
:101F8C00BFFD00BF80BD80B500AF202000F0B8FDC4
:101F9C00402000F0B5FD802000F0B2FD00BF80BDF8
:101FAC0080B500AF05F002FC00BF80BD80B500AF6E
:101FBC0005F032FC00BF80BD80B500AF00F0B8FD6D
:101FCC0000BF80BD80B400AF224BD3F88830214ACB
:101FDC0043F47003C2F888304FF0B0431B684FF0E5
:101FEC00B04243F0010313604FF0B0434FF4E022D2
:101FFC009A604FF0B0431A684FF0B041164B134043
:10200C000B604FF0B043D3F894304FF0B04223F054
:10201C000503C2F894304FF0B043D3F898304FF02A
:10202C00B04223F00103C2F898304FF0B0430B4A92
:10203C00DA604FF0B0431B684FF0B04223F48023BA
:10204C0013604FF0B04300229A6100BFBD465DF8AB
:10205C00047B704700ED00E0FBFEF6FA0010042252
:10206C00D458C4500433C4188C42F9D3704703605D
:10207C0004308842FBD370470C488546FFF7A2FF1B
:10208C000B480C490C4A0023FFF7EDFF0B480C4999
:10209C000023FFF7EEFF0B480B490023FFF7E9FF86
:1020AC0005F080FFFFF7B8FAFEE7000000300020D3
:1020BC000400002024000020C882000870000020CA
:1020CC0040030020E4010320670A0320FEE7000020
:1020DC0080B582B000AF0023FB710C4B1B680B4A20
:1020EC0043F480731360032000F0C8F90F2000F054
:1020FC000FF80346002B02D00123FB7101E0FFF720
:10210C005BFEFB7918460837BD4680BD0040005881
:10211C0080B584B000AF78600023FB73174B1B783D
:10212C00002B24D002F022FC0246144B1B781946DB
:10213C004FF47A73B3FBF1F3B2FBF3F3184600F0F0
:10214C00DEF90346002B0FD17B680F2B09D8002238
:10215C0079684FF0FF3000F09CF9094A7B681360F6
:10216C0007E00123FB7304E00123FB7301E001236F
:10217C00FB73FB7B18461037BD4680BD1800002052
:10218C001400002080B400AF064B1B781A46064B97
:10219C001B681344044A136000BFBD465DF8047B02
:1021AC00704700BF18000020EC01002080B400AF85
:1021BC00034B1B681846BD465DF8047B704700BF97
:1021CC00EC01002080B400AF034B1B681846BD46E1
:1021DC005DF8047B704700BF1400002080B400AF92
:1021EC00054B1B68044A23F00203136000BFBD4675
:1021FC005DF8047B704700BF10E000E080B400AFD6
:10220C00054B1B68044A43F00203136000BFBD4634
:10221C005DF8047B704700BF10E000E080B485B02F
:10222C0000AF78607B6803F00703FB600C4BDB6846
:10223C00BB60BA684FF6FF031340BB60FB681A0221
:10224C00BB68134343F0BF6343F40033BB60044AE1
:10225C00BB68D36000BF1437BD465DF8047B704784
:10226C0000ED00E080B400AF044BDB681B0A03F008
:10227C0007031846BD465DF8047B704700ED00E08F
:10228C0080B483B000AF0346FB7197F90730002B85
:10229C000BDBFB7903F01F02074997F907305B0949
:1022AC00012000FA02F241F8232000BF0C37BD4692
:1022BC005DF8047B704700BF00E100E080B483B0A0
:1022CC0000AF0346FB7197F90730002B12DBFB794B
:1022DC0003F01F020A4997F907305B09012000FA45
:1022EC0002F2203341F82320BFF34F8F00BFBFF31E
:1022FC006F8F00BF00BF0C37BD465DF8047B704785
:10230C0000E100E080B483B000AF0346FB7197F9A5
:10231C000730002B0CDBFB7903F01F02074997F900
:10232C0007305B09012000FA02F2403341F8232008
:10233C0000BF0C37BD465DF8047B704700E100E040
:10234C0080B483B000AF0346FB7197F90730002BC4
:10235C000CDBFB7903F01F02074997F907305B0987
:10236C00012000FA02F2603341F8232000BF0C3741
:10237C00BD465DF8047B704700E100E080B483B09B
:10238C0000AF03463960FB7197F90730002B0ADB6D
:10239C003B68DAB20C4997F907301201D2B20B4400
:1023AC0083F800230AE03B68DAB20849FB7903F0B2
:1023BC000F03043B1201D2B20B441A7600BF0C3748
:1023CC00BD465DF8047B704700E100E000ED00E0E5
:1023DC0080B489B000AFF860B9607A60FB6803F034
:1023EC000703FB61FB69C3F10703042B28BF04231C
:1023FC00BB61FB690433062B02D9FB69033B00E08C
:10240C0000237B614FF0FF32BB6902FA03F3DA431E
:10241C00BB681A407B699A404FF0FF317B6901FA27
:10242C0003F3D9437B680B40134318462437BD464E
:10243C005DF8047B7047000080B582B000AF786017
:10244C007B68013BB3F1807F01D301230FE00A4A83
:10245C007B68013B53600F214FF0FF30FFF78EFF7D
:10246C00054B00229A60044B07221A600023184681
:10247C000837BD4680BD00BF10E000E080B582B0DB
:10248C0000AF78607868FFF7C9FE00BF0837BD461B
:10249C0080BD80B586B000AF0346B9607A60FB732F
:1024AC00FFF7E0FE78617A68B9687869FFF790FF0A
:1024BC00024697F90F3011461846FFF75FFF00BF31
:1024CC001837BD4680BD80B582B000AF0346FB71A6
:1024DC0097F907301846FFF7D3FE00BF0837BD4603
:1024EC0080BD80B582B000AF0346FB7197F9073011
:1024FC001846FFF7E3FE00BF0837BD4680BD80B528
:10250C0082B000AF78607868FFF796FF03461846F4
:10251C000837BD4680BD80B582B000AF0346FB7165
:10252C0097F907301846FFF7EDFE00BF0837BD4698
:10253C0080BD80B582B000AF0346FB7197F90730C0
:10254C001846FFF7FDFE00BF0837BD4680BD0000F2
:10255C0080B483B000AF0023FB710B4B5B69002B85
:10256C000BDA094B094A9A60074B094A9A60064BE9
:10257C005B69002B01DA0123FB71FB7918460C37E0
:10258C00BD465DF8047B7047004000582301674549
:10259C00AB89EFCD80B483B000AF0023FB71094B46
:1025AC005B69084A43F000435361064B5B69002B9F
:1025BC0001DB0123FB71FB7918460C37BD465DF836
:1025CC00047B70470040005880B584B000AF786041
:1025DC00FFF7ECFDB86009E0FFF7E8FD0246BB68C9
:1025EC00D31A7A689A4201D8032354E02C4B1B6906
:1025FC0003F48033B3F5803FEED0294B1B69FB60AD
:10260C00FB6803F00103002B02D0254B01221A6159
:10261C00FB6803F40043002B07D0214B4FF400421E
:10262C001A61FB6823F40043FB60FA684CF2FA333E
:10263C001340FB60FB6803F04043002B07D0184BA2
:10264C009A69FB6803F04043154913438B61FB689F
:10265C0023F04043002B04D0114AFB6823F0404385
:10266C001361FB68002B0ED00E4AFB6853600123EC
:10267C0011E0FFF79BFD0246BB68D31A7A689A42B9
:10268C0001D8032307E0064B1B6903F48023B3F541
:10269C00802FEED0002318461037BD4680BD00BFFA
:1026AC0000400058F001002080B584B000AF786085
:1026BC003960244B1B78012B01D102233DE0214BC7
:1026CC0001221A701F4B00225A604FF47A70FFF7E8
:1026DC007BFF0346FB73FB7B002B2AD17B681B68BB
:1026EC00022B24D13B684FF0FF321A607B685B6889
:1026FC00BB6012E0B86800F027F84FF47A70FFF76F
:10270C0063FF0346FB73FB7B002B03D03B68BA686B
:10271C001A600AE0BB680133BB607B685A687B684F
:10272C009B681344BA689A42E4D300F06FF800F047
:10273C0025F8044B00221A70FB7B18461037BD4657
:10274C0080BD00BFF001002080B483B000AF786082
:10275C00094B5B6923F4FF627B68DB001343064A79
:10276C0043F4803343F00203536100BF0C37BD4682
:10277C005DF8047B704700BF0040005880B400AF88
:10278C00214B1B6803F40073B3F5007F17D11E4B6C
:10279C001B681D4A23F4007313601B4B1B681A4AF9
:1027AC0043F400631360184B1B68174A23F400634F
:1027BC001360154B1B68144A43F400731360124BDF
:1027CC001B6803F48063B3F5806F17D10E4B1B6845
:1027DC000D4A23F4806313600B4B1B680A4A43F4C5
:1027EC0080531360084B1B68074A23F48053136013
:1027FC00054B1B68044A43F48063136000BFBD465D
:10280C005DF8047B704700BF0040005880B400AFF7
:10281C00064B5B69054A23F4FF6323F00203536103
:10282C0000BFBD465DF8047B704700BF00400058F8
:10283C0080B487B000AF7860396000237B6146E1DB
:10284C003B681A6801217B6901FA03F31340FB60B2
:10285C00FB68002B00F038813B685B6803F00303D6
:10286C00012B05D03B685B6803F00303022B30D1CE
:10287C007B689B683B617B695B00032202FA03F374
:10288C00DB433A6913403B613B68DA687B695B0068
:10289C0002FA03F33A6913433B617B683A699A6025
:1028AC007B685B683B6101227B6902FA03F3DB43C3
:1028BC003A6913403B613B685B681B0903F00102FA
:1028CC007B6902FA03F33A6913433B617B683A690B
:1028DC005A603B685B6803F00303032B17D07B68DB
:1028EC00DB683B617B695B00032202FA03F3DB4389
:1028FC003A6913403B613B689A687B695B0002FA5A
:10290C0003F33A6913433B617B683A69DA603B68CD
:10291C005B6803F00303022B23D17B69DA087B6825
:10292C00083253F822303B617B6903F007039B00AC
:10293C000F2202FA03F3DB433A6913403B613B6815
:10294C001A697B6903F007039B0002FA03F33A69E7
:10295C0013433B617B69DA087B680832396943F8B9
:10296C0022107B681B683B617B695B00032202FAC7
:10297C0003F3DB433A6913403B613B685B6803F04C
:10298C0003027B695B0002FA03F33A6913433B6170
:10299C007B683A691A603B685B6803F44033002B30
:1029AC0000F09280514A7B699B08023352F8233025
:1029BC003B617B6903F003039B000F2202FA03F3D4
:1029CC00DB433A6913403B617B68B3F1904F13D002
:1029DC007B68474A93420DD07B68464A934207D0A6
:1029EC007B68454A934201D1042306E0072304E0A7
:1029FC00022302E0012300E000237A6902F00302C3
:102A0C00920093403A6913433B6138497B699B08B8
:102A1C0002333A6941F82320384B1B683B61FB6851
:102A2C00DB433A6913403B613B685B6803F48013FA
:102A3C00002B03D03A69FB6813433B612F4A3B6977
:102A4C0013602E4B5B683B61FB68DB433A691340B8
:102A5C003B613B685B6803F40013002B03D03A69BD
:102A6C00FB6813433B61254A3B695360234BD3F806
:102A7C0080303B61FB68DB433A6913403B613B6848
:102A8C005B6803F48033002B03D03A69FB68134373
:102A9C003B611A4A3B69C2F88030184BD3F884303A
:102AAC003B61FB68DB433A6913403B613B685B6805
:102ABC0003F40033002B03D03A69FB6813433B61EA
:102ACC000E4A3B69C2F884307B6901337B613B68F9
:102ADC001A687B6922FA03F3002B7FF4B1AE00BFB6
:102AEC0000BF1C37BD465DF8047B704700000140F9
:102AFC000004004800080048001000480008005876
:102B0C0080B582B000AF0346FB80084BDA68FB88C7
:102B1C001340002B06D0054AFB88D360FB8818466F
:102B2C00FEF7FEFE00BF0837BD4680BD000800580A
:102B3C0080B582B000AF0A4BDB687B60084B1A682B
:102B4C007B68DB43064913400B60054A7B68536086
:102B5C00786800F007F800BF0837BD4680BD00BF9D
:102B6C000015005880B483B000AF786000BF0C37FC
:102B7C00BD465DF8047B704780B582B000AF7860CD
:102B8C007B68002B01D101238DE07B6893F84130E9
:102B9C00DBB2002B06D17B68002283F840207868DA
:102BAC00FFF71AF97B68242283F841207B681B68A5
:102BBC001A687B681B6822F001021A607B685A68ED
:102BCC007B681B6822F070621A617B681B689A68CC
:102BDC007B681B6822F400429A607B68DB68012BDF
:102BEC0007D17B689A687B681B6842F400429A6044
:102BFC0006E07B689A687B681B6842F404429A6022
:102C0C007B68DB68022B08D17B681B685A687B6881
:102C1C001B6842F400625A6007E07B681B685A68C4
:102C2C007B681B6822F400625A607B681B685B68D7
:102C3C007A68126843F0007343F4004353607B6876
:102C4C001B68DA687B681B6822F40042DA607B68D8
:102C5C001A697B685B6942EA03017B689B691A020B
:102C6C007B681B680A43DA607B68D9697B681A6ADF
:102C7C007B681B680A431A607B681B681A687B6850
:102C8C001B6842F001021A607B6800225A647B6860
:102C9C00202283F841207B6800221A637B68002283
:102CAC0083F84220002318460837BD4680BD00003B
:102CBC0080B588B002AFF8607A601A460B467B810B
:102CCC0013463B81FB6893F84130DBB2202B40F07C
:102CDC00FD80FB6893F84030012B01D10223F6E014
:102CEC00FB68012283F84020FFF760FA38613B69EA
:102CFC000093192301224FF40041F86800F00AFAFE
:102D0C000346002B01D00123E1E0FB68212283F86C
:102D1C004120FB68102283F84220FB6800225A6491
:102D2C00FB687A685A62FB683A895A85FB6800220C
:102D3C005A63FB685B8D9BB2FF2B06D9FB68FF22A5
:102D4C001A854FF080737B6107E0FB685B8D9AB24C
:102D5C00FB681A854FF000737B61FB681B8D002BA1
:102D6C0024D0FB685B6A1A78FB681B689A62FB6864
:102D7C005B6A5A1CFB685A62FB685B8D9BB2013B19
:102D8C009AB2FB685A85FB681B8D013B9AB2FB68B3
:102D9C001A85FB681B8DDBB20133DAB279894E4B95
:102DAC0000937B69F86800F0F1FB66E0FB681B8D13
:102DBC00DAB27989484B00937B69F86800F0E6FB3E
:102DCC005BE03A69396AF86800F0F3F90346002BC6
:102DDC0001D001237BE0FB685B6A1A78FB681B68F7
:102DEC009A62FB685B6A5A1CFB685A62FB685B8DD3
:102DFC009BB2013B9AB2FB685A85FB681B8D013B69
:102E0C009AB2FB681A85FB685B8D9BB2002B34D0A1
:102E1C00FB681B8D002B30D13B6900933B6A002271
:102E2C008021F86800F076F90346002B01D00123CD
:102E3C004DE0FB685B8D9BB2FF2B0ED9FB68FF222C
:102E4C001A85FB681B8DDAB27989002300934FF049
:102E5C008073F86800F09AFB0FE0FB685B8D9AB208
:102E6C00FB681A85FB681B8DDAB279890023009305
:102E7C004FF00073F86800F089FBFB685B8D9BB228
:102E8C00002B9ED13A69396AF86800F0D9F90346EB
:102E9C00002B01D001231AE0FB681B682022DA61A9
:102EAC00FB681B685968FB681A680C4B0B40536035
:102EBC00FB68202283F84120FB68002283F8422023
:102ECC00FB68002283F84020002300E00223184610
:102EDC001837BD4680BD00BF0020008000E800FE12
:102EEC0080B588B002AFF8607A601A460B467B81D9
:102EFC0013463B81FB6893F84130DBB2202B40F04A
:102F0C00DB80FB6893F84030012B01D10223D4E025
:102F1C00FB68012283F84020FFF748F978617B6950
:102F2C000093192301224FF40041F86800F0F2F8E5
:102F3C000346002B01D00123BFE0FB68222283F85B
:102F4C004120FB68102283F84220FB6800225A645F
:102F5C00FB687A685A62FB683A895A85FB680022DA
:102F6C005A63FB685B8D9BB2FF2B0ED9FB68FF226B
:102F7C001A85FB681B8DDAB27989524B00934FF09E
:102F8C008073F86800F002FB6DE0FB685B8D9AB211
:102F9C00FB681A85FB681B8DDAB27989494B009363
:102FAC004FF00073F86800F0F1FA5CE07A69396A66
:102FBC00F86800F089F90346002B01D001237CE06E
:102FCC00FB681B685A6AFB685B6AD2B21A70FB68B2
:102FDC005B6A5A1CFB685A62FB681B8D013B9AB2F8
:102FEC00FB681A85FB685B8D9BB2013B9AB2FB6850
:102FFC005A85FB685B8D9BB2002B34D0FB681B8D14
:10300C00002B30D17B6900933B6A00228021F86849
:10301C0000F080F80346002B01D001234DE0FB6843
:10302C005B8D9BB2FF2B0ED9FB68FF221A85FB68C8
:10303C001B8DDAB27989002300934FF08073F86806
:10304C0000F0A4FA0FE0FB685B8D9AB2FB681A855E
:10305C00FB681B8DDAB27989002300934FF0007363
:10306C00F86800F093FAFB685B8D9BB2002B9DD146
:10307C007A69396AF86800F0E3F80346002B01D04E
:10308C0001231AE0FB681B682022DA61FB681B68CD
:10309C005968FB681A680C4B0B405360FB68202284
:1030AC0083F84120FB68002283F84220FB68002251
:1030BC0083F84020002300E0022318461837BD4651
:1030CC0080BD00BF0024008000E800FE80B483B007
:1030DC0000AF78607B681B689B6903F00203022BCE
:1030EC0003D17B681B6800229A627B681B689B6912
:1030FC0003F00103012B07D07B681B689A697B687E
:10310C001B6842F001029A6100BF0C37BD465DF8A6
:10311C00047B704780B584B000AFF860B9603B6049
:10312C001346FB7131E03B68B3F1FF3F2DD0FFF745
:10313C003DF80246BB69D31A3A689A4202D33B68FF
:10314C00002B22D1FB681B689A69BB681340BA68D4
:10315C009A420CBF01230023DBB21A46FB799A4238
:10316C0013D1FB685B6C43F02002FB685A64FB686C
:10317C00202283F84120FB68002283F84220FB6860
:10318C00002283F8402001230FE0FB681B689A693A
:10319C00BB681340BA689A420CBF01230023DBB210
:1031AC001A46FB799A42BED0002318461037BD460A
:1031BC0080BD80B584B000AFF860B9607A6033E050
:1031CC007A68B968F86800F001F90346002B01D061
:1031DC00012331E0BB68B3F1FF3F25D0FEF7E6FFDA
:1031EC0002467B68D31ABA689A4202D3BB68002B9A
:1031FC001AD1FB681B689B6903F00203022B13D0E6
:10320C00FB685B6C43F02002FB685A64FB6820226D
:10321C0083F84120FB68002283F84220FB680022DF
:10322C0083F84020012307E0FB681B689B6903F0CF
:10323C000203022BC4D1002318461037BD4680BDB3
:10324C0080B584B000AFF860B9607A602FE07A681E
:10325C00B968F86800F0BAF80346002B01D00123D6
:10326C002DE0FEF7A3FF02467B68D31ABA689A4298
:10327C0002D3BB68002B1AD1FB681B689B6903F057
:10328C002003202B13D0FB685B6C43F02002FB68FF
:10329C005A64FB68202283F84120FB68002283F8E3
:1032AC004220FB68002283F84020012307E0FB68E2
:1032BC001B689B6903F02003202BC8D10023184600
:1032CC001037BD4680BD000080B584B000AFF860FB
:1032DC00B9607A606BE07A68B968F86800F076F8E3
:1032EC000346002B01D0012369E0FB681B689B6936
:1032FC0003F02003202B38D1FB681B689B6903F07B
:10330C000403042B05D1FB681B8D002B01D000237B
:10331C0055E0FB681B689B6903F01003102B07D169
:10332C00FB681B681022DA61FB6804225A6402E015
:10333C00FB6800225A64FB681B682022DA61FB6878
:10334C001B685968FB681A681F4B0B405360FB687D
:10335C00202283F84120FB68002283F84220FB687E
:10336C00002283F84020012329E0FEF71FFF0246CC
:10337C007B68D31ABA689A4202D3BB68002B16D169
:10338C00FB681B689B6903F00403042B0FD0FB68DC
:10339C005B6C43F02002FB685A64FB68202283F8C4
:1033AC004120FB68002283F84020012307E0FB68E2
:1033BC001B689B6903F00403042B8CD10023184673
:1033CC001037BD4680BD00BF00E800FE80B58AB056
:1033DC0000AFF860B9607A60002387F82730FB688B
:1033EC001B689B69BB6100233B627B68FB61BB690B
:1033FC0003F01003002B68D0FB681B681022DA6105
:10340C0049E0BB68B3F1FF3F45D0FEF7CFFE024663
:10341C00FB69D31ABA689A4202D3BB68002B3AD123
:10342C00FB681B685B6803F480437B61FB6893F863
:10343C004230FB74FB681B689B6903F40043B3F5D3
:10344C00004F21D17B69B3F5804F1DD0FB7C202B25
:10345C001AD0FB681B685A68FB681B6842F48042F0
:10346C005A60FEF7A3FEF8610EE0FEF79FFE0246DF
:10347C00FB69D31A192B07D93B6A43F020033B6233
:10348C00012387F8273006E0FB681B689B6903F073
:10349C002003202BE9D1FB681B689B6903F02003F8
:1034AC00202B03D097F82730002BAAD097F8273081
:1034BC00002B03D1FB681B682022DA613B6A43F0C6
:1034CC0004033B62012387F82730FB681B689B6968
:1034DC00BB61BB6903F48073002B0BD03B6A43F0D8
:1034EC0001033B62FB681B684FF48072DA610123B5
:1034FC0087F82730BB6903F48063002B0BD03B6A41
:10350C0043F008033B62FB681B684FF48062DA618E
:10351C00012387F82730BB6903F40073002B0BD011
:10352C003B6A43F002033B62FB681B684FF400727A
:10353C00DA61012387F8273097F82730002B1CD04D
:10354C00F868FFF7C3FDFB681B685968FB681A68CD
:10355C000D4B0B405360FB685A6C3B6A1A43FB687B
:10356C005A64FB68202283F84120FB68002283F810
:10357C004220FB68002283F8402097F82730184639
:10358C002837BD4680BD00BF00E800FE80B487B080
:10359C0000AFF8607B600B467B8113467B727B89A6
:1035AC00C3F309027B7A1B0403F47F031A437B6881
:1035BC001A433B6A134323F000437B61FB681B688F
:1035CC005A683B6A5B0D03F48061084B0B43DB4389
:1035DC0002EA0301FB681B687A690A435A6000BF60
:1035EC001C37BD465DF8047B704700BFFF63FF03CB
:1035FC0080B483B000AF786039607B6893F8413059
:10360C00DBB2202B38D17B6893F84030012B01D1F1
:10361C00022332E07B68012283F840207B6824225D
:10362C0083F841207B681B681A687B681B6822F052
:10363C0001021A607B681B681A687B681B6822F49D
:10364C0080521A607B681B6819687B681B683A6833
:10365C000A431A607B681B681A687B681B6842F017
:10366C0001021A607B68202283F841207B680022CB
:10367C0083F84020002300E0022318460C37BD4697
:10368C005DF8047B704780B485B000AF786039601A
:10369C007B6893F84130DBB2202B39D17B6893F8EF
:1036AC004030012B01D1022333E07B68012283F8E7
:1036BC0040207B68242283F841207B681B681A68B1
:1036CC007B681B6822F001021A607B681B681B6810
:1036DC00FB60FB6823F47063FB603B681B02FA68B9
:1036EC001343FB607B681B68FA681A607B681B6875
:1036FC001A687B681B6842F001021A607B68202202
:10370C0083F841207B68002283F84020002300E0EE
:10371C00022318461437BD465DF8047B7047000041
:10372C0080B584B000AF78600023FB737B68002BFE
:10373C001ED0134BBB607B6893F83830DBB2002B88
:10374C0002D17868FEF790FBB86800F05BF8BB68B4
:10375C001B6843F00112BB681A60786800F02CF803
:10376C007B6800225A637B68012283F8382001E0D1
:10377C000123FB73FB7B18461037BD4680BD00BF91
:10378C00000C005880B485B000AFF860B9601346E7
:10379C00FB7100BF1437BD465DF8047B704780B4E5
:1037AC0085B000AFF860B9601346FB7100BF1437E9
:1037BC00BD465DF8047B704780B485B000AF78607F
:1037CC000023FB600FE07A68FB689B0013440B4AF4
:1037DC005A607A68FB6806339B001344084A5A60A7
:1037EC00FB680133FB60FB68052BECD900BF00BF05
:1037FC001437BD465DF8047B704700BF9137000855
:10380C00AB37000880B483B000AF78607B680022CF
:10381C001A607B684FF03F125A607B683F229A60B7
:10382C0000BF0C37BD465DF8047B704780B400AF19
:10383C00054B1B68044A43F48073136000BFBD46FC
:10384C005DF8047B704700BF0004005880B582B05F
:10385C0000AF78600B46FB707B68B3F5804F04D1EA
:10386C00FB78184600F04AF803E0FB78184600F0A5
:10387C001BF800BF0837BD4680BD000080B400AF08
:10388C00054B9B68044A43F40073936000BFBD462C
:10389C005DF8047B704700BF0004005880B500AF92
:1038AC00FFF7ECFF00BF80BD80B483B000AF0346D0
:1038BC00FB71104B1B680F4A23F0070313600E4B70
:1038CC001B690D4A43F004031361FB79012B01D1F1
:1038DC0030BF02E040BF20BF20BF074B1B69064A28
:1038EC0023F00403136100BF0C37BD465DF8047B65
:1038FC00704700BF0004005800ED00E080B483B0B6
:10390C0000AF0346FB71114B1B6823F007030F4AF2
:10391C0043F0010313600E4B1B690D4A43F0040383
:10392C001361FB79012B01D130BF02E040BF20BFF6
:10393C0020BF074B1B69064A23F00403136100BF29
:10394C000C37BD465DF8047B704700BF000400587F
:10395C0000ED00E080B400AF4FF0B0431B6803F4FF
:10396C008013B3F5801F01D1012300E0002318461A
:10397C00BD465DF8047B704780B400AF4FF0B04398
:10398C001B684FF0B04243F48033136000BFBD4658
:10399C005DF8047B704780B400AF4FF0B0431B68F8
:1039AC004FF0B04223F48033136000BFBD465DF886
:1039BC00047B704780B400AF4FF0B0431B6803F436
:1039CC000033B3F5003F01D1012300E0002318467A
:1039DC00BD465DF8047B704780B400AF4FF0B04338
:1039EC001B684FF0B04243F48073136000BFBD46B8
:1039FC005DF8047B704780B400AF4FF0B0431B6898
:103A0C004FF0B04223F48073136000BFBD465DF8E5
:103A1C00047B704780B400AF4FF0B0431B6803F4D5
:103A2C008063B3F5806F01D1012300E000231846B9
:103A3C00BD465DF8047B704780B483B000AF7860FE
:103A4C004FF0B0435B6823F0FE427B681B064FF0DF
:103A5C00B04113434B6000BF0C37BD465DF8047B8F
:103A6C00704780B400AF4FF0B043D3F890304FF0B4
:103A7C00B04243F00103C2F8903000BFBD465DF880
:103A8C00047B704780B400AF4FF0B043D3F8903054
:103A9C004FF0B04223F00103C2F8903000BFBD4696
:103AAC005DF8047B704780B400AF4FF0B043D3F89F
:103ABC0090304FF0B04243F00403C2F8903000BF96
:103ACC00BD465DF8047B704780B400AF4FF0B04347
:103ADC00D3F890304FF0B04223F00403C2F890308A
:103AEC0000BFBD465DF8047B704780B400AF4FF05B
:103AFC00B043D3F8903003F00203022B01D1012321
:103B0C0000E000231846BD465DF8047B704780B486
:103B1C0000AF4FF0B043D3F894304FF0B04243F0C5
:103B2C000103C2F8943000BFBD465DF8047B7047BA
:103B3C0080B400AF4FF0B043D3F894304FF0B042A4
:103B4C0023F00103C2F8943000BFBD465DF8047B3E
:103B5C00704780B400AF4FF0B043D3F8943003F00B
:103B6C000203022B01D1012300E000231846BD46BD
:103B7C005DF8047B704780B400AF4FF0B043D3F8CE
:103B8C0094304FF0B04243F00403C2F8943000BFBD
:103B9C00BD465DF8047B704780B400AF4FF0B04376
:103BAC00D3F894304FF0B04223F00403C2F89430B1
:103BBC0000BFBD465DF8047B704780B400AF4FF08A
:103BCC00B043D3F8943003F00803082B01D1012340
:103BDC0000E000231846BD465DF8047B704780B4B6
:103BEC0083B000AF78604FF0B043D3F8943023F437
:103BFC0070627B681B024FF0B0411343C1F89430E4
:103C0C0000BF0C37BD465DF8047B704780B400AF35
:103C1C004FF0B0431B684FF0B04243F00103136008
:103C2C0000BFBD465DF8047B704780B400AF4FF019
:103C3C00B0431B684FF0B04223F00103136000BF88
:103C4C00BD465DF8047B704780B400AF4FF0B043C5
:103C5C001B6803F00203022B01D1012300E00023B7
:103C6C001846BD465DF8047B704780B483B000AF46
:103C7C0078604FF0B0431B6823F0F0024FF0B04176
:103C8C007B6813430B6000BF0C37BD465DF8047BAB
:103C9C00704780B483B000AF4FF0B0431B6803F0A3
:103CAC00F0037B607B68B02B01D9B0237B607B6811
:103CBC0018460C37BD465DF8047B704780B483B062
:103CCC0000AF78604FF0B0435B6823F47F427B68B1
:103CDC001B024FF0B04113434B6000BF0C37BD4685
:103CEC005DF8047B704780B483B000AF78604FF010
:103CFC00B0439B6823F003024FF0B0417B68134341
:103D0C008B6000BF0C37BD465DF8047B704780B4F8
:103D1C0000AF4FF0B0439B6803F00C031846BD4650
:103D2C005DF8047B704780B483B000AF78604FF0CF
:103D3C00B0439B6823F0F0024FF0B0417B68134313
:103D4C008B6000BF0C37BD465DF8047B704780B4B8
:103D5C0083B000AF78604FF0B043D3F8083123F054
:103D6C00F0024FF0B0417B681343C1F8083100BF3B
:103D7C000C37BD465DF8047B704780B483B000AF50
:103D8C0078604FF0B043D3F8083123F00F027B6812
:103D9C001B094FF0B0411343C1F8083100BF0C3779
:103DAC00BD465DF8047B704780B483B000AF78608B
:103DBC004FF0B0439B6823F4E0624FF0B0417B6856
:103DCC0013438B6000BF0C37BD465DF8047B704716
:103DDC0080B483B000AF78604FF0B0439B6823F49D
:103DEC0060524FF0B0417B6813438B6000BF0C37BF
:103DFC00BD465DF8047B704780B400AF4FF0B04314
:103E0C009B6803F0F0031846BD465DF8047B7047D1
:103E1C0080B400AF4FF0B043D3F808311B0103F06E
:103E2C00F0031846BD465DF8047B704780B400AFC4
:103E3C004FF0B0431B684FF0B04243F080731360F7
:103E4C0000BFBD465DF8047B704780B400AF4FF0F7
:103E5C00B0431B684FF0B04223F08073136000BF77
:103E6C00BD465DF8047B704780B400AF4FF0B043A3
:103E7C001B6803F00073B3F1007F01D1012300E054
:103E8C0000231846BD465DF8047B704780B400AF34
:103E9C004FF0B043DB681B0A03F07F031846BD46A6
:103EAC005DF8047B704780B400AF4FF0B043DB6823
:103EBC0003F060431846BD465DF8047B704780B440
:103ECC0000AF4FF0B043DB6803F070031846BD46FB
:103EDC005DF8047B704780B400AF4FF0B043DB68F3
:103EEC0003F003031846BD465DF8047B704780B4AD
:103EFC0000AF4FF0B0439B6803F48033B3F5803FC1
:103F0C0001D1012300E000231846BD465DF8047B77
:103F1C00704780B400AF4FF0B043D3F8083103F4CE
:103F2C000033B3F5003F01D1012300E00023184614
:103F3C00BD465DF8047B704780B400AF4FF0B043D2
:103F4C00D3F8083103F48033B3F5803F01D101235A
:103F5C0000E000231846BD465DF8047B704780B432
:103F6C0000AF4FF0B0439B6803F40033B3F5003F50
:103F7C0001D1012300E000231846BD465DF8047B07
:103F8C00704780B400AF4FF0B0439B6803F48023BC
:103F9C00B3F5802F01D1012300E000231846BD4664
:103FAC005DF8047B7047000090B58DB000AF786071
:103FBC007B68002B01D1012324E37B681B6803F091
:103FCC002003002B00F08D80FFF7A1FEF862FFF7B5
:103FDC0082FFB862FB6A002B05D0FB6A0C2B47D121
:103FEC00BB6A012B44D17B68DB69002B01D1012317
:103FFC0008E37B685C6AFFF74CFE03469C4214D9CD
:10400C007B685B6A184600F0C5FC0346002B01D0A8
:10401C000123F7E27B685B6A1846FFF726FE7B6894
:10402C001B6A1846FFF74AFE13E07B685B6A18466A
:10403C00FFF71BFE7B681B6A1846FFF73FFE7B6889
:10404C005B6A184600F0A6FC0346002B01D0012346
:10405C00D8E200F08BFC0346A44A1360A44B1B6807
:10406C001846FEF755F80346002B39D00123C9E258
:10407C007B68DB69002B1ED0FFF7C8FDFEF796F8B6
:10408C00786208E0FEF792F802467B6AD31A022B9C
:10409C0001D90323B6E2FFF7D7FD0346002BF1D07D
:1040AC007B685B6A1846FFF7E0FD7B681B6A184665
:1040BC00FFF704FE15E0FFF7B8FDFEF777F878621E
:1040CC0008E0FEF773F802467B6AD31A022B01D97B
:1040DC00032397E2FFF7B8FD0346002BF1D100E074
:1040EC0000BF7B681B6803F00103002B47D0FFF770
:1040FC000EFE3862FFF7EFFEF8613B6A082B05D025
:10410C003B6A0C2B08D1FB69032B05D17B685B68E0
:10411C00002B34D1012375E27B685B68B3F5803FDB
:10412C0002D1FFF729FC01E0FFF735FC7B685B68E7
:10413C00002B12D0FEF73AF8786208E0FEF736F85A
:10414C0002467B6AD31A642B01D903235AE2FFF788
:10415C0031FC0346002BF1D011E0FEF727F8786212
:10416C0008E0FEF723F802467B6AD31A642B01D9C8
:10417C00032347E2FFF71EFC0346002BF1D17B68BB
:10418C001B6803F00203002B4CD0FFF7C0FDB86195
:10419C00FFF7A1FE7861BB69042B05D0BB690C2B22
:1041AC000ED17B69022B0BD17B68DB68002B01D114
:1041BC00012327E27B681B691846FFF73DFC31E0C1
:1041CC007B68DB68002B19D0FFF706FCFDF7EEFFD0
:1041DC00786208E0FDF7EAFF02467B6AD31A022BED
:1041EC0001D903230EE2FFF715FC0346002BF1D097
:1041FC007B681B691846FFF71FFC13E0FFF7FBFBFE
:10420C00FDF7D4FF786208E0FDF7D0FF02467B6A29
:10421C00D31A022B01D90323F4E1FFF7FBFB03466E
:10422C00002BF1D17B681B6803F00803002B06D12F
:10423C007B681B6803F01003002B00F0A3807B68E5
:10424C005B69002B76D07B681B6803F01003002B96
:10425C0046D0FFF77EFC0346002B13D1FFF757FC2B
:10426C00FDF7A4FF786208E0FDF7A0FF02467B6A29
:10427C00D31A022B01D90323C4E1FFF76AFC0346CE
:10428C00002BF1D0FFF777FCFDF790FF786208E088
:10429C00FDF78CFF02467B6AD31A032B01D903234B
:1042AC00B0E1FFF78AFC0346002BF1D07B689B69D9
:1042BC001846FFF794FCFFF73BFCFDF777FF78629D
:1042CC0008E0FDF773FF02467B6AD31A022B01D973
:1042DC00032397E1FFF73DFC0346002BF1D151E09E
:1042EC00FFF715FCFDF762FF78620CE01000002070
:1042FC0014000020FDF75AFF02467B6AD31A022BEA
:10430C0001D903237EE1FFF724FC0346002BF1D0F7
:10431C00FFF742FC08E0FDF749FF02467B6AD31A1F
:10432C00032B01D903236DE1FFF747FC0346002B58
:10433C00F1D127E0FFF730FCFDF738FF786208E099
:10434C00FDF734FF02467B6AD31A032B01D90323F2
:10435C0058E1FFF732FC0346002BF1D1FFF7E8FBE5
:10436C00FDF724FF786208E0FDF720FF02467B6A28
:10437C00D31A022B01D9032344E1FFF7EAFB0346CE
:10438C00002BF1D17B681B6803F00403002B5BD07E
:10439C009E4B1B6803F48073002B14D1FFF746FA75
:1043AC00FDF704FF786208E0FDF700FF02467B6A28
:1043BC00D31A022B01D9032324E1944B1B6803F479
:1043CC008073002BF0D07B689B68012B02D1FFF728
:1043DC0048FB0CE07B689B68052B04D1FFF763FB63
:1043EC00FFF73FFB03E0FFF74DFBFFF76DFB7B682F
:1043FC009B68002B14D0FDF7D9FE78620AE0FDF71C
:10440C00D5FE02467B6AD31A41F28832934201D917
:10441C000323F7E0FFF769FB0346002BEFD013E013
:10442C00FDF7C4FE78620AE0FDF7C0FE02467B6A27
:10443C00D31A41F28832934201D90323E2E0FFF709
:10444C0054FB0346002BEFD17B689B6A002B00F0DA
:10445C00D880FFF75CFC38614FF0B043DB68FB6041
:10446C007B689B6A022B40F0A680FB6803F003027A
:10447C007B68DB6A9A4223D1FB6803F070027B688D
:10448C001B6B9A421CD1FB681B0A03F07F027B68F2
:10449C005B6B9A4214D1FB6803F478127B689B6BBC
:1044AC009A420DD1FB6803F060627B68DB6B9A4229
:1044BC0006D1FB6803F060427B681B6C9A4254D0B7
:1044CC003B690C2B4FD0FFF7C0FCFDF76FFE7862F9
:1044DC0008E0FDF76BFE02467B6AD31A022B01D96A
:1044EC0003238FE04FF0B0431B6803F00073002BE5
:1044FC00EFD14FF0B043DA68454B13407A68D16A7C
:10450C007A68126B11437A68526B120211437A6803
:10451C00926B11437A68D26B11437A68126C0A431E
:10452C004FF0B0411343CB60FFF780FC4FF0B0432A
:10453C00DB684FF0B04243F08053D360FDF736FE9A
:10454C00786208E0FDF732FE02467B6AD31A022B32
:10455C0001D9032356E04FF0B0431B6803F00073FE
:10456C00002BEFD04DE001234CE04FF0B0431B6823
:10457C0003F00073002B44D1FFF758FC4FF0B0430D
:10458C00DB684FF0B04243F08053D360FDF70EFE72
:10459C00786208E0FDF70AFE02467B6AD31A022B0A
:1045AC0001D903232EE04FF0B0431B6803F00073D6
:1045BC00002BEFD025E03B690C2B20D0FFF745FCFE
:1045CC00FDF7F4FD786208E0FDF7F0FD02467B6A2A
:1045DC00D31A022B01D9032314E04FF0B0431B680C
:1045EC0003F00073002BEFD14FF0B043DB684FF0BA
:1045FC00B04223F0805323F00303D36001E0012386
:10460C0000E0002318463437BD4690BD0004005826
:10461C008C80C11180B584B000AF786039607B6844
:10462C00002B01D101232DE1984B1B6803F00703EC
:10463C003A689A421BD9954B1B6823F007029349A1
:10464C003B6813430B60FDF7B1FDF86008E0FDF724
:10465C00ADFD0246FB68D31A022B01D9032311E1ED
:10466C008A4B1B6803F007033A689A42EFD17B68C8
:10467C001B6803F00203002B16D07B689B6818465E
:10468C00FFF751FBFDF792FDF86008E0FDF78EFD9A
:10469C000246FB68D31A022B01D90323F2E0FFF781
:1046AC0026FC0346002BF1D07B681B6803F020032B
:1046BC00002B16D07B685B691846FFF748FBFDF7AB
:1046CC0075FDF86008E0FDF771FD0246FB68D31A32
:1046DC00022B01D90323D5E0FFF71BFC0346002B6B
:1046EC00F1D07B681B6803F04003002B16D07B686D
:1046FC009B691846FFF741FBFDF758FDF86008E091
:10470C00FDF754FD0246FB68D31A022B01D9032393
:10471C00B8E0FFF711FC0346002BF1D07B681B6857
:10472C0003F00403002B16D07B68DB681846FFF7F8
:10473C003BFBFDF73BFDF86008E0FDF737FD02465B
:10474C00FB68D31A022B01D903239BE0FFF707FC6C
:10475C000346002BF1D07B681B6803F00803002B89
:10476C0017D07B681B69DB001846FFF731FBFDF7A0
:10477C001DFDF86008E0FDF719FD0246FB68D31A31
:10478C00022B01D903237DE0FFF7FBFB0346002B33
:10479C00F1D07B681B6803F00103002B43D07B68CE
:1047AC005B68022B06D1FFF705F90346002B1ED1DF
:1047BC00012367E07B685B68032B06D1FFF754FB92
:1047CC000346002B13D101235CE07B685B68002B54
:1047DC0006D1FFF739FA0346002B08D1012351E02B
:1047EC00FFF718F90346002B01D101234AE07B683F
:1047FC005B681846FFF777FAFDF7D8FCF8600AE01B
:10480C00FDF7D4FC0246FB68D31A41F2883293427E
:10481C0001D9032336E0FFF77AFA02467B685B681E
:10482C009B009A42ECD1194B1B6803F007033A68C2
:10483C009A421BD2154B1B6823F0070213493B68A5
:10484C0013430B60FDF7B2FCF86008E0FDF7AEFC1B
:10485C000246FB68D31A022B01D9032312E00B4B3F
:10486C001B6803F007033A689A42EFD100F07EF818
:10487C000346074A1360FDF7A5FC03461846FDF7EF
:10488C0047FC034618461037BD4680BD0040005813
:10489C001000002090B585B000AFFFF738FA7860B3
:1048AC007B68002B0AD1FFF7F4F903461B0903F0D0
:1048BC000F032B4A52F82330FB604BE07B68042B30
:1048CC0002D1284BFB6045E07B68082B0AD1FFF72F
:1048DC0041F80346012B02D1224BFB603AE0224BFC
:1048EC00FB6037E0FFF7F7FA38603B68022B03D028
:1048FC003B68032B03D00DE01A4BBB6015E0FFF7B0
:10490C0029F80346012B02D1164BBB600DE0164B68
:10491C00BB600AE0FFF7BDF903461B0903F00F0368
:10492C000F4A52F82330BB6000BFFFF7AFFA0246C4
:10493C00BB6803FB02F4FFF7C2FA03461B09013301
:10494C00B4FBF3F4FFF7AFFA03465B0F0133B4FB90
:10495C00F3F3FB60FB6818461437BD4690BD00BFEF
:10496C00488200080024F4000048E80198B500AF24
:10497C00FFF790FF0446FFF73FFA03461B0903F0CD
:10498C000F03034A52F82330B4FBF3F3184698BDD7
:10499C000882000880B584B000AF78607B68B02BCB
:1049AC0003D9144BDB6AFB6007E07B681B0903F03F
:1049BC000F03104A52F82330FB60FFF729FA034625
:1049CC001B0903F00F030C4A52F82330FA68B2FBB0
:1049DC00F3F3BB60BB68094AA2FB03239B0C4FF4A7
:1049EC000071184600F00CF8034618461037BD4607
:1049FC0080BD00BF488200080882000883DE1B438C
:104A0C0090B58FB000AF78603960244B07F11C046F
:104A1C000FCB84E80F00224B07F10C040FCB84E87A
:104A2C000F0000237B6300233B6313E03B6B9B0075
:104A3C0038333B4453F81C3C7A689A4207D83B6B9A
:104A4C009B0038333B4453F82C3C7B6305E03B6BB9
:104A5C0001333B633B6B032BE8D9124B1B6823F0F0
:104A6C00070210497B6B13430B60FDF79FFBF86249
:104A7C0008E0FDF79BFB0246FB6AD31A022B01D917
:104A8C00032307E0074B1B6803F007037A6B9A427A
:104A9C00EFD1002318463C37BD4690BD4880000836
:104AAC00588000080040005880B400AF4FF0B0436D
:104ABC00D3F8903003F00103012B01D1012300E066
:104ACC0000231846BD465DF8047B704780B400AFE8
:104ADC004FF0B043D3F8903003F00203022B01D116
:104AEC00012300E000231846BD465DF8047B7047A7
:104AFC0080B483B000AF78604FF0B043D3F89430FB
:104B0C0023F440424FF0B0417B681343C1F894301A
:104B1C0000BF0C37BD465DF8047B704780B483B092
:104B2C0000AF78604FF0B0435B6A23F003024FF0A4
:104B3C00B0417B6813434B6200BF0C37BD465DF838
:104B4C00047B704780B483B000AF78604FF0B04303
:104B5C005B6A23F030024FF0B0417B6813434B6229
:104B6C0000BF0C37BD465DF8047B704780B483B042
:104B7C0000AF78604FF0B043D3F8883023F00302D5
:104B8C004FF0B0417B681343C1F8883000BF0C373D
:104B9C00BD465DF8047B704780B483B000AF78608D
:104BAC004FF0B043D3F8883023F440624FF0B0415B
:104BBC007B681343C1F8883000BF0C37BD465DF8E5
:104BCC00047B704780B483B000AF78604FF0B04383
:104BDC00D3F888207B681B0903F47F23DB431A403E
:104BEC007B681B0103F47F234FF0B0411343C1F8E2
:104BFC00883000BF0C37BD465DF8047B704780B42D
:104C0C0083B000AF78604FF0B043D3F888207B6856
:104C1C001B0C1B04DB431A407B681B044FF0B04198
:104C2C001343C1F8883000BF0C37BD465DF8047BD8
:104C3C00704780B483B000AF78604FF0B043D3F8C6
:104C4C00883023F040424FF0B0417B681343C1F8E9
:104C5C00883000BF0C37BD465DF8047B704780B4CC
:104C6C0083B000AF78604FF0B043D3F8883023F0B6
:104C7C0040624FF0B0417B681343C1F8883000BFED
:104C8C000C37BD465DF8047B704780B483B000AF31
:104C9C0078604FF0B043D3F8883023F040524FF097
:104CAC00B0417B681343C1F8883000BF0C37BD4658
:104CBC005DF8047B704780B483B000AF78604FF030
:104CCC00B043D3F8903023F440724FF0B0417B687E
:104CDC001343C1F8903000BF0C37BD465DF8047B20
:104CEC00704780B400AF4FF0B043D3F8903003F46A
:104CFC0040731846BD465DF8047B704780B400AF26
:104D0C004FF0B043D3F890304FF0B04243F48033BF
:104D1C00C2F8903000BFBD465DF8047B704780B48C
:104D2C0000AF4FF0B043D3F890304FF0B04223F4C3
:104D3C008033C2F8903000BFBD465DF8047B7047ED
:104D4C0080B588B000AF78600023FB770023BB7779
:104D5C007B681B6803F40063002B46D0FFF7C1FF90
:104D6C00B8617B681B6ABA699A423CD0FEF75EFD5B
:104D7C00BB69002B05D17B681B6A1846FFF79BFFAC
:104D8C002EE04FF0B043D3F890307B61FFF7B6FFC5
:104D9C00FFF7C5FF7B6923F440727B681B6A1343E2
:104DAC007B614FF0B0427B69C2F89030FFF77CFE1C
:104DBC000346012B14D1FDF7F9F938610BE0FDF72F
:104DCC00F5F902463B69D31A41F28832934202D973
:104DDC000323FB7704E0FFF779FE0346012BEED1AA
:104DEC00FB7FBB7701E0FB7FBB777B681B6803F025
:104DFC000103002B04D07B685B681846FFF7B6FEF6
:104E0C007B681B6803F00203002B04D07B689B6853
:104E1C001846FFF7C1FE7B681B6803F01003002BDC
:104E2C0004D07B681B691846FFF7E9FE7B681B689A
:104E3C0003F02003002B04D07B685B691846FFF756
:104E4C00DEFE7B681B6803F00403002B04D07B6838
:104E5C00DB681846FFF7B6FE7B681B6803F400732B
:104E6C00002B2BD07B689B69B3F1804F08D07B68FB
:104E7C009B69B3F1004F03D07B689B69002B05D174
:104E8C007B689B691846FFF7D4FE0AE07B689B6938
:104E9C0023F08053FB600020FFF7CBFEF868FFF790
:104EAC00DEFE7B689B69B3F1C05F07D14FF0B04366
:104EBC00DB684FF0B04243F08073D3607B681B68B3
:104ECC0003F48063002B11D07B68DB691846FFF775
:104EDC00DCFE7B68DB69B3F1005F07D14FF0B043B8
:104EEC00DB684FF0B04243F48033D3607B681B68BF
:104EFC0003F48053002B04D07B685B6A1846FFF7E1
:104F0C00F7FD7B681B6803F40053002B09D07B680A
:104F1C00DB6A1846FFF716FE7B689B6A1846FFF79C
:104F2C00FDFDBB7F18462037BD4680BD80B584B0E3
:104F3C0000AF78607B68002B01D101239FE07B6878
:104F4C0093F82130DBB2002B06D17B68002283F86A
:104F5C0020207868FCF7ACFF7B68022283F82120C4
:104F6C00494BDB6803F01003102B7ED07B681B6869
:104F7C00CA225A627B681B6853225A62786800F016
:104F8C00ABF80346002B0AD07B681B68FF225A62E1
:104F9C007B68042283F821200123FB7367E07B6884
:104FAC001B689B687A68126823F4E00323F04003C3
:104FBC0093607B681B6899687B685A687B681B697F
:104FCC001A437B689B691A437B681B680A439A6087
:104FDC007B681B687A68D2681A617B681B681969E0
:104FEC007B689B681A047B681B680A431A617B68A0
:104FFC001B68DA687B681B6822F08002DA607B68C9
:10500C001B68DA6C7B681B6822F00202DA647B682E
:10501C001B68D96C7B68DA697B685B691A437B68AF
:10502C001B680A43DA647B681B689B6803F02003E7
:10503C00002B13D1786800F029F80346002B0DD013
:10504C007B681B68FF225A627B68042283F821204C
:10505C007B68002283F82020012310E07B681B680A
:10506C00FF225A620023FB7301E00023FB73FB7BDE
:10507C00002B03D17B68012283F82120FB7B18468F
:10508C001037BD4680BD00BF0028004080B584B0FD
:10509C0000AF78607B681B68DA687B681B6822F05D
:1050AC00A002DA60FDF782F8F86009E0FDF77EF8FF
:1050BC000246FB68D31AB3F57A7F01D9032307E0C4
:1050CC007B681B68DB6803F02003002BEED0002309
:1050DC0018461037BD4680BD80B584B000AF7860EF
:1050EC007B681B68DB6803F04003002B19D17B68DD
:1050FC001B684FF0FF32DA60FDF758F8F86009E0F2
:10510C00FDF754F80246FB68D31AB3F57A7F01D940
:10511C00032307E07B681B68DB6803F04003002B6C
:10512C00EED0002318461037BD4680BD80B586B042
:10513C0000AFF860B9607A60FB6893F82030012BFF
:10514C0001D10223A8E0FB68012283F82020FB6830
:10515C00022283F82120FB681B68CA225A62FB6872
:10516C001B6853225A62FB681B689B6803F48063BC
:10517C00002B20D0FDF71AF8786115E0FDF716F832
:10518C0002467B69D31AB3F57A7F0DD9FB681B688D
:10519C00FF225A62FB68032283F82120FB6800225D
:1051AC0083F82020032377E0FB681B68DB6803F09F
:1051BC000403002BE2D1FB681B689A68FB681B6830
:1051CC0022F480629A60FB681B68DB68DAB2FB68C9
:1051DC001B6862F49062DA60FCF7E8FF786115E016
:1051EC00FCF7E4FF02467B69D31AB3F57A7F0DD93D
:1051FC00FB681B68FF225A62FB68032283F821209C
:10520C00FB68002283F82020032345E0FB681B6821
:10521C00DB6803F00403002BE2D0FB681B68BA6860
:10522C005A61FB681B689A68FB681B6822F00702CE
:10523C009A60FB681B689968FB681B687A680A436C
:10524C009A60174BD3F88030154A43F40023C2F808
:10525C008030134B1B68124A43F400231360FB6825
:10526C001B689A68FB681B6842F480429A60FB6872
:10527C001B689A68FB681B6842F480629A60FB6842
:10528C001B68FF225A62FB68012283F82120FB680D
:10529C00002283F82020002318461837BD4680BD15
:1052AC000008005880B584B000AF78607B6893F834
:1052BC002030012B01D102234DE07B68012283F8C1
:1052CC0020207B68022283F821207B681B68CA227D
:1052DC005A627B681B6853225A627B681B689A6807
:1052EC007B681B6822F480629A607B681B689A68F2
:1052FC007B681B6822F480429A60FCF757FFF860C9
:10530C0015E0FCF753FF0246FB68D31AB3F57A7F1E
:10531C000DD97B681B68FF225A627B68032283F8D5
:10532C0021207B68002283F82020032313E07B6874
:10533C001B68DB6803F00403002BE2D07B681B685E
:10534C00FF225A627B68012283F821207B680022AD
:10535C0083F82020002318461037BD4680BDB0B519
:10536C00CEB000AF05460C461046194607F59C73A7
:10537C00A3F231132A461A7007F59C73A3F59A739E
:10538C0022461A8007F59C73A3F59B7302461A807C
:10539C0007F59C73A3F599730A461A7007F110036D
:1053AC00C7F8343197F84C31083307F11002134425
:1053BC00C7F8303197F84C2197F85431134409331E
:1053CC0007F110021344C7F82C3107F59C73A3F2B4
:1053DC00291300221A700023C7F82831D7F834316A
:1053EC0007F59C72A2F2311212781A70D7F8283194
:1053FC000133C7F82831D7F8343107F59C72A2F580
:10540C009A721288A3F80120D7F828310233C7F812
:10541C002831D7F8343107F59C72A2F59B721288AB
:10542C00A3F80320D7F828310233C7F82831D7F86E
:10543C00343107F59C72A2F5997212785A71D7F82B
:10544C0028310133C7F82831D7F8343197F848217F
:10545C009A71D7F828310133C7F82831D7F834318D
:10546C0097F84C21DA71D7F828310133C7F8283175
:10547C00D7F83431083397F84C21D7F85011184627
:10548C0000F021FC97F84C31D7F828211344C7F8C9
:10549C002831D7F8303197F854211A70D7F82831C1
:1054AC000133C7F82831D7F83031013397F854213C
:1054BC00D7F85811184600F006FC97F85431D7F875
:1054CC0028211344C7F82831D7F82C31B7F85C21C0
:1054DC001A80D7F828310233C7F82831D7F82C3185
:1054EC00B7F860215A80D7F828310233C7F8283131
:1054FC0007F5887318220021184600F0F4FB3F23AF
:10550C00A7F810318323A7F8123107F11003C7F85D
:10551C001831D7F82831C7F81C3107F10F03C7F839
:10552C0020310123C7F8243107F588730021184670
:10553C0000F050FE0346002B01DAFF2304E007F5D0
:10554C009C73A3F229131B78184607F59C77BD466C
:10555C00B0BD90B5CDB000AF04460846114607F576
:10556C009872A2F59872136007F59873A3F2291339
:10557C0022461A7007F59873A3F5957302461A70B4
:10558C0007F59873A3F22B130A461A7007F1100350
:10559C00C7F82C3107F1080307220021184600F048
:1055AC00A2FB0023C7F82831D7F82C3107F59872E5
:1055BC00A2F2291212781A70D7F828310133C7F8E1
:1055CC002831D7F82C3107F59872A2F5957212781C
:1055DC005A70D7F828310133C7F82831D7F82C3155
:1055EC0007F59872A2F22B1212789A70D7F828311C
:1055FC000133C7F8283107F58873182200211846A3
:10560C0000F071FB3F23A7F810318A23A7F8123161
:10561C0007F11003C7F81831D7F82831C7F81C3137
:10562C0007F10803C7F820310723C7F8243107F521
:10563C0088730021184600F0CDFD0346002B01DADB
:10564C00FF232EE007F59873A3F594731B78002BBA
:10565C0005D007F59873A3F594731B7821E007F533
:10566C009873A3F59473B3F801309AB207F5987355
:10567C00A3F598731B681A8007F59873A3F59473B8
:10568C00B3F803309AB2D7F840311A8007F5987303
:10569C00A3F59473B3F805309AB2D7F844311A8055
:1056AC000023184607F59A77BD4690BD80B5CCB05F
:1056BC0000AF024607F59873A3F59873196007F5C8
:1056CC009873A3F229131A7007F11003C7F82C3141
:1056DC0007F59873A3F2211300221A700023C7F860
:1056EC002831D7F82C3107F59872A2F229121278CA
:1056FC001A70D7F828310133C7F82831D7F82C3174
:10570C00581C07F59873A3F229131A7807F59873A8
:10571C00A3F59873196800F0D6FA07F59873A3F2FD
:10572C0029131B78D7F828211344C7F8283107F51B
:10573C00887318220021184600F0D5FA3F23A7F8E9
:10574C0010318E23A7F8123107F11003C7F8183166
:10575C00D7F82831C7F81C3107F10F03C7F82031EF
:10576C000123C7F8243107F588730021184600F08F
:10577C0031FD0346002B01DAFF2304E007F5987393
:10578C00A3F221131B78184607F59877BD4680BD08
:10579C0080B5CCB000AF024607F59873A3F229137D
:1057AC001A7007F11003C7F82C3107F59873A3F2A0
:1057BC00211300221A700023C7F82831D7F82C3196
:1057CC0007F59872A2F2291212781A70D7F82831BC
:1057DC000133C7F8283107F58873182200211846C1
:1057EC0000F081FA3F23A7F810318F23A7F812316C
:1057FC0007F11003C7F81831D7F82831C7F81C3156
:10580C0007F10F03C7F820310123C7F8243107F53E
:10581C0088730021184600F0DDFC0346002B01DAEA
:10582C00FF2304E007F59873A3F221131B781846A5
:10583C0007F59877BD4680BD80B588B000AF0023D2
:10584C00FB7107F1080318220021184600F04BFAEF
:10585C003F233B8140F201137B81FB1DBB61012384
:10586C00FB6107F108030021184600F0B3FC034666
:10587C00002B01DAFF2300E0FB7918462037BD46E8
:10588C0080BDB0B5CCB000AF05460C4610461946ED
:10589C0007F59873A3F595732A461A8007F5987344
:1058AC00A3F5967322461A8007F59873A3F22D136D
:1058BC0002461A7007F59873A3F597730A461A7087
:1058CC0007F11003C7F82C3107F59873A3F22113D5
:1058DC0000221A700023C7F82831D7F82C3107F5AD
:1058EC009872A2F5957212881A80D7F82831023373
:1058FC00C7F82831D7F82C3107F59872A2F59672B3
:10590C0012885A80D7F828310233C7F82831D7F8D3
:10591C002C3107F59872A2F22D1212781A71D7F861
:10592C0028310133C7F82831D7F82C3107F5987294
:10593C00A2F5977212785A71D7F828310133C7F84B
:10594C002831D7F82C31981D07F59873A3F5977368
:10595C001B781A46D7F8401100F0B5F907F5987383
:10596C00A3F597731B78D7F828211344C7F828316F
:10597C0007F5887318220021184600F0B4F93F236C
:10598C00A7F810314FF48373A7F8123107F1100305
:10599C00C7F81831D7F82831C7F81C3107F10F03B5
:1059AC00C7F820310123C7F8243107F5887300218B
:1059BC00184600F00FFC0346002B01DAFF2304E02D
:1059CC0007F59873A3F221131B78184607F59877FF
:1059DC00BD46B0BD80B5CCB000AF07F59873A3F54C
:1059EC0098731A6007F59873A3F2291302461A707C
:1059FC0007F59873A3F595730A461A7007F110030F
:105A0C00C7F82C3107F59873A3F2211300221A70F2
:105A1C000023C7F82831D7F82C3107F59872A2F279
:105A2C00291212781A70D7F828310133C7F82831A7
:105A3C00D7F82C3107F59872A2F5957212785A7036
:105A4C00D7F828310133C7F82831D7F82C31981CF6
:105A5C0007F59873A3F595731A7807F59873A3F562
:105A6C009873196800F02FF907F59873A3F59573DF
:105A7C001B78D7F828211344C7F8283107F5887309
:105A8C0018220021184600F02EF93F23A7F81031F8
:105A9C000C23A7F8123107F11003C7F81831D7F807
:105AAC002831C7F81C3107F10F03C7F82031012347
:105ABC00C7F8243107F588730021184600F08AFBDB
:105ACC000346002B01DAFF2304E007F59873A3F2D9
