:020000040800F2
:1000000000300020ED1E0008A11D0008A71D0008FB
:10001000AD1D0008B31D0008B91D00080000000058
:10002000000000000000000000000000BF1D0008EC
:10003000CD1D000800000000DB1D0008E91D0008C0
:10004000411F0008411F0008411F0008F51D00085E
:10005000411F0008411F0008411F0008411F000800
:10006000411F0008411F0008411F0008411F0008F0
:10007000411F0008411F0008411F0008411F0008E0
:10008000411F0008411F0008411F00080000000038
:1000900000000000411F0008011E0008411F000869
:1000A000411F0008411F0008411F0008411F0008B0
:1000B000411F0008411F0008411F0008411F0008A0
:1000C0000000000000000000411F000800000000C8
:1000D000411F0008411F000800000000411F0008E8
:1000E000411F0008411F000800000000411F0008D8
:1000F000151E0008211E00082D1E0008411F0008C3
:10010000411F000800000000000000000000000087
:10011000411F0008411F0008411F000800000000A7
:1001200000000000000000000000000000000000CF
:0C0130000000000000000000411F00085B
:10013C0010B5054C237833B9044B13B10448AFF315
:10014C0000800123237010BD0C0100200000000072
:10015C008874000808B5034B1BB103490348AFF37F
:10016C00008008BD00000000100100208874000809
:10017C00034613F8012B002AFBD1181A01387047DB
:10018C00B0B588B000AF154B1A88154B9A80154B3B
:10019C001A88134BDA80144B1A88114B1A81134BA3
:1001AC001A880F4B5A81124B1A880D4B9A81114B9E
:1001BC003C1D1D460FCD0FC495E8070003C42280DB
:1001CC000234130C237005F055FF3B1D184605F047
:1001DC00F0F900BF2037BD46B0BD00BF04000020C1
:1001EC00E801032006000020080000200A0000207F
:1001FC000C000020A074000880B483B000AF7860BD
:10020C00064BD3F8902005497B681343C1F8903016
:10021C0000BF0C37BD465DF8047B704700080058E2
:10022C0080B400AF054BDB69044A43F40043D3614F
:10023C0000BFBD465DF8047B704700BF000400584A
:10024C0080B483B000AF7860064BDB6923F070029A
:10025C0004497B681343CB6100BF0C37BD465DF886
:10026C00047B70470004005880B487B000AF7860FE
:10027C00184B1B681B0A03F00F03FB60FB68002B79
:10028C0008D1154BDB6923F00F0213497B6813432C
:10029C00CB6119E0FB68063B3B617B683A69134410
:1002AC007B617B69002B02DA00237B6104E07B69B4
:1002BC000F2B01DD0F237B61074BDB6923F00F0252
:1002CC007B6905491343CB6100BF1C37BD465DF804
:1002DC00047B70475875FF1F0004005880B483B02E
:1002EC0000AF7860074BD3F8803023F00702054944
:1002FC007B681343C1F8803000BF0C37BD465DF8F6
:10030C00047B70470004005880B483B000AF786061
:10031C004FF0B0430A4AC3F89C204FF0B043D3F8D7
:10032C009C3023F47C527B681B024FF0B04113438A
:10033C00C1F89C3000BF0C37BD465DF8047B70479C
:10034C00FECAFECA80B483B000AF78604FF0B043F1
:10035C009B6823F400424FF0B0417B6813438B60E1
:10036C0000BF0C37BD465DF8047B704780B400AF0E
:10037C004FF0B043D3F890304FF0B04243F4803399
:10038C00C2F8903000BFBD465DF8047B704780B466
:10039C0000AF4FF0B043D3F890304FF0B04223F49D
:1003AC008033C2F8903000BFBD465DF8047B7047C7
:1003BC0080B400AF4FF0B043D3F8943003F08063B7
:1003CC00B3F1806F01D1012300E000231846BD4634
:1003DC005DF8047B704780B400AF4FF0B043D3F8A6
:1003EC00943003F08053B3F1805F01D1012300E01E
:1003FC0000231846BD465DF8047B704780B485B079
:10040C0000AF78604FF0B0431A6D4FF0B0417B688D
:10041C0013430B654FF0B0431A6D7B681340FB60C0
:10042C00FB6800BF1437BD465DF8047B70470000C5
:10043C0080B400AF044B1B681B0C9BB21846BD4626
:10044C005DF8047B704700BF002004E080B483B0EB
:10045C0000AF786039607B685A683B681B041A43AC
:10046C007B685A6000BF0C37BD465DF8047B704753
:10047C0080B483B000AF786039607B685A683B68A1
:10048C001A437B685A6000BF0C37BD465DF8047B8D
:10049C00704780B483B000AF786039607B685A696C
:1004AC003B681B041A437B685A6100BF0C37BD467E
:1004BC005DF8047B704780B483B000AF786039601E
:1004CC007B685A693B681A437B685A6100BF0C37DA
:1004DC00BD465DF8047B704780B483B000AF786094
:1004EC0039607B683A689A6000BF0C37BD465DF88E
:1004FC00047B704780B483B000AF786039607B6850
:10050C003A689A6100BF0C37BD465DF8047B7047B2
:10051C0080B483B000AF78607B68FF225A6200BF62
:10052C000C37BD465DF8047B704780B483B000AFD8
:10053C0078607B68CA225A627B6853225A6200BF79
:10054C000C37BD465DF8047B704780B483B000AFB8
:10055C00786039607B689B6823F007023B681A431C
:10056C007B689A6000BF0C37BD465DF8047B704712
:10057C0080B500AF044B4FF400421A6100F029F82B
:10058C0000F068F800BF80BD0040005880B500AF97
:10059C0000F074F800F08CF80349002000F0C2FD64
:1005AC0000F096F800BF80BD9801002080B500AF28
:1005BC000020FFF745FE0420FFF756FEFFF730FE44
:1005CC0000BF80BD80B500AF5020FFF715FE00BF07
:1005DC0080BD80B500AF00F004F800F019F800BF42
:1005EC0080BD80B500AFFFF7E3FE0346002B0DD0B6
:1005FC00FFF7F1FE0346002B08D102F05DFC02F080
:10060C005BFCFFF7B3FEFFF7C2FE00BF00BF80BD6F
:10061C0080B500AF4FF48010FFF7F0FE3F210C487F
:10062C00FFF75AFF3F210A48FFF764FF3F210848B4
:10063C00FFF70CFF3F210648FFF72BFF3F21044833
:10064C00FFF716FF3F210248FFF735FF00BF80BDC3
:10065C00000C005880B582B000AF002005F096FD6C
:10066C0078607B68002B05D07B689B791846FFF778
:10067C004BFE00BF00BF0837BD4680BD80B500AF44
:10068C00FFF794FFFFF79EFF00F002F800BF80BD5C
:10069C0080B500AF0548FFF748FF00210348FFF77E
:1006AC0054FF0248FFF734FF00BF80BD0028004014
:1006BC0080B500AF4FF40040FFF744FE06F0EEFBB0
:1006CC000420FFF70BFE02F02FFC00BF80BD0000E2
:1006DC0080B588B000AF05F017FB114A002110203F
:1006EC0006F050FD0F4B3B600F4B7B603B461946B1
:1006FC000E4805F0CFF90E4BBB600E4BFB600E4B5A
:10070C003B6140F23C537B6107F10803184605F04E
:10071C003DFC05F0F3FA00BF2037BD4680BD00BF9D
:10072C00D95A00083407032049070008610700085C
:10073C004C09032040080320F801032080B483B047
:10074C0000AF0346FB7100BF0C37BD465DF8047B60
:10075C007047000080B588B000AF78607B685B683C
:10076C000B33FB61FB691B889BB2A3F51243072B70
:10077C001FD801A252F823F0A5070008B7070008FC
:10078C00BF070008BF070008BF070008BF07000825
:10079C00BF070008BF07000807F10C03184604F058
:1007AC0035FF786800F01BF804E0786800F006F874
:1007BC0000E000BF00BF2037BD4680BD80B485B0CF
:1007CC0000AF78607B685B680B33FB60FB680233BF
:1007DC00BB6000BF1437BD465DF8047B704780B525
:1007EC008AB000AF786007F10C0300221A605A60DF
:1007FC009A609A8100237B627B685B680B333B6257
:10080C003B6A0233FB61FB691B78002B17D1FFF7A6
:10081C00B7FC0D233B737F23BB73FFF709FE786294
:10082C007B6A9BB23B8307F10C03184604F0D8FE9D
:10083C0005F0CCFD0021012006F042FB07E0FB692E
:10084C001B78012B03D17B6800221A7000BF00BFFC
:10085C002837BD4680BD80B500AF4FF0FF3006F0A5
:10086C0095FB00BF80BD80B500AF06F059FB00BF03
:10087C0080BD80B582B000AF786039604FF0FF303A
:10088C0006F084FB00BF0837BD4680BD80B582B042
:10089C0000AF78600021102006F096FC00BF0837EE
:1008AC00BD4680BD80B582B000AF7860022006F0F6
:1008BC00F7FC00BF0837BD4680BD80B582B000AFE5
:1008CC007860022006F00CFD00BF0837BD4680BDE5
:1008DC0080B483B000AF7860064BD3F88020054914
:1008EC007B681343C1F8803000BF0C37BD465DF800
:1008FC00047B70470008005880B483B000AF786068
:10090C00054B1A6804497B6813430B6000BF0C3716
:10091C00BD465DF8047B70470008005880B483B076
:10092C0000AF0D4B9B6A9BB27B600B4B9B6A9BB2DF
:10093C003B6005E03B687B60074B9B6A9BB23B606E
:10094C007A683B689A42F5D13B6818460C37BD462D
:10095C005DF8047B704700BF0028004080B485B070
:10096C0000AF03460A46FB711346BB71BA791D49A9
:10097C0013465B001344DB000B4415331B78FB73ED
:10098C00FB7B062B09D0FA7B164913465B001344FC
:10099C00DB000B441433FA791A70FA7911491346B7
:1009AC005B001344DB000B441533FA7B1A70FA79A5
:1009BC000C4913465B001344DB000B441433BA7927
:1009CC001A70BA79074913465B001344DB000B44D9
:1009DC001533FA791A7000BF1437BD465DF8047BE5
:1009EC00704700BF2400002080B485B000AF0346E0
:1009FC000A46FB711346BB71294B1B78DBB2BA79E3
:100A0C009A4232D0BA79274913465B001344DB0073
:100A1C000B4414331B78FB73FA7B224913465B009F
:100A2C001344DB000B441533FA791A70FA791D491B
:100A3C0013465B001344DB000B441533BA791A7070
:100A4C00FA79184913465B001344DB000B4414334A
:100A5C00FA7B1A70BA79134913465B001344DB0016
:100A6C000B441433FA791A7014E0FA790D491346D1
:100A7C005B001344DB000B441533BA791A70BA7956
:100A8C00084913465B001344DB000B441433FA791A
:100A9C001A7000BF1437BD465DF8047B704700BF69
:100AAC00B40000202400002080B584B000AF0346C1
:100ABC00FB714E4B1B78DBB2062B18D14B4B1B78C2
:100ACC00DAB24B4B1A70494AFB791370FA794949DF
:100ADC0013465B001344DB000B44153306221A70DB
:100AEC00454B4FF0FF321A600023FB8178E000F099
:100AFC0009F90346FB81FA793E4913465B0013441E
:100B0C00DB000B4408331968FB89FA79194439481E
:100B1C0013465B001344DB00034408331960FA7975
:100B2C00344913465B001344DB000B4408331B6849
:100B3C00BB602E4B1B78DBB219462E4A0B465B0072
:100B4C000B44DB00134408331B68BA689A4237D352
:100B5C00264B1B787B737A7B264913465B00134428
:100B6C00DB000B4415331B783B7313E07A7B214974
:100B7C0013465B001344DB000B4415331B787B736B
:100B8C007A7B1C4913465B001344DB000B44153382
:100B9C001B783B733B7B062B0BD03A7B15491346DA
:100BAC005B001344DB000B4408331B68BA689A42A1
:100BBC00DCD27A7BFB7911461846FFF7CFFE0FE0AB
:100BCC000A4B1B78DAB2FB7911461846FFF70CFF7B
:100BDC00064B1B78DAB2064B1A70044AFB79137079
:100BEC00FB8918461037BD4680BD00BFB4000020FD
:100BFC00B500002024000020B800002080B485B08F
:100C0C0000AF03460A46FB711346BB71394B1B7888
:100C1C00DBB2FA799A4211D1364B1B78DAB2364BE9
:100C2C001A70FA79354913465B001344DB000B4408
:100C3C0015331B78DAB22F4B1A703EE0FA792F4934
:100C4C0013465B001344DB000B4414331B78FB731B
:100C5C00FA792A4913465B001344DB000B44153325
:100C6C001B78BB73F979FA7B24480B465B000B4469
:100C7C00DB00034415331B78D8B2204913465B00C4
:100C8C001344DB000B44153302461A70BB7B062B56
:100C9C0013D0F979BA7B19480B465B000B44DB0087
:100CAC00034414331B78D8B2144913465B00134425
:100CBC00DB000B44143302461A70FA790F491346C1
:100CCC005B001344DB000B440C3301221A70094BFC
:100CDC001B78DBB2062B07D1BB79002B04D1084B58
:100CEC004FF0FF321A6000BF00BF1437BD465DF8ED
:100CFC00047B7047B4000020B500002024000020C5
:100D0C00B800002080B582B000AF1A4B1B68B3F15D
:100D1C00FF3F26D0FFF702FE7860164B1B687A68FF
:100D2C009A4205D8134B1A687B68D31A7B600AE089
:100D3C00114B1B881A467B68D31A3B600D4B1B6802
:100D4C003A6813447B600D4B1B781A467B6802FB98
:100D5C0003F37B600A4B1B781A467B68D3407B609D
:100D6C0001E000237B607B689BB218460837BD46C8
:100D7C0080BD00BFB80000202E0100202D010020F6
:100D8C002C01002080B582B000AF0346FB80FB88AD
:100D9C00002B08D1FFF7C2FD0346244A1360032041
:100DAC0001F0EBFC3EE0FB88012B03D8204B1B78B9
:100DBC00012B02D0FB88013BFB8000BF1D4B1B6845
:100DCC001B68DB6803F00403002BF7D0194B1B687E
:100DDC001B68DB68DAB2174B1B681B6862F4906205
:100DEC00DA60154B4FF40022DA60032001F0D3FCDB
:100DFC00124B5B691B0C1B04FA88104913434B61A3
:100E0C00FFF78CFD0346094A13600A4B1B681B68ED
:100E1C009A68084B1B681B6842F480629A60AFF3B7
:100E2C00008000BF0837BD4680BD00BFB800002061
:100E3C002C01002028010020000800580028004048
:100E4C0080B584B000AF474B9B6803F48063B3F567
:100E5C00806F08D100BF444B1B681B68DB6803F034
:100E6C000403002BF7D1404B1B681B689A683E4B60
:100E7C001B681B6822F480629A603C4B1B78FB73E6
:100E8C00FA7B3B4913465B001344DB000B440833ED
:100E9C001B68BB60FFF736FF0346FB80FB88BA6814
:100EAC009A4205D20023BB81324B01221A704DE0CD
:100EBC00FB88314A128892B213441A46BB6893429B
:100ECC0006D92D4B1B88BB812A4B00221A703DE0A2
:100EDC00BB689AB2FB88D31ABB81264B01221A70CD
:100EEC0034E0FA7B224913465B001344DB000B44CD
:100EFC0008331A68FB889A420AD2FA7B1C491346BB
:100F0C005B001344DB000B44083300221A6013E02F
:100F1C00FA7B174913465B001344DB000B44083380
:100F2C001968FB88FA7BC91A114813465B001344F5
:100F3C00DB00034408331960FA7B0D4913465B0050
:100F4C001344DB000B4415331B78FB73FB7B062B24
:100F5C00C7D1BB891846FFF715FF00BF1037BD4638
:100F6C0080BD00BF0028004028010020B4000020F4
:100F7C0024000020BC0000203001002080B58AB085
:100F8C0000AFEFF310837B617B697B6272B600BFAD
:100F9C005F4B1B681B68CA225A625D4B1B681B683F
:100FAC0053225A625A4B1B681B689A68584B1B6831
:100FBC001B6822F480629A60564B1B7887F82330AA
:100FCC0097F82320544913465B001344DB000B4471
:100FDC000C331B78DBB2022B72D197F823204E49CD
:100FEC0013465B001344DB000B441B68FB6197F852
:100FFC002320494913465B001344DB000B44103398
:10100C001B68BB61454B1B78DBB2002B50D097F8AB
:10101C002320414913465B001344DB000B440D3382
:10102C001B78DBB2012B26D197F82330012118460F
:10103C00FFF7E4FD7B6A3B613B6983F3108800BFDB
:10104C0097F82320344913465B001344DB000B4410
:10105C0004331A6897F823301146184600F0D4F977
:10106C002B4B1B681B68CA225A62294B1B681B68D6
:10107C0053225A6214E07B6AFB60FB6883F310888E
:10108C0000BF97F82330184600F032F9204B1B684C
:10109C001B68CA225A621E4B1B681B6853225A6279
:1010AC0097F82330FA691946B86900F035FA25E04B
:1010BC00FFF7C6FE7B6ABB60BB6883F310881DE03C
:1010CC0000BF134B1B681B68DB6803F00403002B89
:1010DC00F7D00F4B1B681B68DB68DAB20C4B1B6834
:1010EC001B6862F49062DA600D4B4FF40022DA60F8
:1010FC007B6A7B607B6883F3108800BF044B1B68A2
:10110C001B68FF225A6200BF2837BD4680BD00BF56
:10111C0028010020B400002024000020BC00002086
:10112C000008005880B588B000AF03463960FB71E9
:10113C00644A3B681360634B1B681B68CA225A6283
:10114C00604B1B681B6853225A625F4B9B685E4A5C
:10115C0043F0200393605C4B9B68DBB203F0070306
:10116C00DBB2C3F10403DAB2584B1A70564B1B694D
:10117C0003F4FE034FF4FE023A613A6992FAA2F2CA
:10118C00FA60FA687A617A69002A01D1202203E0B8
:10119C007A69B2FA82F2D2B2D340DBB20133DAB25C
:1011AC004B4B1A70484B1B699BB2C3F30E039BB29B
:1011BC0001339AB2474B1A80464B1B88013B444A79
:1011CC00127802FB03F3A3F5A073404A1278D340C4
:1011DC00BB61BB694FF6FE72934204D93E4B4FF68E
:1011EC00FF721A8003E0BB699AB23B4B1A804FF432
:1011FC000020FFF781FB4FF40020FFF769FBFB7920
:10120C00002B43D1354B01221A70354B4FF0FF3276
:10121C001A600023FB770CE0FA7F324913465B001F
:10122C001344DB000B440C3300221A70FB7F013398
:10123C00FB77FB7F052BEFD92B4B06221A70214B2A
:10124C001B681B689A681F4B1B681B6822F4806222
:10125C009A601C4B1B681B68DB68DAB2194B1B6865
:10126C001B6862F49062DA60204B4FF40022DA6063
:10127C00032001F090FA134B1B681B689A68114B02
:10128C001B681B6842F480429A600AE00D4B1B6895
:10129C001B68DB6803F48063002B02D0032001F091
:1012AC006CFA084B1B681B68FF225A620022032150
:1012BC00032001F020FA032001F037FA00BF203799
:1012CC00BD4680BD28010020002800402C010020D4
:1012DC002D0100202E01002030010020BC00002038
:1012EC00B800002024000020B400002000080058A2
:1012FC0080B586B000AF0346FB71EFF31083FB6043
:10130C00FB687B6172B600BF032001F01CFA384BFE
:10131C001B681B68CA225A62354B1B681B68532218
:10132C005A62FA79334913465B001344DB000B44D1
:10133C000C331B78DBB2022B48D1FB790021184609
:10134C00FFF75CFC2C4B1B78FB74FB7C062B35D11C
:10135C002A4B9B6803F48063B3F5806F08D100BF00
:10136C00234B1B681B68DB6803F00403002BF7D1CD
:10137C001F4B1B681B689A681D4B1B681B6822F46B
:10138C0080629A6000BF1A4B1B681B68DB6803F015
:10139C000403002BF7D0164B1B681B68DB68DAB212
:1013AC00134B1B681B6862F49062DA60144B4FF4A9
:1013BC000022DA60032001F0EEF907E0114B1B78F4
:1013CC00DBB2FA7C9A4201D0FFF73AFD084B1B685E
:1013DC001B68FF225A62032001F0A7F97B69BB60EE
:1013EC00BB6883F3108800BF00BF1837BD4680BDB3
:1013FC002801002024000020B40000200028004018
:10140C0000080058B500002080B586B000AF034638
:10141C003960FB71FA793C4913465B001344DB00DD
:10142C000B440C331B78DBB2022B03D1FB7918462F
:10143C00FFF75EFFEFF31083FB60FB687B6172B616
:10144C0000BF032001F07FF9304B1B681B68CA22D8
:10145C005A622E4B1B681B6853225A62FA792A492E
:10146C0013465B001344DB000B440C3302221A704E
:10147C00FA79254913465B001344DB000B4408330F
:10148C003A681A60FA79204913465B001344DB0072
:10149C000B4404333A681A60FB791846FFF704FBD7
:1014AC0003467B821A4B1B787B741A4B1B78DBB27E
:1014BC007A7C9A4202D0FFF7C3FC13E0FA79124906
:1014CC0013465B001344DB000B44083319687B8A1A
:1014DC00FA79C91A0C4813465B001344DB00034429
:1014EC0008331960094B1B681B68FF225A620320E2
:1014FC0001F01BF97B69BB60BB6883F3108800BFEC
:10150C0000BF1837BD4680BD2400002028010020F4
:10151C00B4000020B500002080B584B000AFF860A6
:10152C000B467A60FB727B68984700BF1037BD464C
:10153C0080BD80B483B000AF78604FF0B043D3F877
:10154C00903023F018024FF0B0417B681343C1F880
:10155C00903000BF0C37BD465DF8047B704780B4FB
:10156C0085B000AF78604FF0B043DA6C4FF0B0410B
:10157C007B681343CB644FF0B043DA6C7B68134049
:10158C00FB60FB6800BF1437BD465DF8047B7047F9
:10159C0080B500AF00F0D0FCFEF7EAFF00F011F8C8
:1015AC0000F05BF800F0A6F800F0F4F800F076F824
:1015BC0000F0B4F800F0BAF8FEF7E8FFFFF74BF9CB
:1015CC00FCE780B598B000AF07F11C034422002162
:1015DC00184605F04BFF3B4600221A605A609A6091
:1015EC00DA601A615A619A6101F066FC0020FFF71B
:1015FC00A0FF0723FB614FF480333B6201237B6226
:10160C004FF48073BB624023FB6200237B6407F1C1
:10161C001C03184602F00EF80346002B01D000F014
:10162C001BF96F233B6002237B608023BB6000238C
:10163C00FB6000233B6100237B610023BB613B46C5
:10164C000121184602F02CFB0346002B01D000F0C0
:10165C0003F900BF6037BD4680BD80B58CB000AFCC
:10166C003B4630220021184605F000FF4FF4405352
:10167C003B604FF480437B620023BB621023FB6210
:10168C003B46184602F0A2FE0346002B01D000F0A8
:10169C00E3F800BF3037BD4680BD000080B500AF19
:1016AC00114B124A1A60104B114ADA600E4B802211
:1016BC009A600D4B00225A610B4B4FF440321A6169
:1016CC00094B00229A61084B0C225A60064B3122BE
:1016DC00DA61054800F09CFD0346002B01D000F0B8
:1016EC00BBF800BF80BD00BF3401002000020140E8
:1016FC001000C00080B500AF064B074A1A600548C1
:10170C0001F054FB0346002B01D000F0A5F800BFFC
:10171C0080BD00BF5C010020000C005880B400AFFD
:10172C0000BFBD465DF8047B7047000080B500AF7C
:10173C00164B174A1A60154B00225A60134B0F2296
:10174C009A60124B47F6FF72DA60104B00221A6156
:10175C000E4B00229A610D4B00225A610B4802F08D
:10176C002BFF0346002B01D000F076F800224FF639
:10177C00FF71064803F00EF80346002B01D000F071
:10178C006BF8024803F0C2F800BF80BD980100203E
:10179C000028004080B586B000AF3B1D00221A60C7
:1017AC005A609A60DA601A610420FFF7D8FE802034
:1017BC00FFF7D5FE0220FFF7D2FE0120FFF7CFFE88
:1017CC001020FFF7CCFE08237B600323BB600023B3
:1017DC00FB603B1D1946154801F05CF940F2FB33E8
:1017EC007B600323BB600023FB603B1D1946104844
:1017FC0001F050F94FF6FF737B600323BB600023AD
:10180C00FB603B1D19464FF0904001F043F910234B
:10181C007B600323BB600023FB603B1D194605481E
:10182C0001F038F900BF1837BD4680BD001C0048D8
:10183C00000400480010004880B582B000AF78600A
:10184C00FFF7BFFE00F00EFC0021082005F0BCFCE9
:10185C0000BF0837BD4680BD80B400AF72B600BF74
:10186C00FEE7000080B483B000AF7860064B1B68C5
:10187C0023F0070204497B6813430B6000BF0C374D
:10188C00BD465DF8047B70470004005880B400AF7F
:10189C00034B09229A6100BFBD465DF8047B70477B
:1018AC000004005880B400AF074BD3F8883003F421
:1018BC008063B3F5806F01D1012300E0002318464B
:1018CC00BD465DF8047B70470004005880B400AF3F
:1018DC00074BD3F8883003F40043B3F5004F01D124
:1018EC00012300E000231846BD465DF8047B7047D9
:1018FC000004005880B400AF4FF0B0431B684FF0A9
:10190C00B04243F48073136000BFBD465DF8047BA6
:10191C00704780B400AF4FF0B0431B6803F4806392
:10192C00B3F5806F01D1012300E000231846BD46BA
:10193C005DF8047B704780B483B000AF78604FF0E3
:10194C00B0439B6823F003024FF0B0417B68134314
:10195C008B6000BF0C37BD465DF8047B704780B4CC
:10196C0000AF4FF0B0439B6803F00C031846BD4624
:10197C005DF8047B704780B483B000AF78604FF0A3
:10198C00B0435B6A23F003024FF0B0417B68134312
:10199C004B6200BF0C37BD465DF8047B704780B4CA
:1019AC0000AF4FF0B043D3F894304FF0B04243F453
:1019BC000003C2F8943000BFBD465DF8047B70474D
:1019CC0080B400AF054B1B69044A23F00403136178
:1019DC0000BFBD465DF8047B704700BF00ED00E022
:1019EC0080B400AF054B1B69044A43F00403136138
:1019FC0000BFBD465DF8047B704700BF00ED00E002
:101A0C0080B483B000AF786039607B683A6820326C
:101A1C0053F82230054A934201D0012300E0002301
:101A2C0018460C37BD465DF8047B704700040080F7
:101A3C0080B485B000AFF860B9607A607B6843F41D
:101A4C008061FB68BA6843F8221000BF1437BD46AA
:101A5C005DF8047B704780B500AF00F0F3FAFFF738
:101A6C009EFF00F035F8FFF711FF0320FFF7FAFE99
:101A7C00FFF7B6FF00BF80BD80B400AF00BFBD460E
:101A8C005DF8047B704780B500AF00F0DBFA00F026
:101A9C001FF80120FFF7E6FEFFF7A2FF30BF00BFE3
:101AAC0080BD80B500AF00F04FF800F0DBFA00BF4E
:101ABC0080BD80B500AF00F0C5FAFFF781FF30BFE5
:101ACC0000BF80BD80B500AF00F0CCFA00BF80BD78
:101ADC0080B500AF00BF03211948FFF791FF034603
:101AEC00002BF8D104211648FFF78AFF0346002B80
:101AFC0017D1FFF7EBFE0346002B04D1FFF7D2FE04
:101B0C000346002B15D0002204210D48FFF790FF4F
:101B1C0000F034F80B4B1B680A4A23F007031360E0
:101B2C0007E000F02BF8074B1B68064A23F007036D
:101B3C001360002203210248FFF77AFF00BF80BD2B
:101B4C00001400580040005880B500AF002204215A
:101B5C000948FFF76DFF00BF03210748FFF750FF4F
:101B6C000346002BF8D1FFF7FAFE002203210248AE
:101B7C00FFF75EFF00BF80BD0014005880B500AFBA
:101B8C00FFF7B8FE00BFFFF7C4FE0346002BFAD0E8
:101B9C000120FFF7D0FE0020FFF7EDFE00BFFFF79E
:101BAC00DEFE0346042BFAD100BF80BD80B400AF2B
:101BBC004FF0B043D3F890304FF0B04243F40043B1
:101BCC00C2F8903000BFBD465DF8047B704780B40E
:101BDC0085B000AF78604FF0B043DA6C4FF0B04195
:101BEC007B681343CB644FF0B043DA6C7B681340D3
:101BFC00FB60FB6800BF1437BD465DF8047B704783
:101C0C0080B485B000AF78604FF0B0431A6D4FF0E0
:101C1C00B0417B6813430B654FF0B0431A6D7B6882
:101C2C001340FB60FB6800BF1437BD465DF8047BB6
:101C3C00704780B485B000AF78604FF0B0439A6DB8
:101C4C004FF0B0417B6813438B654FF0B0439A6DF6
:101C5C007B681340FB60FB6800BF1437BD465DF822
:101C6C00047B704780B500AF4FF40020FFF7C8FF2E
:101C7C00002200212E2000F03EFD2E2000F055FD0C
:101C8C0000BF80BD80B588B000AF786007F10C0351
:101C9C0000221A605A609A60DA601A617B681B68CD
:101CAC000E4A934216D10220FFF791FF0423FB60EA
:101CBC0003233B6100237B6107F10C0319460848A1
:101CCC0000F0E8FE00220021162000F014FD162082
:101CDC0000F02BFD00BF2037BD4680BD0002014047
:101CEC000004004880B582B000AF78607B681B6848
:101CFC000D4A934213D14FF48010FFF781FF00225D
:101D0C0000212C2000F0F7FC2C2000F00EFD00220E
:101D1C0000212D2000F0EFFC2D2000F006FD00BF6F
:101D2C000837BD4680BD00BF000C005880B58EB092
:101D3C0000AF786007F1080330220021184605F047
:101D4C0095FB7B681B68124A93421DD14FF40063CC
:101D5C00BB604FF48073BB6207F10803184602F0B6
:101D6C0035FB0346002B01D0FFF776FDFFF71EFF76
:101D7C004FF48060FFF75DFF00220021032000F08C
:101D8C00BAFC032000F0D1FC00BF3837BD4680BD43
:101D9C000028004080B400AFFEE780B400AFFEE73F
:101DAC0080B400AFFEE780B400AFFEE780B400AFB4
:101DBC00FEE780B400AF00BFBD465DF8047B704702
:101DCC0080B400AF00BFBD465DF8047B704780B4A3
:101DDC0000AF00BFBD465DF8047B704780B500AF17
:101DEC0000F004F900BF80BD80B500AFFFF7C6F866
:101DFC0000BF80BD80B500AF024800F019FB00BFEA
:101E0C0080BD00BF3401002080B500AF04F002FF9C
:101E1C0000BF80BD80B500AF04F034FF00BF80BDB3
:101E2C0080B500AF00F09EFF00BF80BD80B400AF56
:101E3C00224BD3F88830214A43F47003C2F888301F
:101E4C004FF0B0431B684FF0B04243F001031360F6
:101E5C004FF0B0434FF4E0229A604FF0B0431A6851
:101E6C004FF0B041164B13400B604FF0B043D3F81A
:101E7C0094304FF0B04223F00503C2F894304FF089
:101E8C00B043D3F898304FF0B04223F00103C2F8BE
:101E9C0098304FF0B0430B4ADA604FF0B0431B68F8
:101EAC004FF0B04223F4802313604FF0B043002274
:101EBC009A6100BFBD465DF8047B704700ED00E001
:101ECC00FBFEF6FA00100422D458C4500433C41894
:101EDC008C42F9D37047036004308842FBD37047BF
:101EEC000C488546FFF7A2FF0B480C490C4A00230F
:101EFC00FFF7EDFF0B480C490023FFF7EEFF0B48F3
:101F0C000B490023FFF7E9FF05F07EFAFFF740FBD2
:101F1C00FEE7000000300020040000202400002018
:101F2C00387700080C010020F8020020E40103209F
:101F3C00670A0320FEE7000080B582B000AF0023E3
:101F4C00FB710C4B1B680B4A43F48073136003202A
:101F5C0000F0C6FB0F2000F00FF80346002B02D058
:101F6C000123FB7101E0FFF77DFEFB791846083772
:101F7C00BD4680BD0040005880B584B000AF78608D
:101F8C000023FB73174B1B78002B24D002F034F882
:101F9C000246144B1B7819464FF47A73B3FBF1F3DA
:101FAC00B2FBF3F3184600F0DCFB0346002B0FD119
:101FBC007B680F2B09D8002279684FF0FF3000F0B6
:101FCC009AFB094A7B68136007E00123FB7304E06A
:101FDC000123FB7301E00123FB73FB7B18461037D5
:101FEC00BD4680BD180000201400002080B400AF56
:101FFC00064B1B781A46064B1B681344044A1360A5
:10200C0000BFBD465DF8047B704700BF1800002080
:10201C00BC01002080B400AF034B1B681846BD46C2
:10202C005DF8047B704700BFBC01002080B400AF9A
:10203C00034B1B681846BD465DF8047B704700BF18
:10204C001400002080B400AF054B1B68044A23F039
:10205C000203136000BFBD465DF8047B704700BFF0
:10206C0010E000E080B400AF054B1B68044A43F05D
:10207C000203136000BFBD465DF8047B704700BFD0
:10208C0010E000E080B483B000AF7860064BD3F86A
:10209C00802005497B681343C1F8803000BF0C37A2
:1020AC00BD465DF8047B70470008005880B483B0CF
:1020BC0000AF7860074BD3F880207B68DB43054981
:1020CC001340C1F8803000BF0C37BD465DF8047B6F
:1020DC00704700BF0008005880B483B000AF786030
:1020EC00064BD3F8842005497B681343C1F8843030
:1020FC0000BF0C37BD465DF8047B704700080058E4
:10210C0080B483B000AF7860074BD3F884207B6831
:10211C00DB4305491340C1F8843000BF0C37BD4682
:10212C005DF8047B704700BF0008005880B483B092
:10213C0000AF7860054B1A6804497B6813430B6049
:10214C0000BF0C37BD465DF8047B70470008005893
:10215C0080B483B000AF7860064B1A687B68DB43B1
:10216C00044913400B6000BF0C37BD465DF8047B7F
:10217C00704700BF0008005880B483B000AF78608F
:10218C00054B5A6804497B6813434B6000BF0C37FE
:10219C00BD465DF8047B70470008005880B483B0DE
:1021AC0000AF7860064B5A687B68DB4304491340E8
:1021BC004B6000BF0C37BD465DF8047B704700BF19
:1021CC000008005880B483B000AF7860074BDA6821
:1021DC007B6813407A689A4201D1012300E0002306
:1021EC0018460C37BD465DF8047B70470008005854
:1021FC0080B483B000AF7860044A7B68D36000BFC2
:10220C000C37BD465DF8047B704700BF00080058D2
:10221C0080B588B000AF78600023FB600023FB77AB
:10222C007B68002B02D10123FB77ABE07B681B683A
:10223C001B6803F00043B3F1004F02D10123FB777D
:10224C00A0E07B6893F82130DBB2002B09D17B68CE
:10225C00002283F820207B6800225A627868FFF7FE
:10226C0011FD7B681B681B6803F40003BB617B6872
:10227C00DA687B689B681A437B689B691A437B68A6
:10228C001B691A437B685B691A437B685B68134361
:10229C007B617B681B681A683D4B13407A68126837
:1022AC0079690B4313607B681B681B6803F400039C
:1022BC00002B16D0BB69002B13D1364B1B689B0926
:1022CC00354AA2FB03239B095A1C13469B0013445B
:1022DC009B00FB6002E0FB68013BFB60FB68002B92
:1022EC00F9D14FF480133B617B68DB6903F0030386
:1022FC00002B37D07B68DB6903F01003002B03D075
:10230C003869FFF713FF02E03869FFF721FF7B689C
:10231C00DB6903F02003002B03D03869FFF72CFF97
:10232C0002E03869FFF73AFF3869FFF761FF7B6815
:10233C00DB6903F00203002B03D03869FFF7CCFEF6
:10234C0002E03869FFF7DCFE7B68DB6903F0010310
:10235C00002B03D03869FFF795FE09E03869FFF7C9
:10236C00A5FE05E03869FFF7CBFE3869FFF79EFE46
:10237C007B6893F82130DBB2002B03D17B68012200
:10238C0083F82120FB7F18462037BD4680BD00BF57
:10239C00037E20F910000020632D3E0580B485B02B
:1023AC0000AF78600023BB600023FB737B68002BBD
:1023BC0002D10123FB7330E07B681B681B6803F0C0
:1023CC000043B3F1004F02D10123FB7325E07B687E
:1023DC0093F82130DBB2012B1DD17B681B681A6886
:1023EC007B681B6842F001021A607B68022283F84A
:1023FC0021200D4B1B689B090C4AA2FB03239B0954
:10240C000133DB00BB6002E0BB68013BBB60BB6817
:10241C00002BF9D101E00123FB73FB7B1846143729
:10242C00BD465DF8047B704710000020632D3E050F
:10243C0080B584B000AF78604FF48013FB60F8680F
:10244C00FFF7C0FE0346002B05D0F868FFF7D0FE5F
:10245C007868FFF7F1F900BF1037BD4680BD80B436
:10246C0083B000AF78607B681B681B689B0F03F020
:10247C00010318460C37BD465DF8047B704700001D
:10248C0080B485B000AF78607B6803F00703FB6015
:10249C000C4BDB68BB60BA684FF6FF031340BB60A4
:1024AC00FB681A02BB68134343F0BF6343F4003369
:1024BC00BB60044ABB68D36000BF1437BD465DF8EF
:1024CC00047B704700ED00E080B400AF044BDB6888
:1024DC001B0A03F007031846BD465DF8047B7047E2
:1024EC0000ED00E080B483B000AF0346FB7197F9B8
:1024FC000730002B0BDBFB7903F01F02074997F920
:10250C0007305B09012000FA02F241F8232000BFDA
:10251C000C37BD465DF8047B704700BF00E100E05E
:10252C0080B483B000AF0346FB7197F90730002BE2
:10253C0012DBFB7903F01F020A4997F907305B099C
:10254C00012000FA02F2203341F82320BFF34F8F11
:10255C0000BFBFF36F8F00BF00BF0C37BD465DF8E7
:10256C00047B704700E100E080B483B000AF034609
:10257C00FB7197F90730002B0CDBFB7903F01F0282
:10258C00074997F907305B09012000FA02F2403342
:10259C0041F8232000BF0C37BD465DF8047B704723
:1025AC0000E100E080B483B000AF0346FB7197F903
:1025BC000730002B0CDBFB7903F01F02074997F95E
:1025CC0007305B09012000FA02F2603341F8232046
:1025DC0000BF0C37BD465DF8047B704700E100E09E
:1025EC0080B483B000AF03463960FB7197F90730B4
:1025FC00002B0ADB3B68DAB20C4997F90730120161
:10260C00D2B20B4483F800230AE03B68DAB20849E3
:10261C00FB7903F00F03043B1201D2B20B441A7680
:10262C0000BF0C37BD465DF8047B704700E100E04D
:10263C0000ED00E080B489B000AFF860B9607A605A
:10264C00FB6803F00703FB61FB69C3F10703042B71
:10265C0028BF0423BB61FB690433062B02D9FB6939
:10266C00033B00E000237B614FF0FF32BB6902FAB1
:10267C0003F3DA43BB681A407B699A404FF0FF3191
:10268C007B6901FA03F3D9437B680B40134318466B
:10269C002437BD465DF8047B7047000080B582B0DE
:1026AC0000AF78607B68013BB3F1807F01D30123DD
:1026BC000FE00A4A7B68013B53600F214FF0FF305B
:1026CC00FFF78EFF054B00229A60044B07221A601D
:1026DC00002318460837BD4680BD00BF10E000E05F
:1026EC0080B582B000AF78607868FFF7C9FE00BF94
:1026FC000837BD4680BD80B586B000AF0346B960D3
:10270C007A60FB73FFF7E0FE78617A68B9687869E4
:10271C00FFF790FF024697F90F3011461846FFF766
:10272C005FFF00BF1837BD4680BD80B582B000AFDB
:10273C000346FB7197F907301846FFF7D3FE00BF2D
:10274C000837BD4680BD80B582B000AF0346FB7133
:10275C0097F907301846FFF7E3FE00BF0837BD4670
:10276C0080BD80B582B000AF78607868FFF796FFC7
:10277C00034618460837BD4680BD80B582B000AF11
:10278C000346FB7197F907301846FFF7EDFE00BFC3
:10279C000837BD4680BD80B582B000AF0346FB71E3
:1027AC0097F907301846FFF7FDFE00BF0837BD4606
:1027BC0080BD000080B483B000AF0023FB710B4BD5
:1027CC005B69002B0BDA094B094A9A60074B094AE3
:1027DC009A60064B5B69002B01DA0123FB71FB79D4
:1027EC0018460C37BD465DF8047B70470040005816
:1027FC0023016745AB89EFCD80B483B000AF0023D4
:10280C00FB71094B5B69084A43F000435361064B6B
:10281C005B69002B01DB0123FB71FB7918460C373C
:10282C00BD465DF8047B70470040005880B584B00D
:10283C0000AF7860FFF7EEFBB86009E0FFF7EAFB4A
:10284C000246BB68D31A7A689A4201D8032354E033
:10285C002C4B1B6903F48033B3F5803FEED0294B2E
:10286C001B69FB60FB6803F00103002B02D0254BB6
:10287C0001221A61FB6803F40043002B07D0214BA3
:10288C004FF400421A61FB6823F40043FB60FA68C2
:10289C004CF2FA331340FB60FB6803F04043002B0F
:1028AC0007D0184B9A69FB6803F040431549134352
:1028BC008B61FB6823F04043002B04D0114AFB686A
:1028CC0023F040431361FB68002B0ED00E4AFB68CB
:1028DC005360012311E0FFF79DFB0246BB68D31A3E
:1028EC007A689A4201D8032307E0064B1B6903F46C
:1028FC008023B3F5802FEED0002318461037BD4649
:10290C0080BD00BF00400058C001002080B584B0DD
:10291C0000AF78603960244B1B78012B01D1022366
:10292C003DE0214B01221A701F4B00225A604FF4DC
:10293C007A70FFF77BFF0346FB73FB7B002B2AD1DE
:10294C007B681B68022B24D13B684FF0FF321A6066
:10295C007B685B68BB6012E0B86800F027F84FF446
:10296C007A70FFF763FF0346FB73FB7B002B03D0EE
:10297C003B68BA681A600AE0BB680133BB607B68CD
:10298C005A687B689B681344BA689A42E4D300F097
:10299C006FF800F025F8044B00221A70FB7B1846E8
:1029AC001037BD4680BD00BFC001002080B483B08D
:1029BC0000AF7860094B5B6923F4FF627B68DB0036
:1029CC001343064A43F4803343F00203536100BFC0
:1029DC000C37BD465DF8047B704700BF00400058C3
:1029EC0080B400AF214B1B6803F40073B3F5007F78
:1029FC0017D11E4B1B681D4A23F4007313601B4B2D
:102A0C001B681A4A43F400631360184B1B68174A7F
:102A1C0023F400631360154B1B68144A43F40073D2
:102A2C001360124B1B6803F48063B3F5806F17D1EE
:102A3C000E4B1B680D4A23F4806313600B4B1B6811
:102A4C000A4A43F480531360084B1B68074A23F46B
:102A5C0080531360054B1B68044A43F48063136076
:102A6C0000BFBD465DF8047B704700BF00400058B6
:102A7C0080B400AF064B5B69054A23F4FF6323F077
:102A8C000203536100BFBD465DF8047B704700BF75
:102A9C000040005880B487B000AF786039600023E4
:102AAC007B6146E13B681A6801217B6901FA03F3FB
:102ABC001340FB60FB68002B00F038813B685B68BF
:102ACC0003F00303012B05D03B685B6803F00303A1
:102ADC00022B30D17B689B683B617B695B000322D6
:102AEC0002FA03F3DB433A6913403B613B68DA6853
:102AFC007B695B0002FA03F33A6913433B617B6821
:102B0C003A699A607B685B683B6101227B6902FAD7
:102B1C0003F3DB433A6913403B613B685B681B0979
:102B2C0003F001027B6902FA03F33A6913433B6138
:102B3C007B683A695A603B685B6803F00303032BBC
:102B4C0017D07B68DB683B617B695B00032202FA70
:102B5C0003F3DB433A6913403B613B689A687B693A
:102B6C005B0002FA03F33A6913433B617B683A69F1
:102B7C00DA603B685B6803F00303022B23D17B69AB
:102B8C00DA087B68083253F822303B617B6903F02A
:102B9C0007039B000F2202FA03F3DB433A6913404D
:102BAC003B613B681A697B6903F007039B0002FADF
:102BBC0003F33A6913433B617B69DA087B6808329B
:102BCC00396943F822107B681B683B617B695B00A9
:102BDC00032202FA03F3DB433A6913403B613B687F
:102BEC005B6803F003027B695B0002FA03F33A694A
:102BFC0013433B617B683A691A603B685B6803F47A
:102C0C004033002B00F09280514A7B699B080233C1
:102C1C0052F823303B617B6903F003039B000F22C6
:102C2C0002FA03F3DB433A6913403B617B68B3F16F
:102C3C00904F13D07B68474A93420DD07B68464A2D
:102C4C00934207D07B68454A934201D1042306E0A6
:102C5C00072304E0022302E0012300E000237A6949
:102C6C0002F00302920093403A6913433B613849E6
:102C7C007B699B0802333A6941F82320384B1B6867
:102C8C003B61FB68DB433A6913403B613B685B6823
:102C9C0003F48013002B03D03A69FB6813433B61A8
:102CAC002F4A3B6913602E4B5B683B61FB68DB432F
:102CBC003A6913403B613B685B6803F40013002BDB
:102CCC0003D03A69FB6813433B61254A3B69536067
:102CDC00234BD3F880303B61FB68DB433A691340EC
:102CEC003B613B685B6803F48033002B03D03A698B
:102CFC00FB6813433B611A4A3B69C2F88030184B9E
:102D0C00D3F884303B61FB68DB433A6913403B6189
:102D1C003B685B6803F40033002B03D03A69FB6813
:102D2C0013433B610E4A3B69C2F884307B69013323
:102D3C007B613B681A687B6922FA03F3002B7FF4F2
:102D4C00B1AE00BF00BF1C37BD465DF8047B7047B9
:102D5C000000014000040048000800480010004832
:102D6C000008005880B582B000AF0A4BDB687B606E
:102D7C00084B1A687B68DB43064913400B60054A15
:102D8C007B685360786800F007F800BF0837BD46D1
:102D9C0080BD00BF0015005880B483B000AF7860D0
:102DAC0000BF0C37BD465DF8047B704780B584B01E
:102DBC0000AF78600023FB737B68002B1ED0134B95
:102DCC00BB607B6893F83830DBB2002B02D178689B
:102DDC00FEF788FFB86800F05BF8BB681B6843F02F
:102DEC000112BB681A60786800F02CF87B6800222E
:102DFC005A637B68012283F8382001E00123FB73BE
:102E0C00FB7B18461037BD4680BD00BF000C005838
:102E1C0080B485B000AFF860B9601346FB7100BF99
:102E2C001437BD465DF8047B704780B485B000AFA5
:102E3C00F860B9601346FB7100BF1437BD465DF8EE
:102E4C00047B704780B485B000AF78600023FB60D2
:102E5C000FE07A68FB689B0013440B4A5A607A684F
:102E6C00FB6806339B001344084A5A60FB68013325
:102E7C00FB60FB68052BECD900BF00BF1437BD46C7
:102E8C005DF8047B704700BF1D2E0008372E00082C
:102E9C0080B483B000AF78607B6800221A607B68D6
:102EAC004FF03F125A607B683F229A6000BF0C378C
:102EBC00BD465DF8047B704780B400AF054B1B68C2
:102ECC00044A43F48073136000BFBD465DF8047B75
:102EDC00704700BF0004005880B582B000AF786026
:102EEC000B46FB707B68B3F5804F04D1FB7818461A
:102EFC0000F04AF803E0FB78184600F01BF800BF1E
:102F0C000837BD4680BD000080B400AF054B9B6800
:102F1C00044A43F40073936000BFBD465DF8047B24
:102F2C00704700BF0004005880B500AFFFF7ECFFFE
:102F3C0000BF80BD80B483B000AF0346FB71104B63
:102F4C001B680F4A23F0070313600E4B1B690D4AD5
:102F5C0043F004031361FB79012B01D130BF02E074
:102F6C0040BF20BF20BF074B1B69064A23F0040358
:102F7C00136100BF0C37BD465DF8047B704700BF82
:102F8C000004005800ED00E080B483B000AF0346AD
:102F9C00FB71114B1B6823F007030F4A43F001032D
:102FAC0013600E4B1B690D4A43F004031361FB794C
:102FBC00012B01D130BF02E040BF20BF20BF074B27
:102FCC001B69064A23F00403136100BF0C37BD468E
:102FDC005DF8047B704700BF0004005800ED00E072
:102FEC0080B400AF4FF0B0431B6803F48013B3F50B
:102FFC00801F01D1012300E000231846BD465DF877
:10300C00047B704780B400AF4FF0B0431B684FF0A7
:10301C00B04243F48033136000BFBD465DF8047BBF
:10302C00704780B400AF4FF0B0431B684FF0B04214
:10303C0023F48033136000BFBD465DF8047B7047FA
:10304C0080B400AF4FF0B0431B6803F40033B3F50A
:10305C00003F01D1012300E000231846BD465DF876
:10306C00047B704780B400AF4FF0B0431B684FF047
:10307C00B04243F48073136000BFBD465DF8047B1F
:10308C00704780B400AF4FF0B0431B684FF0B042B4
:10309C0023F48073136000BFBD465DF8047B70475A
:1030AC0080B400AF4FF0B0431B6803F48063B3F5FA
:1030BC00806F01D1012300E000231846BD465DF866
:1030CC00047B704780B483B000AF78604FF0B0439E
:1030DC005B6823F0FE427B681B064FF0B041134344
:1030EC004B6000BF0C37BD465DF8047B704780B465
:1030FC0000AF4FF0B043D3F890304FF0B04243F0F4
:10310C000103C2F8903000BFBD465DF8047B7047E8
:10311C0080B400AF4FF0B043D3F890304FF0B042D2
:10312C0023F00103C2F8903000BFBD465DF8047B6C
:10313C00704780B400AF4FF0B043D3F890304FF0ED
:10314C00B04243F00403C2F8903000BFBD465DF8B6
:10315C00047B704780B400AF4FF0B043D3F890308D
:10316C004FF0B04223F00403C2F8903000BFBD46CC
:10317C005DF8047B704780B400AF4FF0B043D3F8D8
:10318C00903003F00203022B01D1012300E0002355
:10319C001846BD465DF8047B704780B400AF4FF015
:1031AC00B043D3F894304FF0B04243F00103C2F86F
:1031BC00943000BFBD465DF8047B704780B400AF0F
:1031CC004FF0B043D3F894304FF0B04223F00103EA
:1031DC00C2F8943000BFBD465DF8047B704780B4E4
:1031EC0000AF4FF0B043D3F8943003F00203022B3E
:1031FC0001D1012300E000231846BD465DF8047B95
:10320C00704780B400AF4FF0B043D3F894304FF018
:10321C00B04243F00403C2F8943000BFBD465DF8E1
:10322C00047B704780B400AF4FF0B043D3F89430B8
:10323C004FF0B04223F00403C2F8943000BFBD46F7
:10324C005DF8047B704780B400AF4FF0B043D3F807
:10325C00943003F00803082B01D1012300E0002374
:10326C001846BD465DF8047B704780B483B000AF50
:10327C0078604FF0B043D3F8943023F470627B68DD
:10328C001B024FF0B0411343C1F8943000BF0C3710
:10329C00BD465DF8047B704780B400AF4FF0B0437F
:1032AC001B684FF0B04243F00103136000BFBD46F2
:1032BC005DF8047B704780B400AF4FF0B0431B68DF
:1032CC004FF0B04223F00103136000BFBD465DF820
:1032DC00047B704780B400AF4FF0B0431B6803F021
:1032EC000203022B01D1012300E000231846BD4646
:1032FC005DF8047B704780B483B000AF78604FF00A
:10330C00B0431B6823F0F0024FF0B0417B681343CD
:10331C000B6000BF0C37BD465DF8047B704780B472
:10332C0083B000AF4FF0B0431B6803F0F0037B6039
:10333C007B68B02B01D9B0237B607B6818460C37B7
:10334C00BD465DF8047B704780B483B000AF7860F5
:10335C004FF0B0435B6823F47F427B681B024FF055
:10336C00B04113434B6000BF0C37BD465DF8047B86
:10337C00704780B483B000AF78604FF0B0439B6867
:10338C0023F003024FF0B0417B6813438B6000BF06
:10339C000C37BD465DF8047B704780B400AF4FF02E
:1033AC00B0439B6803F00C031846BD465DF8047BE4
:1033BC00704780B483B000AF78604FF0B0439B6827
:1033CC0023F0F0024FF0B0417B6813438B6000BFD9
:1033DC000C37BD465DF8047B704780B483B000AFFA
:1033EC0078604FF0B043D3F8083123F0F0024FF07F
:1033FC00B0417B681343C1F8083100BF0C37BD46A0
:10340C005DF8047B704780B483B000AF78604FF0F8
:10341C00B043D3F8083123F00F027B681B094FF03F
:10342C00B0411343C1F8083100BF0C37BD465DF8FD
:10343C00047B704780B483B000AF78604FF0B0432A
:10344C009B6823F4E0624FF0B0417B6813438B60C0
:10345C0000BF0C37BD465DF8047B704780B483B069
:10346C0000AF78604FF0B0439B6823F460524FF08C
:10347C00B0417B6813438B6000BF0C37BD465DF8D1
:10348C00047B704780B400AF4FF0B0439B6803F0EF
:10349C00F0031846BD465DF8047B704780B400AF5E
:1034AC004FF0B043D3F808311B0103F0F00318467A
:1034BC00BD465DF8047B704780B400AF4FF0B0435D
:1034CC001B684FF0B04243F08073136000BFBD46E1
:1034DC005DF8047B704780B400AF4FF0B0431B68BD
:1034EC004FF0B04223F08073136000BFBD465DF80F
:1034FC00047B704780B400AF4FF0B0431B6803F0FF
:10350C000073B3F1007F01D1012300E000231846C2
:10351C00BD465DF8047B704780B400AF4FF0B043FC
:10352C00DB681B0A03F07F031846BD465DF8047B7D
:10353C00704780B400AF4FF0B043DB6803F06043DA
:10354C001846BD465DF8047B704780B400AF4FF061
:10355C00B043DB6803F070031846BD465DF8047B8E
:10356C00704780B400AF4FF0B043DB6803F0030347
:10357C001846BD465DF8047B704780B400AF4FF031
:10358C00B0439B6803F48033B3F5803F01D1012332
:10359C0000E000231846BD465DF8047B704780B4FC
:1035AC0000AF4FF0B043D3F8083103F40033B3F558
:1035BC00003F01D1012300E000231846BD465DF811
:1035CC00047B704780B400AF4FF0B043D3F80831A0
:1035DC0003F48033B3F5803F01D1012300E00023D5
:1035EC001846BD465DF8047B704780B400AF4FF0C1
:1035FC00B0439B6803F40033B3F5003F01D10123C2
:10360C0000E000231846BD465DF8047B704780B48B
:10361C0000AF4FF0B0439B6803F48023B3F5802FC9
:10362C0001D1012300E000231846BD465DF8047B60
:10363C007047000090B58DB000AF78607B68002BB0
:10364C0001D1012324E37B681B6803F02003002BCA
:10365C0000F08D80FFF7A1FEF862FFF782FFB862E1
:10366C00FB6A002B05D0FB6A0C2B47D1BB6A012BE4
:10367C0044D17B68DB69002B01D1012308E37B6813
:10368C005C6AFFF74CFE03469C4214D97B685B6A6C
:10369C00184600F0C5FC0346002B01D00123F7E2CD
:1036AC007B685B6A1846FFF726FE7B681B6A184628
:1036BC00FFF74AFE13E07B685B6A1846FFF71BFEB8
:1036CC007B681B6A1846FFF73FFE7B685B6A1846EF
:1036DC0000F0A6FC0346002B01D00123D8E200F039
:1036EC008BFC0346A44A1360A44B1B681846FEF7D8
:1036FC0043FC0346002B39D00123C9E27B68DB690C
:10370C00002B1ED0FFF7C8FDFEF784FC786208E0A2
:10371C00FEF780FC02467B6AD31A022B01D90323E5
:10372C00B6E2FFF7D7FD0346002BF1D07B685B6A4E
:10373C001846FFF7E0FD7B681B6A1846FFF704FE8E
:10374C0015E0FFF7B8FDFEF765FC786208E0FEF7C0
:10375C0061FC02467B6AD31A022B01D9032397E240
:10376C00FFF7B8FD0346002BF1D100E000BF7B68EA
:10377C001B6803F00103002B47D0FFF70EFE3862E5
:10378C00FFF7EFFEF8613B6A082B05D03B6A0C2B68
:10379C0008D1FB69032B05D17B685B68002B34D106
:1037AC00012375E27B685B68B3F5803F02D1FFF7BC
:1037BC0029FC01E0FFF735FC7B685B68002B12D01D
:1037CC00FEF728FC786208E0FEF724FC02467B6AD0
:1037DC00D31A642B01D903235AE2FFF731FC0346B9
:1037EC00002BF1D011E0FEF715FC786208E0FEF733
:1037FC0011FC02467B6AD31A642B01D9032347E2DE
:10380C00FFF71EFC0346002BF1D17B681B6803F00D
:10381C000203002B4CD0FFF7C0FDB861FFF7A1FEEF
:10382C007861BB69042B05D0BB690C2B0ED17B696D
:10383C00022B0BD17B68DB68002B01D1012327E223
:10384C007B681B691846FFF73DFC31E07B68DB6841
:10385C00002B19D0FFF706FCFEF7DCFB786208E0C2
:10386C00FEF7D8FB02467B6AD31A022B01D903233D
:10387C000EE2FFF715FC0346002BF1D07B681B69A9
:10388C001846FFF71FFC13E0FFF7FBFBFEF7C2FB2C
:10389C00786208E0FEF7BEFB02467B6AD31A022B65
:1038AC0001D90323F4E1FFF7FBFB0346002BF1D115
:1038BC007B681B6803F00803002B06D17B681B6830
:1038CC0003F01003002B00F0A3807B685B69002BD6
:1038DC0076D07B681B6803F01003002B46D0FFF7F3
:1038EC007EFC0346002B13D1FFF757FCFEF792FB2F
:1038FC00786208E0FEF78EFB02467B6AD31A022B35
:10390C0001D90323C4E1FFF76AFC0346002BF1D075
:10391C00FFF777FCFEF77EFB786208E0FEF77AFB98
:10392C0002467B6AD31A032B01D90323B0E1FFF7BC
:10393C008AFC0346002BF1D07B689B691846FFF785
:10394C0094FCFFF73BFCFEF765FB786208E0FEF7A2
:10395C0061FB02467B6AD31A022B01D9032397E140
:10396C00FFF73DFC0346002BF1D151E0FFF715FCAE
:10397C00FEF750FB78620CE01000002014000020D1
:10398C00FEF748FB02467B6AD31A022B01D90323AC
:10399C007EE1FFF724FC0346002BF1D0FFF742FC3D
:1039AC0008E0FEF737FB02467B6AD31A032B01D9DA
:1039BC0003236DE1FFF747FC0346002BF1D127E011
:1039CC00FFF730FCFEF726FB786208E0FEF722FBDF
:1039DC0002467B6AD31A032B01D9032358E1FFF764
:1039EC0032FC0346002BF1D1FFF7E8FBFEF712FB8C
:1039FC00786208E0FEF70EFB02467B6AD31A022BB4
:103A0C0001D9032344E1FFF7EAFB0346002BF1D174
:103A1C007B681B6803F00403002B5BD09E4B1B6878
:103A2C0003F48073002B14D1FFF746FAFEF7F2FA79
:103A3C00786208E0FEF7EEFA02467B6AD31A022B94
:103A4C0001D9032324E1944B1B6803F48073002BEE
:103A5C00F0D07B689B68012B02D1FFF748FB0CE090
:103A6C007B689B68052B04D1FFF763FBFFF73FFBDB
:103A7C0003E0FFF74DFBFFF76DFB7B689B68002BAA
:103A8C0014D0FEF7C7FA78620AE0FEF7C3FA0246D2
:103A9C007B6AD31A41F28832934201D90323F7E0AF
:103AAC00FFF769FB0346002BEFD013E0FEF7B2FAE9
:103ABC0078620AE0FEF7AEFA02467B6AD31A41F24C
:103ACC008832934201D90323E2E0FFF754FB03460B
:103ADC00002BEFD17B689B6A002B00F0D880FFF79E
:103AEC005CFC38614FF0B043DB68FB607B689B6A21
:103AFC00022B40F0A680FB6803F003027B68DB6AB4
:103B0C009A4223D1FB6803F070027B681B6B9A42CC
:103B1C001CD1FB681B0A03F07F027B685B6B9A422B
:103B2C0014D1FB6803F478127B689B6B9A420DD11D
:103B3C00FB6803F060627B68DB6B9A4206D1FB6822
:103B4C0003F060427B681B6C9A4254D03B690C2B8F
:103B5C004FD0FFF7C0FCFEF75DFA786208E0FEF785
:103B6C0059FA02467B6AD31A022B01D903238FE040
:103B7C004FF0B0431B6803F00073002BEFD14FF0F4
:103B8C00B043DA68454B13407A68D16A7A68126B95
:103B9C0011437A68526B120211437A68926B11438B
:103BAC007A68D26B11437A68126C0A434FF0B041B9
:103BBC001343CB60FFF780FC4FF0B043DB684FF052
:103BCC00B04243F08053D360FEF724FA786208E0E9
:103BDC00FEF720FA02467B6AD31A022B01D9032383
:103BEC0056E04FF0B0431B6803F00073002BEFD08E
:103BFC004DE001234CE04FF0B0431B6803F0007321
:103C0C00002B44D1FFF758FC4FF0B043DB684FF06A
:103C1C00B04243F08053D360FEF7FCF9786208E0C1
:103C2C00FEF7F8F902467B6AD31A022B01D903235B
:103C3C002EE04FF0B0431B6803F00073002BEFD065
:103C4C0025E03B690C2B20D0FFF745FCFEF7E2F991
:103C5C00786208E0FEF7DEF902467B6AD31A022B83
:103C6C0001D9032314E04FF0B0431B6803F0007339
:103C7C00002BEFD14FF0B043DB684FF0B04223F094
:103C8C00805323F00303D36001E0012300E0002301
:103C9C0018463437BD4690BD000400588C80C111C5
:103CAC0080B584B000AF786039607B68002B01D19F
:103CBC0001232DE1984B1B6803F007033A689A42E5
:103CCC001BD9954B1B6823F0070293493B681343A0
:103CDC000B60FEF79FF9F86008E0FEF79BF90246CF
:103CEC00FB68D31A022B01D9032311E18A4B1B6801
:103CFC0003F007033A689A42EFD17B681B6803F024
:103D0C000203002B16D07B689B681846FFF751FB0B
:103D1C00FEF780F9F86008E0FEF77CF90246FB68D4
:103D2C00D31A022B01D90323F2E0FFF726FC03463A
:103D3C00002BF1D07B681B6803F02003002B16D0FE
:103D4C007B685B691846FFF748FBFEF763F9F86080
:103D5C0008E0FEF75FF90246FB68D31A022B01D983
:103D6C000323D5E0FFF71BFC0346002BF1D07B6847
:103D7C001B6803F04003002B16D07B689B69184628
:103D8C00FFF741FBFEF746F9F86008E0FEF742F951
:103D9C000246FB68D31A022B01D90323B8E0FFF7C4
:103DAC0011FC0346002BF1D07B681B6803F0040365
:103DBC00002B16D07B68DB681846FFF73BFBFEF741
:103DCC0029F9F86008E0FEF725F90246FB68D31ADA
:103DDC00022B01D903239BE0FFF707FC0346002BC2
:103DEC00F1D07B681B6803F00803002B17D07B68AD
:103DFC001B69DB001846FFF731FBFEF70BF9F86087
:103E0C0008E0FEF707F90246FB68D31A022B01D92A
:103E1C0003237DE0FFF7FBFB0346002BF1D07B680F
:103E2C001B6803F00103002B43D07B685B68022BFB
:103E3C0006D1FFF705F90346002B1ED1012367E0DD
:103E4C007B685B68032B06D1FFF754FB0346002B02
:103E5C0013D101235CE07B685B68002B06D1FFF774
:103E6C0039FA0346002B08D1012351E0FFF718F96A
:103E7C000346002B01D101234AE07B685B6818469E
:103E8C00FFF777FAFEF7C6F8F8600AE0FEF7C2F81B
:103E9C000246FB68D31A41F28832934201D90323BC
:103EAC0036E0FFF77AFA02467B685B689B009A4221
:103EBC00ECD1194B1B6803F007033A689A421BD2EA
:103ECC00154B1B6823F0070213493B6813430B6027
:103EDC00FEF7A0F8F86008E0FEF79CF80246FB68D5
:103EEC00D31A022B01D9032312E00B4B1B6803F0EE
:103EFC0007033A689A42EFD100F07EF80346074A6E
:103F0C001360FEF793F803461846FEF735F80346A0
:103F1C0018461037BD4680BD0040005810000020E8
:103F2C0090B585B000AFFFF738FA78607B68002B4E
:103F3C000AD1FFF7F4F903461B0903F00F032B4AD0
:103F4C0052F82330FB604BE07B68042B02D1284BEA
:103F5C00FB6045E07B68082B0AD1FFF741F803466C
:103F6C00012B02D1224BFB603AE0224BFB6037E085
:103F7C00FFF7F7FA38603B68022B03D03B68032B42
:103F8C0003D00DE01A4BBB6015E0FFF729F8034690
:103F9C00012B02D1164BBB600DE0164BBB600AE047
:103FAC00FFF7BDF903461B0903F00F030F4A52F844
:103FBC002330BB6000BFFFF7AFFA0246BB6803FBC0
:103FCC0002F4FFF7C2FA03461B090133B4FBF3F406
:103FDC00FFF7AFFA03465B0F0133B4FBF3F3FB605F
:103FEC00FB6818461437BD4690BD00BFB876000874
:103FFC000024F4000048E80198B500AFFFF790FFEB
:10400C000446FFF73FFA03461B0903F00F03034A6C
:10401C0052F82330B4FBF3F3184698BD78760008B9
:10402C0080B584B000AF78607B68B02B03D9144B9B
:10403C00DB6AFB6007E07B681B0903F00F03104A87
:10404C0052F82330FB60FFF729FA03461B0903F0F3
:10405C000F030C4A52F82330FA68B2FBF3F3BB603F
:10406C00BB68094AA2FB03239B0C4FF40071184652
:10407C0000F00CF8034618461037BD4680BD00BF53
:10408C00B87600087876000883DE1B4390B58FB0B5
:10409C0000AF78603960244B07F11C040FCB84E827
:1040AC000F00224B07F10C040FCB84E80F00002308
:1040BC007B6300233B6313E03B6B9B0038333B4437
:1040CC0053F81C3C7A689A4207D83B6B9B003833F8
:1040DC003B4453F82C3C7B6305E03B6B01333B6367
:1040EC003B6B032BE8D9124B1B6823F007021049DA
:1040FC007B6B13430B60FDF78DFFF86208E0FDF757
:10410C0089FF0246FB6AD31A022B01D9032307E06D
:10411C00074B1B6803F007037A6B9A42EFD100231D
:10412C0018463C37BD4690BDBC740008CC740008E2
:10413C000040005880B400AF4FF0B043D3F890303B
:10414C0003F00103012B01D1012300E000231846E9
:10415C00BD465DF8047B704780B400AF4FF0B043B0
:10416C00D3F8903003F00203022B01D1012300E0BD
:10417C0000231846BD465DF8047B704780B483B0BD
:10418C0000AF78604FF0B043D3F8943023F4404242
:10419C004FF0B0417B681343C1F8943000BF0C372B
:1041AC00BD465DF8047B704780B483B000AF786087
:1041BC004FF0B0435B6A23F003024FF0B0417B68D1
:1041CC0013434B6200BF0C37BD465DF8047B704750
:1041DC0080B483B000AF78604FF0B0435B6A23F0DB
:1041EC0030024FF0B0417B6813434B6200BF0C3779
:1041FC00BD465DF8047B704780B483B000AF786037
:10420C004FF0B043D3F8883023F003024FF0B041A5
:10421C007B681343C1F8883000BF0C37BD465DF88E
:10422C00047B704780B483B000AF78604FF0B0432C
:10423C00D3F8883023F440624FF0B0417B681343CD
:10424C00C1F8883000BF0C37BD465DF8047B704761
:10425C0080B483B000AF78604FF0B043D3F88820BF
:10426C007B681B0903F47F23DB431A407B681B012B
:10427C0003F47F234FF0B0411343C1F8883000BFE3
:10428C000C37BD465DF8047B704780B483B000AF3B
:10429C0078604FF0B043D3F888207B681B0C1B046C
:1042AC00DB431A407B681B044FF0B0411343C1F849
:1042BC00883000BF0C37BD465DF8047B704780B476
:1042CC0083B000AF78604FF0B043D3F8883023F060
:1042DC0040424FF0B0417B681343C1F8883000BFB7
:1042EC000C37BD465DF8047B704780B483B000AFDB
:1042FC0078604FF0B043D3F8883023F040624FF031
:10430C00B0417B681343C1F8883000BF0C37BD4601
:10431C005DF8047B704780B483B000AF78604FF0D9
:10432C00B043D3F8883023F040524FF0B0417B6853
:10433C001343C1F8883000BF0C37BD465DF8047BD1
:10434C00704780B483B000AF78604FF0B043D3F8BF
:10435C00903023F440724FF0B0417B681343C1F8A6
:10436C00903000BF0C37BD465DF8047B704780B4BD
:10437C0000AF4FF0B043D3F8903003F440731846BD
:10438C00BD465DF8047B704780B400AF4FF0B0437E
:10439C00D3F890304FF0B04243F48033C2F89030F1
:1043AC0000BFBD465DF8047B704780B400AF4FF092
:1043BC00B043D3F890304FF0B04223F48033C2F8BE
:1043CC00903000BFBD465DF8047B704780B588B067
:1043DC0000AF78600023FB770023BB777B681B68FA
:1043EC0003F40063002B46D0FFF7C1FFB8617B6874
:1043FC001B6ABA699A423CD0FEF75EFDBB69002B82
:10440C0005D17B681B6A1846FFF79BFF2EE04FF027
:10441C00B043D3F890307B61FFF7B6FFFFF7C5FFD1
:10442C007B6923F440727B681B6A13437B614FF0FA
:10443C00B0427B69C2F89030FFF77CFE0346012B3B
:10444C0014D1FDF7E7FD38610BE0FDF7E3FD024603
:10445C003B69D31A41F28832934202D90323FB778A
:10446C0004E0FFF779FE0346012BEED1FB7FBB770F
:10447C0001E0FB7FBB777B681B6803F00103002B1B
:10448C0004D07B685B681846FFF7B6FE7B681B6838
:10449C0003F00203002B04D07B689B681846FFF7DF
:1044AC00C1FE7B681B6803F01003002B04D07B68F3
:1044BC001B691846FFF7E9FE7B681B6803F02003B5
:1044CC00002B04D07B685B691846FFF7DEFE7B6827
:1044DC001B6803F00403002B04D07B68DB681846D0
:1044EC00FFF7B6FE7B681B6803F40073002B2BD020
:1044FC007B689B69B3F1804F08D07B689B69B3F1F3
:10450C00004F03D07B689B69002B05D17B689B69AE
:10451C001846FFF7D4FE0AE07B689B6923F08053B2
:10452C00FB600020FFF7CBFEF868FFF7DEFE7B6830
:10453C009B69B3F1C05F07D14FF0B043DB684FF01C
:10454C00B04243F08073D3607B681B6803F48063D4
:10455C00002B11D07B68DB691846FFF7DCFE7B680B
:10456C00DB69B3F1005F07D14FF0B043DB684FF06C
:10457C00B04243F48033D3607B681B6803F48053F0
:10458C00002B04D07B685B6A1846FFF7F7FD7B684D
:10459C001B6803F40053002B09D07B68DB6A1846B8
:1045AC00FFF716FE7B689B6A1846FFF7FDFDBB7F85
:1045BC0018462037BD4680BD80B582B000AF78600C
:1045CC007B68002B01D1012390E07B6893F82130AC
:1045DC00DBB2002B06D17B68002283F820207868A0
:1045EC00FDF7A4FB7B68022283F821207B681B6803
:1045FC00CA225A627B681B6853225A62786800F0A0
:10460C009FF80346002B09D07B681B68FF225A6277
:10461C007B68042283F82120012367E07B681B68F8
:10462C009B687A68126823F4E00323F040039360DC
:10463C007B681B6899687B685A687B681B691A439E
:10464C007B689B691A437B681B680A439A607B688A
:10465C001B687A68D2681A617B681B6819697B6869
:10466C009B681A047B681B680A431A617B681B6889
:10467C00DA687B681B6822F08002DA607B681B6852
:10468C00DA6C7B681B6822F00202DA647B681B68B8
:10469C00D96C7B68DA697B685B691A437B681B6839
:1046AC000A43DA647B681B689B6803F02003002BC9
:1046BC0013D1786800F01EF80346002B0DD07B68F0
:1046CC001B68FF225A627B68042283F821207B68D6
:1046DC00002283F82020012308E07B681B68FF225E
:1046EC005A627B68012283F8212000231846083780
:1046FC00BD4680BD80B584B000AF78607B681B6818
:10470C00DA687B681B6822F0A002DA60FDF782FC95
:10471C00F86009E0FDF77EFC0246FB68D31AB3F59E
:10472C007A7F01D9032307E07B681B68DB6803F001
:10473C002003002BEED0002318461037BD4680BD59
:10474C0080B584B000AF78607B681B68DB6803F0D1
:10475C004003002B19D17B681B684FF0FF32DA60E5
:10476C00FDF758FCF86009E0FDF754FC0246FB68C5
:10477C00D31AB3F57A7F01D9032307E07B681B6852
:10478C00DB6803F04003002BEED0002318461037F3
:10479C00BD4680BD80B586B000AFF860B9607A6068
:1047AC00FB6893F82030012B01D10223A8E0FB68B1
:1047BC00012283F82020FB68022283F82120FB6869
:1047CC001B68CA225A62FB681B6853225A62FB6838
:1047DC001B689B6803F48063002B20D0FDF71AFC48
:1047EC00786115E0FDF716FC02467B69D31AB3F528
:1047FC007A7F0DD9FB681B68FF225A62FB68032283
:10480C0083F82120FB68002283F82020032377E023
:10481C00FB681B68DB6803F00403002BE2D1FB6828
:10482C001B689A68FB681B6822F480629A60FB68BC
:10483C001B68DB68DAB2FB681B6862F49062DA60B2
:10484C00FDF7E8FB786115E0FDF7E4FB02467B69B8
:10485C00D31AB3F57A7F0DD9FB681B68FF225A6215
:10486C00FB68032283F82120FB68002283F82020B8
:10487C00032345E0FB681B68DB6803F00403002B93
:10488C00E2D0FB681B68BA685A61FB681B689A68BF
:10489C00FB681B6822F007029A60FB681B6899682A
:1048AC00FB681B687A680A439A60174BD3F8803010
:1048BC00154A43F40023C2F88030134B1B68124A8C
:1048CC0043F400231360FB681B689A68FB681B6841
:1048DC0042F480429A60FB681B689A68FB681B680C
:1048EC0042F480629A60FB681B68FF225A62FB6884
:1048FC00012283F82120FB68002283F8202000236A
:10490C0018461837BD4680BD0008005880B584B0E5
:10491C0000AF78607B6893F82030012B01D1022323
:10492C004DE07B68012283F820207B68022283F80B
:10493C0021207B681B68CA225A627B681B68532241
:10494C005A627B681B689A687B681B6822F48062D9
:10495C009A607B681B689A687B681B6822F48042AB
:10496C009A60FDF757FBF86015E0FDF753FB024624
:10497C00FB68D31AB3F57A7F0DD97B681B68FF22CD
:10498C005A627B68032283F821207B68002283F81B
:10499C002020032313E07B681B68DB6803F004030F
:1049AC00002BE2D07B681B68FF225A627B680122D5
:1049BC0083F821207B68002283F8202000231846EE
:1049CC001037BD4680BDB0B5CEB000AF05460C4625
:1049DC001046194607F59C73A3F231132A461A7038
:1049EC0007F59C73A3F59A7322461A8007F59C73FE
:1049FC00A3F59B7302461A8007F59C73A3F5997374
:104A0C000A461A7007F11003C7F8343197F84C3185
:104A1C00083307F110021344C7F8303197F84C21D2
:104A2C0097F854311344093307F110021344C7F8B3
:104A3C002C3107F59C73A3F2291300221A70002362
:104A4C00C7F82831D7F8343107F59C72A2F231122D
:104A5C0012781A70D7F828310133C7F82831D7F8F3
:104A6C00343107F59C72A2F59A721288A3F80120D2
:104A7C00D7F828310233C7F82831D7F8343107F585
:104A8C009C72A2F59B721288A3F80320D7F82831E8
:104A9C000233C7F82831D7F8343107F59C72A2F5E8
:104AAC00997212785A71D7F828310133C7F8283126
:104ABC00D7F8343197F848219A71D7F82831013357
:104ACC00C7F82831D7F8343197F84C21DA71D7F878
:104ADC0028310133C7F82831D7F83431083397F827
:104AEC004C21D7F85011184600F021FC97F84C31A6
:104AFC00D7F828211344C7F82831D7F8303197F864
:104B0C0054211A70D7F828310133C7F82831D7F857
:104B1C003031013397F85421D7F85811184600F06A
:104B2C0006FC97F85431D7F828211344C7F82831DC
:104B3C00D7F82C31B7F85C211A80D7F8283102331A
:104B4C00C7F82831D7F82C31B7F860215A80D7F83C
:104B5C0028310233C7F8283107F588731822002151
:104B6C00184600F0F4FB3F23A7F810318323A7F875
:104B7C00123107F11003C7F81831D7F82831C7F8EC
:104B8C001C3107F10F03C7F820310123C7F824317A
:104B9C0007F588730021184600F050FE0346002BE1
:104BAC0001DAFF2304E007F59C73A3F229131B78A9
:104BBC00184607F59C77BD46B0BD90B5CDB000AF9B
:104BCC0004460846114607F59872A2F598721360D0
:104BDC0007F59873A3F2291322461A7007F59873F8
:104BEC00A3F5957302461A7007F59873A3F22B136D
:104BFC000A461A7007F11003C7F82C3107F10803A5
:104C0C0007220021184600F0A2FB0023C7F8283128
:104C1C00D7F82C3107F59872A2F2291212781A7073
:104C2C00D7F828310133C7F82831D7F82C3107F5DC
:104C3C009872A2F5957212785A70D7F82831013310
:104C4C00C7F82831D7F82C3107F59872A2F22B123D
:104C5C0012789A70D7F828310133C7F8283107F544
:104C6C00887318220021184600F071FB3F23A7F827
:104C7C0010318A23A7F8123107F11003C7F8183145
:104C8C00D7F82831C7F81C3107F10803C7F82031D1
:104C9C000723C7F8243107F588730021184600F064
:104CAC00CDFD0346002B01DAFF232EE007F59873A8
:104CBC00A3F594731B78002B05D007F59873A3F517
:104CCC0094731B7821E007F59873A3F59473B3F8EC
:104CDC0001309AB207F59873A3F598731B681A8084
:104CEC0007F59873A3F59473B3F803309AB2D7F819
:104CFC0040311A8007F59873A3F59473B3F8053017
:104D0C009AB2D7F844311A800023184607F59A77DF
:104D1C00BD4690BD80B5CCB000AF024607F5987388
:104D2C00A3F59873196007F59873A3F229131A70F9
:104D3C0007F11003C7F82C3107F59873A3F2211370
:104D4C0000221A700023C7F82831D7F82C3107F548
:104D5C009872A2F2291212781A70D7F828310133FE
:104D6C00C7F82831D7F82C31581C07F59873A3F2E3
:104D7C0029131A7807F59873A3F59873196800F03E
:104D8C00D6FA07F59873A3F229131B78D7F82821C4
:104D9C001344C7F8283107F58873182200211846E8
:104DAC0000F0D5FA3F23A7F810318E23A7F8123163
:104DBC0007F11003C7F81831D7F82831C7F81C31A0
:104DCC0007F10F03C7F820310123C7F8243107F589
:104DDC0088730021184600F031FD0346002B01DAE0
:104DEC00FF2304E007F59873A3F221131B781846F0
:104DFC0007F59877BD4680BD80B5CCB000AF0246B4
:104E0C0007F59873A3F229131A7007F11003C7F86A
:104E1C002C3107F59873A3F2211300221A7000238A
:104E2C00C7F82831D7F82C3107F59872A2F229125D
:104E3C0012781A70D7F828310133C7F8283107F5E2
:104E4C00887318220021184600F081FA3F23A7F836
:104E5C0010318F23A7F8123107F11003C7F818315E
:104E6C00D7F82831C7F81C3107F10F03C7F82031E8
:104E7C000123C7F8243107F588730021184600F088
:104E8C00DDFC0346002B01DAFF2304E007F59873E1
:104E9C00A3F221131B78184607F59877BD4680BD01
:104EAC0080B588B000AF0023FB7107F1080318220E
:104EBC000021184600F04BFA3F233B8140F20113CE
:104ECC007B81FB1DBB610123FB6107F10803002102
:104EDC00184600F0B3FC0346002B01DAFF2300E078
:104EEC00FB7918462037BD4680BDB0B5CCB000AFBD
:104EFC0005460C461046194607F59873A3F59573AD
:104F0C002A461A8007F59873A3F5967322461A80E1
:104F1C0007F59873A3F22D1302461A7007F59873D0
:104F2C00A3F597730A461A7007F11003C7F82C31D2
:104F3C0007F59873A3F2211300221A700023C7F807
:104F4C002831D7F82C3107F59872A2F59572128892
:104F5C001A80D7F828310233C7F82831D7F82C310A
:104F6C0007F59872A2F5967212885A80D7F82831F4
:104F7C000233C7F82831D7F82C3107F59872A2F212
:104F8C002D1212781A71D7F828310133C7F828314D
:104F9C00D7F82C3107F59872A2F5977212785A71DE
:104FAC00D7F828310133C7F82831D7F82C31981DA0
:104FBC0007F59873A3F597731B781A46D7F8401129
:104FCC0000F0B5F907F59873A3F597731B78D7F82C
:104FDC0028211344C7F8283107F5887318220021BB
:104FEC00184600F0B4F93F23A7F810314FF483733F
:104FFC00A7F8123107F11003C7F81831D7F8283188
:10500C00C7F81C3107F10F03C7F820310123C7F88B
:10501C00243107F588730021184600F00FFC034675
:10502C00002B01DAFF2304E007F59873A3F2211398
:10503C001B78184607F59877BD46B0BD80B5CCB047
:10504C0000AF07F59873A3F598731A6007F598737A
:10505C00A3F2291302461A7007F59873A3F59573FA
:10506C000A461A7007F11003C7F82C3107F598732C
:10507C00A3F2211300221A700023C7F82831D7F8A5
:10508C002C3107F59872A2F2291212781A70D7F8FF
:10509C0028310133C7F82831D7F82C3107F598722D
:1050AC00A2F5957212785A70D7F828310133C7F8E7
:1050BC002831D7F82C31981C07F59873A3F5957304
:1050CC001A7807F59873A3F59873196800F02FF9FF
:1050DC0007F59873A3F595731B78D7F8282113441B
:1050EC00C7F8283107F5887318220021184600F0FC
:1050FC002EF93F23A7F810310C23A7F8123107F132
:10510C001003C7F81831D7F82831C7F81C3107F14C
:10511C000F03C7F820310123C7F8243107F5887332
:10512C000021184600F08AFB0346002B01DAFF230E
:10513C0004E007F59873A3F221131B78184607F5C2
:10514C009877BD4680BD80B5CCB000AF024607F560
:10515C009873A3F229131A7007F59873A3F5957336
:10516C000A461A7007F11003C7F82C3107F598732B
:10517C00A3F2211300221A700023C7F82831D7F8A4
:10518C002C3107F59872A2F2291212781A70D7F8FE
:10519C0028310133C7F82831D7F82C3107F598722C
:1051AC00A2F5957212785A70D7F828310133C7F8E6
:1051BC00283107F5887318220021184600F0C7F82B
:1051CC003F23A7F810310F23A7F8123107F1100372
:1051DC00C7F81831D7F82831C7F81C3107F10F037D
:1051EC00C7F820310123C7F8243107F58873002153
:1051FC00184600F023FB0346002B01DAFF2304E0E2
:10520C0007F59873A3F221131B78184607F59877C6
:10521C00BD4680BD80B588B000AF0023FB7107F19F
:10522C00080318220021184600F091F803233B8153
:10523C0003237B81FB1DBB610123FB6107F1080389
:10524C000021184600F0FAFA0346002B01DAFF237E
:10525C0000E0FB7918462037BD4680BD80B5CCB048
:10526C0000AF024607F59873A3F59873196007F51C
:10527C009873A3F229131A7007F11003C7F82C3195
:10528C0007F59873A3F2211300221A700023C7F8B4
:10529C002831D7F82C3107F59872A2F2291212781E
:1052AC001A70D7F828310133C7F82831D7F82C31C8
:1052BC00581C07F59873A3F598731F22196800F012
:1052CC0036F8D7F828311F33C7F8283107F588731B
:1052DC0018220021184600F03AF80823A7F81031DC
:1052EC000923A7F8123107F11003C7F81831D7F8C2
:1052FC002831C7F81C3107F10F03C7F820310123FF
:10530C00C7F8243107F588730021184600F096FA87
:10531C000346002B01DAFF2304E007F59873A3F290
:10532C0021131B78184607F59877BD4680BD80B5CC
:10533C0084B000AFF860B9607A607A68B968F868D0
:10534C0002F086F8034618461037BD4680BD80B57E
:10535C0084B000AFF860B9607A607A68B968F868B0
:10536C0002F084F8034618461037BD4680BD80B461
:10537C0000AF00BFBD465DF8047B704780B400AF42
:10538C0000BFBD465DF8047B704780B400AF00BF22
:10539C00BD465DF8047B704780B400AF00BFBD46CE
:1053AC005DF8047B704780B400AF00BFBD465DF86C
:1053BC00047B704780B400AF00BFBD465DF8047B32
:1053CC00704780B400AF00BFBD465DF8047B7047EA
:1053DC0080B400AF00BFBD465DF8047B704780B45D
:1053EC0000AF00BFBD465DF8047B704780B400AFD2
:1053FC0000BFBD465DF8047B704780B400AF00BFB2
:10540C00BD465DF8047B704780B400AF00BFBD465D
:10541C005DF8047B704780B400AF00BFBD465DF8FB
:10542C00047B704780B400AF00BFBD465DF8047BC1
:10543C00704780B400AF00BFBD465DF8047B704779
:10544C0080B400AF00BFBD465DF8047B704780B4EC
:10545C0000AF00BFBD465DF8047B704780B400AF61
:10546C0000BFBD465DF8047B7047000080B500AFFF
:10547C00044B00221A77044B00221A7000F006F835
:10548C0000BF80BDC0000020E000002080B500AF50
:10549C00FFF76DFFFFF772FFFFF777FFFFF77CFF5A
:1054AC00FFF781FFFFF786FFFFF78BFFFFF790FFFA
:1054BC00FFF795FFFFF79AFFFFF79FFFFFF7A4FF9A
:1054CC00FFF7A9FFFFF7AEFFFFF7B3FFFFF7BFFF33
:1054DC00FFF7B6FFFFF7C2FF00BF80BD80B586B0F7
:1054EC0000AF78607B6801333B610023FB753B693F
:1054FC001B78FF2B25D13B690233FB60FB681B88B3
:10550C009BB203F47F43B3F5406F18D100237B7536
:10551C000DE07B7D1A4A52F8233078689847034691
:10552C00FB75FB7D002B08D17B7D01337B75144B08
:10553C001B7F7A7D9A42ECD302E000BF00E000BFF3
:10554C0000E000BFFB7D022B0FD0022B10DC002BE8
:10555C0002D0012B06D00BE0786800F087FF0346E1
:10556C00BB7508E00123BB7505E00023BB7502E0A9
:10557C000123BB7500BFBB7D18461837BD4680BDE7
:10558C00C000002080B588B000AF786007F10C0334
:10559C00FB617B6803F10C02FB692C214FF6664022
:1055AC0000F0E2FAFB690B33DB7818462037BD4676
:1055BC0080BD80B588B000AF786007F10C03FB614B
:1055CC007B6803F10C02FB690F214FF6684000F079
:1055DC00CBFAFB690B33DB7818462037BD4680BD10
:1055EC0080B588B000AF786007F10C03FB61FB69F4
:1055FC007A680E214FF6754000F0B6FAFB690B3352
:10560C00DB7818462037BD4680BD000080B48BB0D7
:10561C0000AF786000233B610023FB6000237B62BA
:10562C0000233B620023FB610023BB600023BB61B2
:10563C0000237B614A4BDB6BC3F30D033B613B697E
:10564C009B0003F1005303F540331B68BB60BB6840
:10565C001B68444A93420FD1BB685B697B62BB6891
:10566C009B693B62BB68DB69FB61BB68DB68BB6148
:10567C00BB681B697B611AE03B699B0003F100531B
:10568C0003F54033FB60FB681B681B697B62FB689E
:10569C001B685B693B62FB681B689B69FB61FB6871
:1056AC001B685B68BB61FB681B689B687B617B6AE2
:1056BC001B0EDAB27B681A707B6A1B0CDAB27B6841
:1056CC005A707B6A1B0ADAB27B689A707B6A1B0978
:1056DC00DBB203F00F03DAB27B68DA707B6ADBB201
:1056EC0003F00F03DAB27B681A713B6A1B0EDAB255
:1056FC007B685A713B6A1B0CDAB27B689A713B6A05
:10570C001B0ADAB27B68DA713B6ADAB27B681A720E
:10571C00FB69DAB27B685A72BB691B0EDAB27B6822
:10572C009A72BB691B0CDAB27B68DA72BB691B0A12
:10573C00DAB27B681A737B691B0EDAB27B685A7318
:10574C007B691B0CDAB27B689A737B69DAB27B6873
:10575C00DA73002318462C37BD465DF8047B70477E
:10576C0000400058B95646A980B582B000AF7860A9
:10577C0039603B685B68084A1360084A7B68D361F0
:10578C00064800F073F93B681B68184600F0D4F823
:10579C0000BF0837BD4680BD00020020D8010020A4
:1057AC0080B584B000AF224800F028FD0346002BE2
:1057BC002BD1204B1B78002B27D007F10C0319465B
:1057CC001B4800F0AAFD1C4BDB69002B0CD0FB68BE
:1057DC00BB6001233B71184BDB693A1D104698479F
:1057EC003A79144B1A7002E0124B01221A70114BC9
:1057FC001B78002B04D0FB68184600F003FC04E077
:10580C00FB6819460A4800F01BFD094800F0F6FC3D
:10581C000346002B07D1074B1B78002B03D0044801
:10582C0000F04EFF00BF00BF1037BD4680BD00BF6B
:10583C00E8000020F4000020D801002080B588B0DA
:10584C0000AF78600B46FB70002000F0CBF8002313
:10585C00FB777B685B881BB2C3F309031AB27B68C6
:10586C001B889B021BB213431BB2BB837B68DB6898
:10587C00D9B27B689A68BB8B184600F08DF84EE065
:10588C0048F2E80000F033FF43E007F10C0319463F
:10589C00284800F042FDFB685B7A0F2B14D1FB68A3
:1058AC000B333B613B695B889BB2BA8B9A4204D148
:1058BC007B681B693A6912781A703B695B78002B1C
:1058CC0027D00123FB7724E0FB680B33BB61BB695A
:1058DC00B3F801309BB2BA8B9A4214D1FB689B7A15
:1058EC00033BFB757B685A69FB7D9A42A8BF1A463D
:1058FC007B685A617B681869BB69D91C7B685B69DA
:10590C001A4601F0A5FDBB691B78002B01D00123C1
:10591C00FB77084800F072FC0346002BB5D0FB7FE8
:10592C00002BADD0012000F05DF800231846203785
:10593C00BD4680BDF801002080B586B000AF786010
:10594C000F4800F04BFC0F4A7B6813600E4800F0C8
:10595C0045FC0E4B01221A700D4B1B68002B0AD014
:10596C007B683B610B4BBB60094B1B6807F1080262
:10597C001046984700BF00BF1837BD4680BD00BF1A
:10598C00F8010020F0000020E8000020F4000020C6
:10599C00D8010020315A000880B582B000AF034610
:1059AC003A60FB800B467B710C4B1B68FA88A3F8A2
:1059BC0009200A4B1B687A79DA72084B1B680C3386
:1059CC007A793968184601F043FD054B1B690021B3
:1059DC000020984700BF0837BD4680BDF00000206E
:1059EC00D801002080B582B000AF0346FB71FB7973
:1059FC00002B08D10A4B1B68002B0DD0084B1B68E1
:105A0C000020984708E0064B1B68002B04D0044B81
:105A1C001B680120984700BF00BF0837BD4680BDFA
:105A2C000002002080B582B000AF78607B685B7AA2
:105A3C000F2B03D07B685B7A0E2B07D17968094852
:105A4C0000F024FC002000F047FE06E079680648D0
:105A5C0000F01CFC044800F033FE00BF0837BD46C4
:105A6C0080BD00BFF8010020E800002080B483B0A6
:105A7C0000AF78607B68054A1A607B68044A1A613B
:105A8C0000BF0C37BD465DF8047B7047895D00088C
:105A9C00F15D000880B582B000AF786039603B687A
:105AAC005B68084A1360084A7B68D361064800F0BB
:105ABC0011F93B681B68184600F094F800BF0837D2
:105ACC00BD4680BD240200200402002080B584B0B5
