:020000040800F2
:1000000000300020654A0008E9280008EF280008B1
:10001000F5280008FB28000801290008000000005E
:100020000000000000000000000000000729000898
:1000300015290008000000002329000831290008C4
:10004000B94A0008B94A0008B94A00083D29000821
:10005000B94A0008B94A000895290008B94A0008B9
:10006000B94A0008B94A0008A3290008B94A00089B
:10007000B94A0008B94A000849290008B94A0008E5
:10008000B94A0008B94A0008B94A0008000000004F
:1000900000000000B94A0008B94A0008B129000868
:1000A000B94A0008B94A0008B94A0008B94A000824
:1000B000B94A0008B94A0008B94A0008B94A000814
:1000C0000000000000000000B94A00080000000025
:1000D0005D290008B94A000800000000B94A00087C
:1000E000B94A0008B94A000800000000B94A0008EF
:1000F000712900087D29000889290008B94A0008EB
:10010000B94A0008000000000000000000000000E4
:10011000B94A0008B94A0008B94A000800000000BE
:1001200000000000000000000000000000000000CF
:0C0130000000000000000000B94A0008B8
:1001400010B5054C237833B9044B13B10448AFF311
:1001500000800123237010BDFC000020000000007F
:1001600088DF000808B5034B1BB103490348AFF310
:10017000008008BD000000000001002088DF0008AA
:1001800010F8012B11F8013B012A28BF9A42F7D041
:10019000D01A7047034613F8012B002AFBD1181A16
:1001A000013870470000000000000000000000005F
:1001B00001F0FF01102A2BDB10F0070F08D010F818
:1001C000013B013A8B422DD010F0070F42B3F6D11C
:1001D000F0B441EA012141EA014122F007047FF035
:1001E00000070023F0E80256083C85EA010586EA8C
:1001F000010685FA47F5A3FA87F586FA47F6A5FAC8
:1002000087F68EB9EED1F0BC01F0FF0102F00702D3
:1002100032B110F8013B013A83EA010313B1F8D17E
:100220000020704701387047002D06BF354603385F
:10023000073815F0010F07D1013015F4807F02BF98
:10024000013015F4C03F0130F0BC0138704700BFE9
:1002500070B54FF0FF0C4CF4E06C1CEA11541DBF5C
:100260001CEA135594EA0C0F95EA0C0F00F0DEF827
:100270002C4481EA030621EA4C5123EA4C5350EA0C
:10028000013518BF52EA033541F4801143F480135D
:1002900038D0A0FB02CE4FF00005E1FB02E506F0EE
:1002A0000042E0FB03E54FF00006E1FB03569CF043
:1002B000000F18BF4EF0010EA4F1FF04B6F5007F49
:1002C00064F5407404D25FEA4E0E6D4146EB0606BB
:1002D00042EAC62141EA55514FEAC52040EA5E5044
:1002E0004FEACE2EB4F1FD0C88BFBCF5E06F1ED8EE
:1002F000BEF1004F08BF5FEA500E50F1000041EB25
:10030000045170BD06F0004646EA010140EA0200D1
:1003100081EA0301B4EB5C04C2BFD4EB0C0541EAF3
:10032000045170BD41F480114FF0000E013C00F308
:10033000AB8014F1360FDEBF002001F0004170BD2C
:10034000C4F10004203C35DA0C341BDC04F1140445
:10035000C4F1200500FA05F320FA04F001FA05F2D1
:1003600040EA020001F0004221F0004110EBD3709E
:1003700021FA04F642EB06015EEA430E08BF20EACA
:10038000D37070BDC4F10C04C4F1200500FA04F36D
:1003900020FA05F001FA04F240EA020001F00041FF
:1003A00010EBD37041F100015EEA430E08BF20EA72
:1003B000D37070BDC4F1200500FA05F24EEA020EBA
:1003C00020FA04F301FA05F243EA020321FA04F0E9
:1003D00001F0004121FA04F220EA020000EBD370A0
:1003E0005EEA430E08BF20EAD37070BD94F0000FA0
:1003F0000FD101F00046400041EB010111F4801FD4
:1004000008BF013CF7D041EA060195F0000F18BF84
:10041000704703F00046520043EB030313F4801FC0
:1004200008BF013DF7D043EA0603704794EA0C0F7A
:100430000CEA135518BF95EA0C0F0CD050EA410690
:1004400018BF52EA4306D1D181EA030101F000410D
:100450004FF0000070BD50EA410606BF1046194635
:1004600052EA430619D094EA0C0F02D150EA013641
:1004700013D195EA0C0F05D152EA03361CBF104682
:1004800019460AD181EA030101F0004141F0FE4121
:1004900041F470014FF0000070BD41F0FE4141F4A5
:1004A000780170BD81F0004102E000BF83F000439D
:1004B00030B54FEA41044FEA430594EA050F08BFFF
:1004C00090EA020F1FBF54EA000C55EA020C7FEAC3
:1004D000645C7FEA655C00F0E2804FEA5454D4EB40
:1004E0005555B8BF6D420CDD2C4480EA020281EA0A
:1004F000030382EA000083EA010180EA020281EA42
:100500000303362D88BF30BD11F0004F4FEA013193
:100510004FF4801C4CEA113102D0404261EB4101A2
:1005200013F0004F4FEA03334CEA133302D0524228
:1005300063EB430394EA050F00F0A780A4F10104E4
:10054000D5F1200E0DDB02FA0EFC22FA05F280181E
:1005500041F1000103FA0EF2801843FA05F3594104
:100560000EE0A5F120050EF1200E012A03FA0EFC83
:1005700028BF4CF0020C43FA05F3C01851EBE371AD
:1005800001F0004507D54FF0000EDCF1000C7EEBCA
:1005900000006EEB0101B1F5801F1BD3B1F5001F08
:1005A0000CD349085FEA30004FEA3C0C04F1010427
:1005B0004FEA445212F5800F80F09A80BCF1004F50
:1005C00008BF5FEA500C50F1000041EB045141EAD2
:1005D000050130BD5FEA4C0C404141EB0101013C9B
:1005E00028BFB1F5801FE9D291F0000F04BF01468A
:1005F0000020B1FA81F308BF2033A3F10B03B3F15C
:1006000020020CDA0C3208DD02F1140CC2F10C02EB
:1006100001FA0CF021FA02F10CE002F11402D8BF49
:10062000C2F1200C01FA02F120FA0CFCDCBF41EA15
:100630000C019040E41AA2BF01EB0451294330BDE4
:100640006FEA04041F3C1CDA0C340EDC04F11404C1
:10065000C4F1200220FA04F001FA02F340EA030098
:1006600021FA04F345EA030130BDC4F10C04C4F1DE
:10067000200220FA02F001FA04F340EA03002946BE
:1006800030BD21FA04F0294630BD94F0000F83F408
:10069000801306BF81F480110134013D4EE77FEAEB
:1006A000645C18BF7FEA655C29D094EA050F08BF37
:1006B00090EA020F05D054EA000C04BF1946104618
:1006C00030BD91EA030F1EBF0021002030BD5FEA5C
:1006D000545C05D14000494128BF41F0004130BD84
:1006E00014F580043CBF01F5801130BD01F00045D8
:1006F00045F0FE4141F470014FF0000030BD7FEA4B
:10070000645C1ABF194610467FEA655C1CBF0B4645
:10071000024650EA013406BF52EA033591EA030F5C
:1007200041F4002130BD00BF90F0000F04BF002154
:10073000704730B54FF4806404F132044FF0000587
:100740004FF0000150E700BF90F0000F04BF002100
:10075000704730B54FF4806404F1320410F0004566
:1007600048BF40424FF000013EE700BF42004FEA61
:10077000E2014FEA31014FEA02701FBF12F07F43DE
:1007800093F07F4F81F06051704732F07F4208BF95
:10079000704793F07F4F04BF41F40021704730B59C
:1007A0004FF4607401F0004521F000411CE700BFE8
:1007B00050EA010208BF704730B54FF000050AE06B
:1007C00050EA010208BF704730B511F0004502D56C
:1007D000404261EB41014FF4806404F132045FEA6E
:1007E000915C3FF4D8AE4FF003025FEADC0C18BF17
:1007F00003325FEADC0C18BF033202EBDC02C2F109
:10080000200300FA03FC20FA02F001FA03FE40EA9A
:100810000E0021FA02F11444BDE600BF53B94AB9F3
:10082000002908BF00281CBF4FF0FF314FF0FF30F8
:1008300000F070B9ADF1080C6DE904CE00F006F8D7
:10084000DDF804E0DDE9022304B070472DE9F0474C
:10085000089E0D4604460F46002B4AD18A42944614
:1008600065D9B2FA82F343B102FA03FCC3F1200264
:100870009F4020FA02F217439C404FEA1C4E1FFA99
:100880008CF5B7FBFEF1220C0EFB117742EA074212
:1008900001FB05F090420AD91CEB020201F1FF377F
:1008A00080F01C81904240F2198102396244121A90
:1008B000A4B2B2FBFEF00EFB102244EA024400FB9D
:1008C00005F5A5420AD91CEB040400F1FF3280F0C3
:1008D0000781A54240F204816444023840EA0140A5
:1008E000641B00211EB1DC400023C6E90043BDE8C3
:1008F000F0878B4208D9002E00F0ED800021C6E978
:1009000000050846BDE8F087B3FA83F1002949D114
:10091000AB4202D3824200F2F880841A65EB0302F4
:1009200001201746002EE2D0C6E90047DFE702B9F2
:10093000FFDEB2FA82F3002B40F090808A1A4FEA71
:100940001C471FFA8CFE0121B2FBF7F507FB1520AF
:10095000220C42EA00420EFB05F0904208D91CEB43
:10096000020205F1FF3802D2904200F2CB804546E8
:10097000121AA4B2B2FBF7F007FB102244EA0244B9
:100980000EFB00FEA64508D91CEB040400F1FF3263
:1009900002D2A64500F2BB801046A4EB0E0440EA4A
:1009A00005409FE7C1F120078B4022FA07FC4CEA83
:1009B000030C05FA01F420FA07F3FD404FEA1C4945
:1009C0002343B5FBF9F81FFA8CFE09FB18551C0CE4
:1009D00044EA054408FB0EF5A54202FA01F200FACA
:1009E00001F00BD91CEB040408F1FF3A80F0888079
:1009F000A54240F28580A8F102086444641B9DB2C0
:100A0000B4FBF9F309FB134445EA044403FB0EFE6F
:100A1000A64508D91CEB040403F1FF356CD2A645AA
:100A20006AD9023B644443EA0843A3FB0295A4EB62
:100A30000E04AC42C846AE4656D353D056B1B0EBC6
:100A4000080264EB0E0404FA07F7CA40CC401743CF
:100A5000C6E9007418460021BDE8F087C3F1200103
:100A600002FA03FC20FA01F225FA01F19D402A4323
:100A70004FEA1C471FFA8CFEB1FBF7F007FB10157D
:100A8000110C41EA054100FB0EF58D4204FA03F416
:100A900008D91CEB010100F1FF382FD28D422DD96E
:100AA00002386144491B92B2B1FBF7F507FB1511FF
:100AB00042EA014205FB0EF1914208D91CEB020209
:100AC00005F1FF3816D2914214D9023D6244521A00
:100AD00045EA004138E73146304608E73946E6E660
:100AE0001046FBE64845A9D2B9EB020865EB0C0EAF
:100AF000013BA3E74546EAE72B4694E74046D1E7AA
:100B0000D0467BE7023D624432E708460AE7644488
:100B1000023842E7704700BF80B483B000AF78600E
:100B2000064BD3F8902005497B681343C1F89030F9
:100B300000BF0C37BD465DF8047B704700080058C5
:100B400080B485B000AF78604FF0B043DA6C4FF0FE
:100B5000B0417B681343CB644FF0B043DA6C7B68E1
:100B60001340FB60FB6800BF1437BD465DF8047B93
:100B7000704780B485B000AF78604FF0B043D3F8D1
:100B80004C214FF0B0417B681343C1F84C314FF01A
:100B9000B043D3F84C217B681340FB60FB6800BF77
:100BA0001437BD465DF8047B704780B500AF04F094
:100BB000A9F904F0ADF94FF48030FFF7ADFF0AF06A
:100BC000D5F800F021F800F0C1F800BF80BD0000AA
:100BD000B0B588B000AF0B4B3C1D1D460FCD0FC408
:100BE00095E8070003C422800234130C23700BF035
:100BF00005FD3B1D18460AF032FB00BF2037BD46FD
:100C0000B0BD00BFA0DF000880B588B000AF3B1DBD
:100C100000221A605A609A60DA601A610023BB836E
:100C200000237B8300233B830023FB7736E0FB7F9D
:100C3000434ADB0013449B79002B2CD0FB7F404AB6
:100C400052F833303F4A93421BD03E4A934221D858
:100C5000B3F1904F03D03C4A934209D01AE0FB7F96
:100C6000374ADB0013449A88BB8B1343BB8312E0E3
:100C7000FB7F334ADB0013449A887B8B13437B83CF
:100C800009E0FB7F2E4ADB0013449A883B8B134319
:100C90003B8300E000BFFB7F0133FB77FB7F252B0D
:100CA000C5D90023FB600123BB6003233B61BB8BE1
:100CB000002B14D0BB8B7B600120FFF741FF01208C
:100CC000FFF757FF3B1D19464FF0904004F014FE0C
:100CD000BB8B002219464FF0904004F075FF7B8BD0
:100CE000002B12D07B8B7B600220FFF729FF0220B4
:100CF000FFF73FFF3B1D1946134804F0FDFD7B8BBA
:100D000000221946104804F05FFF3B8B002B13D0E4
:100D10003B8B7B600420FFF713FF0420FFF729FFC4
:100D20003B1D1946074804F0E7FD3B8B002219469E
:100D3000044804F049FF00BF00BF2037BD4680BD16
:100D40008CF20008000800480004004880B400AF9E
:100D500000BFBD465DF8047B704780B500AF01F071
:100D6000D9FB00BF80BD80B584B000AFF8600B46F2
:100D70007A607B817A897B68F968002001F036FA15
:100D800000BF1037BD4680BD80B483B000AF78602F
:100D9000074BD3F8803023F0070205497B681343E3
:100DA000C1F8803000BF0C37BD465DF8047B70474A
:100DB0000004005880B483B000AF7860064BD3F8CD
:100DC000902005497B681343C1F8903000BF0C3771
:100DD000BD465DF8047B70470008005880B483B0BE
:100DE00000AF78604FF0B0430A4AC3F89C204FF040
:100DF000B043D3F89C3023F47C527B681B024FF045
:100E0000B0411343C1F89C3000BF0C37BD465DF8BC
:100E1000047B7047FECAFECA80B483B000AF78601E
:100E20004FF0B0439B6823F400424FF0B0417B6821
:100E300013438B6000BF0C37BD465DF8047B7047E1
:100E400080B400AF044B1B68C3F30B031846BD46C8
:100E50005DF8047B704700BF002004E080B400AF61
:100E6000044B1B681B0C9BB21846BD465DF8047B07
:100E7000704700BF002004E080B483B000AF78600A
:100E80007B68FF225A6200BF0C37BD465DF8047BC9
:100E9000704780B483B000AF78607B68CA225A6222
:100EA0007B6853225A6200BF0C37BD465DF8047B55
:100EB000704780B483B000AF786039607B689B680E
:100EC00023F007023B681A437B689A6000BF0C3727
:100ED000BD465DF8047B704780B500AF044B4FF40E
:100EE00000421A6100F030F800F035F800BF80BD14
:100EF0000040005880B500AF00F041F800F05AF80B
:100F00000949002000F0E2FEFFF74FFE0121012019
:100F10000BF012FC00F0B2F900F0C0F900F02AFA70
:100F200000F058F800BF80BD1003002080B400AF6F
:100F300000BFBD465DF8047B704780B500AF502010
:100F4000FFF738FF00BF80BD80B400AF00BFBD46D3
:100F50005DF8047B704780B582B000AF00200AF0D6
:100F60003FF978607B68002B05D07B689B79184639
:100F7000FFF734FF00BF00BF0837BD4680BD80B516
:100F800000AFFFF7D3FFFFF7D8FF00F003F800BF73
:100F900080BD000080B500AF0548FFF77AFF002153
:100FA0000348FFF786FF0248FFF766FF00BF80BDDA
:100FB0000028004080B500AF4FF40040FFF72CFF41
:100FC0000BF0A8FB0420FFF7DFFE04F0F7FE00BFE4
:100FD00080BD000080B588B000AF0BF059F9114A10
:100FE00000214FF400700BF0D3FC0F4B3B600F4B14
:100FF0007B603B4619460E480AF00CFA0D4BBB606D
:101000000D4BFB600D4B3B6140F23C537B6107F1A4
:10101000080318460BF07EFA0BF034F900BF2037B6
:10102000BD4680BD4DB400083407032041100008C0
:10103000591000084C09032040080320F801032040
:1010400080B483B000AF0346FB7100BF0C37BD46D0
:101050005DF8047B7047000080B588B000AF786011
:101060007B685B680B33FB61FB691B889BB2A3F554
:101070001243072B60D801A252F823F09D100008FC
:10108000DF100008ED1000083911000809110008F0
:1010900019110008211100083111000807F10C0393
:1010A00018460AF009F93B7B19467B7B1A46BB7B45
:1010B00024480BF071FE3B7C194623480BF06CFE74
:1010C000BB7D1946FB7D1A463B7E20480BF064FE33
:1010D0001F480BF061FE786800F070F82DE01D48A5
:1010E0000BF05AFE786800F043F826E01A480BF03F
:1010F000C1FEFB6902331968FB6902335B681A465B
:1011000016480BF049FE18E0FB6902331B681946CC
:1011100013480BF041FE10E012480BF03DFE0CE0CE
:10112000FB6902331B6819460F480BF035FE04E0DB
:101130000E480BF031FE00E000BF00BF2037BD4677
:1011400080BD00BFBCDF0008E0DF0008FCDF000856
:1011500014E0000834E0000858E00008A8E00008A7
:10116000D0E000080CE1000830E100086CE1000864
:1011700080B584B000AF78607B685B680B33FB6040
:10118000FB680233BB60BB681B78194608480BF04C
:1011900003FEBB681B78002B03D106480BF06AFEE8
:1011A00003E005480BF066FE00BF1037BD4680BD6A
:1011B00090E10008C0E10008FCE1000880B58AB0B9
:1011C00000AF786007F1080300221A605A609A6045
:1011D000DA6000237B6200233B627B685B680B3331
:1011E000FB61FB690233BB61BB691B78002B28D113
:1011F0001D480BF03FFEFFF7EBFC0F233B727F23F4
:10120000BB72FFF72BFE7862796A18480BF0C4FDB9
:101210007B6A9BB2BB82FFF713FE3862396A1448BF
:101220000BF0BAFD3B6A9BB2FB8207F1080318463C
:101230000AF02CF801F06EFC002101200BF07CFA82
:101240000EE0BB691B78012B06D10A480BF0A4FD08
:101250007B6800221A7003E007480BF09DFD00BF79
:101260002837BD4680BD00BF34E2000850E20008C8
:1012700074E2000894E20008C8E2000880B500AFFC
:10128000002003F033FC012003F030FC022003F0C7
:101290002DFC012003F064FC00BF80BD80B500AFD1
:1012A0000121002003F090FC0121012003F08CFCBF
:1012B0000121022003F088FC00BF80BD80B500AF93
:1012C0004FF0FF300BF068FA00BF80BD80B400AF74
:1012D00000BFBD465DF8047B704780B582B000AFAB
:1012E000786039604FF0FF300BF056FA00BF0837D6
:1012F000BD4680BD80B582B000AF786000214FF45C
:1013000000700BF067FB00BF0837BD4680BD80B59D
:1013100082B000AF786002200BF0C8FB00BF083736
:10132000BD4680BD80B582B000AF786002200BF072
:10133000DDFB00BF0837BD4680BD80B582B000AF81
:101340000346FB80FB88402B0CD0402B0DDC012B8F
:1013500002D0102B03D008E002F042F906E002F0C0
:101360005FF903E002F070F900E000BF00BF08374A
:10137000BD4680BD80B500AF034B0122034900206C
:1013800000F010FF00BF80BD911300082001002075
:1013900080B500AF154B1B88FF2B1ED8144B1B7854
:1013A0000D2B0FD1134914480BF0F6FC00F028F870
:1013B0000E4B00221A804FF4807200210D480BF072
:1013C0006DFE0AE0094B1B885A1C91B2074A118036
:1013D0001A46074B1978074B9954084B01220449C8
:1013E000002000F0DFFE00BF80BD00BF280200200B
:1013F0002001002028010020FCE2000891130008D1
:1014000080B500AF1C491D48FEF7BAFE0346002B0D
:101410000AD11B480BF02EFD1A4B4FF0B0521A6048
:10142000184804F047FA25E017491448FEF7A8FECB
:101430000346002B09D115480BF01CFD114B144A33
:101440001A60104804F036FA14E012490B48FEF70F
:1014500097FE0346002B09D10F480BF00BFD094BFB
:101460000E4A1A60074804F025FA03E003490C48C5
:101470000BF092FC00BF80BD0CE3000828010020A7
:1014800010E300081801002018E300081CE300081E
:101490000400001624E3000828E3000806000016F4
:1014A00030E3000880B483B000AF7860064BD3F817
:1014B000802005497B681343C1F8803000BF0C379A
:1014C000BD465DF8047B70470008005880B483B0C7
:1014D00000AF7860054B1A6804497B6813430B60C2
:1014E00000BF0C37BD465DF8047B7047000800580C
:1014F00080B483B000AF0D4B9B6A9BB27B600B4BFB
:101500009B6A9BB23B6005E03B687B60074B9B6A34
:101510009BB23B607A683B689A42F5D13B681846BB
:101520000C37BD465DF8047B704700BF00280040C3
:1015300080B485B000AF03460A46FB711346BB7109
:10154000BA791D4913465B001344DB000B44153385
:101550001B78FB73FB7B062B09D0FA7B16491346DD
:101560005B001344DB000B441433FA791A70FA79E8
:10157000114913465B001344DB000B441533FA7B1F
:101580001A70FA790C4913465B001344DB000B44D4
:101590001433BA791A70BA79074913465B001344B9
:1015A000DB000B441533FA791A7000BF1437BD46BF
:1015B0005DF8047B704700BF2C02002080B485B02A
:1015C00000AF03460A46FB711346BB71294B1B78DB
:1015D000DBB2BA799A4232D0BA79274913465B0016
:1015E0001344DB000B4414331B78FB73FA7B224952
:1015F00013465B001344DB000B441533FA791A7071
:10160000FA791D4913465B001344DB000B44153384
:10161000BA791A70FA79184913465B001344DB0053
:101620000B441433FA7B1A70BA79134913465B00E2
:101630001344DB000B441433FA791A7014E0FA797E
:101640000D4913465B001344DB000B441533BA7994
:101650001A70BA79084913465B001344DB000B4447
:101660001433FA791A7000BF1437BD465DF8047B55
:10167000704700BFBC0200202C02002080B584B05F
:1016800000AF0346FB714E4B1B78DBB2062B18D123
:101690004B4B1B78DAB24B4B1A70494AFB791370EB
:1016A000FA79494913465B001344DB000B441533B8
:1016B00006221A70454B4FF0FF321A600023FB815F
:1016C00078E000F009F90346FB81FA793E491346B8
:1016D0005B001344DB000B4408331968FB89FA797B
:1016E0001944394813465B001344DB0003440833B4
:1016F0001960FA79344913465B001344DB000B444C
:1017000008331B68BB602E4B1B78DBB219462E4A90
:101710000B465B000B44DB00134408331B68BA68BC
:101720009A4237D3264B1B787B737A7B2649134624
:101730005B001344DB000B4415331B783B7313E051
:101740007A7B214913465B001344DB000B441533BD
:101750001B787B737A7B1C4913465B001344DB00C8
:101760000B4415331B783B733B7B062B0BD03A7B2A
:10177000154913465B001344DB000B4408331B6818
:10178000BA689A42DCD27A7BFB7911461846FFF799
:10179000CFFE0FE00A4B1B78DAB2FB7911461846F0
:1017A000FFF70CFF064B1B78DAB2064B1A70044A9F
:1017B000FB791370FB8918461037BD4680BD00BF0A
:1017C000BC020020BD0200202C020020C00200202C
:1017D00080B485B000AF03460A46FB711346BB7167
:1017E000394B1B78DBB2FA799A4211D1364B1B7810
:1017F000DAB2364B1A70FA79354913465B00134456
:10180000DB000B4415331B78DAB22F4B1A703EE025
:10181000FA792F4913465B001344DB000B44143361
:101820001B78FB73FA792A4913465B001344DB00EB
:101830000B4415331B78BB73F979FA7B24480B46AC
:101840005B000B44DB00034415331B78D8B22049FE
:1018500013465B001344DB000B44153302461A7039
:10186000BB7B062B13D0F979BA7B19480B465B007A
:101870000B44DB00034414331B78D8B214491346DD
:101880005B001344DB000B44143302461A70FA79F0
:101890000F4913465B001344DB000B440C33012259
:1018A0001A70094B1B78DBB2062B07D1BB79002BD2
:1018B00004D1084B4FF0FF321A6000BF00BF14374D
:1018C000BD465DF8047B7047BC020020BD020020CD
:1018D0002C020020C002002080B582B000AF1A4B5D
:1018E0001B68B3F1FF3F26D0FFF702FE7860164B6E
:1018F0001B687A689A4205D8134B1A687B68D31A1A
:101900007B600AE0114B1B881A467B68D31A3B6048
:101910000D4B1B683A6813447B600D4B1B781A46CD
:101920007B6802FB03F37B600A4B1B781A467B68DB
:10193000D3407B6001E000237B607B689BB218464C
:101940000837BD4680BD00BFC0020020C80200208D
:10195000C6020020C502002080B582B000AF034659
:10196000FB80FB88002B08D1FFF7C2FD0346214A0C
:101970001360032003F04FFC39E0FB88012B03D8F0
:101980001D4B1B78012B02D0FB88013BFB8000BF65
:101990001A4B1B68DB6803F00403002BF8D0174BCD
:1019A0001B68DB68DAB2154B1B6862F49062DA6080
:1019B000134B4FF40022DA60032003F03AFC114B82
:1019C0005B691B0C1B04FA880E4913434B61FFF73C
:1019D0008FFD0346074A1360084B1B689A68074B44
:1019E0001B6842F480629A60AFF3008000BF083742
:1019F000BD4680BDC0020020C502002010030020AB
:101A0000000800580028004080B584B000AF454B66
:101A10009B6803F48063B3F5806F07D100BF424B2E
:101A20001B68DB6803F00403002BF8D13E4B1B68F6
:101A30009A683D4B1B6822F480629A603B4B1B788E
:101A4000FB73FA7B3A4913465B001344DB000B44FB
:101A500008331B68BB60FFF73FFF0346FB80FB8832
:101A6000BA689A4205D20023BB81324B01221A7018
:101A70004DE0FB88304A128892B213441A46BB6884
:101A8000934206D92C4B1B88BB812A4B00221A702B
:101A90003DE0BB689AB2FB88D31ABB81254B01227B
:101AA0001A7034E0FA7B224913465B001344DB00D2
:101AB0000B4408331A68FB889A420AD2FA7B1C4905
:101AC00013465B001344DB000B44083300221A600A
:101AD00013E0FA7B164913465B001344DB000B440A
:101AE00008331968FB88FA7BC91A114813465B0052
:101AF0001344DB00034408331960FA7B0C49134696
:101B00005B001344DB000B4415331B78FB73FB7B3A
:101B1000062BC7D1BB891846FFF71EFF00BF103741
:101B2000BD4680BD0028004010030020BC020020FC
:101B30002C020020C4020020CA02002080B58AB016
:101B400000AFEFF310837B617B697B6272B600BFED
:101B5000594B1B68CA225A62574B1B6853225A6260
:101B6000554B1B689A68544B1B6822F480629A603C
:101B7000524B1B7887F8233097F82320504913469F
:101B80005B001344DB000B440C331B78DBB2022BED
:101B90006ED197F823204A4913465B001344DB00BB
:101BA0000B441B68FB6197F82320454913465B00F3
:101BB0001344DB000B4410331B68BB61414B1B78A3
:101BC000DBB2002B4CD097F823203D4913465B0035
:101BD0001344DB000B440D331B78DBB2012B24D103
:101BE00097F8233001211846FFF7F2FD7B6A3B612D
:101BF0003B6983F3108800BF97F8232030491346D0
:101C00005B001344DB000B4404331A6897F823305D
:101C10001146184600F032FA274B1B68CA225A6256
:101C2000254B1B6853225A6212E07B6AFB60FB68FB
:101C300083F3108800BF97F82330184600F09AF914
:101C40001D4B1B68CA225A621B4B1B6853225A62E7
:101C500097F82330FA691946B86900F095FA22E03E
:101C6000FFF7D2FE7B6ABB60BB6883F310881AE083
:101C700000BF114B1B68DB6803F00403002BF8D096
:101C80000D4B1B68DB68DAB20B4B1B6862F4906289
:101C9000DA600D4B4FF40022DA607B6A7B607B6870
:101CA00083F3108800BF044B1B68FF225A6200BFF9
:101CB0002837BD4680BD00BF10030020BC020020B5
:101CC0002C020020C40200200008005880B588B013
:101CD00000AF03463960FB715E4B1B68CA225A6233
:101CE0005C4B1B6853225A625B4B9B685A4A43F019
:101CF00020039360584B9B68DBB203F00703DBB211
:101D0000C3F10403DAB2554B1A70534B1B6903F449
:101D1000FE034FF4FE023A613A6992FAA2F2FA60C7
:101D2000FA687A617A69002A01D1202203E07A698F
:101D3000B2FA82F2D2B2D340DBB20133DAB2484B0C
:101D40001A70454B1B699BB2C3F30E039BB2013360
:101D50009AB2444B1A80434B1B88013B404A12788D
:101D600002FB03F3A3F5A0733C4A1278D340BB6196
:101D7000BB694FF6FE72934204D93B4B4FF6FF729C
:101D80001A8003E0BB699AB2374B1A804FF40020E7
:101D9000FFF79CFB4FF40020FFF784FBFB79002B3F
:101DA0003DD1324B01221A70314B4FF0FF321A6095
:101DB0000023FB770CE0FA7F2E4913465B001344A7
:101DC000DB000B440C3300221A70FB7F0133FB77DE
:101DD000FB7F052BEFD9284B06221A701D4B1B6881
:101DE0009A681C4B1B6822F480629A60194B1B682E
:101DF000DB68DAB2174B1B6862F49062DA601F4B43
:101E00004FF40022DA60032003F013FA114B1B6831
:101E10009A68104B1B6842F480429A6009E00D4BAF
:101E20001B68DB6803F48063002B02D0032003F0FF
:101E3000F2F9084B1B68FF225A620022032103209B
:101E400003F0A7F9032003F0BEF900BF2037BD4619
:101E500080BD00BF1003002000280040C502002004
:101E6000C6020020C8020020CA020020C4020020CE
:101E7000C00200202C020020BC02002000080058F4
:101E800080B48BB000AFF860B9603B601346FB7163
:101E9000002387F82630EFF31083FB61FB693B6278
:101EA00072B600BF04E097F82630013387F8263079
:101EB00097F82630052B0CD897F826202C49134686
:101EC0005B001344DB000B440C331B78DBB2002BAC
:101ED000E9D197F82630062B38D097F826202449E8
:101EE00013465B001344DB000B440C3301221A70D1
:101EF0003B6ABB61BB6983F3108800BF97F826205B
:101F00001B4913465B001344DB000B441033FA6893
:101F10001A6097F82620164913465B001344DB002D
:101F20000B440D33FA791A7097F82620104913469E
:101F30005B001344DB000B443A681A60BB6897F8F7
:101F400026201A70002387F8273008E03B6A7B615F
:101F50007B6983F3108800BF012387F8273097F847
:101F6000273018462C37BD465DF8047B704700BF0C
:101F70002C02002080B586B000AF0346FB71EFF362
:101F80001083FB60FB687B6172B600BF032003F027
:101F900028F9344B1B68CA225A62324B1B68532201
:101FA0005A62FA79304913465B001344DB000B4454
:101FB0000C331B78DBB2022B42D1FB79002118468F
:101FC000FFF706FC294B1B78FB74FB7C062B2FD1FB
:101FD000274B9B6803F48063B3F5806F07D100BF84
:101FE000204B1B68DB6803F00403002BF8D11D4B6A
:101FF0001B689A681B4B1B6822F480629A6000BFC2
:10200000184B1B68DB6803F00403002BF8D0154B5A
:102010001B68DB68DAB2134B1B6862F49062DA600B
:10202000144B4FF40022DA60032003F002F907E0BA
:10203000114B1B78DBB2FA7C9A4201D0FFF7E4FC2B
:10204000084B1B68FF225A62032003F0BCF87B692F
:10205000BB60BB6883F3108800BF00BF1837BD4664
:1020600080BD00BF100300202C020020BC02002015
:102070000028004000080058BD02002080B586B04E
:1020800000AF03463960FB71FA793B4913465B00A8
:102090001344DB000B440C331B78DBB2022B03D15F
:1020A000FB791846FFF766FFEFF31083FB60FB68D0
:1020B0007B6172B600BF032003F093F82F4B1B68BF
:1020C000CA225A622D4B1B6853225A62FA792A4956
:1020D00013465B001344DB000B440C3302221A70DE
:1020E000FA79254913465B001344DB000B4408339F
:1020F0003A681A60FA79204913465B001344DB0002
:102100000B4404333A681A60FB791846FFF7B6FAB5
:1021100003467B821A4B1B787B741A4B1B78DBB20D
:102120007A7C9A4202D0FFF76FFC13E0FA791249E9
:1021300013465B001344DB000B44083319687B8AA9
:10214000FA79C91A0C4813465B001344DB000344B8
:1021500008331960094B1B68FF225A62032003F001
:1021600032F87B69BB60BB6883F3108800BF00BF97
:102170001837BD4680BD00BF2C0200201003002090
:10218000BC020020BD02002080B584B000AFF86022
:102190000B467A60FB727B68984700BF1037BD46DC
:1021A00080BD000080B584B000AFB9607B6003469D
:1021B000FB731346BB81FB7B002B0CD1084A7B6869
:1021C0001360084B084A1A60BB891A46B96805486B
:1021D00005F08CFB00E000BF00BF1037BD4680BD9E
:1021E000CC020020340300200038014080B586B0C6
:1021F00000AFB9607B600346FB731346BB810023CD
:10220000FB750023BB75FB7B002B0ED1174A7B6847
:102210001360174B174A1A60BB891A46B9681448ED
:1022200005F0B0FB0346FB7500E000BFFB7D032B10
:1022300016D801A252F823F0492200084F220008C4
:10224000552200085B2200080023BB7509E001232A
:10225000BB7506E00223BB7503E00323BB7500E0FA
:1022600000BFBB7D18461837BD4680BDD002002098
:10227000340300200038014080B582B000AF7860A0
:102280007B681B681A46094B9A4207D1084B1B68AA
:10229000002B05D0064B1B68984701E000BF00E00B
:1022A00000BF00BF0837BD4680BD00BF00380140F9
:1022B000CC02002080B582B000AF78607B681B68DC
:1022C0001A46094B9A4207D1084B1B68002B05D0D0
:1022D000064B1B68984701E000BF00E000BF00BF4D
:1022E0000837BD4680BD00BF00380140D002002045
:1022F00080B483B000AF78604FF0B043D3F8903033
:1023000023F018024FF0B0417B681343C1F89030BE
:1023100000BF0C37BD465DF8047B704780B485B0C4
:1023200000AF78604FF0B0439A6C4FF0B0417B68DB
:1023300013438B644FF0B0439A6C7B681340FB608F
:10234000FB6800BF1437BD465DF8047B704780B45E
:1023500085B000AF78604FF0B043DA6C4FF0B04119
:102360007B681343CB644FF0B043DA6C7B68134057
:10237000FB60FB6800BF1437BD465DF8047B704707
:1023800080B500AF02F038FDFEF7A6FD00F011F8B1
:1023900000F05BF800F07AF800F01CF900F008F9A2
:1023A00000F088F800F0B6F8FEF7A4FDFEF786FF0F
:1023B000FCE780B598B000AF07F11C034422002170
:1023C00018460AF06BFE3B4600221A605A609A607B
:1023D000DA601A615A619A6103F0D0FC0020FFF7BD
:1023E00087FF0723FB614FF480333B6201237B624D
:1023F0004FF48073BB624023FB6200237B6407F1D0
:102400001C03184604F022F80346002B01D000F00C
:10241000EBF86F233B6002237B600023BB6000234B
:10242000FB6000233B6100237B610023BB613B46D3
:102430000121184604F040FB0346002B01D000F0B8
:10244000D3F800BF6037BD4680BD80B58CB000AF0B
:102450003B463022002118460AF020FE4FF440533C
:102460003B604FF480437B620223BB621023FB621C
:102470003B46184604F0E2FE0346002B01D000F074
:10248000B3F800BF3037BD4680BD000080B500AF57
:10249000064B074A1A60054803F0EAFB0346002B87
:1024A00001D000F0A1F800BF80BD00BFD402002021
:1024B000000C005880B500AF144B154A1A60134B3E
:1024C00000225A60114B0F229A60104B47F6FF72A0
:1024D000DA600E4B00221A610C4B00229A610B4B02
:1024E00000225A61094804F09FFF0346002B01D0E7
:1024F00000F07AF800220021044805F095F8034620
:10250000002B01D000F070F800BF80BD1003002048
:102510000028004080B500AF234B244A1A60224BAC
:102520004FF4E1325A60204B00229A601E4B002289
:10253000DA601D4B00221A611B4B0C225A611A4BA8
:1025400000229A61184B4FF40042DA61164B0022C8
:102550001A62154B00225A62134B00229A621248EB
:1025600005F074F90346002B01D000F03DF800217E
:102570000D4807F0C0F90346002B01D000F034F8F5
:102580000021094807F0F5F90346002B01D000F0BF
:102590002BF8054807F076F90346002B01D000F030
:1025A00023F800BF80BD00BF340300200038014085
:1025B00080B500AF0420FFF7B1FE0120FFF7AEFEAB
:1025C00000220F210E2002F0E4FD0E2002F0FBFDA0
:1025D00000BF80BD80B500AF0420FFF7B8FE01202A
:1025E000FFF7B5FE00BF80BD80B400AF00BFBD46A1
:1025F0005DF8047B704780B483B000AF78604FF023
:10260000B043D3F8903023F440724FF0B0417B6870
:102610001343C1F8903000BF0C37BD465DF8047B12
:10262000704780B400AF4FF0B043D3F890304FF014
:10263000B04243F40043C2F8903000BFBD465DF89D
:10264000047B704780B485B000AF78604FF0B04332
:10265000DA6C4FF0B0417B681343CB644FF0B0436A
:10266000DA6C7B681340FB60FB6800BF1437BD4623
:102670005DF8047B704780B485B000AF78604FF0A0
:10268000B0431A6D4FF0B0417B6813430B654FF0B8
:10269000B0431A6D7B681340FB60FB6800BF1437C2
:1026A000BD465DF8047B704780B485B000AF7860AC
:1026B0004FF0B0439A6D4FF0B0417B6813438B6588
:1026C0004FF0B0439A6D7B681340FB60FB6800BF1E
:1026D0001437BD465DF8047B704780B485B000AF09
:1026E00078604FF0B0431A6E4FF0B0417B681343EF
:1026F0000B664FF0B0431A6E7B681340FB60FB68BB
:1027000000BF1437BD465DF8047B704780B500AF4D
:102710004FF40020FFF7AFFF002200212E2002F02F
:1027200038FD2E2002F04FFD00BF80BD80B582B085
:1027300000AF78607B681B680D4A934213D14FF459
:102740008010FFF798FF002200212C2002F021FDCD
:102750002C2002F038FD002200212D2002F019FD6E
:102760002D2002F030FD00BF0837BD4680BD00BF00
:10277000000C005880B58EB000AF786007F10803F8
:102780003022002118460AF089FC7B681B68184A31
:10279000934228D103F0F2FA03F0F0FA4FF480707C
:1027A000FFF729FF4FF40063BB604FF48073BB62F7
:1027B00007F10803184604F041FD0346002B01D041
:1027C000FFF712FFFFF72DFF4FF48060FFF76CFF5C
:1027D00000220021032002F0DCFC032002F0F3FCC5
:1027E000786804F0DDFF00BF3837BD4680BD00BF0C
:1027F0000028004080B594B000AF786007F13C033A
:1028000000221A605A609A60DA601A6107F10C03BC
:102810003022002118460AF041FC7B681B682F4AD1
:10282000934257D10123FB6000233B6107F10C0366
:10283000184604F003FD0346002B01D0FFF7D4FE39
:102840004FF48040FFF749FF0120FFF7FBFE4FF4F4
:10285000C063FB6302233B6401237B640323BB64EB
:102860000723FB6407F13C0319464FF0904003F047
:1028700043F81B4B1B4A1A60194B0F225A60184B26
:1028800010229A60164B0022DA60154B80221A61E2
:10289000134B00225A61124B00229A61104B002206
:1028A000DA610F4B00221A620D4802F0D1FC034698
:1028B000002B01D0FFF798FE7B68094ADA67084AC7
:1028C0007B68936200220021242002F062FC242015
:1028D00002F079FC00BF5037BD4680BD0038014092
:1028E000C80300204400024080B400AFFEE780B47B
:1028F00000AFFEE780B400AFFEE780B400AFFEE7B4
:1029000080B400AFFEE780B400AF00BFBD465DF805
:10291000047B704780B400AF00BFBD465DF8047B08
:10292000704780B400AF00BFBD465DF8047B7047C0
:1029300080B500AF02F0BAFA00BF80BD80B500AF2D
:10294000FFF7FCF800BF80BD80B500AF024802F081
:1029500044FE00BF80BD00BFC803002080B500AFAB
:10296000024805F08FF800BF80BD00BF340300208F
:1029700080B500AF01F02CFF00BF80BD80B500AF77
:1029800001F05CFF00BF80BD80B500AF03F04CF9E3
:1029900000BF80BD80B500AF012003F02DF900BF5E
:1029A00080BD80B500AF102003F026F900BF80BDC8
:1029B00080B500AF402003F01FF900BF80BD80B597
:1029C00086B000AFF860B9607A6000237B610AE0EE
:1029D000AFF300800146BB685A1CBA60CAB21A70D5
:1029E0007B6901337B617A697B689A42F0DB7B68A3
:1029F00018461837BD4680BD80B483B000AF7860FC
:102A00004FF0FF3318460C37BD465DF8047B704726
:102A100080B483B000AF786039603B684FF40052F7
:102A20005A60002318460C37BD465DF8047B70479A
:102A300080B483B000AF7860012318460C37BD46E0
:102A40005DF8047B704780B485B000AFF860B96072
:102A50007A60002318461437BD465DF8047B704742
:102A600080B586B000AF7860144A154BD31A7B61ED
:102A70007B693B61134B1B68002B02D1114B124A3F
:102A80001A60104B1A687B6813443A699A4207D25D
:102A90000AF052FB03460C221A604FF0FF3309E0A4
:102AA000084B1B68FB60074B1A687B681344054A98
:102AB0001360FB6818461837BD4680BD0030002003
:102AC00000100000280400209818002080B400AFF7
:102AD000034B1B681846BD465DF8047B704700BF7A
:102AE0008075FF1F80B400AF034B1B68DBB2184634
:102AF000BD465DF8047B70478475FF1F80B400AF4E
:102B0000034B1B681B0A1846BD465DF8047B7047E3
:102B10008475FF1FB0B590B000AF922387F83F30A7
:102B2000394B3C1D1D460FCD0FC40FCD0FC40FCD2B
:102B30000FC495E8070003C4228000F0A1FD012125
:102B4000022009F0F9FD314A0021102009F020FF90
:102B50003B1D184608F06CFB034687F83E3097F89B
:102B60003E30002B08D097F83E30194628480AF02E
:102B700013F9FFF739FD02E026480AF00DF900F0DD
:102B800095FD09F0BDFA244A0021012009F000FF5B
:102B9000224A00214FF4807009F0FAFE204A0021F9
:102BA000022009F0F5FE1F4B002283F88020202030
:102BB00007F067FF034687F83F3097F83F30002B58
:102BC00006D097F83F30194617480AF0E5F802E0BA
:102BD00016480AF0E1F80A200AF0F0F801F028F8A7
:102BE000134B002213490020FFF74AF9124B1B78C0
:102BF000DBB2002B04D00021012009F0EBFE00BF66
:102C000000BF4037BD46B0BD2CE40008A1AE0008AF
:102C100050E3000888E300089D3900080D3A0008D9
:102C2000493A000840040020B0E30008F4E300083B
:102C3000E13A0008C104002008000020F0B597B078
:102C400006AF78607B680133BB63BB6B02337B6389
:102C50000023FB63922387F83330BB6B1B78FF2B79
:102C60000AD0FF2B00F38B84052B00F0C8803E2B8D
:102C700000F0E38000F083BC834B01221A70BB6B31
:102C80000233FB62FB6A1B889BB240F6020293424E
:102C90002CD040F60202934200F3AD80042B00F0EA
:102CA0009F8040F20742934240F0A580FB6A0233C6
:102CB0007B627B6A1B78022B40F09F807B6A5B788B
:102CC000002B40F09A80002001F064FF6F480AF06A
:102CD000D1F86F4B1B78DBB2002B03D00021012011
:102CE00009F078FE6B480AF057F886E0FB6A023379
:102CF000BB62002007F0C5FE034687F8333097F823
:102D00003330002B06D097F83330194662480AF06A
:102D100043F802E061480AF03FF8BB6A9A78604BDA
:102D20001A70BB6AB3F803309AB25D4B5A80BB6A23
:102D3000B3F805309AB25A4B9A80BB6AB3F80730A1
:102D40009AB2574BDA80BB6AB3F809309AB2544B47
:102D50001A81BB6AB3F80B309AB2514B5A81514B6E
:102D6000D88A4F4B99884E4BDC884D4B1D894C4B74
:102D70005B894B4A12780126049603921022029234
:102D80001022019200932B46224607F0F2FE0346E2
:102D900087F8333097F83330002B09D097F8333069
:102DA0001946414809F0F8FF022001F0D9FE02E07F
:102DB0003E4809F0F1FF202007F063FE034687F844
:102DC000333097F83330002B06D097F8333019465C
:102DD000314809F0E1FF11E0304809F0DDFF0DE076
:102DE000012001F0BDFE2F4B93F881300A211846D7
:102DF000FFF744F902E000BFC4E300BFC2E37B6B0E
:102E0000B3F801309AB2274BDB8A9A4240F0B9837B
:102E1000244B0022DA82234B002283F880202448AE
:102E200009F0BAFF184B01221A701E4BDA8A164BB2
:102E30005A80154800F042FFA3E3BB6B02333B62AC
:102E40003B6A1B78013B0C2B00F2958301A252F8E0
:102E500023F000BFB52E000877350008773500084D
:102E60007735000877350008773500087735000892
:102E70007735000877350008A12F0008773500085E
:102E8000773500088D3000083C04002068E4000815
:102E90000800002078E40008B0E30008F4E300082C
:102EA000C404002040040020A8E40008F8E400085E
:102EB00038E500083B6A0133FB60FB68B3F801307A
:102EC0009AB2A64BDA82A54B062283F88020FB68D3
:102ED000B3F801309BB21946A14809F05DFFFB68C9
:102EE0009B7A1846FB685B7A1C46FB681B7A1D467A
:102EF000FB68DB791A46FB689B791946FB685B79AE
:102F00000293019100922B4622460146954809F012
:102F100043FFFB68B3F80B309BB21846FDF714FC77
:102F20004FF00002904BFDF793F902460B46104616
:102F30001946FB68B3F80D309BB21C46FB68B3F82A
:102F40000F309BB21A4613469B0013445B0001935B
:102F5000009402460B46854809F01EFF844809F09C
:102F60001BFF844B00221A707C4BDA8A814B5A80FB
:102F7000804800F0A3FE794BDB8A184607F000FA80
:102F80000346FB74FB7C002B06D17B4809F004FF51
:102F90007A4809F001FFF1E2794809F0FDFEEDE21F
:102FA0003B6A01337B617B69B3F801309AB26B4BAA
:102FB000DA826A4B062283F880207B69B3F80130FD
:102FC0009BB219466F4809F0E7FE7B699B7A184669
:102FD0007B695B7A1C467B691B7A1D467B69DB79C2
:102FE0001A467B699B7919467B695B79029301914B
:102FF00000922B46224601465A4809F0CDFE7B69D5
:10300000B3F817309BB21846FDF79EFB4FF0000255
:10301000554BFDF71DF902460B46104619467B69D4
:10302000B3F819309BB21C467B69B3F81B309BB2D6
:103030001A4613469B0013445B000193009402461A
:103040000B464A4809F0A8FE4F4809F0A5FE494B37
:1030500000221A70414BDA8A464B5A80454800F0EC
:103060002DFE3E4BDB8A184607F08AF90346FB74B7
:10307000FB7C002B06D1404809F08EFE3F4809F04A
:103080008BFE7BE23E4809F087FE77E23B6A013324
:10309000FB613E4B1B78DBB2002B08D0FB69B3F819
:1030A00001309BB203F01003002B40F06682384BD6
:1030B00000221A80364B1B881A46364B13444FF4B5
:1030C00080720021184609F0E9FF314B1B881A462F
:1030D000304BD0182E4B1B88C3F580731E46FB69FE
:1030E0005B7A9C46FB691B7A1A46FB69DB791946B9
:1030F000FB699B791C46FB695B791D46FB691B7963
:10310000049303950294019100926346224A31464A
:1031100009F0B8FE03469AB21D4B1B8813449AB2BD
:103120001B4B1A80FB69B3F801309BB203F010030C
:10313000002B35D0164B1B881A46164B1344174AE2
:103140004FF48071184609F09DFE03469AB2104B69
:103150001B8813449AB20E4B1A8034E040040020BE
:1031600064E50008ACE500080000F43FFCE5000859
:1031700068E600083C04002098E60008CCE6000859
:10318000FCE600083CE700088CE70008D2050020B8
:10319000D0050020D0040020C8E70008ECE70008B4
:1031A000924B1B881A46924B1344924A4FF48071FB
:1031B000184609F067FE03469AB28C4B1B881344ED
:1031C0009AB28A4B1A80894B1B881A46884BD018B2
:1031D000864B1B88C3F580731946FB699B7B5BB2EA
:1031E000854A09F04FFE03469AB2804B1B88134470
:1031F0009AB27E4B1A80FB69B3F801309BB203F0A0
:103200000103002B16D0794B1B881A46784B1344C8
:10321000764A1288C2F580721146784A184609F03B
:1032200031FE03469AB2714B1B8813449AB26F4B1E
:103230001A8015E06D4B1B881A466D4B13446B4A80
:103240001288C2F5807211466D4A184609F01AFEBE
:1032500003469AB2654B1B8813449AB2634B1A809B
:10326000FB69B3F801309BB203F00203002B35D0A9
:10327000FB69B3F801309BB203F00803002B16D0B2
:103280005A4B1B881A465A4B1344584A1288C2F5A7
:10329000807211465B4A184609F0F4FD03469AB263
:1032A000524B1B8813449AB2504B1A802CE04F4B60
:1032B0001B881A464E4B13444C4A1288C2F5807242
:1032C0001146514A184609F0DDFD03469AB2474BB4
:1032D0001B8813449AB2454B1A8015E0434B1B8858
:1032E0001A46434B1344414A1288C2F58072114674
:1032F000464A184609F0C6FD03469AB23B4B1B8866
:1033000013449AB2394B1A80384B1B881A46384BF3
:10331000D018364B1B88C3F580731946FB691B7E9A
:103320003B4A09F0AFFD03469AB2304B1B88134469
:103330009AB22E4B1A80FB691B7BFF2B16D02B4BAE
:103340001B881A462A4BD018284B1B88C3F580735C
:103350001946FB691B7B2F4A09F094FD03469AB27C
:10336000224B1B8813449AB2204B1A80FB69B3F896
:1033700001309BB203F02003002B16D01B4B1B889F
:103380001A461B4B1344194A1288C2F58072114623
:10339000214A184609F076FD03469AB2134B1B8862
:1033A00013449AB2114B1A801DE0FB69B3F8013047
:1033B0009BB203F04003002B15D00C4B1B881A4620
:1033C0000B4B1344094A1288C2F580721146134A06
:1033D000184609F057FD03469AB2044B1B88134464
:1033E0009AB2024B1A800023FB63A2E0D0050020B2
:1033F000D0040020F8E7000804E800080CE8000802
:1034000014E800081CE8000828E8000834E8000870
:1034100040E8000848E8000850E8000860E80008B4
:10342000FA69FB6B134419331B78FB76FB6B013392
:10343000FA6913445B7EBB76BB7EFF2B57D1FB7EC4
:10344000062B71D9FB6B0233FA6913445B7E012BA7
:103450006AD1FB6B0333FA6913445B7E832B63D120
:10346000FB69B3F801309BB203F01003002B5BD172
:10347000FB69B3F801309BB203F00103002B53D07A
:10348000434B1B881A46434B1344414A1288C2F5EA
:1034900080721146404A184609F0F4FC03469AB27D
:1034A0003B4B1B8813449AB2394B1A803B4B012289
:1034B00083F88220FB691A79394B1A70FB695A79B3
:1034C000374B5A70FB699A79354B9A70FB69DA79F8
:1034D000334BDA70FB691A7A314B1A71FB695A7AED
:1034E0002F4B5A71FB69DA782E4B1A701CE0BB7EA9
:1034F000092B19D1264B1B881A46264BD018FB6B7B
:1035000002331833FA691344591CFB7E013B1A46F7
:1035100009F03FFEFB7E9AB21D4B1B8813449BB201
:10352000013B9AB21A4B1A80FB7E0133FA6B1344AB
:10353000FB63FB691B7E1A46FB6B9342FFF670AF81
:10354000134B1B881A46134B1344114A1288C2F5B9
:1035500080721146144A184609F094FC03469AB248
:103560000B4B1B8813449AB2094B1A8009490F4828
:1035700009F012FC02E000BF04E000BF02E000BF5F
:1035800000E000BF012318464437BD46F0BD00BF30
:10359000D0050020D004002070E80008400400207E
:1035A000340400203A040020ACE80008B0E8000829
:1035B00080B483B000AF0346FB80084BDB8AFA88F7
:1035C0009A4203D1054B93F8803000E0002318465F
:1035D0000C37BD465DF8047B704700BF40040020F7
:1035E00080B500AF00F0B2FE0346062B11D00B4BA6
:1035F0001B78DBB2012B07D100214FF4807009F05A
:10360000E9F9064B00221A700021022009F0E2F9C4
:1036100001E000F085FB00BF80BD00BF0800002076
:1036200080B400AF074B1B78DBB2002B0CBF01232B
:103630000023DBB21A46034B1A7000BFBD465DF88B
:10364000047B7047D205002080B500AF0B4B1B7880
:10365000DBB2002B07D10021012009F0BBF9074B99
:1036600001221A7007E000214FF4807009F0B2F9CE
:10367000024B00221A7000BF80BD00BF080000206E
:1036800080B582B000AF064B3B60064B7B603B468B
:103690001946054807F0E8FB00BF0837BD4680BD66
:1036A00028000320F53B0008BD3B0008F0B58DB0B5
:1036B00006AF00233B809223FB759C4809F0DAFBA0
:1036C00007F033FA0346FB75FB7D002B05D0FB7D2D
:1036D0001946974809F060FB02E0964809F0CAFBDA
:1036E00000F006FA38613A690621002007F0DDF89B
:1036F0000346FB75FB7D002B05D0FB7D19468E48EC
:1037000009F04AFB21E08D4809F0B4FB3B69053321
:103710001B7818463B6904331B781C463B6903330E
:103720001B781D463B6902331B781A463B690133FF
:103730001B7819463B691B780293019100922B4636
:10374000224601467E4809F027FB7E4A10211820B8
:1037500007F0ABF80346FB75FB7D002B05D0FB7D26
:103760001946794809F018FB02E0784809F082FB15
:10377000774A1021082007F098F80346FB75FB7D77
:10378000002B05D0FB7D1946724809F005FB02E0CD
:10379000714809F06FFB1821012007F00BF903466F
:1037A000FB75FB7D002B05D0FB7D19466B4809F0AE
:1037B000F3FA02E06A4809F05DFB06F013FD0346E8
:1037C000FB75FB7D002B05D0FB7D1946654809F094
:1037D000E3FA02E0644809F04DFB0023FB73FB7B36
:1037E00043F00403FB73FB7B002B2BD05F4BBB60D0
:1037F000BA1DF87BBB1C01933B1D009313460722A7
:10380000002106F05BFA0346FB75FB7D002B05D01B
:10381000FB7D1946564809F0BFFA02E0554809F009
:1038200029FBFC88BD88B868FCF7B4FC0346DAB213
:10383000BB680093134600222946204606F0F7FC99
:103840000346FB75F88879883B46009302230022E3
:1038500006F0EDFC0346FB75474B01221A70464B00
:103860001B78184606F012F90346FB75FB7D002B0A
:1038700005D0FB7D1946414809F08EFA02E0404828
:1038800009F0F8FA3C4B01225A703B4B08221A719E
:10389000394B10225A71384B0122DA70364B394AB3
:1038A0009A60354B01229A70334B9C78324B5D788D
:1038B000314B1B79304A52792F49C9782E4880689C
:1038C00000260496039002910192009300230122A6
:1038D0002946204606F02EF90346FB75FB7D002B9A
:1038E00005D0FB7D1946284809F056FA02E0274822
:1038F00009F0C0FA204B9B78002B0FD006F08BFA12
:103900000346FB75FB7D002B05D0FB7D1946204847
:1039100009F042FA02E01F4809F0ACFA1E4809F02B
:103920003BFA00BF1C37BD46F0BD00BFB4E800083D
:10393000E0E8000810E9000830E900088CE9000818
:10394000D8E90008C4F3000814EA00086CEA00088B
:10395000D4F30008B4EA00080CEB000854EB0008AC
:1039600094EB0008C4EB0008F8EB00081CEC00081E
:1039700024EC000854EC00084004002074EC00081B
:10398000B4EC000807B20100E4EC000830ED0008D8
:103990006CED0008ACED0008DCED000880B582B0ED
:1039A00000AF154B93F88030062B20D0002001F09B
:1039B000D7F8124809F05EFA114809F05BFA0123C2
:1039C00000224FF448714FF4487006F048FA03465D
:1039D000FB71FB79002B03D10A4809F0DDF906E001
:1039E000022001F0BDF8084809F0D6F900BF00BF79
:1039F0000837BD4680BD00BF4004002008EE000827
:103A000014EE00085CEE00088CEE000880B582B071
:103A100000AF022006F092FB0346FB71FB79002BFE
:103A200003D1074809F026FA06E0022001F098F8D1
:103A3000044809F01FFA00BF0837BD4680BD00BF2B
:103A4000BCEE0008E4EE000880B58AB008AF1F485D
:103A500009F0A2F91E4B93F88230002B03D11D48C8
:103A600009F008FA2EE01A4B93F88030062B29D083
:103A7000194B1A7810230693102305934FF4FA7309
:103A800004930023039350230293282301930023DC
:103A90000093124B4FF448714FF4487006F073FADC
:103AA0000346FB71FB79002B04D1094B042283F8F8
:103AB000802007E0022001F053F8054B002283F834
:103AC000802000BF00BF0837BD4680BD0CEF000856
:103AD0004004002038EF00083A040020340400209D
:103AE00080B500AF012001F055F800BF80BD000097
:103AF00080B586B000AFFEF7E9FF38613B69B3F1EE
:103B0000FF3F23D0FEF7FAFFB860FEF7EBFF7860C7
:103B10003B69DAB2164B1A703B691B0ADAB2144BD6
:103B20005A707B68DAB2124B9A70BB68DAB2104BEB
:103B3000DA70BB681B0ADAB20D4B1A71BB681B0C3A
:103B4000DAB20B4B5A710A4B7B610BE0002007F095
:103B500047FBF860FB68002B02D0FB687B6101E04B
:103B6000044B7B617B6918461837BD4680BD00BF9A
:103B70002C040020BCF3000880B582B000AF786050
:103B80000021102008F026FF00BF0837BD4680BD89
:103B900080B582B000AF7860012008F087FF00BFD9
:103BA0000837BD4680BD80B582B000AF7860012087
:103BB00008F09CFF00BF0837BD4680BD80B584B0CB
:103BC00000AF78607B68FB60FB685B680833184671
:103BD00008F0E8FA0346FB72FB7A002B03D0FB687F
:103BE00001221A7003E0FB6800221A7000BF103730
:103BF000BD4680BD80B584B000AF0346FB71FB7944
:103C0000002B02D0012B07D00DE040F2FF13FB6028
:103C1000F86808F00BFF06E040F2FF13FB60F8685D
:103C200008F024FF00BF00BF1037BD4680BD000074
:103C300080B582B000AF0023FB711A4A0021042036
:103C400008F0A6FE184A0021202008F0A1FE174B1C
:103C500000221A70154B0022DA80144B00225A7091
:103C6000124B00229A70114B0122DA700F4B002286
:103C70001A710023FB7108E0FB790D4A1B01134404
:103C800000221A70FB790133FB71FB79002BF3D012
:103C9000084808F06DFA084809F0ECF800BF08374A
:103CA000BD4680BD21440008D9430008E40500203A
:103CB000D4050020313D000850EF000880B584B0E5
:103CC00000AF78607B681B78002B02D0012B05D0F9
:103CD0001EE07B685A88104BDA8019E00023FB73E2
:103CE0000D4B0022DA8005E0FB7B0C4A1B011344DC
:103CF00000221A70FB7B002B06D1FB7B074A1B01BD
:103D000013441B78002BEFD1002000F043FF00BFCD
:103D100000BF1037BD4680BDE4050020D40500205B
:103D200080B500AF0021202008F054FE00BF80BD08
:103D300080B594B000AF7860002387F845307B6889
:103D400001333B643B6C1B78FF2B40F0B4823B6C2F
:103D50000233FB63FB6B1B889BB2A3F604430C2B63
:103D600000F29D8201A252F823F000BFB14000088A
:103D70009F420008573F00089F4200089F420008EA
:103D80009F420008A13D00089F4200089F42000892
:103D90009F4200089F420008CD41000849420008A8
:103DA000FB6B02333B633B6B1A785B781B0213435C
:103DB000FB85002387F84D302EE097F84D30B84A48
:103DC0001B01134402331B881846FFF7F1FB03461F
:103DD00087F82D3097F84D30B14A1B0113441B78FA
:103DE000062B14D197F82D30002B10D197F84D30B9
:103DF000AB4A1B01134400221A7097F84D30A84AB1
:103E00001B01134402334FF6FF721A8010E097F83B
:103E10004D30013387F84D3097F84D30002B07D1E6
:103E200097F84D309E4A1B0113441B78002BC4D1D8
:103E300097F84D30002B40F0348297F84D30984A77
:103E40001B0113440233FA8D1A803B6BDA783B6B0B
:103E50009B78B2FBF3F387F82C303B6B9B78142BE9
:103E600040F01F82102387F84E30002387F84F3030
:103E70006AE097F84E303A6B13441B799AB297F880
:103E80004E30396B0B44043301331B789BB21B0259
:103E90009BB213437B857B8D4FF64062934249D1A1
:103EA00097F84D307E4A1B01134402331B88194694
:103EB0007C4808F071FF97F84E30103B3A6B134482
:103EC0001B7999B297F84E30103B3A6B1344043388
:103ED00001331B789BB21B029AB297F84D300A430C
:103EE00091B26F4A1B01134404330A461A8097F8B3
:103EF0004E300E3B3A6B13441B7999B297F84E3013
:103F00000E3B3A6B1344043301331B789BB21B0204
:103F10009AB297F84D300A4391B2614A1B0113449B
:103F200006330A461A8097F84D305D4A1B01134448
:103F300008221A7097F84E30063387F84E3097F8FB
:103F40004F30013387F84F3097F84F2097F82C30D7
:103F50009A428ED3A5E1FB6B02337B62002387F884
:103F60004B3004E097F84B30013387F84B3097F82B
:103F70004B30002B0BD197F84B30494A1B011344AF
:103F800002331A887B6A1B889BB29A42EAD197F85F
:103F90004B30002B40F08781112387F84C307B6A2F
:103FA0009B78152B40F07F817B6ADB78013BDAB28E
:103FB0007B6ADA706FE097F84C307A6A13441B79A9
:103FC0009AB297F84C30796A0B44043301331B786A
:103FD0009BB21B029BB213437B8497F84C300E3B81
:103FE0007A6A13441B799AB297F84C300E3B796A7F
:103FF0000B44043301331B789BB21B029BB2134367
:104000003B847B8C4FF6416293421AD197F84B3038
:10401000234A1B01134402331B881946224808F027
:10402000BBFE97F84B301E4A1B01134409221A703D
:1040300097F84B301A4A1B01134408333A8C1A8004
:104040001EE07B8C4FF64262934219D197F84B30B9
:10405000134A1B01134402331B881946134808F006
:104060009BFE97F84B300E4A1B0113440A221A702C
:1040700097F84B300A4A1B0113440C333A8C1A80D0
:104080007B6ADB78153BDAB27B6ADA7097F84C30E2
:10409000153387F84C307B6ADB78002B8BD102E13B
:1040A000D40500206CEF0008A8EF0008E0EF00083E
:1040B000FB6B0233FB61002387F8483004E097F87C
:1040C0004830013387F8483097F84830002B0BD13F
:1040D00097F848307B4A1B01134402331A88FB6966
:1040E0001B889BB29A42EAD197F84830002B40F0E7
:1040F000DC80FB69DB789B08FB76002387F84A307D
:10410000FB699B78012B40F0D080002387F8493071
:1041100056E097F84A30FA6913441B799AB297F837
:104120004A30F9690B44043301331B789BB21B02FC
:104130009BB213433B8397F84A300233FA69134426
:104140001B799AB297F84A300233F9690B44043369
:1041500001331B789BB21B029BB21343FB82FB8A89
:1041600042F60212934221D197F84830554A1B017A
:10417000134402331B881946534808F00DFE97F884
:104180004830504A1B0113441B780A2B0ED197F874
:1041900048304C4A1B0113440E333A8B1A8097F86F
:1041A0004830484A1B0113440B221A7097F84A30D2
:1041B000043387F84A3097F84930013387F849309B
:1041C00097F84920FB7E9A42A3D36EE0FB6B023343
:1041D0007B63002387F8473004E097F847300133CA
:1041E00087F8473097F84730002B0BD197F84730C6
:1041F000344A1B01134402331A887B6B1B889BB221
:104200009A42EAD197F84730002B50D17B6B5B88FC
:104210009AB297F847302B491B010B440C331B888B
:104220009A4244D17B6B1B79022B40D102233B7213
:104230007B6B1B793B747B6B0533FB6007F10803D9
:10424000184600F045F832E0FB6B0233BB631F48B1
:1042500008F010FE0A2008F0B1FD002387F8463070
:1042600004E097F84630013387F8463097F8463037
:10427000002B0BD197F84630124A1B01134402332E
:104280001A88BB6B1B889BB29A42EAD197F84630DA
:10429000002B0ED10021042008F09CFB09E000BF98
:1042A0000AE000BF08E000BF06E000BF04E000BF76
:1042B00002E000BF00E000BF97F8453018465037D5
:1042C000BD4680BDD405002024F000086CF0000835
:1042D00080B582B000AF78607B681B78022B27D155
:1042E0007B685B681A78154B5A70144B5B78012B0E
:1042F0001CD17B685B685A78104B9A700F4B9B7887
:10430000002B09D1002000F045FC0D4808F044FDC9
:104310000C4808F041FD0AE00B4808F03DFD094853
:1043200008F03AFD002000F01BFC00E000BF00E0B8
:1043300000BF00BF0837BD4680BD00BFE4050020B8
:104340009CF00008DCF00008E0F0000880B400AF4A
:10435000034B1B781846BD465DF8047B704700BFD1
:10436000D405002080B584B000AF03463A60FB80DE
:104370000B467B719223FB730023BB731BE0FB880E
:104380004FF64162934212D1BB7B124A1B01134488
:1043900002331888BB7B0F4A1B011344083319886A
:1043A0003B68022206F0E5F90346FB7300E000BF1C
:1043B000BB7B0133BB73BB7B002B06D1BB7B054AA8
:1043C0001B0113441B78002BD9D1FB7B18461037F7
:1043D000BD4680BDD405002080B500AF0C4808F074
:1043E000DBFC0C4808F0D8FC0B4B1B79002B03D1ED
:1043F000094B01221A7102E0074B00221A71074A89
:1044000000214FF64160FFF7ADFF00BF80BD00BF48
:1044100020F10008DCF00008E4050020E70500209A
:1044200080B582B000AF0123BB8000237B800023D6
:10443000FB71A5E0FB795A4A1B0113441B78073B2B
:10444000052B00F2998001A252F823F06544000880
:104450006D4400089F440008D54400080B4500083F
:10446000454500084F4808F005FD86E04E4808F035
:1044700001FDFB794A4A1B01134402331888FB797A
:10448000474A1B01134404331988FB79444A1B0132
:10449000134406331B881A4605F0CAFF6DE04348F3
:1044A00008F0E8FCFB793E4A1B01134402331888EC
:1044B000FB793B4A1B01134408331988FB79384ABE
:1044C0001B01134408331B8802339BB21A4606F0C3
:1044D00030F852E0364808F0CDFCFB79304A1B0139
:1044E000134402331888FB792D4A1B0113440C3303
:1044F0001988FB792A4A1B0113440C331B880233A9
:104500009BB21A4606F015F837E02A4808F0B2FCCC
:10451000FB79234A1B01134402331888FB79204A94
:104520001B0113440E3319883B1D022206F082F84A
:10453000FB791B4A1B01134406221A70022000F06B
:1045400029FB1AE01C4808F095FCFB79144A1B0172
:10455000134402331888FB79114A1B0113440E33AC
:104560001988BB1C022206F065F8FB790C4A1B0176
:10457000134406221A7000E000BFFB790133FB717F
:10458000FB79002B08D1FB79054A1B0113441B78EA
:10459000002B7FF44FAF00BF00BF0837BD4680BD82
:1045A000D405002060F1000878F10008A0F10008AF
:1045B000DCF1000820F2000844F2000880B400AFEB
:1045C000054BDB68044A43F40043D36000BFBD469B
:1045D0005DF8047B704700BF0004005880B483B0CE
:1045E00000AF7860064BD3F8D42005497B681343AD
:1045F000C1F8D43000BF0C37BD465DF8047B70476E
:104600000008005880B483B000AF7860054B1A6A88
:1046100004497B6813430B6200BF0C37BD465DF84D
:10462000047B70470008005880B485B000AF786004
:104630004FF0B0431A6D4FF0B0417B6813430B65E8
:104640004FF0B0431A6D7B681340FB60FB6800BFFE
:104650001437BD465DF8047B704780B485B000AF69
:1046600078604FF0B043D3F850214FF0B0417B68F1
:104670001343C1F850314FF0B043D3F850217B6859
:104680001340FB60FB6800BF1437BD465DF8047B38
:10469000704780B483B000AF78607B681B6843F4D8
:1046A00080327B681A6000BF0C37BD465DF8047B22
:1046B000704780B483B000AF78607B681B6843F0BC
:1046C00001027B681A6000BF0C37BD465DF8047BB1
:1046D000704780B483B000AF786039607B685A68F7
:1046E0003B681B04DB431A407B685A6000BF0C37F1
:1046F000BD465DF8047B704780B483B000AF78603E
:1047000039607B685A683B681B041A437B685A60AF
:1047100000BF0C37BD465DF8047B704780B483B0A2
:1047200000AF786039607B685A683B68DB431A40A9
:104730007B685A6000BF0C37BD465DF8047B70474C
:1047400080B483B000AF786039607B683A689A6063
:1047500000BF0C37BD465DF8047B704780B483B062
:1047600000AF786039603B681A047B689A6000BFCC
:104770000C37BD465DF8047B704780B483B000AF52
:10478000786039607B68DA683B6813403A689A421F
:1047900001D1012300E0002318460C37BD465DF827
:1047A000047B704780B483B000AF786039607B6869
:1047B000DA693B6813403A689A4201D1012300E06C
:1047C000002318460C37BD465DF8047B7047000097
:1047D00080B500AF02211848FFF7E4FF0346002B25
:1047E00008D0154B5B6803F00203002B02D100F0E8
:1047F000D5F81EE001211048FFF7D4FF0346002B37
:1048000008D00D4B5B6803F00103002B02D100F0D0
:1048100089F80EE008210848FFF7C4FF0346002B83
:1048200008D0054B5B6803F00803002B02D100F0B1
:1048300001F900BF00BF80BD000C005880B500AF7B
:1048400002211848FFF799FF0346002B08D1154BAA
:104850005B6803F40033002B02D100F093F81EE0F4
:1048600008211048FFF789FF0346002B08D10D4BA4
:104870005B6803F40023002B02D100F0BDF80EE0CA
:1048800020210848FFF779FF0346002B08D1054B8C
:104890005B6803F40013002B02D100F04FF800BF57
:1048A00000BF80BD000C005880B500AF4FF48010F1
:1048B000FFF7D3FE4FF40070FFF7A4FE4FF4007033
:1048C000FFF78CFE40BF20BFFFF778FE00BF80BD22
:1048D00080B500AF4FF48010FFF7A6FE0648FFF743
:1048E000E8FE0548FFF7D5FE2C2000F06CFC2D20DB
:1048F00000F069FC00BF80BD000C005880B500AF1F
:1049000001210248FFF70AFF00BF80BD000C0058DC
:1049100080B500AF01210248FFF720FF00BF80BD36
:10492000000C005880B500AF07F03CFD01210248A3
:10493000FFF706FF00BF80BD000C005880B500AF38
:1049400020210348FFF7D8FE07F05CFD00BF80BDC3
:10495000000C005880B500AF02210248FFF7DEFED0
:1049600000BF80BD000C005880B500AF0221044894
:10497000FFF7F4FE02210248FFF7ABFE00BF80BD47
:10498000000C005880B500AF02210348FFF7B4FEC9
:1049900007F088FD00BF80BD000C005880B500AF57
:1049A00007F096FD02210248FFF7CAFE00BF80BD56
:1049B000000C005880B582B000AF786008210C4828
:1049C000FFF7DBFE0346002B07D00A4A7B68136023
:1049D00008210748FFF77DFE06E07B68984708211D
:1049E0000348FFF7BBFE00BF0837BD4680BD00BFD0
:1049F000000C0058EC05002080B500AF08210648E7
:104A0000FFF77AFE054B1B68984708210248FFF71D
:104A1000A5FE00BF80BD00BF000C0058EC050020C3
:104A200080B500AF08210248FFF778FE00BF80BDC7
:104A3000000C005880B500AF07F0F2FD08210248D5
:104A4000FFF77EFE00BF80BD000C0058D458C45054
:104A50000433C4188C42F9D3704703600430884291
:104A6000FBD370470C48854600F054F90B480C49BD
:104A70000C4A0023FFF7EDFF0B480C490023FFF71A
:104A8000EEFF0B480B490023FFF7E9FF08F05AFB44
:104A9000FDF776FCFEE70000003000200800002053
:104AA000AC00002020F50008FC0000209418002035
:104AB000E4010320670A0320FEE780B485B000AF5D
:104AC00078604FF0B043DA6C4FF0B0417B6813432D
:104AD000CB644FF0B043DA6C7B681340FB60FB683B
:104AE00000BF1437BD465DF8047B704780B588B0C1
:104AF00000AF0346FB7107F10C0300221A605A60F5
:104B00009A60DA601A610220FFF7D7FFFB79124A38
:104B100032F81330FB6001233B6100237B610223E9
:104B2000BB61FB790D4A52F8233007F10C021146A4
:104B3000184600F0E1FEFB79084A52F82300FB79A1
:104B4000054A32F813300022194601F03DF80023DF
:104B500018462037BD4680BDE4F300080C00002055
:104B600080B582B000AF0346FB71FB79074A52F86B
:104B70002300FB79064A32F813300122194601F06E
:104B800023F8002318460837BD4680BD0C000020DE
:104B9000E4F3000880B582B000AF0346FB71FB79F7
:104BA000074A52F82300FB79064A32F813300022F4
:104BB000194601F009F8002318460837BD4680BDA4
:104BC0000C000020E4F3000880B588B000AF034675
:104BD0000A46FB711346BB7107F10C0300221A60F1
:104BE0005A609A60DA601A61FB79002B03D10120C8
:104BF000FFF763FF0CE0FB79012B03D11020FFF7D7
:104C00005CFF05E0FB79022B02D10120FFF755FF85
:104C1000FB79294A32F81330FB6001237B610223C0
:104C2000BB61BB79002B0CD100233B61FB79234A8C
:104C300052F8233007F10C021146184600F05CFED2
:104C400035E04FF404133B61FB791C4A52F82330E2
:104C500007F10C021146184600F04EFEFB79DB000E
:104C6000174A1A44FB79174951F823301946104660
:104C700000F00CFEFB79DB00114A9818FB79124A10
:104C800052F823301A46002100F0E6FDFB790F4A66
:104C9000D056FB790E4A52F823300022194600F014
:104CA00078FAFB79094AD356184600F08CFA0023AB
:104CB00018462037BD4680BDECF3000818000020E0
:104CC000F0050020F8F3000824000020F4F30008A9
:104CD0003000002080B483B000AF0346FB7100BFFA
:104CE0000C37BD465DF8047B704780B500AF0020EF
:104CF000FFF7F0FF00BF80BD80B500AF0120FFF7D8
:104D0000E9FF00BF80BD80B500AF0220FFF7E2FFE2
:104D100000BF80BD80B400AF244B00229A60234BBB
:104D2000D3F88830214A43F47003C2F888304FF03A
:104D3000B0431B684FF0B04243F0010313604FF0E3
:104D4000B0434FF4E0229A604FF0B0431A684FF03E
:104D5000B041174B13400B604FF0B043D3F8943081
:104D60004FF0B04223F00503C2F894304FF0B04347
:104D7000D3F898304FF0B04223F00103C2F89830D6
:104D80004FF0B0430B4ADA604FF0B0431B684FF06E
:104D9000B04223F4802313604FF0B04300229A61A5
:104DA00000BFBD465DF8047B704700BF00ED00E02A
:104DB000FBFEF6FA0010042280B400AF054B5B68DE
:104DC000044A43F00103536000BFBD465DF8047B15
:104DD000704700BF002004E080B400AF054B5B6863
:104DE000044A43F00203536000BFBD465DF8047BF4
:104DF000704700BF002004E080B582B000AF002300
:104E0000FB710C4B1B680B4A43F480731360032047
:104E100000F0B4F9002000F00FF80346002B02D098
:104E20000123FB7101E0FDF771FCFB79184608379F
:104E3000BD4680BD0040005880B584B000AF7860AA
:104E40000023FB73174B1B78002B24D001F0E0FFED
:104E50000246144B1B7819464FF47A73B3FBF1F3F7
:104E6000B2FBF3F3184600F0CAF90346002B0FD14A
:104E70007B680F2B09D8002279684FF0FF3000F0D3
:104E800088F9094A7B68136007E00123FB7304E09B
:104E90000123FB7301E00123FB73FB7B18461037F2
:104EA000BD4680BD440000204000002080B400AF1B
:104EB000064B1B781A46064B1B681344044A1360C2
:104EC00000BFBD465DF8047B704700BF4400002072
:104ED0000806002080B400AF034B1B681846BD468F
:104EE0005DF8047B704700BF0806002080B400AF67
:104EF000034B1B681846BD465DF8047B704700BF36
:104F00004000002080B500AFFFF756FF00BF80BD16
:104F100080B500AFFFF760FF00BF80BD80B485B0F3
:104F200000AF78607B6803F00703FB600C4BDB6825
:104F3000BB60BA684FF6FF031340BB60FB681A0200
:104F4000BB68134343F0BF6343F40033BB60044AC0
:104F5000BB68D36000BF1437BD465DF8047B704763
:104F600000ED00E080B400AF044BDB681B0A03F0E7
:104F700007031846BD465DF8047B704700ED00E06E
:104F800080B483B000AF0346FB7197F90730002B64
:104F90000BDBFB7903F01F02074997F907305B0928
:104FA000012000FA02F241F8232000BF0C37BD4671
:104FB0005DF8047B704700BF00E100E080B483B07F
:104FC00000AF0346FB7197F90730002B12DBFB792A
:104FD00003F01F020A4997F907305B09012000FA24
:104FE00002F2203341F82320BFF34F8F00BFBFF3FD
:104FF0006F8F00BF00BF0C37BD465DF8047B704764
:1050000000E100E080B483B000AF0346FB7197F984
:105010000730002B0CDBFB7903F01F02074997F9DF
:1050200007305B09012000FA02F2403341F82320E7
:1050300000BF0C37BD465DF8047B704700E100E01F
:1050400080B483B000AF0346FB7197F90730002BA3
:105050000CDBFB7903F01F02074997F907305B0966
:10506000012000FA02F2603341F8232000BF0C3720
:10507000BD465DF8047B704700E100E080B483B07A
:1050800000AF03463960FB7197F90730002B0ADB4C
:105090003B68DAB20C4997F907301201D2B20B44DF
:1050A00083F800230AE03B68DAB20849FB7903F091
:1050B0000F03043B1201D2B20B441A7600BF0C3727
:1050C000BD465DF8047B704700E100E000ED00E0C4
:1050D00080B489B000AFF860B9607A60FB6803F013
:1050E0000703FB61FB69C3F10703042B28BF0423FB
:1050F000BB61FB690433062B02D9FB69033B00E06B
:1051000000237B614FF0FF32BB6902FA03F3DA43FD
:10511000BB681A407B699A404FF0FF317B6901FA06
:1051200003F3D9437B680B40134318462437BD462D
:105130005DF8047B7047000080B582B000AF7860F6
:105140007B68013BB3F1807F01D301230FE00A4A62
:105150007B68013B53600F214FF0FF30FFF78EFF5C
:10516000054B00229A60044B07221A600023184660
:105170000837BD4680BD00BF10E000E080B582B0BA
:1051800000AF78607868FFF7C9FE00BF0837BD46FA
:1051900080BD80B586B000AF0346B9607A60FB730E
:1051A000FFF7E0FE78617A68B9687869FFF790FFE9
:1051B000024697F90F3011461846FFF75FFF00BF10
:1051C0001837BD4680BD80B582B000AF0346FB7185
:1051D00097F907301846FFF7D3FE00BF0837BD46E2
:1051E00080BD80B582B000AF0346FB7197F90730F0
:1051F0001846FFF7E3FE00BF0837BD4680BD80B507
:1052000082B000AF78607868FFF796FF03461846D3
:105210000837BD4680BD80B582B000AF0346FB7144
:1052200097F907301846FFF7EDFE00BF0837BD4677
:1052300080BD80B582B000AF0346FB7197F907309F
:105240001846FFF7FDFE00BF0837BD4680BD0000D1
:1052500080B584B000AF78607B68002B01D101235A
:1052600078E07B681B681A463C4B13443C4AA2FB1F
:1052700003231B099A007B685A647B68394A1A64C5
:105280007B68022283F825207B681B681B68FB6013
:10529000FB6823F4FF4323F07003FB607B689A688C
:1052A0007B68DB681A437B681B691A437B685B6910
:1052B0001A437B689B691A437B68DB691A437B68E6
:1052C0001B6A1343FA681343FB607B681B68FA6828
:1052D0001A60786800F06EFA7B689B68B3F5804FBF
:1052E00002D17B6800225A607B685A687B689B6C9D
:1052F00002F03F021A607B68DB6C7A68126D5A60BC
:105300007B685B68002B10D07B685B68042B0CD833
:10531000786800F07BFA7B685B6D00221A607B681E
:105320009B6D7A68D26D5A6008E07B6800225A65EE
:105330007B6800229A657B680022DA657B68002220
:10534000DA637B68012283F825207B68002283F8DA
:105350002420002318461037BD4680BDF8FFFDBF4E
:10536000CDCCCCCC0000024080B586B000AFF86058
:10537000B9607A603B600023FB75FB6893F82430CA
:10538000012B01D1022366E0FB68012283F824206F
:10539000FB6893F82530DBB2012B55D1FB68022264
:1053A00083F82520FB680022DA63FB681B681A6813
:1053B000FB681B6822F001021A603B687A68B968D2
:1053C000F86800F0B9F9FB681B6B002B08D0FB688C
:1053D0001B681A68FB681B6842F00E021A600FE037
:1053E000FB681B681A68FB681B6822F004021A60DD
:1053F000FB681B681A68FB681B6842F00A021A60A7
:10540000FB689B6C1B6803F48033002B07D0FB68A0
:105410009B6C1A68FB689B6C42F480721A60FB6894
:105420005B6D002B07D0FB685B6D1A68FB685B6DDA
:1054300042F480721A60FB681B681A68FB681B687C
:1054400042F001021A6005E0FB68002283F8242084
:105450000223FB75FB7D18461837BD4680BD80B41E
:1054600083B000AF78607B68002B01D101234FE04F
:105470007B6893F82530DBB2022B08D07B680422CE
:10548000DA637B68002283F82420012340E07B68F4
:105490001B681A687B681B6822F00E021A607B6822
:1054A0009B6C1A687B689B6C22F480721A607B6824
:1054B0001B681A687B681B6822F001021A607B680F
:1054C0005B6C03F01C027B681B6C012101FA02F289
:1054D0005A607B68DB6C7A68126D5A607B685B6D22
:1054E000002B0CD07B685B6D1A687B685B6D22F4C7
:1054F00080721A607B689B6D7A68D26D5A607B6897
:10550000012283F825207B68002283F824200023D1
:1055100018460C37BD465DF8047B704780B584B0F3
:1055200000AF78600023FB737B6893F82530DBB213
:10553000022B05D07B680422DA630123FB7347E06A
:105540007B681B681A687B681B6822F00E021A6071
:105550007B681B681A687B681B6822F001021A606E
:105560007B689B6C1A687B689B6C22F480721A6063
:105570007B685B6C03F01C027B681B6C012101FAE9
:1055800002F25A607B68DB6C7A68126D5A607B6845
:105590005B6D002B0CD07B685B6D1A687B685B6D64
:1055A00022F480721A607B689B6D7A68D26D5A60B3
:1055B0007B68012283F825207B68002283F8242061
:1055C0007B689B6B002B03D07B689B6B786898474C
:1055D000FB7B18461037BD4680BD80B584B000AF58
:1055E00078607B681B6C1B68FB607B681B681B68B2
:1055F000BB607B685B6C03F01C0304229A40FB6871
:105600001340002B26D0BB6803F00403002B21D0ED
:105610007B681B681B6803F02003002B07D17B68A5
:105620001B681A687B681B6822F004021A607B689A
:105630005B6C03F01C027B681B6C042101FA02F214
:105640005A607B681B6B002B71D07B681B6B786882
:1056500098476CE07B685B6C03F01C0302229A4065
:10566000FB681340002B2ED0BB6803F00203002B15
:1056700029D07B681B681B6803F02003002B0BD12B
:105680007B681B681A687B681B6822F00A021A6034
:105690007B68012283F825207B685B6C03F01C0289
:1056A0007B681B6C022101FA02F25A607B680022BF
:1056B00083F824207B68DB6A002B38D07B68DB6AA8
:1056C0007868984733E07B685B6C03F01C03082222
:1056D0009A40FB681340002B2AD0BB6803F00803F4
:1056E000002B25D07B681B681A687B681B6822F03A
:1056F0000E021A607B685B6C03F01C027B681B6CFB
:10570000012101FA02F25A607B680122DA637B68A8
:10571000012283F825207B68002283F824207B68FF
:105720005B6B002B04D07B685B6B7868984700BF8D
:1057300000BF1037BD4680BD80B485B000AFF860B3
:10574000B9607A603B60FB68DB6CFA68126D5A6086
:10575000FB685B6D002B04D0FB689B6DFA68D26D13
:105760005A60FB685B6C03F01C02FB681B6C012138
:1057700001FA02F25A60FB681B683A685A60FB68DB
:105780009B68102B08D1FB681B687A689A60FB68DD
:105790001B68BA68DA6007E0FB681B68BA689A6041
:1057A000FB681B687A68DA6000BF1437BD465DF895
:1057B000047B704780B485B000AF78607B685B6C19
:1057C0009B089B0003F1804303F502337A689364DE
:1057D0007B681B68DBB2083B0A4AA2FB03231B0958
:1057E000FB607B68084ADA64FB6803F01F03012250
:1057F0009A407B681A6500BF1437BD465DF8047B8C
:10580000704700BFCDCCCCCC8008024080B485B0BE
:1058100000AF78607B685B6803F03F03FB60FA6869
:105820000B4B13449B001A467B685A657B68094AF8
:105830009A65FB68013B03F0030301229A407B68F1
:10584000DA6500BF1437BD465DF8047B704700BFC2
:105850003F8200104009024080B487B000AFF8607A
:105860000B467A60FB720023FB75FB7A002B03D199
:10587000FB687A685A6002E00123FB7500BFFB7D7C
:1058800018461C37BD465DF8047B704780B483B072
:1058900000AF786039607B68002B01D1012303E001
:1058A0007B683A681A60002318460C37BD465DF8DD
:1058B000047B704780B487B000AF78607B681B685A
:1058C0001B0C03F001037B617B681B6803F01F0363
:1058D000012202FA03F33B617B695B0103F1B043F0
:1058E00003F60803FB60FB683A691A6000BF1C37C7
:1058F000BD465DF8047B704780B487B000AF786028
:10590000396000237B6146E13B681A6801217B69AD
:1059100001FA03F31340FB60FB68002B00F03881B1
:105920003B685B6803F00303012B05D03B685B68B1
:1059300003F00303022B30D17B689B683B617B69DA
:105940005B00032202FA03F3DB433A6913403B6135
:105950003B68DA687B695B0002FA03F33A69134338
:105960003B617B683A699A607B685B683B610122B6
:105970007B6902FA03F3DB433A6913403B613B68FE
:105980005B681B0903F001027B6902FA03F33A69C1
:1059900013433B617B683A695A603B685B6803F07C
:1059A0000303032B17D07B68DB683B617B695B00DB
:1059B000032202FA03F3DB433A6913403B613B687D
:1059C0009A687B695B0002FA03F33A6913433B610F
:1059D0007B683A69DA603B685B6803F00303022B7B
:1059E00023D17B69DA087B68083253F822303B61A7
:1059F0007B6903F007039B000F2202FA03F3DB43EA
:105A00003A6913403B613B681A697B6903F00703FD
:105A10009B0002FA03F33A6913433B617B69DA089E
:105A20007B680832396943F822107B681B683B6148
:105A30007B695B00032202FA03F3DB433A691340FC
:105A40003B613B685B6803F003027B695B0002FA21
:105A500003F33A6913433B617B683A691A603B6818
:105A60005B6803F44033002B00F09280514A7B695D
:105A70009B08023352F823303B617B6903F0030338
:105A80009B000F2202FA03F3DB433A6913403B61A8
:105A90007B68B3F1904F13D07B68474A93420DD097
:105AA0007B68464A934207D07B68454A934201D1BE
:105AB000042306E0072304E0022302E0012300E0C0
:105AC00000237A6902F00302920093403A6913437B
:105AD0003B6138497B699B0802333A6941F82320CE
