:020000040800F2
:10000000003000206D240008E1220008E7220008EB
:10001000ED220008F3220008F92200080000000089
:10002000000000000000000000000000FF220008A7
:100030000D230008000000001B23000829230008EE
:10004000C1240008C1240008C12400083523000889
:10005000C1240008C1240008C1240008C1240008EC
:10006000C1240008C12400084123000851230008CE
:10007000C1240008C1240008C1240008C1240008CC
:10008000C1240008C1240008652300080000000006
:1000900000000000C1240008C124000879230008E2
:1000A000C1240008C1240008C1240008C12400089C
:1000B000C1240008C1240008C1240008C12400088C
:1000C0000000000000000000C12400080000000043
:1000D000C1240008C124000800000000C124000859
:1000E000C1240008C124000800000000C124000849
:1000F000932300089F230008AB230008C1240008B5
:10010000C124000800000000000000000000000002
:10011000C1240008C1240008C12400080000000018
:1001200000000000000000000000000000000000CF
:0C0130000000000000000000C1240008D6
:10013C0010B5054C237833B9044B13B10448AFF315
:10014C0000800123237010BD70000020000000000F
:10015C00F49F000808B5034B1BB103490348AFF3E8
:10016C00008008BD0000000074000020F49F00080F
:10017C00034613F8012B002AFBD1181A01387047DB
:10018C0084B080B582B002AF07F1080C8CE80F0088
:10019C00144B00221A7097F85C3099B264230093C8
:1001AC000123104A07F1080004F0AAFA97F85C3012
:1001BC0099B26423009302230A4A07F1080004F061
:1001CC00B7FB084B1B781B021AB2064B5B781BB2B1
:1001DC0013431BB29BB21846BD46BDE8804004B029
:1001EC00704700BF8C00002084B080B582B002AF95
:1001FC0007F1080C8CE80F000D4B01221A700C4A09
:10020C0097F85C3053700A4A97F86030937097F8FF
:10021C00643099B2642300930323054A07F1080064
:10022C0004F06EFA00BFBD46BDE8804004B07047D4
:10023C0090000020B0B588B000AF154B1A88154B54
:10024C009A80154B1A88134BDA80144B1A88114B71
:10025C001A81134B1A880F4B5A81124B1A880D4B6B
:10026C009A81114B3C1D1D460FCD0FC495E807001C
:10027C0003C422800234130C237008F0ABFB3B1D2B
:10028C00184607F03CFE00BF2037BD46B0BD00BF8E
:10029C0004000020E80103200600002008000020D4
:1002AC000A0000200C0000200CA0000880B400AF55
:1002BC00054BDB69044A43F40043D36100BFBD46E0
:1002CC005DF8047B704700BF0004005880B483B015
:1002DC0000AF7860064BDB6923F0700204497B6841
:1002EC001343CB6100BF0C37BD465DF8047B7047F0
:1002FC000004005880B487B000AF7860184B1B68BE
:10030C001B0A03F00F03FB60FB68002B08D1154B95
:10031C00DB6923F00F0213497B681343CB6119E0AF
:10032C00FB68063B3B617B683A6913447B617B69E4
:10033C00002B02DA00237B6104E07B690F2B01DDCB
:10034C000F237B61074BDB6923F00F027B690549A7
:10035C001343CB6100BF1C37BD465DF8047B70476F
:10036C005875FF1F0004005880B483B000AF78604C
:10037C00074BD3F8803023F0070205497B68134301
:10038C00C1F8803000BF0C37BD465DF8047B704768
:10039C000004005880B483B000AF7860064BD3F8EB
:1003AC00902005497B681343C1F8903000BF0C378F
:1003BC00BD465DF8047B70470008005880B483B0DC
:1003CC0000AF78604FF0B0430A4AC3F89C204FF05E
:1003DC00B043D3F89C3023F47C527B681B024FF063
:1003EC00B0411343C1F89C3000BF0C37BD465DF8DB
:1003FC00047B7047FECAFECA80B483B000AF78603D
:10040C004FF0B0439B6823F400424FF0B0417B683F
:10041C0013438B6000BF0C37BD465DF8047B7047FF
:10042C0080B400AF4FF0B043D3F890304FF0B042EF
:10043C0043F48033C2F8903000BFBD465DF8047BB6
:10044C00704780B400AF4FF0B043D3F890304FF00A
:10045C00B04223F48033C2F8903000BFBD465DF843
:10046C00047B704780B400AF4FF0B043D3F89430A6
:10047C0003F08063B3F1806F01D1012300E000230E
:10048C001846BD465DF8047B704780B400AF4FF052
:10049C00B043D3F8943003F08053B3F1805F01D1B3
:1004AC00012300E000231846BD465DF8047B70472D
:1004BC0080B485B000AF78604FF0B0431A6D4FF048
:1004CC00B0417B6813430B654FF0B0431A6D7B68EA
:1004DC001340FB60FB6800BF1437BD465DF8047B1E
:1004EC007047000080B400AF044B1B68C3F30B03D0
:1004FC001846BD465DF8047B704700BF002004E041
:10050C0080B400AF044B1B681B0C9BB21846BD4655
:10051C005DF8047B704700BF002004E080B483B01A
:10052C0000AF786039607B685A683B681B041A43DB
:10053C007B685A6000BF0C37BD465DF8047B704782
:10054C0080B483B000AF786039607B685A683B68D0
:10055C001A437B685A6000BF0C37BD465DF8047BBC
:10056C00704780B483B000AF786039607B685A699B
:10057C003B681B041A437B685A6100BF0C37BD46AD
:10058C005DF8047B704780B483B000AF786039604D
:10059C007B685A693B681A437B685A6100BF0C3709
:1005AC00BD465DF8047B704780B483B000AF7860C3
:1005BC0039607B683A689A6000BF0C37BD465DF8BD
:1005CC00047B704780B483B000AF786039607B687F
:1005DC003A689A6100BF0C37BD465DF8047B7047E2
:1005EC0080B483B000AF78607B68FF225A6200BF92
:1005FC000C37BD465DF8047B704780B483B000AF08
:10060C0078607B68CA225A627B6853225A6200BFA8
:10061C000C37BD465DF8047B704780B483B000AFE7
:10062C00786039607B689B6823F007023B681A434B
:10063C007B689A6000BF0C37BD465DF8047B704741
:10064C0080B500AF044B4FF400421A6100F029F85A
:10065C0000F068F800BF80BD0040005880B500AFC6
:10066C0000F074F800F08CF80349002000F0B4FDA1
:10067C0000F096F800BF80BD7802002080B500AF76
:10068C000020FFF723FE0420FFF734FEFFF70EFED9
:10069C0000BF80BD80B500AF5020FFF77BFE00BFD0
:1006AC0080BD80B500AF00F004F800F019F800BF71
:1006BC0080BD80B500AFFFF7D5FE0346002B0DD0F3
:1006CC00FFF7E3FE0346002B08D104F0D7FD04F03E
:1006DC00D5FDFFF7A5FEFFF7B4FE00BF00BF80BD40
:1006EC0080B500AF4FF48010FFF7E2FE3F210C48BD
:1006FC00FFF75AFF3F210A48FFF764FF3F210848E4
:10070C00FFF70CFF3F210648FFF72BFF3F21044862
:10071C00FFF716FF3F210248FFF735FF00BF80BDF2
:10072C00000C005880B582B000AF002008F0DEF954
:10073C0078607B68002B05D07B689B791846FFF7A7
:10074C003DFE00BF00BF0837BD4680BD80B500AF81
:10075C00FFF794FFFFF79EFF00F002F800BF80BD8B
:10076C0080B500AF0548FFF748FF00210348FFF7AD
:10077C0054FF0248FFF734FF00BF80BD0028004043
:10078C0080B500AF4FF40040FFF736FE09F03CF99E
:10079C000420FFF7E9FD04F0A9FD00BF80BD0000B7
:1007AC0080B588B000AF07F05FFF114A0021102020
:1007BC0009F09EFA0F4B3B600F4B7B603B46194692
:1007CC000E4807F013FE0E4BBB600E4BFB600E4B3E
:1007DC003B6140F23C537B6107F10803184608F07B
:1007EC0085F807F03BFF00BF2037BD4680BD00BF3A
:1007FC003184000834070320190800083108000868
:10080C004C09032040080320F801032080B483B076
:10081C0000AF0346FB7100BF0C37BD465DF8047B8F
:10082C007047000080B588B000AF78607B685B686B
:10083C000B33FB61FB691B889BB2A3F51243072B9F
:10084C001FD801A252F823F0750800088708000889
:10085C008F0800088F0800088F0800088F08000810
:10086C008F0800088F08000807F10C03184607F0E2
:10087C0073FB786800F01BF804E0786800F006F869
:10088C0000E000BF00BF2037BD4680BD80B485B0FE
:10089C0000AF78607B685B680B33FB60FB680233EE
:1008AC00BB6000BF1437BD465DF8047B704780B554
:1008BC008AB000AF786007F1080300221A605A6012
:1008CC009A60DA6000237B6200233B627B685B6882
:1008DC000B33FB61FB690233BB61BB691B78002BDB
:1008EC001DD1FFF7A7FC0F233B727F23BB72FFF7D1
:1008FC0007FE78627B6A9BB2BB82FFF7F3FD38621E
:10090C003B6A9BB2FB8207F10803184607F00EFB0B
:10091C0008F00CFA0021012009F088F807E0BB6907
:10092C001B78012B03D17B6800221A7000BF00BF1B
:10093C002837BD4680BD80B500AF4FF0FF3009F0C1
:10094C00DBF800BF80BD80B500AF09F09FF800BF99
:10095C0080BD80B582B000AF786039604FF0FF3059
:10096C0009F0CAF800BF0837BD4680BD80B582B01B
:10097C0000AF78600021102009F0DCF900BF0837C7
:10098C00BD4680BD80B582B000AF7860022009F012
:10099C003DFA00BF0837BD4680BD80B582B000AFC0
:1009AC007860022009F052FA00BF0837BD4680BDBE
:1009BC0080B483B000AF7860064BD3F88020054933
:1009CC007B681343C1F8803000BF0C37BD465DF81F
:1009DC00047B70470008005880B483B000AF786087
:1009EC00054B1A6804497B6813430B6000BF0C3736
:1009FC00BD465DF8047B70470008005880B483B096
:100A0C0000AF0D4B9B6A9BB27B600B4B9B6A9BB2FE
:100A1C003B6005E03B687B60074B9B6A9BB23B608D
:100A2C007A683B689A42F5D13B6818460C37BD464C
:100A3C005DF8047B704700BF0028004080B485B08F
:100A4C0000AF03460A46FB711346BB71BA791D49C8
:100A5C0013465B001344DB000B4415331B78FB730C
:100A6C00FB7B062B09D0FA7B164913465B0013441B
:100A7C00DB000B441433FA791A70FA7911491346D6
:100A8C005B001344DB000B441533FA7B1A70FA79C4
:100A9C000C4913465B001344DB000B441433BA7946
:100AAC001A70BA79074913465B001344DB000B44F8
:100ABC001533FA791A7000BF1437BD465DF8047B04
:100ACC00704700BF9400002080B485B000AF03468F
:100ADC000A46FB711346BB71294B1B78DBB2BA7902
:100AEC009A4232D0BA79274913465B001344DB0093
:100AFC000B4414331B78FB73FA7B224913465B00BF
:100B0C001344DB000B441533FA791A70FA791D493A
:100B1C0013465B001344DB000B441533BA791A708F
:100B2C00FA79184913465B001344DB000B44143369
:100B3C00FA7B1A70BA79134913465B001344DB0035
:100B4C000B441433FA791A7014E0FA790D491346F0
:100B5C005B001344DB000B441533BA791A70BA7975
:100B6C00084913465B001344DB000B441433FA7939
:100B7C001A7000BF1437BD465DF8047B704700BF88
:100B8C00240100209400002080B584B000AF0346FF
:100B9C00FB714E4B1B78DBB2062B18D14B4B1B78E1
:100BAC00DAB24B4B1A70494AFB791370FA794949FE
:100BBC0013465B001344DB000B44153306221A70FA
:100BCC00454B4FF0FF321A600023FB8178E000F0B8
:100BDC0009F90346FB81FA793E4913465B0013443D
:100BEC00DB000B4408331968FB89FA79194439483E
:100BFC0013465B001344DB00034408331960FA7995
:100C0C00344913465B001344DB000B4408331B6868
:100C1C00BB602E4B1B78DBB219462E4A0B465B0091
:100C2C000B44DB00134408331B68BA689A4237D371
:100C3C00264B1B787B737A7B264913465B00134447
:100C4C00DB000B4415331B783B7313E07A7B214993
:100C5C0013465B001344DB000B4415331B787B738A
:100C6C007A7B1C4913465B001344DB000B441533A1
:100C7C001B783B733B7B062B0BD03A7B15491346F9
:100C8C005B001344DB000B4408331B68BA689A42C0
:100C9C00DCD27A7BFB7911461846FFF7CFFE0FE0CA
:100CAC000A4B1B78DAB2FB7911461846FFF70CFF9A
:100CBC00064B1B78DAB2064B1A70044AFB79137098
:100CCC00FB8918461037BD4680BD00BF24010020AB
:100CDC0025010020940000202801002080B485B05C
:100CEC0000AF03460A46FB711346BB71394B1B78A8
:100CFC00DBB2FA799A4211D1364B1B78DAB2364B09
:100D0C001A70FA79354913465B001344DB000B4427
:100D1C0015331B78DAB22F4B1A703EE0FA792F4953
:100D2C0013465B001344DB000B4414331B78FB733A
:100D3C00FA792A4913465B001344DB000B44153344
:100D4C001B78BB73F979FA7B24480B465B000B4488
:100D5C00DB00034415331B78D8B2204913465B00E3
:100D6C001344DB000B44153302461A70BB7B062B75
:100D7C0013D0F979BA7B19480B465B000B44DB00A6
:100D8C00034414331B78D8B2144913465B00134444
:100D9C00DB000B44143302461A70FA790F491346E0
:100DAC005B001344DB000B440C3301221A70094B1B
:100DBC001B78DBB2062B07D1BB79002B04D1084B77
:100DCC004FF0FF321A6000BF00BF1437BD465DF80C
:100DDC00047B704724010020250100209400002092
:100DEC002801002080B582B000AF1A4B1B68B3F10C
:100DFC00FF3F26D0FFF702FE7860164B1B687A681F
:100E0C009A4205D8134B1A687B68D31A7B600AE0A8
:100E1C00114B1B881A467B68D31A3B600D4B1B6821
:100E2C003A6813447B600D4B1B781A467B6802FBB7
:100E3C0003F37B600A4B1B781A467B68D3407B60BC
:100E4C0001E000237B607B689BB218460837BD46E7
:100E5C0080BD00BF28010020300100202E010020A1
:100E6C002D01002080B582B000AF0346FB80FB88CB
:100E7C00002B08D1FFF7C2FD0346214A1360032063
:100E8C0002F02BFE39E0FB88012B03D81D4B1B789D
:100E9C00012B02D0FB88013BFB8000BF1A4B1B6867
:100EAC00DB6803F00403002BF8D0174B1B68DB68DE
:100EBC00DAB2154B1B6862F49062DA60134B4FF494
:100ECC000022DA60032002F016FE114B5B691B0C4A
:100EDC001B04FA880E4913434B61FFF78FFD034641
:100EEC00074A1360084B1B689A68074B1B6842F44F
:100EFC0080629A60AFF3008000BF0837BD4680BDAA
:100F0C00280100202D010020780200200008005844
:100F1C000028004080B584B000AF454B9B6803F4BB
:100F2C008063B3F5806F07D100BF424B1B68DB6851
:100F3C0003F00403002BF8D13E4B1B689A683D4B21
:100F4C001B6822F480629A603B4B1B78FB73FA7B24
:100F5C003A4913465B001344DB000B4408331B680F
:100F6C00BB60FFF73FFF0346FB80FB88BA689A42E1
:100F7C0005D20023BB81324B01221A704DE0FB8855
:100F8C00304A128892B213441A46BB68934206D96F
:100F9C002C4B1B88BB812A4B00221A703DE0BB688E
:100FAC009AB2FB88D31ABB81254B01221A7034E00C
:100FBC00FA7B224913465B001344DB000B440833D5
:100FCC001A68FB889A420AD2FA7B1C4913465B00CA
:100FDC001344DB000B44083300221A6013E0FA7B45
:100FEC00164913465B001344DB000B4408331968A5
:100FFC00FB88FA7BC91A114813465B001344DB00CB
:10100C00034408331960FA7B0C4913465B00134404
:10101C00DB000B4415331B78FB73FB7B062BC7D112
:10102C00BB891846FFF71EFF00BF1037BD4680BDB9
:10103C0000280040780200202401002094000020A9
:10104C002C0100203201002080B58AB000AFEFF3F4
:10105C0010837B617B697B6272B600BF594B1B6846
:10106C00CA225A62574B1B6853225A62554B1B6853
:10107C009A68544B1B6822F480629A60524B1B781E
:10108C0087F8233097F82320504913465B0013440C
:10109C00DB000B440C331B78DBB2022B6ED197F8C0
:1010AC0023204A4913465B001344DB000B441B68A6
:1010BC00FB6197F82320454913465B001344DB0082
:1010CC000B4410331B68BB61414B1B78DBB2002B0C
:1010DC004CD097F823203D4913465B001344DB00AA
:1010EC000B440D331B78DBB2012B24D197F8233042
:1010FC0001211846FFF7F2FD7B6A3B613B6983F3E4
:10110C00108800BF97F82320304913465B00134426
:10111C00DB000B4404331A6897F823301146184649
:10112C0000F0B8F9274B1B68CA225A62254B1B6882
:10113C0053225A6212E07B6AFB60FB6883F31088CF
:10114C0000BF97F82330184600F020F91D4B1B68A0
:10115C00CA225A621B4B1B6853225A6297F82330DF
:10116C00FA691946B86900F01BFA22E0FFF7D2FEC3
:10117C007B6ABB60BB6883F310881AE000BF114B1D
:10118C001B68DB6803F00403002BF8D00D4B1B68C5
:10119C00DB68DAB20B4B1B6862F49062DA600D4BC1
:1011AC004FF40022DA607B6A7B607B6883F31088E3
:1011BC0000BF044B1B68FF225A6200BF2837BD4694
:1011CC0080BD00BF78020020240100209400002084
:1011DC002C0100200008005880B588B000AF0346F1
:1011EC003960FB715E4B1B68CA225A625C4B1B68F0
:1011FC0053225A625B4B9B685A4A43F0200393601C
:10120C00584B9B68DBB203F00703DBB2C3F104035A
:10121C00DAB2554B1A70534B1B6903F4FE034FF4AF
:10122C00FE023A613A6992FAA2F2FA60FA687A61BD
:10123C007A69002A01D1202203E07A69B2FA82F29B
:10124C00D2B2D340DBB20133DAB2484B1A70454B01
:10125C001B699BB2C3F30E039BB201339AB2444B8E
:10126C001A80434B1B88013B404A127802FB03F364
:10127C00A3F5A0733C4A1278D340BB61BB694FF60F
:10128C00FE72934204D93B4B4FF6FF721A8003E077
:10129C00BB699AB2374B1A804FF40020FFF79CFBC6
:1012AC004FF40020FFF784FBFB79002B3DD1324B30
:1012BC0001221A70314B4FF0FF321A600023FB777A
:1012CC000CE0FA7F2E4913465B001344DB000B4401
:1012DC000C3300221A70FB7F0133FB77FB7F052B4D
:1012EC00EFD9284B06221A701D4B1B689A681C4BB1
:1012FC001B6822F480629A60194B1B68DB68DAB2B7
:10130C00174B1B6862F49062DA601F4B4FF400229B
:10131C00DA60032002F0EFFB114B1B689A68104B4C
:10132C001B6842F480429A6009E00D4B1B68DB6835
:10133C0003F48063002B02D0032002F0CEFB084B99
:10134C001B68FF225A6200220321032002F083FB58
:10135C00032002F09AFB00BF2037BD4680BD00BFC2
:10136C0078020020002800402D0100202E010020D2
:10137C0030010020320100202C0100202801002027
:10138C0094000020240100200008005880B586B08D
:10139C0000AF0346FB71EFF31083FB60FB687B61CE
:1013AC0072B600BF032002F07EFB344B1B68CA22CE
:1013BC005A62324B1B6853225A62FA7930491346EF
:1013CC005B001344DB000B440C331B78DBB2022BA9
:1013DC0042D1FB7900211846FFF780FC294B1B7882
:1013EC00FB74FB7C062B2FD1274B9B6803F480638B
:1013FC00B3F5806F07D100BF204B1B68DB6803F08F
:10140C000403002BF8D11D4B1B689A681B4B1B68FF
:10141C0022F480629A6000BF184B1B68DB6803F0F3
:10142C000403002BF8D0154B1B68DB68DAB2134BA6
:10143C001B6862F49062DA60144B4FF40022DA609D
:10144C00032002F058FB07E0114B1B78DBB2FA7C4F
:10145C009A4201D0FFF75EFD084B1B68FF225A62CF
:10146C00032002F012FB7B69BB60BB6883F310881E
:10147C0000BF00BF1837BD4680BD00BF78020020FA
:10148C00940000202401002000280040000800588F
:10149C002501002080B586B000AF03463960FB7192
:1014AC00FA793B4913465B001344DB000B440C33C5
:1014BC001B78DBB2022B03D1FB791846FFF766FFD2
:1014CC00EFF31083FB60FB687B6172B600BF0320F7
:1014DC0002F0E9FA2F4B1B68CA225A622D4B1B688B
:1014EC0053225A62FA792A4913465B001344DB00F3
:1014FC000B440C3302221A70FA79254913465B000F
:10150C001344DB000B4408333A681A60FA7920491B
:10151C0013465B001344DB000B4404333A681A6037
:10152C00FB791846FFF730FB03467B821A4B1B787E
:10153C007B741A4B1B78DBB27A7C9A4202D0FFF791
:10154C00E9FC13E0FA79124913465B001344DB0003
:10155C000B44083319687B8AFA79C91A0C4813466C
:10156C005B001344DB00034408331960094B1B6810
:10157C00FF225A62032002F088FA7B69BB60BB68C9
:10158C0083F3108800BF00BF1837BD4680BD00BF75
:10159C009400002078020020240100202501002066
:1015AC0080B584B000AFF8600B467A60FB727B6844
:1015BC00984700BF1037BD4680BD80B483B000AFE4
:1015CC0078604FF0B043D3F8903023F018024FF00E
:1015DC00B0417B681343C1F8903000BF0C37BD4657
:1015EC005DF8047B704780B485B000AF78604FF035
:1015FC00B0439A6C4FF0B0417B6813438B644FF04F
:10160C00B0439A6C7B681340FB60FB6800BF1437D7
:10161C00BD465DF8047B704780B485B000AF786040
:10162C004FF0B043DA6C4FF0B0417B681343CB649E
:10163C004FF0B043DA6C7B681340FB60FB6800BF73
:10164C001437BD465DF8047B7047000080B582B04E
:10165C0000AF00237B6008E0214A7B684FF4805187
:10166C0022F813107B6801337B607B683F2BF3D926
:10167C0000F022FFFEF7E4FF00F038F800F082F8EB
:10168C0000F040F900F018FA00F004FA00F056F9F6
:10169C0000F0F8F800F096F800F084F900F046F944
:1016AC000021104801F090FF0346002B01D000F000
:1016BC00B7FA40220A490B4801F08AFA0346002B7C
:1016CC0001D000F0ADFA084805F0C8FB0346002B2A
:1016DC0001D000F0A5FAFEF7C1FFFFF72CF9FCE7EB
:1016EC00E8020020340100209C02002080B598B054
:1016FC0000AF07F11C0344220021184608F03AFC05
:10170C003B4600221A605A609A60DA601A615A618C
:10171C009A6103F0B3FD0020FFF74FFF0723FB6135
:10172C004FF480333B6201237B624FF48073BB62C6
:10173C004023FB6200237B6407F11C03184604F072
:10174C005BF90346002B01D000F06AFA6F233B6073
:10175C0002237B608023BB600023FB6000233B6182
:10176C0000237B610023BB613B460121184604F03A
:10177C0079FC0346002B01D000F052FA00BF603711
:10178C00BD4680BD80B58CB000AF3B4630220021F9
:10179C00184608F0EFFB4FF440533B604FF4804386
:1017AC007B620023BB621023FB623B46184604F0AD
:1017BC00EFFF0346002B01D000F032FA00BF3037A8
:1017CC00BD4680BD80B584B000AF3B1D00221A60C1
:1017DC005A609A60284B294A1A60274B4FF00042F6
:1017EC005A60254B00229A60234B0022DA60224B70
:1017FC0000221A61204B04225A611F4B06225A63A5
:10180C001D4B00229A631C4B00221A761A4B0022A5
:10181C009A76194B0122DA61174B002283F82020AB
:10182C00154B4FF490625A62134B4FF480629A62DC
:10183C00114B002283F82C200F4B4FF480521A636B
:10184C000D4801F043F80346002B01D000F0E8F9F5
:10185C000B4B7B600023BB600023FB603B1D1946D8
:10186C00054801F067FB0346002B01D000F0D8F9C6
:10187C0000BF1037BD4680BD34010020002401405C
:10188C002000001480B500AF1B4B1C4A1A601A4B89
:10189C001B4A5A60184B00229A60174B0122DA60DF
:1018AC00154B00221A61144B00225A61124B002274
:1018BC009A61114B0022DA610F4B00221A620E481A
:1018CC0002F082FE0346002B01D000F0A9F90021A2
:1018DC00094803F0B5FB0346002B01D000F0A0F93A
:1018EC000021054803F0F7FB0346002B01D000F064
:1018FC0097F900BF80BD00BFE801002000540040F4
:10190C005B3D300080B500AF064B074A1A600548B6
:10191C0003F02EFC0346002B01D000F081F900BF30
:10192C0080BD00BF3C020020000C005880B400AF0A
:10193C0000BFBD465DF8047B7047000080B500AF6A
:10194C00164B174A1A60154B00225A60134B0F2284
:10195C009A60124B47F6FF72DA60104B00221A6144
:10196C000E4B00229A610D4B00225A610B4805F078
:10197C0005F80346002B01D000F052F900224FF677
:10198C00FF71064805F0FAF80346002B01D000F071
:10199C0047F9024805F0AEF900BF80BD780200207F
:1019AC000028004080B58AB000AF07F11003002278
:1019BC001A605A609A60DA603B1D00221A605A6005
:1019CC009A60314B1B68B3F57A4F09D32E4B1B68C9
:1019DC0003F5FA432D4AA2FB03231B0B013B00E04A
:1019EC0000237B62284B1A687B6A0133B2FBF3F34A
:1019FC00092B0BD9244B19687B6A5A1C13469B0084
:101A0C0013445B00B1FBF3F3013B00E000233B62AA
:101A1C001F4B4FF080421A601D4A7B6A53601C4B6F
:101A2C0000229A601A4A3B6AD360194B00221A6151
:101A3C00174B00229A61164805F0B9F90346002BA2
:101A4C0001D000F0EDF84FF480533B6107F1100327
:101A5C0019460F4805F048FA0346002B01D000F058
:101A6C00DFF820237B600023FB603B1D19460848F0
:101A7C0005F0F0FB0346002B01D000F0D1F800BFBD
:101A8C002837BD4680BD00BF10000020D34D62102A
:101A9C009C02002080B500AF0420FFF7A4FD0120BC
:101AAC00FFF7A1FD002200210B2001F0D4FF0B2039
:101ABC0001F0EBFF00BF80BD80B586B000AF3B1DD1
:101ACC0000221A605A609A60DA601A610420FFF7EB
:101ADC00A3FD8020FFF7A0FD0220FFF79DFD012054
:101AEC00FFF79AFD1020FFF797FD08237B60032377
:101AFC00BB600023FB603B1D1946234802F0C0FB72
:101B0C004FF6FE737B600323BB600023FB603B1D21
:101B1C0019464FF0904002F0B3FB0F237B60032378
:101B2C00BB600023FB603B1D1946184802F0A8FB64
:101B3C0010237B600323BB600023FB603B1D194615
:101B4C00134802F09DFBF0237B604FF40413BB6041
:101B5C000023FB603B1D19460C4802F091FB002250
:101B6C000F210A2001F077FF0A2001F08EFF0022DE
:101B7C000F21172001F06FFF172001F086FF00BF27
:101B8C001837BD4680BD00BF001C0048000400484B
:101B9C000010004880B582B000AF0346FB80FB8884
:101BAC00102B0BD1FFF7A2FD00F01CFD1B4B0122EB
:101BBC001A700021082008F0BDF82BE0FB88202BC0
:101BCC000BD1FFF793FD00F00DFD144B02221A70A0
:101BDC000021082008F0AEF81CE0FB88402B0BD14C
:101BEC00FFF784FD00F0FEFC0C4B03221A70002161
:101BFC00082008F09FF80DE0FB88802B0AD1FFF736
:101C0C0075FD00F0EFFC054B04221A700021082032
:101C1C0008F090F800BF0837BD4680BD680300206F
:101C2C0080B400AF72B600BFFEE7000080B483B092
:101C3C0000AF7860064B1B6823F0070204497B68F1
:101C4C0013430B6000BF0C37BD465DF8047B704737
:101C5C000004005880B400AF034B09229A6100BF06
:101C6C00BD465DF8047B70470004005880B400AF9B
:101C7C00074BD3F8883003F48063B3F5806F01D140
:101C8C00012300E000231846BD465DF8047B704735
:101C9C000004005880B400AF074BD3F8883003F42D
:101CAC000043B3F5004F01D1012300E00023184697
:101CBC00BD465DF8047B70470004005880B400AF4B
:101CCC004FF0B0431B684FF0B04243F48073136085
:101CDC0000BFBD465DF8047B704780B400AF4FF089
:101CEC00B0431B6803F48063B3F5806F01D101230B
:101CFC0000E000231846BD465DF8047B704780B4B5
:101D0C0083B000AF78604FF0B0439B6823F00302C0
:101D1C004FF0B0417B6813438B6000BF0C37BD465E
:101D2C005DF8047B704780B400AF4FF0B0439B6804
:101D3C0003F00C031846BD465DF8047B704780B475
:101D4C0083B000AF78604FF0B0435B6A23F00302BE
:101D5C004FF0B0417B6813434B6200BF0C37BD465C
:101D6C005DF8047B704780B400AF4FF0B043D3F8FC
:101D7C0094304FF0B04243F40003C2F8943000BFEB
:101D8C00BD465DF8047B704780B400AF054B1B6902
:101D9C00044A23F00403136100BFBD465DF8047BC5
:101DAC00704700BF00ED00E080B400AF054B1B692D
:101DBC00044A43F00403136100BFBD465DF8047B85
:101DCC00704700BF00ED00E080B483B000AF7860D6
:101DDC0039607B683A68203253F82230054A9342C6
:101DEC0001D0012300E0002318460C37BD465DF8F6
:101DFC00047B70470004008080B485B000AFF860AD
:101E0C00B9607A607B6843F48061FB68BA6843F818
:101E1C00221000BF1437BD465DF8047B704780B5B7
:101E2C0000AF00F0CFFBFFF79EFF00F035F8FFF797
:101E3C0011FF0320FFF7FAFEFFF7B6FF00BF80BDCE
:101E4C0080B400AF00BFBD465DF8047B704780B521
:101E5C0000AF00F0B7FB00F01FF80120FFF7E6FE23
:101E6C00FFF7A2FF30BF00BF80BD80B500AF00F010
:101E7C004FF800F0B7FB00BF80BD80B500AF00F09D
:101E8C00A1FBFFF781FF30BF00BF80BD80B500AF65
:101E9C0000F0A8FB00BF80BD80B500AF00BF0321E0
:101EAC001948FFF791FF0346002BF8D1042116487F
:101EBC00FFF78AFF0346002B17D1FFF7EBFE034613
:101ECC00002B04D1FFF7D2FE0346002B15D00022C5
:101EDC0004210D48FFF790FF00F034F80B4B1B6802
:101EEC000A4A23F00703136007E000F02BF8074BB6
:101EFC001B68064A23F007031360002203210248E3
:101F0C00FFF77AFF00BF80BD001400580040005856
:101F1C0080B500AF002204210948FFF76DFF00BF18
:101F2C0003210748FFF750FF0346002BF8D1FFF7BA
:101F3C00FAFE002203210248FFF75EFF00BF80BDBE
:101F4C000014005880B500AFFFF7B8FE00BFFFF7D4
:101F5C00C4FE0346002BFAD00120FFF7D0FE002070
:101F6C00FFF7EDFE00BFFFF7DEFE0346042BFAD1B0
:101F7C0000BF80BD80B400AF4FF0B043D3F89030B9
:101F8C004FF0B04243F40043C2F8903000BFBD465E
:101F9C005DF8047B704780B485B000AF78604FF07B
:101FAC00B043DA6C4FF0B0417B681343CB644FF015
:101FBC00B043DA6C7B681340FB60FB6800BF1437DE
:101FCC00BD465DF8047B704780B485B000AF786087
:101FDC004FF0B0431A6D4FF0B0417B6813430B6563
:101FEC004FF0B0431A6D7B681340FB60FB6800BF79
:101FFC001437BD465DF8047B704780B485B000AFE4
:10200C0078604FF0B0439A6D4FF0B0417B6813434A
:10201C008B654FF0B0439A6D7B681340FB60FB6897
:10202C0000BF1437BD465DF8047B704780B485B0A3
:10203C0000AF78604FF0B0431A6E4FF0B0417B6840
:10204C0013430B664FF0B0431A6E7B681340FB6072
:10205C00FB6800BF1437BD465DF8047B704780B544
:10206C0000AF4FF40020FFF7AFFF002200212E201D
:10207C0001F0F1FC2E2001F008FD00BF80BD000036
:10208C0080B594B000AF786007F13C0300221A6071
:10209C005A609A60DA601A6107F10C033022002151
:1020AC00184607F067FF7B681B682F4A934256D18E
:1020BC004FF48063FB604FF08053BB6207F10C035D
:1020CC00184604F065FB0346002B01D0FFF7A8FD72
:1020DC004FF40070FFF7AAFF0120FFF75CFF01230C
:1020EC00FB6303233B6400237B6407F13C03194629
:1020FC004FF0904002F0C4F81C4B1D4A1A601B4B69
:10210C0005225A60194B00229A60184B0022DA60A3
:10211C00164B80221A61154B4FF480725A61134B87
:10212C004FF480629A61114B2022DA610F4B00222E
:10213C001A620E4801F0EEFC0346002B01D0FFF7AB
:10214C006FFD7B68094A1A64084A7B689362002217
:10215C000021122001F07FFC122001F096FC00BF40
:10216C005037BD4680BD00BF0024014088010020CF
:10217C000800024080B594B000AF786007F13C03D2
:10218C0000221A605A609A60DA601A6107F10C0337
:10219C0030220021184607F0EDFE7B681B68174AB9
:1021AC00934226D10423FB604FF44033BB6107F10B
:1021BC000C03184604F0ECFA0346002B01D0FFF791
:1021CC002FFD0220FFF7E7FE4FF44073FB63122351
:1021DC003B6400237B640023BB640423FB6407F192
:1021EC003C031946064802F04BF84FF40010FFF779
:1021FC0004FF00BF5037BD4680BD00BF00540040F7
:10220C000004004880B582B000AF78607B681B6822
:10221C000D4A934213D14FF48010FFF7D5FE0022E4
:10222C0000212C2001F017FC2C2001F02EFC0022A8
:10223C0000212D2001F00FFC2D2001F026FC00BF09
:10224C000837BD4680BD00BF000C005880B58EB06D
:10225C0000AF786007F1080330220021184607F020
:10226C0089FE7B681B68124A93421DD14FF40063B0
:10227C00BB604FF48073BB6207F10803184604F08F
:10228C0087FA0346002B01D0FFF7CAFCFFF772FE5A
:10229C004FF48060FFF7B1FE00220F21032001F004
:1022AC00DAFB032001F0F1FB00BF3837BD4680BDDF
:1022BC000028004080B582B000AF78607B681B6856
:1022CC00B3F1804F02D10120FFF797FE00BF083712
:1022DC00BD4680BD80B400AFFEE780B400AFFEE722
:1022EC0080B400AFFEE780B400AFFEE780B400AF6F
:1022FC00FEE780B400AF00BFBD465DF8047B7047BD
:10230C0080B400AF00BFBD465DF8047B704780B45D
:10231C0000AF00BFBD465DF8047B704780B500AFD1
:10232C0000F024F900BF80BD80B500AFFEF78CFE35
:10233C0000BF80BD80B500AF102002F009F900BFCE
:10234C0080BD000080B500AF024801F0EAFC00BF80
:10235C0080BD00BF8801002080B500AF024800F0AE
:10236C00ADFC00BF80BD00BF3401002080B500AFC4
:10237C00202002F0EDF8402002F0EAF8802002F074
:10238C00E7F800BF80BD80B500AF07F0FFF900BFD4
:10239C0080BD80B500AF07F02FFA00BF80BD80B5BF
:1023AC0000AF02F0EDF800BF80BD000080B400AFBC
:1023BC00224BD3F88830214A43F47003C2F888309A
:1023CC004FF0B0431B684FF0B04243F00103136071
:1023DC004FF0B0434FF4E0229A604FF0B0431A68CC
:1023EC004FF0B041164B13400B604FF0B043D3F895
:1023FC0094304FF0B04223F00503C2F894304FF004
:10240C00B043D3F898304FF0B04223F00103C2F838
:10241C0098304FF0B0430B4ADA604FF0B0431B6872
:10242C004FF0B04223F4802313604FF0B0430022EE
:10243C009A6100BFBD465DF8047B704700ED00E07B
:10244C00FBFEF6FA00100422D458C4500433C4180E
:10245C008C42F9D37047036004308842FBD3704739
:10246C000C488546FFF7A2FF0B480C490C4A002389
:10247C00FFF7EDFF0B480C490023FFF7EEFF0B486D
:10248C000B490023FFF7E9FF07F07CFDFFF7DEF8AF
:10249C00FEE7000000300020040000202400002093
:1024AC00A8A2000870000020C4040020E40103204E
:1024BC00670A0320FEE7000080B582B000AF00235E
:1024CC00FB710C4B1B680B4A43F4807313600320A5
:1024DC0001F0B6FA0F2000F00FF80346002B02D0E3
:1024EC000123FB7101E0FFF7BAFDFB7918460837B1
:1024FC00BD4680BD0040005880B584B000AF786008
:10250C000023FB73174B1B78002B24D003F056FFD2
:10251C000246144B1B7819464FF47A73B3FBF1F354
:10252C00B2FBF3F3184601F0CCFA0346002B0FD1A3
:10253C007B680F2B09D8002279684FF0FF3001F02F
:10254C008AFA094A7B68136007E00123FB7304E0F5
:10255C000123FB7301E00123FB73FB7B184610374F
:10256C00BD4680BD180000201400002080B400AFD0
:10257C00064B1B781A46064B1B681344044A13601F
:10258C0000BFBD465DF8047B704700BF18000020FB
:10259C006C03002080B400AF034B1B681846BD468B
:1025AC005DF8047B704700BF6C03002080B400AF63
:1025BC00034B1B681846BD465DF8047B704700BF93
:1025CC001400002080B400AF054B1B68044A23F0B4
:1025DC000203136000BFBD465DF8047B704700BF6B
:1025EC0010E000E080B400AF054B1B68044A43F0D8
:1025FC000203136000BFBD465DF8047B704700BF4B
:10260C0010E000E080B483B000AF786039607B6884
:10261C009B6823F0E0723B681A437B689A6000BFAA
:10262C000C37BD465DF8047B704780B483B000AFB7
:10263C0078607B689B6803F0E07318460C37BD46E6
:10264C005DF8047B704780B485B000AFF860B9606A
:10265C007A60FB685A69BB6803F00403072101FA2E
:10266C0003F3DB431A40BB6803F00403796801FAF7
:10267C0003F31A43FB685A6100BF1437BD465DF87B
:10268C00047B704780B483B000AF78607B68DB68F4
:10269C0003F44063002B01D1012300E00023184612
:1026AC000C37BD465DF8047B704780B485B000AF35
:1026BC00F860B9607A60FB689A6ABB6803F01F0324
:1026CC000F2101FA03F3DB431A407B689B0E03F0E6
:1026DC000F01BB6803F01F0301FA03F31A43FB68F5
:1026EC009A6200BF1437BD465DF8047B704780B416
:1026FC0083B000AF786039607B689A6A3B68C3F33B
:10270C0012031A437B689A6200BF0C37BD465DF812
:10271C00047B704780B483B000AF786039607B680D
:10272C009A6A3B68C3F31203DB431A407B689A62D4
:10273C0000BF0C37BD465DF8047B704780B483B096
:10274C0000AF78607B68DB6803F0030318460C3736
:10275C00BD465DF8047B704780B485B000AFF8606F
:10276C00B9607A60FB685A69BB681B02DB431A408C
:10277C00BB6819027B680B4023F0784323F0FF03FE
:10278C001A43FB685A6100BF1437BD465DF8047BE1
:10279C00704780B483B000AF78607B689B6823F08F
:1027AC00104323F0170343F080527B689A6000BFFC
:1027BC000C37BD465DF8047B704780B483B000AF26
:1027CC0078607B689B6803F08053B3F1805F01D124
:1027DC00012300E0002318460C37BD465DF8047B4E
:1027EC00704780B483B000AF78607B689B6823F03F
:1027FC00004323F0170343F001027B689A6000BF8B
:10280C000C37BD465DF8047B704780B483B000AFD5
:10281C0078607B689B6823F0004323F0170343F038
:10282C0002027B689A6000BF0C37BD465DF8047BE2
:10283C00704780B483B000AF78607B689B6803F00E
:10284C000103012B01D1012300E0002318460C37B2
:10285C00BD465DF8047B704780B483B000AF7860F0
:10286C007B689B6803F00203022B01D1012300E07B
:10287C00002318460C37BD465DF8047B704780B4C6
:10288C0083B000AF78607B689B6823F0004323F033
:10289C00170343F004027B689A6000BF0C37BD46F7
:1028AC005DF8047B704780B483B000AF78607B68C0
:1028BC009B6803F00403042B01D1012300E00023E7
:1028CC0018460C37BD465DF8047B704780B588B060
:1028DC0000AF78600023FB770023BB610023FB6013
:1028EC0000237B617B68002B01D101236BE17B68AA
:1028FC001B69002B7B689B6C002B09D17868FFF758
:10290C00BFFB7B680022DA647B68002283F84420DA
:10291C007B681B681846FFF750FF0346002B15D148
:10292C007B681B681846FFF734FF9C4B1B689B09A0
:10293C009B4AA2FB03239B0901335B00FB6002E073
:10294C00FB68013BFB60FB68002BF9D17B681B68C3
:10295C001846FFF732FF0346002B0DD17B689B6CAA
:10296C0043F010027B689A647B68DB6C43F00102D5
:10297C007B68DA640123FB777B681B681846FFF7DA
:10298C0092FF38617B689B6C03F01003002B40F0C6
:10299C0011813B69002B40F00D817B689B6C23F40B
:1029AC00817343F002027B689A647B681B6818464B
:1029BC00FFF73FFF0346002B38D17B681B68DB68B1
:1029CC0023F018017B689A687B681B680A43DA60FD
:1029DC007B685B6803F040427B68DB6B13437A696E
:1029EC0013437B617B681B681B6923F060417B6828
:1029FC001B687A690A431A617B685B68B3F1404FC4
:102A0C0014D07B685B68B3F1804F0FD07B685B6838
:102A1C00B3F1004F0AD0634B9B6823F470127B68B0
:102A2C005B6803F470135F4913438B607B681B7EF8
:102A3C009A037B685B7EDB031A437B689B7E5B039C
:102A4C0013437A68126B002A02D04FF4805200E0D4
:102A5C0000221A437B68DB681A437B681B69002BD6
:102A6C0004DA7B681B6923F0004301E04FF4001388
:102A7C001A437B6893F82C305B001343BA691343F9
:102A8C00BB617B6893F82030012B14D17B689B7E53
:102A9C00002B04D1BB6943F48033BB610BE07B6832
:102AAC009B6C43F020027B689A647B68DB6C43F080
:102ABC0001027B68DA647B685B6A002B09D07B6857
:102ACC005B6A03F4E0727B689B6A1343BA69134335
:102ADC00BB617B681B68DA68334B13407A681268F9
:102AEC00B9690B43D3607B6818687B685B6B1A46CB
:102AFC000021FFF7A8FD7B6818687B689B6B1A4662
:102B0C002A49FFF7A0FD7B681B69002B08D17B6865
:102B1C001B689A6A7B681B6862F00F029A6217E066
:102B2C007B681B69B3F5001F12D17B681B689B6A1D
:102B3C007B68DB69013B9B0003F01C036FF00F0209
:102B4C0002FA03F17B681A6D7B681B680A439A6270
:102B5C007B681B68DA68164B1340BA699A420BD132
:102B6C007B680022DA647B689B6C23F0030343F0E0
:102B7C0001027B689A6425E07B689B6C23F012034E
:102B8C0043F010027B689A647B68DB6C43F00102B3
:102B9C007B68DA640123FB7714E000BF100000208F
:102BAC00632D3E05002701401902DEFF04FFFF07DD
:102BBC00E7FF3F837B689B6C43F010027B689A6451
:102BCC000123FB77FB7F18462037BD4680BD00BF35
:102BDC0080B586B000AFF860B9607A60FB681B689E
:102BEC001846FFF760FE0346002B5AD1FB6893F89A
:102BFC004430012B01D1022356E0FB68012283F8FB
:102C0C004420F86800F0D4FA0346FB75FB7D002BDA
:102C1C0042D1FB689B6C23F4706323F0010343F4F3
:102C2C008072FB689A64FB680022DA64FB681B6C98
:102C3C001F4ADA62FB681B6C1E4A1A63FB681B6C2A
:102C4C001D4A5A63FB681B681C221A60FB68002231
:102C5C0083F84420FB681B685A68FB681B6842F0C9
:102C6C0010025A60FB681B68DA68FB681B6842F04C
:102C7C000102DA60FB68186CFB681B68403319466C
:102C8C00BA687B6800F0D2FF0346FB75FB681B68D3
:102C9C001846FFF7F4FD06E0FB68002283F8442099
:102CAC0001E00223FB75FB7D18461837BD4680BD3D
:102CBC00773300083F3400085B34000880B586B0D9
:102CCC0000AF786000237B617B681B681B683B61ED
:102CDC007B681B685B68FB603B6903F00203002B9D
:102CEC0017D0FB6803F00203002B12D07B689B6C9F
:102CFC0003F01003002B05D17B689B6C43F400623E
:102D0C007B689A64786800F061FD7B681B6802221E
:102D1C001A603B6903F00403002B04D0FB6803F03A
:102D2C000403002B09D13B6903F00803002B5DD091
:102D3C00FB6803F00803002B58D07B689B6C03F0F6
:102D4C001003002B05D17B689B6C43F400727B68ED
:102D5C009A647B681B681846FFF794FC0346002BAB
:102D6C003DD07B681B68DB6803F40053B3F5005F50
:102D7C0035D07B681B681B6803F00803082B2ED129
:102D8C007B681B681846FFF78EFD0346002B1AD193
:102D9C007B681B685A687B681B6822F00C025A60BF
:102DAC007B689B6C23F480727B689A647B689B6C59
:102DBC0003F48053002B12D17B689B6C43F001020F
:102DCC007B689A640BE07B689B6C43F010027B6819
:102DDC009A647B68DB6C43F001027B68DA64786888
:102DEC0000F080F87B681B680C221A603B6903F0CA
:102DFC008003002B11D0FB6803F08003002B0CD058
:102E0C007B689B6C43F480327B689A64786800F032
:102E1C007DF87B681B6880221A603B6903F4807321
:102E2C00002B12D0FB6803F48073002B0DD07B6851
:102E3C009B6C43F400327B689A64786800F0B2FCB7
:102E4C007B681B684FF480721A603B6903F4007353
:102E5C00002B12D0FB6803F40073002B0DD07B68A1
:102E6C009B6C43F480227B689A64786800F0A4FC25
:102E7C007B681B684FF400721A603B6903F0100307
:102E8C00002B2BD0FB6803F01003002B26D07B68A3
:102E9C001B6B002B02D101237B6109E07B681B6853
:102EAC001846FFF74BFC0346002B01D001237B6136
:102EBC007B69012B0ED17B689B6C43F480627B6831
:102ECC009A647B68DB6C43F002027B68DA64786896
:102EDC0000F026F87B681B6810221A6000BF1837B8
:102EEC00BD4680BD80B483B000AF786000BF0C37A6
:102EFC00BD465DF8047B704780B483B000AF78604A
:102F0C0000BF0C37BD465DF8047B704780B483B0BE
:102F1C0000AF786000BF0C37BD465DF8047B70478E
:102F2C0080B483B000AF786000BF0C37BD465DF84D
:102F3C00047B704780B588B000AF7860396000239F
:102F4C00FB770023BB607B681B69B3F1004F7B6888
:102F5C0093F84430012B01D1022314E17B68012248
:102F6C0083F844207B681B681846FFF79CFC0346DB
:102F7C00002B40F0FB803B685B68022B00F0B380B9
:102F8C007B681B69B3F1004F04D07B681B69804AD6
:102F9C00934208D17B681A683B681B681946104637
:102FAC00FFF7A5FB41E07B681A6D3B685B6803F09B
:102FBC001F030F2101FA03F3DB431A403B681B6824
:102FCC00C3F31203002B05D13B681B689B0E03F067
:102FDC001F0311E03B681B683B613B6993FAA3F349
:102FEC00FB60FB687B617B69002B01D1202303E034
:102FFC007B69B3FA83F3DBB23968496801F01F01CE
:10300C008B401A437B681A653B685B689B085A1CAB
:10301C007B68DB699A4208D87B6818683B685968FA
:10302C003B681B681A46FFF740FB7B6818683B68D7
:10303C0019683B689B681A46FFF78EFB3B681A6859
:10304C00544B1340002B00F099805348FFF7EDFAD6
:10305C00B8613B681B68514A934220D1BB6903F4A9
:10306C000003002B1BD1BB6943F4000319464A48EB
:10307C00FFF7C8FA4A4B1B689B094A4AA2FB032379
:10308C009B095A1C13465B0013449B00BB6002E077
:10309C00BB68013BBB60BB68002BF9D16EE03B68A1
:1030AC001B68414A93420CD1BB6903F08073002B1F
:1030BC0007D1BB6943F0807319463748FFF7A2FA72
:1030CC005CE03B681B68394A934257D1BB6903F4F7
:1030DC008003002B52D1BB6943F4800319462E4860
:1030EC00FFF790FA4AE07B681B69B3F1004F04D0FC
:1030FC007B681B69264A934207D17B681A683B6838
:10310C001B6819461046FFF705FB3B681A68214BF4
:10311C001340002B32D02048FFF787FAB8613B6888
:10312C001B681E4A934207D1BB6923F4000319465E
:10313C001948FFF767FA21E03B681B681A4A93426B
:10314C0007D1BB6923F0807319461348FFF75AFA6D
:10315C0014E03B681B68154A93420FD1BB6923F4FA
:10316C00800319460C48FFF74DFA07E07B689B6C0F
:10317C0043F020027B689A640123FB777B68002272
:10318C0083F84420FB7F18462037BD4680BD00BF26
:10319C00040000800000088000270140001000B0EF
:1031AC0010000020632D3E05004000B8002000B444
:1031BC0080B584B000AF78600023BB607B681B686F
:1031CC001846FFF736FB0346002B62D17B681B6861
:1031DC009A68324B1340002B0DD07B689B6C43F0EC
:1031EC0010027B689A647B68DB6C43F001027B689D
:1031FC00DA6401234EE07B681B681846FFF7F1FA8E
:10320C002748FFF712FA034603F40003002B0FD0F4
:10321C00244B1B689B09244AA2FB03239B09013303
:10322C00BB6002E0BB68013BBB60BB68002BF9D103
:10323C007B685B7E012B2CD0FFF7ACF9F86021E0AA
:10324C007B681B681846FFF7F4FA0346002B04D181
:10325C007B681B681846FFF7C4FAFFF79BF9024618
:10326C00FB68D31A022B0DD97B689B6C43F01002C0
:10327C007B689A647B68DB6C43F001027B68DA64E0
:10328C00012307E07B681B681B6803F00103012B1B
:10329C00D6D1002318461037BD4680BD17000080DC
:1032AC000027014010000020632D3E0580B584B03E
:1032BC0000AF78607B681B681846FFF7CDFAF860A2
:1032CC007B681B681846FFF7B4FA0346002B47D0FF
:1032DC00FB68002B44D17B681B689B6803F00503DB
:1032EC00012B0CD17B681B681846FFF78EFA7B68A4
:1032FC001B6803221A60FFF74DF9B86029E07B6860
:10330C009B6C43F010027B689A647B68DB6C43F027
:10331C0001027B68DA64012323E0FFF73BF90246E4
:10332C00BB68D31A022B14D97B681B689B6803F00B
:10333C000103002B0DD07B689B6C43F010027B6863
:10334C009A647B68DB6C43F001027B68DA640123CE
:10335C0007E07B681B689B6803F00103002BDCD142
:10336C00002318461037BD4680BD80B584B000AF31
:10337C0078607B689B6AFB60FB689B6C03F0500376
:10338C00002B43D1FB689B6C43F40072FB689A647E
:10339C00FB681B681846FFF775F90346002B31D004
:1033AC00FB689B7E002B2DD1FB681B681B6803F010
:1033BC000803082B26D1FB681B681846FFF773FA25
:1033CC000346002B12D1FB681B685A68FB681B680C
:1033DC0022F00C025A60FB689B6C23F4807323F080
:1033EC00010343F00102FB689A640BE0FB689B6CE1
:1033FC0043F02002FB689A64FB68DB6C43F001022B
:10340C00FB68DA64F868FFF76DFD0EE0FB689B6CF7
:10341C0003F01003002B03D0F868FFF781FD04E0E4
:10342C00FB681B6C5B6B7868984700BF1037BD4618
:10343C0080BD80B584B000AF78607B689B6AFB6010
:10344C00F868FFF759FD00BF1037BD4680BD80B549
:10345C0084B000AF78607B689B6AFB60FB689B6CF8
:10346C0043F04002FB689A64FB68DB6C43F0040297
:10347C00FB68DA64F868FFF753FD00BF1037BD46F0
:10348C0080BD80B483B000AF78607B689B6803F428
:10349C00701318460C37BD465DF8047B704780B43A
:1034AC0083B000AF78607B681B6903F0404318461B
:1034BC000C37BD465DF8047B704780B483B000AF19
:1034CC00786039607B68D3F8B43023F07F023B68B6
:1034DC001A437B68C3F8B42000BF0C37BD465DF8B7
:1034EC00047B704780B483B000AF78607B68D3F8FE
:1034FC00B43003F07F0318460C37BD465DF8047BEF
:10350C00704780B483B000AF78607B689B6823F011
:10351C00004323F0170343F001027B689A6000BF5D
:10352C000C37BD465DF8047B704780B483B000AFA8
:10353C0078607B689B6823F0004323F0170343F00B
:10354C0002027B689A6000BF0C37BD465DF8047BB5
:10355C00704780B483B000AF78607B689B6803F0E1
:10356C000103012B01D1012300E0002318460C3785
:10357C00BD465DF8047B704780B483B000AF7860C3
:10358C007B689B6823F0004323F0170343F0004251
:10359C007B689A6000BF0C37BD465DF8047B7047B2
:1035AC0080B483B000AF78607B689B6803F0004305
:1035BC00B3F1004F01D1012300E0002318460C3772
:1035CC00BD465DF8047B704780B58AB000AF78606B
:1035DC00396000233B620023BB607B6893F8443066
:1035EC00012B01D10223D5E07B68012283F8442012
:1035FC007868FFF75BFE0346FB77FB7F002B40F000
:10360C00BE807B689B6C23F4817343F002027B6861
:10361C009A647B681B68DA6848F203031340BB6149
:10362C007B681B68DB687A68126823F4004323F01C
:10363C000303D36000237B622EE07B681B68184673
:10364C00FFF79AFF14E0BB680133BB60BB68534AB9
:10365C0093420DD97B689B6C23F0120343F010024C
:10366C007B689A647B68002283F84420012391E0F4
:10367C007B681B681846FFF793FF0346002BE2D1CB
:10368C007B681B681846FFF72DFF02463B6A134404
:10369C003B627B6A01337B627B6A072BCDD93A6A2A
:1036AC007B6AB2FBF3F33B627B681B681846FFF73F
:1036BC0028FF7B681B681846FFF7F1FE0346002BBA
:1036CC0018D13748FFF7DDFE78617B69B3F5E01F51
:1036DC0010D37B699B0C033B012202FA03F3FB60C2
:1036EC00FB685B08FB6002E0FB68013BFB60FB686E
:1036FC00002BF9D17B681B68396A1846FFF7DDFE91
:10370C007B681B681846FFF710FFFEF743FF386114
:10371C001CE0FEF73FFF02463B69D31A022B15D97A
:10372C007B681B681846FFF714FF0346002B0DD06F
:10373C007B689B6C43F010027B689A647B68DB6C43
:10374C0043F001027B68DA64012323E07B681B6889
:10375C001846FFF7FEFE0346002BDAD17B681B6888
:10376C00D9687B681B68BA690A43DA607B689B6C12
:10377C0023F0030343F001027B689A6405E07B6845
:10378C009B6C43F010027B689A647B68002283F880
:10379C004420FB7F18462837BD4680BDAA6A02002C
:1037AC000027014080B483B000AF786000BF0C37B5
:1037BC00BD465DF8047B704780B483B000AF786081
:1037CC0000BF0C37BD465DF8047B704780B483B0F6
:1037DC0000AF786000BF0C37BD465DF8047B7047C6
:1037EC0080B485B000AF78607B6803F00703FB60A2
:1037FC000C4BDB68BB60BA684FF6FF031340BB6031
:10380C00FB681A02BB68134343F0BF6343F40033F5
:10381C00BB60044ABB68D36000BF1437BD465DF87B
:10382C00047B704700ED00E080B400AF044BDB6814
:10383C001B0A03F007031846BD465DF8047B70476E
:10384C0000ED00E080B483B000AF0346FB7197F944
:10385C000730002B0BDBFB7903F01F02074997F9AC
:10386C0007305B09012000FA02F241F8232000BF67
:10387C000C37BD465DF8047B704700BF00E100E0EB
:10388C0080B483B000AF0346FB7197F90730002B6F
:10389C0012DBFB7903F01F020A4997F907305B0929
:1038AC00012000FA02F2203341F82320BFF34F8F9E
:1038BC0000BFBFF36F8F00BF00BF0C37BD465DF874
:1038CC00047B704700E100E080B483B000AF034696
:1038DC00FB7197F90730002B0CDBFB7903F01F020F
:1038EC00074997F907305B09012000FA02F24033CF
:1038FC0041F8232000BF0C37BD465DF8047B7047B0
:10390C0000E100E080B483B000AF0346FB7197F98F
:10391C000730002B0CDBFB7903F01F02074997F9EA
:10392C0007305B09012000FA02F2603341F82320D2
:10393C0000BF0C37BD465DF8047B704700E100E02A
:10394C0080B483B000AF03463960FB7197F9073040
:10395C00002B0ADB3B68DAB20C4997F907301201ED
:10396C00D2B20B4483F800230AE03B68DAB2084970
:10397C00FB7903F00F03043B1201D2B20B441A760D
:10398C0000BF0C37BD465DF8047B704700E100E0DA
:10399C0000ED00E080B489B000AFF860B9607A60E7
:1039AC00FB6803F00703FB61FB69C3F10703042BFE
:1039BC0028BF0423BB61FB690433062B02D9FB69C6
:1039CC00033B00E000237B614FF0FF32BB6902FA3E
:1039DC0003F3DA43BB681A407B699A404FF0FF311E
:1039EC007B6901FA03F3D9437B680B4013431846F8
:1039FC002437BD465DF8047B7047000080B582B06B
:103A0C0000AF78607B68013BB3F1807F01D3012369
:103A1C000FE00A4A7B68013B53600F214FF0FF30E7
:103A2C00FFF78EFF054B00229A60044B07221A60A9
:103A3C00002318460837BD4680BD00BF10E000E0EB
:103A4C0080B582B000AF78607868FFF7C9FE00BF20
:103A5C000837BD4680BD80B586B000AF0346B9605F
:103A6C007A60FB73FFF7E0FE78617A68B968786971
:103A7C00FFF790FF024697F90F3011461846FFF7F3
:103A8C005FFF00BF1837BD4680BD80B582B000AF68
:103A9C000346FB7197F907301846FFF7D3FE00BFBA
:103AAC000837BD4680BD80B582B000AF0346FB71C0
:103ABC0097F907301846FFF7E3FE00BF0837BD46FD
:103ACC0080BD80B582B000AF78607868FFF796FF54
:103ADC00034618460837BD4680BD80B582B000AF9E
:103AEC000346FB7197F907301846FFF7EDFE00BF50
:103AFC000837BD4680BD80B582B000AF0346FB7170
:103B0C0097F907301846FFF7FDFE00BF0837BD4692
:103B1C0080BD000080B584B000AF78607B68002B5E
:103B2C0001D1012378E07B681B681A463C4B134497
:103B3C003C4AA2FB03231B099A007B685A647B68EE
:103B4C00394A1A647B68022283F825207B681B683B
:103B5C001B68FB60FB6823F4FF4323F07003FB60DE
:103B6C007B689A687B68DB681A437B681B691A431D
:103B7C007B685B691A437B689B691A437B68DB69CA
:103B8C001A437B681B6A1343FA681343FB607B6818
:103B9C001B68FA681A60786800F0B0F97B689B685B
:103BAC00B3F5804F02D17B6800225A607B685A685B
:103BBC007B689B6C02F03F021A607B68DB6C7A6856
:103BCC00126D5A607B685B68002B10D07B685B6859
:103BDC00042B0CD8786800F0BDF97B685B6D002273
:103BEC001A607B689B6D7A68D26D5A6008E07B68BE
:103BFC0000225A657B6800229A657B680022DA6590
:103C0C007B680022DA637B68012283F825207B68BD
:103C1C00002283F82420002318461037BD4680BDAF
:103C2C00F8FFFDBFCDCCCCCC0000024080B586B0F7
:103C3C0000AFF860B9607A603B600023FB75FB68ED
:103C4C0093F82430012B01D1022366E0FB6801229A
:103C5C0083F82420FB6893F82530DBB2012B55D177
:103C6C00FB68022283F82520FB680022DA63FB68DC
:103C7C001B681A68FB681B6822F001021A603B681B
:103C8C007A68B968F86800F0FBF8FB681B6B002BCE
:103C9C0008D0FB681B681A68FB681B6842F00E02B0
:103CAC001A600FE0FB681B681A68FB681B6822F03F
:103CBC0004021A60FB681B681A68FB681B6842F0F8
:103CCC000A021A60FB689B6C1B6803F48033002BA0
:103CDC0007D0FB689B6C1A68FB689B6C42F4807283
:103CEC001A60FB685B6D002B07D0FB685B6D1A6874
:103CFC00FB685B6D42F480721A60FB681B681A6883
:103D0C00FB681B6842F001021A6005E0FB680022A8
:103D1C0083F824200223FB75FB7D18461837BD461B
:103D2C0080BD80B584B000AF78607B681B6C1B686D
:103D3C00FB607B681B681B68BB607B685B6C03F07B
:103D4C001C0304229A40FB681340002B26D0BB684E
:103D5C0003F00403002B21D07B681B681B6803F065
:103D6C002003002B07D17B681B681A687B681B68D3
:103D7C0022F004021A607B685B6C03F01C027B6807
:103D8C001B6C042101FA02F25A607B681B6B002B3E
:103D9C0071D07B681B6B786898476CE07B685B6CB8
:103DAC0003F01C0302229A40FB681340002B2ED018
:103DBC00BB6803F00203002B29D07B681B681B68CF
:103DCC0003F02003002B0BD17B681B681A687B68FF
:103DDC001B6822F00A021A607B68012283F82520F6
:103DEC007B685B6C03F01C027B681B6C022101FA84
:103DFC0002F25A607B68002283F824207B68DB6A1D
:103E0C00002B38D07B68DB6A7868984733E07B6896
:103E1C005B6C03F01C0308229A40FB681340002BD8
:103E2C002AD0BB6803F00803002B25D07B681B68E5
:103E3C001A687B681B6822F00E021A607B685B6C48
:103E4C0003F01C027B681B6C012101FA02F25A6020
:103E5C007B680122DA637B68012283F825207B686A
:103E6C00002283F824207B685B6B002B04D07B68DA
:103E7C005B6B7868984700BF00BF1037BD4680BDAC
:103E8C0080B485B000AFF860B9607A603B60FB68C5
:103E9C00DB6CFA68126D5A60FB685B6D002B04D00A
:103EAC00FB689B6DFA68D26D5A60FB685B6C03F023
:103EBC001C02FB681B6C012101FA02F25A60FB68C0
:103ECC001B683A685A60FB689B68102B08D1FB682A
:103EDC001B687A689A60FB681B68BA68DA6007E04E
:103EEC00FB681B68BA689A60FB681B687A68DA60C2
:103EFC0000BF1437BD465DF8047B704780B485B0B5
:103F0C0000AF78607B685B6C9B089B0003F180437F
:103F1C0003F502337A6893647B681B68DBB2083B59
:103F2C000A4AA2FB03231B09FB607B68084ADA647C
:103F3C00FB6803F01F0301229A407B681A6500BFDF
:103F4C001437BD465DF8047B704700BFCDCCCCCC9C
:103F5C008008024080B485B000AF78607B685B68F5
:103F6C0003F03F03FB60FA680B4B13449B001A46AB
:103F7C007B685A657B68094A9A65FB68013B03F0CC
:103F8C00030301229A407B68DA6500BF1437BD46F3
:103F9C005DF8047B704700BF3F820010400902406F
:103FAC0080B483B000AF0023FB710B4B5B69002B1B
:103FBC000BDA094B094A9A60074B094A9A60064B7F
:103FCC005B69002B01DA0123FB71FB7918460C3776
:103FDC00BD465DF8047B70470040005823016745DF
:103FEC00AB89EFCD80B483B000AF0023FB71094BDC
:103FFC005B69084A43F000435361064B5B69002B35
:10400C0001DB0123FB71FB7918460C37BD465DF8CB
:10401C00047B70470040005880B584B000AF7860D6
:10402C00FEF7B8FAB86009E0FEF7B4FA0246BB68CE
:10403C00D31A7A689A4201D8032354E02C4B1B699B
:10404C0003F48033B3F5803FEED0294B1B69FB6042
:10405C00FB6803F00103002B02D0254B01221A61EF
:10406C00FB6803F40043002B07D0214B4FF40042B4
:10407C001A61FB6823F40043FB60FA684CF2FA33D4
:10408C001340FB60FB6803F04043002B07D0184B38
:10409C009A69FB6803F04043154913438B61FB6835
:1040AC0023F04043002B04D0114AFB6823F040431B
:1040BC001361FB68002B0ED00E4AFB685360012382
:1040CC0011E0FEF767FA0246BB68D31A7A689A4287
:1040DC0001D8032307E0064B1B6903F48023B3F5D7
:1040EC00802FEED0002318461037BD4680BD00BF90
:1040FC00004000587003002080B584B000AF786099
:10410C003960244B1B78012B01D102233DE0214B5C
:10411C0001221A701F4B00225A604FF47A70FFF77D
:10412C007BFF0346FB73FB7B002B2AD17B681B6850
:10413C00022B24D13B684FF0FF321A607B685B681E
:10414C00BB6012E0B86800F027F84FF47A70FFF704
:10415C0063FF0346FB73FB7B002B03D03B68BA6801
:10416C001A600AE0BB680133BB607B685A687B68E5
:10417C009B681344BA689A42E4D300F06FF800F0DD
:10418C0025F8044B00221A70FB7B18461037BD46ED
:10419C0080BD00BF7003002080B483B000AF786096
:1041AC00094B5B6923F4FF627B68DB001343064A0F
:1041BC0043F4803343F00203536100BF0C37BD4618
:1041CC005DF8047B704700BF0040005880B400AF1E
:1041DC00214B1B6803F40073B3F5007F17D11E4B02
:1041EC001B681D4A23F4007313601B4B1B681A4A8F
:1041FC0043F400631360184B1B68174A23F40063E5
:10420C001360154B1B68144A43F400731360124B74
:10421C001B6803F48063B3F5806F17D10E4B1B68DA
:10422C000D4A23F4806313600B4B1B680A4A43F45A
:10423C0080531360084B1B68074A23F480531360A8
:10424C00054B1B68044A43F48063136000BFBD46F2
:10425C005DF8047B704700BF0040005880B400AF8D
:10426C00064B5B69054A23F4FF6323F00203536199
:10427C0000BFBD465DF8047B704700BF004000588E
:10428C0080B487B000AF7860396000237B6146E171
:10429C003B681A6801217B6901FA03F31340FB6048
:1042AC00FB68002B00F038813B685B6803F003036C
:1042BC00012B05D03B685B6803F00303022B30D164
:1042CC007B689B683B617B695B00032202FA03F30A
:1042DC00DB433A6913403B613B68DA687B695B00FE
:1042EC0002FA03F33A6913433B617B683A699A60BB
:1042FC007B685B683B6101227B6902FA03F3DB4359
:10430C003A6913403B613B685B681B0903F001028F
:10431C007B6902FA03F33A6913433B617B683A69A0
:10432C005A603B685B6803F00303032B17D07B6870
:10433C00DB683B617B695B00032202FA03F3DB431E
:10434C003A6913403B613B689A687B695B0002FAEF
:10435C0003F33A6913433B617B683A69DA603B6863
:10436C005B6803F00303022B23D17B69DA087B68BB
:10437C00083253F822303B617B6903F007039B0042
:10438C000F2202FA03F3DB433A6913403B613B68AB
:10439C001A697B6903F007039B0002FA03F33A697D
:1043AC0013433B617B69DA087B680832396943F84F
:1043BC0022107B681B683B617B695B00032202FA5D
:1043CC0003F3DB433A6913403B613B685B6803F0E2
:1043DC0003027B695B0002FA03F33A6913433B6106
:1043EC007B683A691A603B685B6803F44033002BC6
:1043FC0000F09280514A7B699B08023352F82330BB
:10440C003B617B6903F003039B000F2202FA03F369
:10441C00DB433A6913403B617B68B3F1904F13D097
:10442C007B68474A93420DD07B68464A934207D03B
:10443C007B68454A934201D1042306E0072304E03C
:10444C00022302E0012300E000237A6902F0030258
:10445C00920093403A6913433B6138497B699B084E
:10446C0002333A6941F82320384B1B683B61FB68E7
:10447C00DB433A6913403B613B685B6803F4801390
:10448C00002B03D03A69FB6813433B612F4A3B690D
:10449C0013602E4B5B683B61FB68DB433A6913404E
:1044AC003B613B685B6803F40013002B03D03A6953
:1044BC00FB6813433B61254A3B695360234BD3F89C
:1044CC0080303B61FB68DB433A6913403B613B68DE
:1044DC005B6803F48033002B03D03A69FB68134309
:1044EC003B611A4A3B69C2F88030184BD3F88430D0
:1044FC003B61FB68DB433A6913403B613B685B689B
:10450C0003F40033002B03D03A69FB6813433B617F
:10451C000E4A3B69C2F884307B6901337B613B688E
:10452C001A687B6922FA03F3002B7FF4B1AE00BF4B
:10453C0000BF1C37BD465DF8047B7047000001408E
:10454C00000400480008004800100048000800580B
:10455C0080B582B000AF0346FB80084BDA68FB885D
:10456C001340002B06D0054AFB88D360FB88184605
:10457C00FDF710FB00BF0837BD4680BD0008005892
:10458C0080B582B000AF0A4BDB687B60084B1A68C1
:10459C007B68DB43064913400B60054A7B6853601C
:1045AC00786800F007F800BF0837BD4680BD00BF33
:1045BC000015005880B483B000AF786000BF0C3792
:1045CC00BD465DF8047B704780B582B000AF786063
:1045DC007B68002B01D101238DE07B6893F841307F
:1045EC00DBB2002B06D17B68002283F84020786870
:1045FC00FDF7C0FD7B68242283F841207B681B6893
:10460C001A687B681B6822F001021A607B685A6882
:10461C007B681B6822F070621A617B681B689A6861
:10462C007B681B6822F400429A607B68DB68012B74
:10463C0007D17B689A687B681B6842F400429A60D9
:10464C0006E07B689A687B681B6842F404429A60B7
:10465C007B68DB68022B08D17B681B685A687B6817
:10466C001B6842F400625A6007E07B681B685A685A
:10467C007B681B6822F400625A607B681B685B686D
:10468C007A68126843F0007343F4004353607B680C
:10469C001B68DA687B681B6822F40042DA607B686E
:1046AC001A697B685B6942EA03017B689B691A02A1
:1046BC007B681B680A43DA607B68D9697B681A6A75
:1046CC007B681B680A431A607B681B681A687B68E6
:1046DC001B6842F001021A607B6800225A647B68F6
:1046EC00202283F841207B6800221A637B68002219
:1046FC0083F84220002318460837BD4680BD0000D1
:10470C0080B588B002AFF8607A601A460B467B81A0
:10471C0013463B81FB6893F84130DBB2202B40F011
:10472C00FD80FB6893F84030012B01D10223F6E0A9
:10473C00FB68012283F84020FDF72CFF38613B69B0
:10474C000093192301224FF40041F86800F00AFA93
:10475C000346002B01D00123E1E0FB68212283F802
:10476C004120FB68102283F84220FB6800225A6427
:10477C00FB687A685A62FB683A895A85FB680022A2
:10478C005A63FB685B8D9BB2FF2B06D9FB68FF223B
:10479C001A854FF080737B6107E0FB685B8D9AB2E2
:1047AC00FB681A854FF000737B61FB681B8D002B37
:1047BC0024D0FB685B6A1A78FB681B689A62FB68FA
:1047CC005B6A5A1CFB685A62FB685B8D9BB2013BAF
:1047DC009AB2FB685A85FB681B8D013B9AB2FB6849
:1047EC001A85FB681B8DDBB20133DAB279894E4B2B
:1047FC0000937B69F86800F0F1FB66E0FB681B8DA9
:10480C00DAB27989484B00937B69F86800F0E6FBD3
:10481C005BE03A69396AF86800F0F3F90346002B5B
:10482C0001D001237BE0FB685B6A1A78FB681B688C
:10483C009A62FB685B6A5A1CFB685A62FB685B8D68
:10484C009BB2013B9AB2FB685A85FB681B8D013BFE
:10485C009AB2FB681A85FB685B8D9BB2002B34D037
:10486C00FB681B8D002B30D13B6900933B6A002207
:10487C008021F86800F076F90346002B01D0012363
:10488C004DE0FB685B8D9BB2FF2B0ED9FB68FF22C2
:10489C001A85FB681B8DDAB27989002300934FF0DF
:1048AC008073F86800F09AFB0FE0FB685B8D9AB29E
:1048BC00FB681A85FB681B8DDAB27989002300939B
:1048CC004FF00073F86800F089FBFB685B8D9BB2BE
:1048DC00002B9ED13A69396AF86800F0D9F9034681
:1048EC00002B01D001231AE0FB681B682022DA613F
:1048FC00FB681B685968FB681A680C4B0B405360CB
:10490C00FB68202283F84120FB68002283F84220B8
:10491C00FB68002283F84020002300E002231846A5
:10492C001837BD4680BD00BF0020008000E800FEA7
:10493C0080B588B002AFF8607A601A460B467B816E
:10494C0013463B81FB6893F84130DBB2202B40F0DF
:10495C00DB80FB6893F84030012B01D10223D4E0BB
:10496C00FB68012283F84020FDF714FE78617B6917
:10497C000093192301224FF40041F86800F0F2F87B
:10498C000346002B01D00123BFE0FB68222283F8F1
:10499C004120FB68102283F84220FB6800225A64F5
:1049AC00FB687A685A62FB683A895A85FB68002270
:1049BC005A63FB685B8D9BB2FF2B0ED9FB68FF2201
:1049CC001A85FB681B8DDAB27989524B00934FF034
:1049DC008073F86800F002FB6DE0FB685B8D9AB2A7
:1049EC00FB681A85FB681B8DDAB27989494B0093F9
:1049FC004FF00073F86800F0F1FA5CE07A69396AFC
:104A0C00F86800F089F90346002B01D001237CE003
:104A1C00FB681B685A6AFB685B6AD2B21A70FB6847
:104A2C005B6A5A1CFB685A62FB681B8D013B9AB28D
:104A3C00FB681A85FB685B8D9BB2013B9AB2FB68E5
:104A4C005A85FB685B8D9BB2002B34D0FB681B8DA9
:104A5C00002B30D17B6900933B6A00228021F868DF
:104A6C0000F080F80346002B01D001234DE0FB68D9
:104A7C005B8D9BB2FF2B0ED9FB68FF221A85FB685E
:104A8C001B8DDAB27989002300934FF08073F8689C
:104A9C0000F0A4FA0FE0FB685B8D9AB2FB681A85F4
:104AAC00FB681B8DDAB27989002300934FF00073F9
:104ABC00F86800F093FAFB685B8D9BB2002B9DD1DC
:104ACC007A69396AF86800F0E3F80346002B01D0E4
:104ADC0001231AE0FB681B682022DA61FB681B6863
:104AEC005968FB681A680C4B0B405360FB6820221A
:104AFC0083F84120FB68002283F84220FB680022E7
:104B0C0083F84020002300E0022318461837BD46E6
:104B1C0080BD00BF0024008000E800FE80B483B09C
:104B2C0000AF78607B681B689B6903F00203022B63
:104B3C0003D17B681B6800229A627B681B689B69A7
:104B4C0003F00103012B07D07B681B689A697B6813
:104B5C001B6842F001029A6100BF0C37BD465DF83C
:104B6C00047B704780B584B000AFF860B9603B60DF
:104B7C001346FB7131E03B68B3F1FF3F2DD0FDF7DD
:104B8C0009FD0246BB69D31A3A689A4202D33B68C4
:104B9C00002B22D1FB681B689A69BB681340BA686A
:104BAC009A420CBF01230023DBB21A46FB799A42CE
:104BBC0013D1FB685B6C43F02002FB685A64FB6802
:104BCC00202283F84120FB68002283F84220FB68F6
:104BDC00002283F8402001230FE0FB681B689A69D0
:104BEC00BB681340BA689A420CBF01230023DBB2A6
:104BFC001A46FB799A42BED0002318461037BD46A0
:104C0C0080BD80B584B000AFF860B9607A6033E0E5
:104C1C007A68B968F86800F001F90346002B01D0F6
:104C2C00012331E0BB68B3F1FF3F25D0FDF7B2FCA7
:104C3C0002467B68D31ABA689A4202D3BB68002B2F
:104C4C001AD1FB681B689B6903F00203022B13D07B
:104C5C00FB685B6C43F02002FB685A64FB68202203
:104C6C0083F84120FB68002283F84220FB68002275
:104C7C0083F84020012307E0FB681B689B6903F065
:104C8C000203022BC4D1002318461037BD4680BD49
:104C9C0080B584B000AFF860B9607A602FE07A68B4
:104CAC00B968F86800F0BAF80346002B01D001236C
:104CBC002DE0FDF76FFC02467B68D31ABA689A4266
:104CCC0002D3BB68002B1AD1FB681B689B6903F0ED
:104CDC002003202B13D0FB685B6C43F02002FB6895
:104CEC005A64FB68202283F84120FB68002283F879
:104CFC004220FB68002283F84020012307E0FB6878
:104D0C001B689B6903F02003202BC8D10023184695
:104D1C001037BD4680BD000080B584B000AFF86090
:104D2C00B9607A606BE07A68B968F86800F076F878
:104D3C000346002B01D0012369E0FB681B689B69CB
:104D4C0003F02003202B38D1FB681B689B6903F010
:104D5C000403042B05D1FB681B8D002B01D0002311
:104D6C0055E0FB681B689B6903F01003102B07D1FF
:104D7C00FB681B681022DA61FB6804225A6402E0AB
:104D8C00FB6800225A64FB681B682022DA61FB680E
:104D9C001B685968FB681A681F4B0B405360FB6813
:104DAC00202283F84120FB68002283F84220FB6814
:104DBC00002283F84020012329E0FDF7EBFB02469B
:104DCC007B68D31ABA689A4202D3BB68002B16D1FF
:104DDC00FB681B689B6903F00403042B0FD0FB6872
:104DEC005B6C43F02002FB685A64FB68202283F85A
:104DFC004120FB68002283F84020012307E0FB6878
:104E0C001B689B6903F00403042B8CD10023184608
:104E1C001037BD4680BD00BF00E800FE80B58AB0EB
:104E2C0000AFF860B9607A60002387F82730FB6820
:104E3C001B689B69BB6100233B627B68FB61BB69A0
:104E4C0003F01003002B68D0FB681B681022DA619A
:104E5C0049E0BB68B3F1FF3F45D0FDF79BFB024631
:104E6C00FB69D31ABA689A4202D3BB68002B3AD1B9
:104E7C00FB681B685B6803F480437B61FB6893F8F9
:104E8C004230FB74FB681B689B6903F40043B3F569
:104E9C00004F21D17B69B3F5804F1DD0FB7C202BBB
:104EAC001AD0FB681B685A68FB681B6842F4804286
:104EBC005A60FDF76FFBF8610EE0FDF76BFB0246E5
:104ECC00FB69D31A192B07D93B6A43F020033B62C9
:104EDC00012387F8273006E0FB681B689B6903F009
:104EEC002003202BE9D1FB681B689B6903F020038E
:104EFC00202B03D097F82730002BAAD097F8273017
:104F0C00002B03D1FB681B682022DA613B6A43F05B
:104F1C0004033B62012387F82730FB681B689B69FD
:104F2C00BB61BB6903F48073002B0BD03B6A43F06D
:104F3C0001033B62FB681B684FF48072DA6101234A
:104F4C0087F82730BB6903F48063002B0BD03B6AD6
:104F5C0043F008033B62FB681B684FF48062DA6124
:104F6C00012387F82730BB6903F40073002B0BD0A7
:104F7C003B6A43F002033B62FB681B684FF4007210
:104F8C00DA61012387F8273097F82730002B1CD0E3
:104F9C00F868FFF7C3FDFB681B685968FB681A6863
:104FAC000D4B0B405360FB685A6C3B6A1A43FB6811
:104FBC005A64FB68202283F84120FB68002283F8A6
:104FCC004220FB68002283F8402097F827301846CF
:104FDC002837BD4680BD00BF00E800FE80B487B016
:104FEC0000AFF8607B600B467B8113467B727B893C
:104FFC00C3F309027B7A1B0403F47F031A437B6817
:10500C001A433B6A134323F000437B61FB681B6824
:10501C005A683B6A5B0D03F48061084B0B43DB431E
:10502C0002EA0301FB681B687A690A435A6000BFF5
:10503C001C37BD465DF8047B704700BFFF63FF0360
:10504C0080B483B000AF786039607B6893F84130EE
:10505C00DBB2202B38D17B6893F84030012B01D187
:10506C00022332E07B68012283F840207B682422F3
:10507C0083F841207B681B681A687B681B6822F0E8
:10508C0001021A607B681B681A687B681B6822F433
:10509C0080521A607B681B6819687B681B683A68C9
:1050AC000A431A607B681B681A687B681B6842F0AD
:1050BC0001021A607B68202283F841207B68002261
:1050CC0083F84020002300E0022318460C37BD462D
:1050DC005DF8047B704780B485B000AF78603960B0
:1050EC007B6893F84130DBB2202B39D17B6893F885
:1050FC004030012B01D1022333E07B68012283F87D
:10510C0040207B68242283F841207B681B681A6846
:10511C007B681B6822F001021A607B681B681B68A5
:10512C00FB60FB6823F47063FB603B681B02FA684E
:10513C001343FB607B681B68FA681A607B681B680A
:10514C001A687B681B6842F001021A607B68202297
:10515C0083F841207B68002283F84020002300E084
:10516C00022318461437BD465DF8047B70470000D7
:10517C0080B584B000AF78600023FB737B68002B94
:10518C001ED0134BBB607B6893F83830DBB2002B1E
:10519C0002D17868FDF736F8B86800F05BF8BB68A8
:1051AC001B6843F00112BB681A60786800F02CF899
:1051BC007B6800225A637B68012283F8382001E067
:1051CC000123FB73FB7B18461037BD4680BD00BF27
:1051DC00000C005880B485B000AFF860B96013467D
:1051EC00FB7100BF1437BD465DF8047B704780B47B
:1051FC0085B000AFF860B9601346FB7100BF14377F
:10520C00BD465DF8047B704780B485B000AF786014
:10521C000023FB600FE07A68FB689B0013440B4A89
:10522C005A607A68FB6806339B001344084A5A603C
:10523C00FB680133FB60FB68052BECD900BF00BF9A
:10524C001437BD465DF8047B704700BFE151000880
:10525C00FB51000880B483B000AF78607B680022FB
:10526C001A607B684FF03F125A607B683F229A604D
:10527C0000BF0C37BD465DF8047B704780B400AFAF
:10528C00054B1B68044A43F48073136000BFBD4692
:10529C005DF8047B704700BF0004005880B582B0F5
:1052AC0000AF78600B46FB707B68B3F5804F04D180
:1052BC00FB78184600F04AF803E0FB78184600F03B
:1052CC001BF800BF0837BD4680BD000080B400AF9E
:1052DC00054B9B68044A43F40073936000BFBD46C2
:1052EC005DF8047B704700BF0004005880B500AF28
:1052FC00FFF7ECFF00BF80BD80B483B000AF034666
:10530C00FB71104B1B680F4A23F0070313600E4B05
:10531C001B690D4A43F004031361FB79012B01D186
:10532C0030BF02E040BF20BF20BF074B1B69064ABD
:10533C0023F00403136100BF0C37BD465DF8047BFA
:10534C00704700BF0004005800ED00E080B483B04B
:10535C0000AF0346FB71114B1B6823F007030F4A88
:10536C0043F0010313600E4B1B690D4A43F0040319
:10537C001361FB79012B01D130BF02E040BF20BF8C
:10538C0020BF074B1B69064A23F00403136100BFBF
:10539C000C37BD465DF8047B704700BF0004005815
:1053AC0000ED00E080B400AF4FF0B0431B6803F495
:1053BC008013B3F5801F01D1012300E000231846B0
:1053CC00BD465DF8047B704780B400AF4FF0B0432E
:1053DC001B684FF0B04243F48033136000BFBD46EE
:1053EC005DF8047B704780B400AF4FF0B0431B688E
:1053FC004FF0B04223F48033136000BFBD465DF81C
:10540C00047B704780B400AF4FF0B0431B6803F4CB
:10541C000033B3F5003F01D1012300E0002318460F
:10542C00BD465DF8047B704780B400AF4FF0B043CD
:10543C001B684FF0B04243F48073136000BFBD464D
:10544C005DF8047B704780B400AF4FF0B0431B682D
:10545C004FF0B04223F48073136000BFBD465DF87B
:10546C00047B704780B400AF4FF0B0431B6803F46B
:10547C008063B3F5806F01D1012300E0002318464F
:10548C00BD465DF8047B704780B483B000AF786094
:10549C004FF0B0435B6823F0FE427B681B064FF075
:1054AC00B04113434B6000BF0C37BD465DF8047B25
:1054BC00704780B400AF4FF0B043D3F890304FF04A
:1054CC00B04243F00103C2F8903000BFBD465DF816
:1054DC00047B704780B400AF4FF0B043D3F89030EA
:1054EC004FF0B04223F00103C2F8903000BFBD462C
:1054FC005DF8047B704780B400AF4FF0B043D3F835
:10550C0090304FF0B04243F00403C2F8903000BF2B
:10551C00BD465DF8047B704780B400AF4FF0B043DC
:10552C00D3F890304FF0B04223F00403C2F890301F
:10553C0000BFBD465DF8047B704780B400AF4FF0F0
:10554C00B043D3F8903003F00203022B01D10123B6
:10555C0000E000231846BD465DF8047B704780B41C
:10556C0000AF4FF0B043D3F894304FF0B04243F05B
:10557C000103C2F8943000BFBD465DF8047B704750
:10558C0080B400AF4FF0B043D3F894304FF0B0423A
:10559C0023F00103C2F8943000BFBD465DF8047BD4
:1055AC00704780B400AF4FF0B043D3F8943003F0A1
:1055BC000203022B01D1012300E000231846BD4653
:1055CC005DF8047B704780B400AF4FF0B043D3F864
:1055DC0094304FF0B04243F00403C2F8943000BF53
:1055EC00BD465DF8047B704780B400AF4FF0B0430C
:1055FC00D3F894304FF0B04223F00403C2F8943047
:10560C0000BFBD465DF8047B704780B400AF4FF01F
:10561C00B043D3F8943003F00803082B01D10123D5
:10562C0000E000231846BD465DF8047B704780B44B
:10563C0083B000AF78604FF0B043D3F8943023F4CC
:10564C0070627B681B024FF0B0411343C1F8943079
:10565C0000BF0C37BD465DF8047B704780B400AFCB
:10566C004FF0B0431B684FF0B04243F0010313609E
:10567C0000BFBD465DF8047B704780B400AF4FF0AF
:10568C00B0431B684FF0B04223F00103136000BF1E
:10569C00BD465DF8047B704780B400AF4FF0B0435B
:1056AC001B6803F00203022B01D1012300E000234D
:1056BC001846BD465DF8047B704780B483B000AFDC
:1056CC0078604FF0B0431B6823F0F0024FF0B0410C
:1056DC007B6813430B6000BF0C37BD465DF8047B41
:1056EC00704780B483B000AF4FF0B0431B6803F039
:1056FC00F0037B607B68B02B01D9B0237B607B68A7
:10570C0018460C37BD465DF8047B704780B483B0F7
:10571C0000AF78604FF0B0435B6823F47F427B6846
:10572C001B024FF0B04113434B6000BF0C37BD461A
:10573C005DF8047B704780B483B000AF78604FF0A5
:10574C00B0439B6823F003024FF0B0417B681343D6
:10575C008B6000BF0C37BD465DF8047B704780B48E
:10576C0000AF4FF0B0439B6803F00C031846BD46E6
:10577C005DF8047B704780B483B000AF78604FF065
:10578C00B0439B6823F0F0024FF0B0417B681343A9
:10579C008B6000BF0C37BD465DF8047B704780B44E
:1057AC0083B000AF78604FF0B043D3F8083123F0EA
:1057BC00F0024FF0B0417B681343C1F8083100BFD1
:1057CC000C37BD465DF8047B704780B483B000AFE6
:1057DC0078604FF0B043D3F8083123F00F027B68A8
:1057EC001B094FF0B0411343C1F8083100BF0C370F
:1057FC00BD465DF8047B704780B483B000AF786021
:10580C004FF0B0439B6823F4E0624FF0B0417B68EB
:10581C0013438B6000BF0C37BD465DF8047B7047AB
:10582C0080B483B000AF78604FF0B0439B6823F432
:10583C0060524FF0B0417B6813438B6000BF0C3754
:10584C00BD465DF8047B704780B400AF4FF0B043A9
:10585C009B6803F0F0031846BD465DF8047B704767
:10586C0080B400AF4FF0B043D3F808311B0103F004
:10587C00F0031846BD465DF8047B704780B400AF5A
:10588C004FF0B0431B684FF0B04243F0807313608D
:10589C0000BFBD465DF8047B704780B400AF4FF08D
:1058AC00B0431B684FF0B04223F08073136000BF0D
:1058BC00BD465DF8047B704780B400AF4FF0B04339
:1058CC001B6803F00073B3F1007F01D1012300E0EA
:1058DC0000231846BD465DF8047B704780B400AFCA
:1058EC004FF0B043DB681B0A03F07F031846BD463C
:1058FC005DF8047B704780B400AF4FF0B043DB68B9
:10590C0003F060431846BD465DF8047B704780B4D5
:10591C0000AF4FF0B043DB6803F070031846BD4690
:10592C005DF8047B704780B400AF4FF0B043DB6888
:10593C0003F003031846BD465DF8047B704780B442
:10594C0000AF4FF0B0439B6803F48033B3F5803F56
:10595C0001D1012300E000231846BD465DF8047B0D
:10596C00704780B400AF4FF0B043D3F8083103F464
:10597C000033B3F5003F01D1012300E000231846AA
:10598C00BD465DF8047B704780B400AF4FF0B04368
:10599C00D3F8083103F48033B3F5803F01D10123F0
:1059AC0000E000231846BD465DF8047B704780B4C8
:1059BC0000AF4FF0B0439B6803F40033B3F5003FE6
:1059CC0001D1012300E000231846BD465DF8047B9D
:1059DC00704780B400AF4FF0B0439B6803F4802352
:1059EC00B3F5802F01D1012300E000231846BD46FA
:1059FC005DF8047B7047000090B58DB000AF786007
:105A0C007B68002B01D1012324E37B681B6803F026
:105A1C002003002B00F08D80FFF7A1FEF862FFF74A
:105A2C0082FFB862FB6A002B05D0FB6A0C2B47D1B6
:105A3C00BB6A012B44D17B68DB69002B01D10123AC
:105A4C0008E37B685C6AFFF74CFE03469C4214D962
:105A5C007B685B6A184600F0C5FC0346002B01D03E
:105A6C000123F7E27B685B6A1846FFF726FE7B682A
:105A7C001B6A1846FFF74AFE13E07B685B6A184600
:105A8C00FFF71BFE7B681B6A1846FFF73FFE7B681F
:105A9C005B6A184600F0A6FC0346002B01D00123DC
:105AAC00D8E200F08BFC0346A44A1360A44B1B689D
:105ABC001846FCF721FD0346002B39D00123C9E21F
:105ACC007B68DB69002B1ED0FFF7C8FDFCF762FD7D
